{
  "_format": "hh-sol-artifact-1",
  "contractName": "VWBLERC721ERC2981",
  "sourceName": "contracts/access-condition/ERC721/VWBLERC721ERC2981.sol",
  "abi": [
    {
      "inputs": [
        {
          "internalType": "uint256",
          "name": "tokenId",
          "type": "uint256"
        },
        {
          "internalType": "address",
          "name": "revoker",
          "type": "address"
        }
      ],
      "name": "revokeViewPermission",
      "outputs": [
        {
          "internalType": "uint256",
          "name": "",
          "type": "uint256"
        }
      ],
      "stateMutability": "nonpayable",
      "type": "function"
    },
    {
      "inputs": [
        {
          "internalType": "string",
          "name": "_baseURI",
          "type": "string"
        },
        {
          "internalType": "address",
          "name": "_gatewayProxy",
          "type": "address"
        },
        {
          "internalType": "address",
          "name": "_accessCheckerContract",
          "type": "address"
        },
        {
          "internalType": "string",
          "name": "_signMessage",
          "type": "string"
        }
      ],
      "stateMutability": "nonpayable",
      "type": "constructor"
    },
    {
      "anonymous": false,
      "inputs": [
        {
          "indexed": true,
          "internalType": "address",
          "name": "owner",
          "type": "address"
        },
        {
          "indexed": true,
          "internalType": "address",
          "name": "approved",
          "type": "address"
        },
        {
          "indexed": true,
          "internalType": "uint256",
          "name": "tokenId",
          "type": "uint256"
        }
      ],
      "name": "Approval",
      "type": "event"
    },
    {
      "anonymous": false,
      "inputs": [
        {
          "indexed": true,
          "internalType": "address",
          "name": "owner",
          "type": "address"
        },
        {
          "indexed": true,
          "internalType": "address",
          "name": "operator",
          "type": "address"
        },
        {
          "indexed": false,
          "internalType": "bool",
          "name": "approved",
          "type": "bool"
        }
      ],
      "name": "ApprovalForAll",
      "type": "event"
    },
    {
      "anonymous": false,
      "inputs": [
        {
          "indexed": true,
          "internalType": "address",
          "name": "previousOwner",
          "type": "address"
        },
        {
          "indexed": true,
          "internalType": "address",
          "name": "newOwner",
          "type": "address"
        }
      ],
      "name": "OwnershipTransferred",
      "type": "event"
    },
    {
      "anonymous": false,
      "inputs": [
        {
          "indexed": true,
          "internalType": "address",
          "name": "from",
          "type": "address"
        },
        {
          "indexed": true,
          "internalType": "address",
          "name": "to",
          "type": "address"
        },
        {
          "indexed": true,
          "internalType": "uint256",
          "name": "tokenId",
          "type": "uint256"
        }
      ],
      "name": "Transfer",
      "type": "event"
    },
    {
      "anonymous": false,
      "inputs": [
        {
          "indexed": false,
          "internalType": "address",
          "name": "oldAccessCheckerContract",
          "type": "address"
        },
        {
          "indexed": false,
          "internalType": "address",
          "name": "newAccessCheckerContract",
          "type": "address"
        }
      ],
      "name": "accessCheckerContractChanged",
      "type": "event"
    },
    {
      "inputs": [],
      "name": "accessCheckerContract",
      "outputs": [
        {
          "internalType": "address",
          "name": "",
          "type": "address"
        }
      ],
      "stateMutability": "view",
      "type": "function"
    },
    {
      "inputs": [
        {
          "internalType": "address",
          "name": "to",
          "type": "address"
        },
        {
          "internalType": "uint256",
          "name": "tokenId",
          "type": "uint256"
        }
      ],
      "name": "approve",
      "outputs": [],
      "stateMutability": "nonpayable",
      "type": "function"
    },
    {
      "inputs": [
        {
          "internalType": "address",
          "name": "owner",
          "type": "address"
        }
      ],
      "name": "balanceOf",
      "outputs": [
        {
          "internalType": "uint256",
          "name": "",
          "type": "uint256"
        }
      ],
      "stateMutability": "view",
      "type": "function"
    },
    {
      "inputs": [],
      "name": "baseURI",
      "outputs": [
        {
          "internalType": "string",
          "name": "",
          "type": "string"
        }
      ],
      "stateMutability": "view",
      "type": "function"
    },
    {
      "inputs": [],
      "name": "counter",
      "outputs": [
        {
          "internalType": "uint256",
          "name": "",
          "type": "uint256"
        }
      ],
      "stateMutability": "view",
      "type": "function"
    },
    {
      "inputs": [],
      "name": "gatewayProxy",
      "outputs": [
        {
          "internalType": "address",
          "name": "",
          "type": "address"
        }
      ],
      "stateMutability": "view",
      "type": "function"
    },
    {
      "inputs": [],
      "name": "getAllowOrigins",
      "outputs": [
        {
          "internalType": "string",
          "name": "",
          "type": "string"
        }
      ],
      "stateMutability": "view",
      "type": "function"
    },
    {
      "inputs": [
        {
          "internalType": "uint256",
          "name": "tokenId",
          "type": "uint256"
        }
      ],
      "name": "getApproved",
      "outputs": [
        {
          "internalType": "address",
          "name": "",
          "type": "address"
        }
      ],
      "stateMutability": "view",
      "type": "function"
    },
    {
      "inputs": [],
      "name": "getFee",
      "outputs": [
        {
          "internalType": "uint256",
          "name": "",
          "type": "uint256"
        }
      ],
      "stateMutability": "view",
      "type": "function"
    },
    {
      "inputs": [],
      "name": "getGatewayAddress",
      "outputs": [
        {
          "internalType": "address",
          "name": "",
          "type": "address"
        }
      ],
      "stateMutability": "view",
      "type": "function"
    },
    {
      "inputs": [
        {
          "internalType": "uint256",
          "name": "tokenId",
          "type": "uint256"
        }
      ],
      "name": "getMinter",
      "outputs": [
        {
          "internalType": "address",
          "name": "",
          "type": "address"
        }
      ],
      "stateMutability": "view",
      "type": "function"
    },
    {
      "inputs": [],
      "name": "getSignMessage",
      "outputs": [
        {
          "internalType": "string",
          "name": "",
          "type": "string"
        }
      ],
      "stateMutability": "view",
      "type": "function"
    },
    {
      "inputs": [
        {
          "internalType": "address",
          "name": "minter",
          "type": "address"
        }
      ],
      "name": "getTokenByMinter",
      "outputs": [
        {
          "internalType": "uint256[]",
          "name": "",
          "type": "uint256[]"
        }
      ],
      "stateMutability": "view",
      "type": "function"
    },
    {
      "inputs": [
        {
          "internalType": "address",
          "name": "owner",
          "type": "address"
        },
        {
          "internalType": "address",
          "name": "operator",
          "type": "address"
        }
      ],
      "name": "isApprovedForAll",
      "outputs": [
        {
          "internalType": "bool",
          "name": "",
          "type": "bool"
        }
      ],
      "stateMutability": "view",
      "type": "function"
    },
    {
      "inputs": [
        {
          "internalType": "string",
          "name": "_getKeyURl",
          "type": "string"
        },
        {
          "internalType": "uint96",
          "name": "_feeNumerator",
          "type": "uint96"
        },
        {
          "internalType": "bytes32",
          "name": "_documentId",
          "type": "bytes32"
        }
      ],
      "name": "mint",
      "outputs": [
        {
          "internalType": "uint256",
          "name": "",
          "type": "uint256"
        }
      ],
      "stateMutability": "payable",
      "type": "function"
    },
    {
      "inputs": [],
      "name": "name",
      "outputs": [
        {
          "internalType": "string",
          "name": "",
          "type": "string"
        }
      ],
      "stateMutability": "view",
      "type": "function"
    },
    {
      "inputs": [],
      "name": "owner",
      "outputs": [
        {
          "internalType": "address",
          "name": "",
          "type": "address"
        }
      ],
      "stateMutability": "view",
      "type": "function"
    },
    {
      "inputs": [
        {
          "internalType": "uint256",
          "name": "tokenId",
          "type": "uint256"
        }
      ],
      "name": "ownerOf",
      "outputs": [
        {
          "internalType": "address",
          "name": "",
          "type": "address"
        }
      ],
      "stateMutability": "view",
      "type": "function"
    },
    {
      "inputs": [],
      "name": "renounceOwnership",
      "outputs": [],
      "stateMutability": "nonpayable",
      "type": "function"
    },
    {
      "inputs": [
        {
          "internalType": "uint256",
          "name": "_tokenId",
          "type": "uint256"
        },
        {
          "internalType": "uint256",
          "name": "_salePrice",
          "type": "uint256"
        }
      ],
      "name": "royaltyInfo",
      "outputs": [
        {
          "internalType": "address",
          "name": "",
          "type": "address"
        },
        {
          "internalType": "uint256",
          "name": "",
          "type": "uint256"
        }
      ],
      "stateMutability": "view",
      "type": "function"
    },
    {
      "inputs": [
        {
          "internalType": "address",
          "name": "from",
          "type": "address"
        },
        {
          "internalType": "address",
          "name": "to",
          "type": "address"
        },
        {
          "internalType": "uint256",
          "name": "tokenId",
          "type": "uint256"
        }
      ],
      "name": "safeTransferFrom",
      "outputs": [],
      "stateMutability": "nonpayable",
      "type": "function"
    },
    {
      "inputs": [
        {
          "internalType": "address",
          "name": "from",
          "type": "address"
        },
        {
          "internalType": "address",
          "name": "to",
          "type": "address"
        },
        {
          "internalType": "uint256",
          "name": "tokenId",
          "type": "uint256"
        },
        {
          "internalType": "bytes",
          "name": "data",
          "type": "bytes"
        }
      ],
      "name": "safeTransferFrom",
      "outputs": [],
      "stateMutability": "nonpayable",
      "type": "function"
    },
    {
      "inputs": [
        {
          "internalType": "address",
          "name": "newAccessCheckerContract",
          "type": "address"
        }
      ],
      "name": "setAccessCheckerContract",
      "outputs": [],
      "stateMutability": "nonpayable",
      "type": "function"
    },
    {
      "inputs": [
        {
          "internalType": "string",
          "name": "_origins",
          "type": "string"
        }
      ],
      "name": "setAllowOrigins",
      "outputs": [],
      "stateMutability": "nonpayable",
      "type": "function"
    },
    {
      "inputs": [
        {
          "internalType": "address",
          "name": "operator",
          "type": "address"
        },
        {
          "internalType": "bool",
          "name": "approved",
          "type": "bool"
        }
      ],
      "name": "setApprovalForAll",
      "outputs": [],
      "stateMutability": "nonpayable",
      "type": "function"
    },
    {
      "inputs": [
        {
          "internalType": "string",
          "name": "_baseURI",
          "type": "string"
        }
      ],
      "name": "setBaseURI",
      "outputs": [],
      "stateMutability": "nonpayable",
      "type": "function"
    },
    {
      "inputs": [
        {
          "internalType": "string",
          "name": "_signMessage",
          "type": "string"
        }
      ],
      "name": "setSignMessage",
      "outputs": [],
      "stateMutability": "nonpayable",
      "type": "function"
    },
    {
      "inputs": [
        {
          "internalType": "bytes4",
          "name": "interfaceId",
          "type": "bytes4"
        }
      ],
      "name": "supportsInterface",
      "outputs": [
        {
          "internalType": "bool",
          "name": "",
          "type": "bool"
        }
      ],
      "stateMutability": "view",
      "type": "function"
    },
    {
      "inputs": [],
      "name": "symbol",
      "outputs": [
        {
          "internalType": "string",
          "name": "",
          "type": "string"
        }
      ],
      "stateMutability": "view",
      "type": "function"
    },
    {
      "inputs": [
        {
          "internalType": "uint256",
          "name": "index",
          "type": "uint256"
        }
      ],
      "name": "tokenByIndex",
      "outputs": [
        {
          "internalType": "uint256",
          "name": "",
          "type": "uint256"
        }
      ],
      "stateMutability": "view",
      "type": "function"
    },
    {
      "inputs": [
        {
          "internalType": "uint256",
          "name": "",
          "type": "uint256"
        }
      ],
      "name": "tokenIdToTokenInfo",
      "outputs": [
        {
          "internalType": "bytes32",
          "name": "documentId",
          "type": "bytes32"
        },
        {
          "internalType": "address",
          "name": "minterAddress",
          "type": "address"
        },
        {
          "internalType": "string",
          "name": "getKeyURl",
          "type": "string"
        }
      ],
      "stateMutability": "view",
      "type": "function"
    },
    {
      "inputs": [
        {
          "internalType": "address",
          "name": "owner",
          "type": "address"
        },
        {
          "internalType": "uint256",
          "name": "index",
          "type": "uint256"
        }
      ],
      "name": "tokenOfOwnerByIndex",
      "outputs": [
        {
          "internalType": "uint256",
          "name": "",
          "type": "uint256"
        }
      ],
      "stateMutability": "view",
      "type": "function"
    },
    {
      "inputs": [
        {
          "internalType": "uint256",
          "name": "tokenId",
          "type": "uint256"
        }
      ],
      "name": "tokenURI",
      "outputs": [
        {
          "internalType": "string",
          "name": "",
          "type": "string"
        }
      ],
      "stateMutability": "view",
      "type": "function"
    },
    {
      "inputs": [],
      "name": "totalSupply",
      "outputs": [
        {
          "internalType": "uint256",
          "name": "",
          "type": "uint256"
        }
      ],
      "stateMutability": "view",
      "type": "function"
    },
    {
      "inputs": [
        {
          "internalType": "address",
          "name": "from",
          "type": "address"
        },
        {
          "internalType": "address",
          "name": "to",
          "type": "address"
        },
        {
          "internalType": "uint256",
          "name": "tokenId",
          "type": "uint256"
        }
      ],
      "name": "transferFrom",
      "outputs": [],
      "stateMutability": "nonpayable",
      "type": "function"
    },
    {
      "inputs": [
        {
          "internalType": "address",
          "name": "newOwner",
          "type": "address"
        }
      ],
      "name": "transferOwnership",
      "outputs": [],
      "stateMutability": "nonpayable",
      "type": "function"
    },
    {
      "inputs": [
        {
          "internalType": "uint256",
          "name": "tokenId",
          "type": "uint256"
        },
        {
          "internalType": "address",
          "name": "grantee",
          "type": "address"
        }
      ],
      "name": "grantViewPermission",
      "outputs": [
        {
          "internalType": "uint256",
          "name": "",
          "type": "uint256"
        }
      ],
      "stateMutability": "nonpayable",
      "type": "function"
    },
    {
      "inputs": [
        {
          "internalType": "uint256",
          "name": "tokenId",
          "type": "uint256"
        },
        {
          "internalType": "address",
          "name": "user",
          "type": "address"
        }
      ],
      "name": "checkViewPermission",
      "outputs": [
        {
          "internalType": "bool",
          "name": "",
          "type": "bool"
        }
      ],
      "stateMutability": "view",
      "type": "function"
    }
  ],
  "bytecode": "0x608060405260006006553480156200001657600080fd5b5060405162002d2338038062002d23833981016040819052620000399162000256565b604051806040016040528060048152602001631595d09360e21b815250604051806040016040528060048152602001631595d09360e21b81525085858585828282620000946200008e6200012060201b60201c565b62000124565b600180546001600160a01b0319166001600160a01b0385161790556002620000bd828262000374565b5050600480546001600160a01b0319166001600160a01b0392909216919091179055506005620000ee858262000374565b5050505050816008908162000104919062000374565b50600962000113828262000374565b5050505050505062000440565b3390565b600080546001600160a01b038381166001600160a01b0319831681178455604051919092169283917f8be0079c531659141344cd1fd0a4f28419497f9722a3daafe3b4186f6b6457e09190a35050565b634e487b7160e01b600052604160045260246000fd5b600082601f8301126200019c57600080fd5b81516001600160401b0380821115620001b957620001b962000174565b604051601f8301601f19908116603f01168101908282118183101715620001e457620001e462000174565b816040528381526020925086838588010111156200020157600080fd5b600091505b8382101562000225578582018301518183018401529082019062000206565b600093810190920192909252949350505050565b80516001600160a01b03811681146200025157600080fd5b919050565b600080600080608085870312156200026d57600080fd5b84516001600160401b03808211156200028557600080fd5b62000293888389016200018a565b9550620002a36020880162000239565b9450620002b36040880162000239565b93506060870151915080821115620002ca57600080fd5b50620002d9878288016200018a565b91505092959194509250565b600181811c90821680620002fa57607f821691505b6020821081036200031b57634e487b7160e01b600052602260045260246000fd5b50919050565b601f8211156200036f57600081815260208120601f850160051c810160208610156200034a5750805b601f850160051c820191505b818110156200036b5782815560010162000356565b5050505b505050565b81516001600160401b0381111562000390576200039062000174565b620003a881620003a18454620002e5565b8462000321565b602080601f831160018114620003e05760008415620003c75750858301515b600019600386901b1c1916600185901b1785556200036b565b600085815260208120601f198616915b828110156200041157888601518255948401946001909101908401620003f0565b5085821015620004305787850151600019600388901b60f8161c191681555b5050505050600190811b01905550565b6128d380620004506000396000f3fe60806040526004361061020f5760003560e01c80636352211e11610118578063a22cb465116100a0578063ce5af3361161006f578063ce5af3361461061b578063ced72f8714610648578063d185f5201461065d578063e985e9c514610672578063f2fde38b146106bb57600080fd5b8063a22cb4651461059b578063b41bde13146105bb578063b88d4fde146105db578063c87b56dd146105fb57600080fd5b80637db551b0116100e75780637db551b0146105135780638da5cb5b1461052857806393fab57b1461054657806395d89b41146105665780639ab5e9751461057b57600080fd5b80636352211e146104a95780636c0360eb146104c957806370a08231146104de578063715018a6146104fe57600080fd5b8063357113461161019b57806355f804b31161016a57806355f804b3146103eb5780635a920f061461040b5780635b7121f81461042b5780635fb8bcd51461046457806361bc221a1461049357600080fd5b806335711346146103835780633adda02c1461039857806342842e0e146103ab5780634f6ccce7146103cb57600080fd5b806318160ddd116101e257806318160ddd146102c557806323b872dd146102e45780632812a3d2146103045780632a55205a146103245780632f745c591461036357600080fd5b806301ffc9a71461021457806306fdde0314610249578063081812fc1461026b578063095ea7b3146102a3575b600080fd5b34801561022057600080fd5b5061023461022f366004611fd3565b6106db565b60405190151581526020015b60405180910390f35b34801561025557600080fd5b5061025e6106ec565b6040516102409190612040565b34801561027757600080fd5b5061028b610286366004612053565b61077e565b6040516001600160a01b039091168152602001610240565b3480156102af57600080fd5b506102c36102be366004612081565b6107a5565b005b3480156102d157600080fd5b506010545b604051908152602001610240565b3480156102f057600080fd5b506102c36102ff3660046120ad565b6108bf565b34801561031057600080fd5b506102c361031f3660046120ee565b6108f0565b34801561033057600080fd5b5061034461033f36600461210b565b610974565b604080516001600160a01b039093168352602083019190915201610240565b34801561036f57600080fd5b506102d661037e366004612081565b610a20565b34801561038f57600080fd5b5061028b610ab6565b6102d66103a63660046121d9565b610b29565b3480156103b757600080fd5b506102c36103c63660046120ad565b610c45565b3480156103d757600080fd5b506102d66103e6366004612053565b610c60565b3480156103f757600080fd5b506102c361040636600461222e565b610cf3565b34801561041757600080fd5b506102c361042636600461222e565b610d0b565b34801561043757600080fd5b5061028b610446366004612053565b6000908152600760205260409020600101546001600160a01b031690565b34801561047057600080fd5b5061048461047f366004612053565b610d1f565b60405161024093929190612263565b34801561049f57600080fd5b506102d660065481565b3480156104b557600080fd5b5061028b6104c4366004612053565b610dd4565b3480156104d557600080fd5b5061025e610e34565b3480156104ea57600080fd5b506102d66104f93660046120ee565b610ec2565b34801561050a57600080fd5b506102c3610f48565b34801561051f57600080fd5b5061025e610f5c565b34801561053457600080fd5b506000546001600160a01b031661028b565b34801561055257600080fd5b5060045461028b906001600160a01b031681565b34801561057257600080fd5b5061025e610f6b565b34801561058757600080fd5b506102c3610596366004612296565b610f7a565b3480156105a757600080fd5b506102c36105b6366004612308565b610f8f565b3480156105c757600080fd5b5060015461028b906001600160a01b031681565b3480156105e757600080fd5b506102c36105f6366004612346565b610f9a565b34801561060757600080fd5b5061025e610616366004612053565b610fd2565b34801561062757600080fd5b5061063b6106363660046120ee565b611039565b60405161024091906123c6565b34801561065457600080fd5b506102d661114e565b34801561066957600080fd5b5061025e6111b9565b34801561067e57600080fd5b5061023461068d36600461240a565b6001600160a01b039182166000908152600d6020908152604080832093909416825291909152205460ff1690565b3480156106c757600080fd5b506102c36106d63660046120ee565b6111c8565b60006106e682611241565b92915050565b6060600880546106fb90612438565b80601f016020809104026020016040519081016040528092919081815260200182805461072790612438565b80156107745780601f1061074957610100808354040283529160200191610774565b820191906000526020600020905b81548152906001019060200180831161075757829003601f168201915b5050505050905090565b600061078982611266565b506000908152600c60205260409020546001600160a01b031690565b60006107b082610dd4565b9050806001600160a01b0316836001600160a01b0316036108225760405162461bcd60e51b815260206004820152602160248201527f4552433732313a20617070726f76616c20746f2063757272656e74206f776e656044820152603960f91b60648201526084015b60405180910390fd5b336001600160a01b038216148061083e575061083e813361068d565b6108b05760405162461bcd60e51b815260206004820152603d60248201527f4552433732313a20617070726f76652063616c6c6572206973206e6f7420746f60448201527f6b656e206f776e6572206f7220617070726f76656420666f7220616c6c0000006064820152608401610819565b6108ba83836112c5565b505050565b6108c93382611333565b6108e55760405162461bcd60e51b815260040161081990612472565b6108ba8383836113b2565b6108f8611523565b6004546001600160a01b039081169082160361091357600080fd5b600480546001600160a01b038381166001600160a01b031983168117909355604080519190921680825260208201939093527f9aaef5934caac7bf8ee7de13d1a1e98122180cb78e64abeae728ad559df64a66910160405180910390a15050565b60008281526013602090815260408083208151808301909252546001600160a01b038116808352600160a01b9091046001600160601b03169282019290925282916109e95750604080518082019091526012546001600160a01b0381168252600160a01b90046001600160601b031660208201525b602081015160009061271090610a08906001600160601b0316876124d5565b610a1291906124ec565b915196919550909350505050565b6000610a2b83610ec2565b8210610a8d5760405162461bcd60e51b815260206004820152602b60248201527f455243373231456e756d657261626c653a206f776e657220696e646578206f7560448201526a74206f6620626f756e647360a81b6064820152608401610819565b506001600160a01b03919091166000908152600e60209081526040808320938352929052205490565b60015460408051631ab889a360e11b815290516000926001600160a01b03169163357113469160048083019260209291908290030181865afa158015610b00573d6000803e3d6000fd5b505050506040513d601f19601f82011682018060405250810190610b24919061250e565b905090565b600080600660008154610b3b9061252b565b9182905550604080516060810182528581523360208083019182528284018a8152600086815260079092529390208251815590516001820180546001600160a01b0319166001600160a01b039092169190911790559151929350918291906002820190610ba89082612592565b50905050610bb6338361157d565b6001600160601b03851615610bd057610bd0823387611716565b60048054604051630f384cd960e01b8152918201869052306024830152604482018490526001600160a01b031690630f384cd99034906064016000604051808303818588803b158015610c2257600080fd5b505af1158015610c36573d6000803e3d6000fd5b50949998505050505050505050565b6108ba83838360405180602001604052806000815250610f9a565b6000610c6b60105490565b8210610cce5760405162461bcd60e51b815260206004820152602c60248201527f455243373231456e756d657261626c653a20676c6f62616c20696e646578206f60448201526b7574206f6620626f756e647360a01b6064820152608401610819565b60108281548110610ce157610ce1612652565b90600052602060002001549050919050565b610cfb611523565b6005610d078282612592565b5050565b610d13611523565b6003610d078282612592565b60076020526000908152604090208054600182015460028301805492936001600160a01b0390921692610d5190612438565b80601f0160208091040260200160405190810160405280929190818152602001828054610d7d90612438565b8015610dca5780601f10610d9f57610100808354040283529160200191610dca565b820191906000526020600020905b815481529060010190602001808311610dad57829003601f168201915b5050505050905083565b6000818152600a60205260408120546001600160a01b0316806106e65760405162461bcd60e51b8152602060048201526018602482015277115490cdcc8c4e881a5b9d985b1a59081d1bdad95b88125160421b6044820152606401610819565b60058054610e4190612438565b80601f0160208091040260200160405190810160405280929190818152602001828054610e6d90612438565b8015610eba5780601f10610e8f57610100808354040283529160200191610eba565b820191906000526020600020905b815481529060010190602001808311610e9d57829003601f168201915b505050505081565b60006001600160a01b038216610f2c5760405162461bcd60e51b815260206004820152602960248201527f4552433732313a2061646472657373207a65726f206973206e6f7420612076616044820152683634b21037bbb732b960b91b6064820152608401610819565b506001600160a01b03166000908152600b602052604090205490565b610f50611523565b610f5a6000611824565b565b6060600280546106fb90612438565b6060600980546106fb90612438565b610f82611523565b60026108ba828483612668565b610d07338383611874565b610fa43383611333565b610fc05760405162461bcd60e51b815260040161081990612472565b610fcc84848484611942565b50505050565b6060610fdd82611266565b6000610fe7611975565b905060008151116110075760405180602001604052806000815250611032565b8061101184611984565b604051602001611022929190612728565b6040516020818303038152906040525b9392505050565b6060600060015b600654811161108d576000818152600760205260409020600101546001600160a01b0380861691160361107b57816110778161252b565b9250505b806110858161252b565b915050611040565b5060008167ffffffffffffffff8111156110a9576110a961212d565b6040519080825280602002602001820160405280156110d2578160200160208202803683370190505b509050600060015b6006548111611144576000818152600760205260409020600101546001600160a01b03808816911603611132578083836111138161252b565b94508151811061112557611125612652565b6020026020010181815250505b8061113c8161252b565b9150506110da565b5090949350505050565b6000611158610ab6565b6001600160a01b031663428c090b6040518163ffffffff1660e01b8152600401602060405180830381865afa158015611195573d6000803e3d6000fd5b505050506040513d601f19601f82011682018060405250810190610b249190612757565b6060600380546106fb90612438565b6111d0611523565b6001600160a01b0381166112355760405162461bcd60e51b815260206004820152602660248201527f4f776e61626c653a206e6577206f776e657220697320746865207a65726f206160448201526564647265737360d01b6064820152608401610819565b61123e81611824565b50565b60006001600160e01b0319821663152a902d60e11b14806106e657506106e682611a17565b6000818152600a60205260409020546001600160a01b031661123e5760405162461bcd60e51b8152602060048201526018602482015277115490cdcc8c4e881a5b9d985b1a59081d1bdad95b88125160421b6044820152606401610819565b6000818152600c6020526040902080546001600160a01b0319166001600160a01b03841690811790915581906112fa82610dd4565b6001600160a01b03167f8c5be1e5ebec7d5bd14f71427d1e84f3dd0314c0f7b2291e5b200ac8c7c3b92560405160405180910390a45050565b60008061133f83610dd4565b9050806001600160a01b0316846001600160a01b0316148061138657506001600160a01b038082166000908152600d602090815260408083209388168352929052205460ff165b806113aa5750836001600160a01b031661139f8461077e565b6001600160a01b0316145b949350505050565b826001600160a01b03166113c582610dd4565b6001600160a01b0316146113eb5760405162461bcd60e51b815260040161081990612770565b6001600160a01b03821661144d5760405162461bcd60e51b8152602060048201526024808201527f4552433732313a207472616e7366657220746f20746865207a65726f206164646044820152637265737360e01b6064820152608401610819565b61145a8383836001611a3c565b826001600160a01b031661146d82610dd4565b6001600160a01b0316146114935760405162461bcd60e51b815260040161081990612770565b6000818152600c6020908152604080832080546001600160a01b03199081169091556001600160a01b03878116808652600b8552838620805460001901905590871680865283862080546001019055868652600a90945282852080549092168417909155905184937fddf252ad1be2c89b69c2b068fc378daa952ba7f163c4a11628f55a4df523b3ef91a4505050565b6000546001600160a01b03163314610f5a5760405162461bcd60e51b815260206004820181905260248201527f4f776e61626c653a2063616c6c6572206973206e6f7420746865206f776e65726044820152606401610819565b6001600160a01b0382166115d35760405162461bcd60e51b815260206004820181905260248201527f4552433732313a206d696e7420746f20746865207a65726f20616464726573736044820152606401610819565b6000818152600a60205260409020546001600160a01b0316156116385760405162461bcd60e51b815260206004820152601c60248201527f4552433732313a20746f6b656e20616c7265616479206d696e746564000000006044820152606401610819565b611646600083836001611a3c565b6000818152600a60205260409020546001600160a01b0316156116ab5760405162461bcd60e51b815260206004820152601c60248201527f4552433732313a20746f6b656e20616c7265616479206d696e746564000000006044820152606401610819565b6001600160a01b0382166000818152600b6020908152604080832080546001019055848352600a90915280822080546001600160a01b0319168417905551839291907fddf252ad1be2c89b69c2b068fc378daa952ba7f163c4a11628f55a4df523b3ef908290a45050565b6127106001600160601b03821611156117845760405162461bcd60e51b815260206004820152602a60248201527f455243323938313a20726f79616c7479206665652077696c6c206578636565646044820152692073616c65507269636560b01b6064820152608401610819565b6001600160a01b0382166117da5760405162461bcd60e51b815260206004820152601b60248201527f455243323938313a20496e76616c696420706172616d657465727300000000006044820152606401610819565b6040805180820182526001600160a01b0393841681526001600160601b0392831660208083019182526000968752601390529190942093519051909116600160a01b029116179055565b600080546001600160a01b038381166001600160a01b0319831681178455604051919092169283917f8be0079c531659141344cd1fd0a4f28419497f9722a3daafe3b4186f6b6457e09190a35050565b816001600160a01b0316836001600160a01b0316036118d55760405162461bcd60e51b815260206004820152601960248201527f4552433732313a20617070726f766520746f2063616c6c6572000000000000006044820152606401610819565b6001600160a01b038381166000818152600d6020908152604080832094871680845294825291829020805460ff191686151590811790915591519182527f17307eab39ab6107e8899845ad3d59bd9653f200f220920489ca2b5937696c31910160405180910390a3505050565b61194d8484846113b2565b61195984848484611b7c565b610fcc5760405162461bcd60e51b8152600401610819906127b5565b6060600580546106fb90612438565b6060600061199183611c7d565b600101905060008167ffffffffffffffff8111156119b1576119b161212d565b6040519080825280601f01601f1916602001820160405280156119db576020820181803683370190505b5090508181016020015b600019016f181899199a1a9b1b9c1cb0b131b232b360811b600a86061a8153600a85049450846119e557509392505050565b60006001600160e01b0319821663780e9d6360e01b14806106e657506106e682611d55565b611a4884848484611da5565b6001811115611ab75760405162461bcd60e51b815260206004820152603560248201527f455243373231456e756d657261626c653a20636f6e7365637574697665207472604482015274185b9cd9995c9cc81b9bdd081cdd5c1c1bdc9d1959605a1b6064820152608401610819565b816001600160a01b038516611b1357611b0e81601080546000838152601160205260408120829055600182018355919091527f1b6847dc741a1b0cd08d278845f9d819d87b734759afb55fe2de5cb82a9ae6720155565b611b36565b836001600160a01b0316856001600160a01b031614611b3657611b368582611e2d565b6001600160a01b038416611b5257611b4d81611eca565b611b75565b846001600160a01b0316846001600160a01b031614611b7557611b758482611f79565b5050505050565b60006001600160a01b0384163b15611c7257604051630a85bd0160e11b81526001600160a01b0385169063150b7a0290611bc0903390899088908890600401612807565b6020604051808303816000875af1925050508015611bfb575060408051601f3d908101601f19168201909252611bf891810190612844565b60015b611c58573d808015611c29576040519150601f19603f3d011682016040523d82523d6000602084013e611c2e565b606091505b508051600003611c505760405162461bcd60e51b8152600401610819906127b5565b805181602001fd5b6001600160e01b031916630a85bd0160e11b1490506113aa565b506001949350505050565b60008072184f03e93ff9f4daa797ed6e38ed64bf6a1f0160401b8310611cbc5772184f03e93ff9f4daa797ed6e38ed64bf6a1f0160401b830492506040015b6d04ee2d6d415b85acef81000000008310611ce8576d04ee2d6d415b85acef8100000000830492506020015b662386f26fc100008310611d0657662386f26fc10000830492506010015b6305f5e1008310611d1e576305f5e100830492506008015b6127108310611d3257612710830492506004015b60648310611d44576064830492506002015b600a83106106e65760010192915050565b60006001600160e01b031982166380ac58cd60e01b1480611d8657506001600160e01b03198216635b5e139f60e01b145b806106e657506301ffc9a760e01b6001600160e01b03198316146106e6565b6001811115610fcc576001600160a01b03841615611deb576001600160a01b0384166000908152600b602052604081208054839290611de5908490612861565b90915550505b6001600160a01b03831615610fcc576001600160a01b0383166000908152600b602052604081208054839290611e22908490612874565b909155505050505050565b60006001611e3a84610ec2565b611e449190612861565b6000838152600f6020526040902054909150808214611e97576001600160a01b0384166000908152600e602090815260408083208584528252808320548484528184208190558352600f90915290208190555b506000918252600f602090815260408084208490556001600160a01b039094168352600e81528383209183525290812055565b601054600090611edc90600190612861565b60008381526011602052604081205460108054939450909284908110611f0457611f04612652565b906000526020600020015490508060108381548110611f2557611f25612652565b6000918252602080832090910192909255828152601190915260408082208490558582528120556010805480611f5d57611f5d612887565b6001900381819060005260206000200160009055905550505050565b6000611f8483610ec2565b6001600160a01b039093166000908152600e602090815260408083208684528252808320859055938252600f9052919091209190915550565b6001600160e01b03198116811461123e57600080fd5b600060208284031215611fe557600080fd5b813561103281611fbd565b60005b8381101561200b578181015183820152602001611ff3565b50506000910152565b6000815180845261202c816020860160208601611ff0565b601f01601f19169290920160200192915050565b6020815260006110326020830184612014565b60006020828403121561206557600080fd5b5035919050565b6001600160a01b038116811461123e57600080fd5b6000806040838503121561209457600080fd5b823561209f8161206c565b946020939093013593505050565b6000806000606084860312156120c257600080fd5b83356120cd8161206c565b925060208401356120dd8161206c565b929592945050506040919091013590565b60006020828403121561210057600080fd5b81356110328161206c565b6000806040838503121561211e57600080fd5b50508035926020909101359150565b634e487b7160e01b600052604160045260246000fd5b600067ffffffffffffffff8084111561215e5761215e61212d565b604051601f8501601f19908116603f011681019082821181831017156121865761218661212d565b8160405280935085815286868601111561219f57600080fd5b858560208301376000602087830101525050509392505050565b600082601f8301126121ca57600080fd5b61103283833560208501612143565b6000806000606084860312156121ee57600080fd5b833567ffffffffffffffff81111561220557600080fd5b612211868287016121b9565b93505060208401356001600160601b03811681146120dd57600080fd5b60006020828403121561224057600080fd5b813567ffffffffffffffff81111561225757600080fd5b6113aa848285016121b9565b8381526001600160a01b038316602082015260606040820181905260009061228d90830184612014565b95945050505050565b600080602083850312156122a957600080fd5b823567ffffffffffffffff808211156122c157600080fd5b818501915085601f8301126122d557600080fd5b8135818111156122e457600080fd5b8660208285010111156122f657600080fd5b60209290920196919550909350505050565b6000806040838503121561231b57600080fd5b82356123268161206c565b91506020830135801515811461233b57600080fd5b809150509250929050565b6000806000806080858703121561235c57600080fd5b84356123678161206c565b935060208501356123778161206c565b925060408501359150606085013567ffffffffffffffff81111561239a57600080fd5b8501601f810187136123ab57600080fd5b6123ba87823560208401612143565b91505092959194509250565b6020808252825182820181905260009190848201906040850190845b818110156123fe578351835292840192918401916001016123e2565b50909695505050505050565b6000806040838503121561241d57600080fd5b82356124288161206c565b9150602083013561233b8161206c565b600181811c9082168061244c57607f821691505b60208210810361246c57634e487b7160e01b600052602260045260246000fd5b50919050565b6020808252602d908201527f4552433732313a2063616c6c6572206973206e6f7420746f6b656e206f776e6560408201526c1c881bdc88185c1c1c9bdd9959609a1b606082015260800190565b634e487b7160e01b600052601160045260246000fd5b80820281158282048414176106e6576106e66124bf565b60008261250957634e487b7160e01b600052601260045260246000fd5b500490565b60006020828403121561252057600080fd5b81516110328161206c565b60006001820161253d5761253d6124bf565b5060010190565b601f8211156108ba57600081815260208120601f850160051c8101602086101561256b5750805b601f850160051c820191505b8181101561258a57828155600101612577565b505050505050565b815167ffffffffffffffff8111156125ac576125ac61212d565b6125c0816125ba8454612438565b84612544565b602080601f8311600181146125f557600084156125dd5750858301515b600019600386901b1c1916600185901b17855561258a565b600085815260208120601f198616915b8281101561262457888601518255948401946001909101908401612605565b50858210156126425787850151600019600388901b60f8161c191681555b5050505050600190811b01905550565b634e487b7160e01b600052603260045260246000fd5b67ffffffffffffffff8311156126805761268061212d565b6126948361268e8354612438565b83612544565b6000601f8411600181146126c857600085156126b05750838201355b600019600387901b1c1916600186901b178355611b75565b600083815260209020601f19861690835b828110156126f957868501358255602094850194600190920191016126d9565b50868210156127165760001960f88860031b161c19848701351681555b505060018560011b0183555050505050565b6000835161273a818460208801611ff0565b83519083019061274e818360208801611ff0565b01949350505050565b60006020828403121561276957600080fd5b5051919050565b60208082526025908201527f4552433732313a207472616e736665722066726f6d20696e636f72726563742060408201526437bbb732b960d91b606082015260800190565b60208082526032908201527f4552433732313a207472616e7366657220746f206e6f6e20455243373231526560408201527131b2b4bb32b91034b6b83632b6b2b73a32b960711b606082015260800190565b6001600160a01b038581168252841660208201526040810183905260806060820181905260009061283a90830184612014565b9695505050505050565b60006020828403121561285657600080fd5b815161103281611fbd565b818103818111156106e6576106e66124bf565b808201808211156106e6576106e66124bf565b634e487b7160e01b600052603160045260246000fdfea2646970667358221220a89eba7e86e33d63ca5483f3412e3180ca7db451d28082a0658b028fb15cbc7d64736f6c63430008110033",
  "linkReferences": {},
  "deployedLinkReferences": {}
}