{
  "_format": "hh-sol-artifact-1",
  "contractName": "VWBLERC1155ERC2981ForMetadata",
  "sourceName": "contracts/access-condition/ERC1155/extensions/VWBLERC1155ERC2981ForMetadata.sol",
  "abi": [
    {
      "inputs": [
        {
          "internalType": "address",
          "name": "_gatewayProxy",
          "type": "address"
        },
        {
          "internalType": "address",
          "name": "_accessCheckerContract",
          "type": "address"
        },
        {
          "internalType": "string",
          "name": "_signMessage",
          "type": "string"
        }
      ],
      "stateMutability": "nonpayable",
      "type": "constructor"
    },
    {
      "anonymous": false,
      "inputs": [
        {
          "indexed": true,
          "internalType": "address",
          "name": "account",
          "type": "address"
        },
        {
          "indexed": true,
          "internalType": "address",
          "name": "operator",
          "type": "address"
        },
        {
          "indexed": false,
          "internalType": "bool",
          "name": "approved",
          "type": "bool"
        }
      ],
      "name": "ApprovalForAll",
      "type": "event"
    },
    {
      "anonymous": false,
      "inputs": [
        {
          "indexed": true,
          "internalType": "address",
          "name": "previousOwner",
          "type": "address"
        },
        {
          "indexed": true,
          "internalType": "address",
          "name": "newOwner",
          "type": "address"
        }
      ],
      "name": "OwnershipTransferred",
      "type": "event"
    },
    {
      "anonymous": false,
      "inputs": [
        {
          "indexed": true,
          "internalType": "address",
          "name": "operator",
          "type": "address"
        },
        {
          "indexed": true,
          "internalType": "address",
          "name": "from",
          "type": "address"
        },
        {
          "indexed": true,
          "internalType": "address",
          "name": "to",
          "type": "address"
        },
        {
          "indexed": false,
          "internalType": "uint256[]",
          "name": "ids",
          "type": "uint256[]"
        },
        {
          "indexed": false,
          "internalType": "uint256[]",
          "name": "values",
          "type": "uint256[]"
        }
      ],
      "name": "TransferBatch",
      "type": "event"
    },
    {
      "anonymous": false,
      "inputs": [
        {
          "indexed": true,
          "internalType": "address",
          "name": "operator",
          "type": "address"
        },
        {
          "indexed": true,
          "internalType": "address",
          "name": "from",
          "type": "address"
        },
        {
          "indexed": true,
          "internalType": "address",
          "name": "to",
          "type": "address"
        },
        {
          "indexed": false,
          "internalType": "uint256",
          "name": "id",
          "type": "uint256"
        },
        {
          "indexed": false,
          "internalType": "uint256",
          "name": "value",
          "type": "uint256"
        }
      ],
      "name": "TransferSingle",
      "type": "event"
    },
    {
      "anonymous": false,
      "inputs": [
        {
          "indexed": false,
          "internalType": "string",
          "name": "value",
          "type": "string"
        },
        {
          "indexed": true,
          "internalType": "uint256",
          "name": "id",
          "type": "uint256"
        }
      ],
      "name": "URI",
      "type": "event"
    },
    {
      "anonymous": false,
      "inputs": [
        {
          "indexed": false,
          "internalType": "address",
          "name": "oldAccessCheckerContract",
          "type": "address"
        },
        {
          "indexed": false,
          "internalType": "address",
          "name": "newAccessCheckerContract",
          "type": "address"
        }
      ],
      "name": "accessCheckerContractChanged",
      "type": "event"
    },
    {
      "inputs": [
        {
          "internalType": "uint256",
          "name": "",
          "type": "uint256"
        }
      ],
      "name": "_tokenIdToTokenBalance",
      "outputs": [
        {
          "internalType": "uint256",
          "name": "",
          "type": "uint256"
        }
      ],
      "stateMutability": "view",
      "type": "function"
    },
    {
      "inputs": [],
      "name": "accessCheckerContract",
      "outputs": [
        {
          "internalType": "address",
          "name": "",
          "type": "address"
        }
      ],
      "stateMutability": "view",
      "type": "function"
    },
    {
      "inputs": [
        {
          "internalType": "address",
          "name": "account",
          "type": "address"
        },
        {
          "internalType": "uint256",
          "name": "id",
          "type": "uint256"
        }
      ],
      "name": "balanceOf",
      "outputs": [
        {
          "internalType": "uint256",
          "name": "",
          "type": "uint256"
        }
      ],
      "stateMutability": "view",
      "type": "function"
    },
    {
      "inputs": [
        {
          "internalType": "address[]",
          "name": "accounts",
          "type": "address[]"
        },
        {
          "internalType": "uint256[]",
          "name": "ids",
          "type": "uint256[]"
        }
      ],
      "name": "balanceOfBatch",
      "outputs": [
        {
          "internalType": "uint256[]",
          "name": "",
          "type": "uint256[]"
        }
      ],
      "stateMutability": "view",
      "type": "function"
    },
    {
      "inputs": [],
      "name": "baseURI",
      "outputs": [
        {
          "internalType": "string",
          "name": "",
          "type": "string"
        }
      ],
      "stateMutability": "view",
      "type": "function"
    },
    {
      "inputs": [
        {
          "internalType": "address",
          "name": "account",
          "type": "address"
        },
        {
          "internalType": "uint256",
          "name": "id",
          "type": "uint256"
        },
        {
          "internalType": "uint256",
          "name": "value",
          "type": "uint256"
        }
      ],
      "name": "burn",
      "outputs": [],
      "stateMutability": "nonpayable",
      "type": "function"
    },
    {
      "inputs": [
        {
          "internalType": "address",
          "name": "account",
          "type": "address"
        },
        {
          "internalType": "uint256[]",
          "name": "ids",
          "type": "uint256[]"
        },
        {
          "internalType": "uint256[]",
          "name": "values",
          "type": "uint256[]"
        }
      ],
      "name": "burnBatch",
      "outputs": [],
      "stateMutability": "nonpayable",
      "type": "function"
    },
    {
      "inputs": [],
      "name": "counter",
      "outputs": [
        {
          "internalType": "uint256",
          "name": "",
          "type": "uint256"
        }
      ],
      "stateMutability": "view",
      "type": "function"
    },
    {
      "inputs": [],
      "name": "gatewayProxy",
      "outputs": [
        {
          "internalType": "address",
          "name": "",
          "type": "address"
        }
      ],
      "stateMutability": "view",
      "type": "function"
    },
    {
      "inputs": [],
      "name": "getAllowOrigins",
      "outputs": [
        {
          "internalType": "string",
          "name": "",
          "type": "string"
        }
      ],
      "stateMutability": "view",
      "type": "function"
    },
    {
      "inputs": [],
      "name": "getFee",
      "outputs": [
        {
          "internalType": "uint256",
          "name": "",
          "type": "uint256"
        }
      ],
      "stateMutability": "view",
      "type": "function"
    },
    {
      "inputs": [],
      "name": "getGatewayAddress",
      "outputs": [
        {
          "internalType": "address",
          "name": "",
          "type": "address"
        }
      ],
      "stateMutability": "view",
      "type": "function"
    },
    {
      "inputs": [
        {
          "internalType": "uint256",
          "name": "tokenId",
          "type": "uint256"
        }
      ],
      "name": "getMinter",
      "outputs": [
        {
          "internalType": "address",
          "name": "",
          "type": "address"
        }
      ],
      "stateMutability": "view",
      "type": "function"
    },
    {
      "inputs": [],
      "name": "getSignMessage",
      "outputs": [
        {
          "internalType": "string",
          "name": "",
          "type": "string"
        }
      ],
      "stateMutability": "view",
      "type": "function"
    },
    {
      "inputs": [
        {
          "internalType": "address",
          "name": "minter",
          "type": "address"
        }
      ],
      "name": "getTokenByMinter",
      "outputs": [
        {
          "internalType": "uint256[]",
          "name": "",
          "type": "uint256[]"
        }
      ],
      "stateMutability": "view",
      "type": "function"
    },
    {
      "inputs": [
        {
          "internalType": "address",
          "name": "account",
          "type": "address"
        },
        {
          "internalType": "address",
          "name": "operator",
          "type": "address"
        }
      ],
      "name": "isApprovedForAll",
      "outputs": [
        {
          "internalType": "bool",
          "name": "",
          "type": "bool"
        }
      ],
      "stateMutability": "view",
      "type": "function"
    },
    {
      "inputs": [
        {
          "internalType": "string",
          "name": "_metadataURL",
          "type": "string"
        },
        {
          "internalType": "string",
          "name": "_getKeyURl",
          "type": "string"
        },
        {
          "internalType": "uint256",
          "name": "_amount",
          "type": "uint256"
        },
        {
          "internalType": "uint96",
          "name": "_feeNumerator",
          "type": "uint96"
        },
        {
          "internalType": "bytes32",
          "name": "_documentId",
          "type": "bytes32"
        }
      ],
      "name": "mint",
      "outputs": [
        {
          "internalType": "uint256",
          "name": "",
          "type": "uint256"
        }
      ],
      "stateMutability": "payable",
      "type": "function"
    },
    {
      "inputs": [
        {
          "internalType": "string[]",
          "name": "_metadataURLs",
          "type": "string[]"
        },
        {
          "internalType": "string[]",
          "name": "_getKeyURls",
          "type": "string[]"
        },
        {
          "internalType": "uint256[]",
          "name": "_amounts",
          "type": "uint256[]"
        },
        {
          "internalType": "uint96[]",
          "name": "_feeNumerators",
          "type": "uint96[]"
        },
        {
          "internalType": "bytes32[]",
          "name": "_documentIds",
          "type": "bytes32[]"
        }
      ],
      "name": "mintBatch",
      "outputs": [
        {
          "internalType": "uint256[]",
          "name": "",
          "type": "uint256[]"
        }
      ],
      "stateMutability": "payable",
      "type": "function"
    },
    {
      "inputs": [],
      "name": "owner",
      "outputs": [
        {
          "internalType": "address",
          "name": "",
          "type": "address"
        }
      ],
      "stateMutability": "view",
      "type": "function"
    },
    {
      "inputs": [],
      "name": "renounceOwnership",
      "outputs": [],
      "stateMutability": "nonpayable",
      "type": "function"
    },
    {
      "inputs": [
        {
          "internalType": "uint256",
          "name": "_tokenId",
          "type": "uint256"
        },
        {
          "internalType": "uint256",
          "name": "_salePrice",
          "type": "uint256"
        }
      ],
      "name": "royaltyInfo",
      "outputs": [
        {
          "internalType": "address",
          "name": "",
          "type": "address"
        },
        {
          "internalType": "uint256",
          "name": "",
          "type": "uint256"
        }
      ],
      "stateMutability": "view",
      "type": "function"
    },
    {
      "inputs": [
        {
          "internalType": "address",
          "name": "from",
          "type": "address"
        },
        {
          "internalType": "address",
          "name": "to",
          "type": "address"
        },
        {
          "internalType": "uint256[]",
          "name": "ids",
          "type": "uint256[]"
        },
        {
          "internalType": "uint256[]",
          "name": "amounts",
          "type": "uint256[]"
        },
        {
          "internalType": "bytes",
          "name": "data",
          "type": "bytes"
        }
      ],
      "name": "safeBatchTransferAndPayFee",
      "outputs": [],
      "stateMutability": "payable",
      "type": "function"
    },
    {
      "inputs": [
        {
          "internalType": "address",
          "name": "from",
          "type": "address"
        },
        {
          "internalType": "address",
          "name": "to",
          "type": "address"
        },
        {
          "internalType": "uint256[]",
          "name": "ids",
          "type": "uint256[]"
        },
        {
          "internalType": "uint256[]",
          "name": "amounts",
          "type": "uint256[]"
        },
        {
          "internalType": "bytes",
          "name": "data",
          "type": "bytes"
        }
      ],
      "name": "safeBatchTransferFrom",
      "outputs": [],
      "stateMutability": "nonpayable",
      "type": "function"
    },
    {
      "inputs": [
        {
          "internalType": "address",
          "name": "from",
          "type": "address"
        },
        {
          "internalType": "address",
          "name": "to",
          "type": "address"
        },
        {
          "internalType": "uint256",
          "name": "id",
          "type": "uint256"
        },
        {
          "internalType": "uint256",
          "name": "amount",
          "type": "uint256"
        },
        {
          "internalType": "bytes",
          "name": "data",
          "type": "bytes"
        }
      ],
      "name": "safeTransferAndPayFee",
      "outputs": [],
      "stateMutability": "payable",
      "type": "function"
    },
    {
      "inputs": [
        {
          "internalType": "address",
          "name": "from",
          "type": "address"
        },
        {
          "internalType": "address",
          "name": "to",
          "type": "address"
        },
        {
          "internalType": "uint256",
          "name": "id",
          "type": "uint256"
        },
        {
          "internalType": "uint256",
          "name": "amount",
          "type": "uint256"
        },
        {
          "internalType": "bytes",
          "name": "data",
          "type": "bytes"
        }
      ],
      "name": "safeTransferFrom",
      "outputs": [],
      "stateMutability": "nonpayable",
      "type": "function"
    },
    {
      "inputs": [
        {
          "internalType": "address",
          "name": "newAccessCheckerContract",
          "type": "address"
        }
      ],
      "name": "setAccessCheckerContract",
      "outputs": [],
      "stateMutability": "nonpayable",
      "type": "function"
    },
    {
      "inputs": [
        {
          "internalType": "string",
          "name": "_origins",
          "type": "string"
        }
      ],
      "name": "setAllowOrigins",
      "outputs": [],
      "stateMutability": "nonpayable",
      "type": "function"
    },
    {
      "inputs": [
        {
          "internalType": "address",
          "name": "operator",
          "type": "address"
        },
        {
          "internalType": "bool",
          "name": "approved",
          "type": "bool"
        }
      ],
      "name": "setApprovalForAll",
      "outputs": [],
      "stateMutability": "nonpayable",
      "type": "function"
    },
    {
      "inputs": [
        {
          "internalType": "string",
          "name": "_baseURI",
          "type": "string"
        }
      ],
      "name": "setBaseURI",
      "outputs": [],
      "stateMutability": "nonpayable",
      "type": "function"
    },
    {
      "inputs": [
        {
          "internalType": "string",
          "name": "_signMessage",
          "type": "string"
        }
      ],
      "name": "setSignMessage",
      "outputs": [],
      "stateMutability": "nonpayable",
      "type": "function"
    },
    {
      "inputs": [
        {
          "internalType": "bytes4",
          "name": "interfaceId",
          "type": "bytes4"
        }
      ],
      "name": "supportsInterface",
      "outputs": [
        {
          "internalType": "bool",
          "name": "",
          "type": "bool"
        }
      ],
      "stateMutability": "view",
      "type": "function"
    },
    {
      "inputs": [
        {
          "internalType": "uint256",
          "name": "index",
          "type": "uint256"
        }
      ],
      "name": "tokenByIndex",
      "outputs": [
        {
          "internalType": "uint256",
          "name": "",
          "type": "uint256"
        }
      ],
      "stateMutability": "view",
      "type": "function"
    },
    {
      "inputs": [
        {
          "internalType": "address",
          "name": "owner",
          "type": "address"
        }
      ],
      "name": "tokenCountOfOwner",
      "outputs": [
        {
          "internalType": "uint256",
          "name": "",
          "type": "uint256"
        }
      ],
      "stateMutability": "view",
      "type": "function"
    },
    {
      "inputs": [
        {
          "internalType": "uint256",
          "name": "",
          "type": "uint256"
        }
      ],
      "name": "tokenIdToTokenInfo",
      "outputs": [
        {
          "internalType": "bytes32",
          "name": "documentId",
          "type": "bytes32"
        },
        {
          "internalType": "address",
          "name": "minterAddress",
          "type": "address"
        },
        {
          "internalType": "string",
          "name": "getKeyURl",
          "type": "string"
        }
      ],
      "stateMutability": "view",
      "type": "function"
    },
    {
      "inputs": [
        {
          "internalType": "address",
          "name": "owner",
          "type": "address"
        },
        {
          "internalType": "uint256",
          "name": "index",
          "type": "uint256"
        }
      ],
      "name": "tokenOfOwnerByIndex",
      "outputs": [
        {
          "internalType": "uint256",
          "name": "",
          "type": "uint256"
        }
      ],
      "stateMutability": "view",
      "type": "function"
    },
    {
      "inputs": [],
      "name": "totalSupply",
      "outputs": [
        {
          "internalType": "uint256",
          "name": "",
          "type": "uint256"
        }
      ],
      "stateMutability": "view",
      "type": "function"
    },
    {
      "inputs": [
        {
          "internalType": "address",
          "name": "newOwner",
          "type": "address"
        }
      ],
      "name": "transferOwnership",
      "outputs": [],
      "stateMutability": "nonpayable",
      "type": "function"
    },
    {
      "inputs": [
        {
          "internalType": "uint256",
          "name": "tokenId",
          "type": "uint256"
        }
      ],
      "name": "uri",
      "outputs": [
        {
          "internalType": "string",
          "name": "",
          "type": "string"
        }
      ],
      "stateMutability": "view",
      "type": "function"
    }
  ],
  "bytecode": "0x60806040526000600f553480156200001657600080fd5b5060405162003e0738038062003e0783398101604081905262000039916200017b565b60405180602001604052806000815250838383828282604051806020016040528060008152506200007081620000e460201b60201c565b506200007c33620000f6565b600a80546001600160a01b0319166001600160a01b038516179055600b620000a5828262000304565b5050600d80546001600160a01b0319166001600160a01b039290921691909117905550600e620000d6858262000304565b5050505050505050620003d0565b6002620000f2828262000304565b5050565b600380546001600160a01b038381166001600160a01b0319831681179093556040519116919082907f8be0079c531659141344cd1fd0a4f28419497f9722a3daafe3b4186f6b6457e090600090a35050565b80516001600160a01b03811681146200016057600080fd5b919050565b634e487b7160e01b600052604160045260246000fd5b6000806000606084860312156200019157600080fd5b6200019c8462000148565b92506020620001ad81860162000148565b60408601519093506001600160401b0380821115620001cb57600080fd5b818701915087601f830112620001e057600080fd5b815181811115620001f557620001f562000165565b604051601f8201601f19908116603f0116810190838211818310171562000220576200022062000165565b816040528281528a868487010111156200023957600080fd5b600093505b828410156200025d57848401860151818501870152928501926200023e565b60008684830101528096505050505050509250925092565b600181811c908216806200028a57607f821691505b602082108103620002ab57634e487b7160e01b600052602260045260246000fd5b50919050565b601f821115620002ff57600081815260208120601f850160051c81016020861015620002da5750805b601f850160051c820191505b81811015620002fb57828155600101620002e6565b5050505b505050565b81516001600160401b0381111562000320576200032062000165565b620003388162000331845462000275565b84620002b1565b602080601f831160018114620003705760008415620003575750858301515b600019600386901b1c1916600185901b178555620002fb565b600085815260208120601f198616915b82811015620003a15788860151825594840194600190910190840162000380565b5085821015620003c05787850151600019600388901b60f8161c191681555b5050505050600190811b01905550565b613a2780620003e06000396000f3fe6080604052600436106102245760003560e01c80636b20c45411610123578063a22cb465116100ab578063d185f5201161006f578063d185f52014610672578063e985e9c514610687578063f242432a146106d0578063f2fde38b146106f0578063f5298aca1461071057600080fd5b8063a22cb465146105ea578063b41bde131461060a578063babde7a81461062a578063ce5af3361461063d578063ced72f871461065d57600080fd5b80638840fc9d116100f25780638840fc9d1461054c5780638da5cb5b1461057957806393fab57b14610597578063963e57fa146105b75780639ab5e975146105ca57600080fd5b80636b20c454146104ed5780636c0360eb1461050d578063715018a6146105225780637db551b01461053757600080fd5b80634e1273f4116101b15780635c330f83116101755780635c330f83146104625780635fb8bcd51461047557806361bc221a146104a457806368e586e8146104ba5780636ab29c08146104da57600080fd5b80634e1273f41461039c5780634f6ccce7146103c957806355f804b3146103e95780635a920f06146104095780635b7121f81461042957600080fd5b80632812a3d2116101f85780632812a3d2146102ce5780632a55205a146102f05780632eb2c2d61461032f5780632f745c591461034f578063357113461461036f57600080fd5b8062fdd58e1461022957806301ffc9a71461025c5780630e89341c1461028c57806318160ddd146102b9575b600080fd5b34801561023557600080fd5b50610249610244366004612a2a565b610730565b6040519081526020015b60405180910390f35b34801561026857600080fd5b5061027c610277366004612a6c565b6107c9565b6040519015158152602001610253565b34801561029857600080fd5b506102ac6102a7366004612a90565b6107d4565b6040516102539190612aef565b3480156102c557600080fd5b50600854610249565b3480156102da57600080fd5b506102ee6102e9366004612b02565b6108e0565b005b3480156102fc57600080fd5b5061031061030b366004612b1f565b610964565b604080516001600160a01b039093168352602083019190915201610253565b34801561033b57600080fd5b506102ee61034a366004612c8a565b610a12565b34801561035b57600080fd5b5061024961036a366004612a2a565b610a5e565b34801561037b57600080fd5b50610384610af5565b6040516001600160a01b039091168152602001610253565b3480156103a857600080fd5b506103bc6103b7366004612d37565b610b68565b6040516102539190612e3e565b3480156103d557600080fd5b506102496103e4366004612a90565b610c91565b3480156103f557600080fd5b506102ee610404366004612e51565b610d25565b34801561041557600080fd5b506102ee610424366004612e51565b610d3d565b34801561043557600080fd5b50610384610444366004612a90565b6000908152601060205260409020600101546001600160a01b031690565b6102ee610470366004612c8a565b610d51565b34801561048157600080fd5b50610495610490366004612a90565b610e57565b60405161025393929190612e8d565b3480156104b057600080fd5b50610249600f5481565b3480156104c657600080fd5b506102496104d5366004612b02565b610f0c565b6102ee6104e8366004612ec0565b610f94565b3480156104f957600080fd5b506102ee610508366004612f28565b611027565b34801561051957600080fd5b506102ac61106f565b34801561052e57600080fd5b506102ee6110fd565b34801561054357600080fd5b506102ac611111565b34801561055857600080fd5b50610249610567366004612a90565b60076020526000908152604090205481565b34801561058557600080fd5b506003546001600160a01b0316610384565b3480156105a357600080fd5b50600d54610384906001600160a01b031681565b6103bc6105c53660046130b0565b6111a3565b3480156105d657600080fd5b506102ee6105e5366004613174565b611548565b3480156105f657600080fd5b506102ee6106053660046131e5565b61155d565b34801561061657600080fd5b50600a54610384906001600160a01b031681565b610249610638366004613223565b611568565b34801561064957600080fd5b506103bc610658366004612b02565b61167b565b34801561066957600080fd5b5061024961178f565b34801561067e57600080fd5b506102ac6117fa565b34801561069357600080fd5b5061027c6106a23660046132a8565b6001600160a01b03918216600090815260016020908152604080832093909416825291909152205460ff1690565b3480156106dc57600080fd5b506102ee6106eb366004612ec0565b611809565b3480156106fc57600080fd5b506102ee61070b366004612b02565b61184e565b34801561071c57600080fd5b506102ee61072b3660046132d6565b6118c7565b60006001600160a01b0383166107a05760405162461bcd60e51b815260206004820152602a60248201527f455243313135353a2061646472657373207a65726f206973206e6f742061207660448201526930b634b21037bbb732b960b11b60648201526084015b60405180910390fd5b506000818152602081815260408083206001600160a01b03861684529091529020545b92915050565b60006107c38261190a565b60008181526013602052604090208054606091906107f19061330b565b90506000036108425760405162461bcd60e51b815260206004820152601960248201527f455243313135353a20696e76616c696420746f6b656e204944000000000000006044820152606401610797565b6000828152601360205260409020805461085b9061330b565b80601f01602080910402602001604051908101604052809291908181526020018280546108879061330b565b80156108d45780601f106108a9576101008083540402835291602001916108d4565b820191906000526020600020905b8154815290600101906020018083116108b757829003601f168201915b50505050509050919050565b6108e861192f565b600d546001600160a01b039081169082160361090357600080fd5b600d80546001600160a01b038381166001600160a01b031983168117909355604080519190921680825260208201939093527f9aaef5934caac7bf8ee7de13d1a1e98122180cb78e64abeae728ad559df64a66910160405180910390a15050565b60008281526012602090815260408083208151808301909252546001600160a01b038116808352600160a01b9091046001600160601b03169282019290925282916109d95750604080518082019091526011546001600160a01b0381168252600160a01b90046001600160601b031660208201525b6020810151600090612710906109f8906001600160601b03168761335b565b610a029190613388565b91519350909150505b9250929050565b6001600160a01b038516331480610a2e5750610a2e85336106a2565b610a4a5760405162461bcd60e51b8152600401610797906133aa565b610a578585858585611989565b5050505050565b6000610a6983610f0c565b8210610acc5760405162461bcd60e51b815260206004820152602c60248201527f45524331313535456e756d657261626c653a206f776e657220696e646578206f60448201526b7574206f6620626f756e647360a01b6064820152608401610797565b506001600160a01b03919091166000908152600560209081526040808320938352929052205490565b600a5460408051631ab889a360e11b815290516000926001600160a01b03169163357113469160048083019260209291908290030181865afa158015610b3f573d6000803e3d6000fd5b505050506040513d601f19601f82011682018060405250810190610b6391906133f8565b905090565b60608151835114610bcd5760405162461bcd60e51b815260206004820152602960248201527f455243313135353a206163636f756e747320616e6420696473206c656e677468604482015268040dad2e6dac2e8c6d60bb1b6064820152608401610797565b600083516001600160401b03811115610be857610be8612b41565b604051908082528060200260200182016040528015610c11578160200160208202803683370190505b50905060005b8451811015610c8957610c5c858281518110610c3557610c35613415565b6020026020010151858381518110610c4f57610c4f613415565b6020026020010151610730565b828281518110610c6e57610c6e613415565b6020908102919091010152610c828161342b565b9050610c17565b509392505050565b6000610c9c60085490565b8210610d005760405162461bcd60e51b815260206004820152602d60248201527f45524331313535456e756d657261626c653a20676c6f62616c20696e6465782060448201526c6f7574206f6620626f756e647360981b6064820152608401610797565b60088281548110610d1357610d13613415565b90600052602060002001549050919050565b610d2d61192f565b600e610d39828261348a565b5050565b610d4561192f565b600c610d39828261348a565b610d5e8585858585610a12565b600080610d75855134611b3390919063ffffffff16565b9150915060005b85518163ffffffff161015610e4d57610d93610af5565b6001600160a01b031663febaa13483601060008a8663ffffffff1681518110610dbe57610dbe613415565b60200260200101518152602001908152602001600020600001548a6040518463ffffffff1660e01b8152600401610e089291909182526001600160a01b0316602082015260400190565b6000604051808303818588803b158015610e2157600080fd5b505af1158015610e35573d6000803e3d6000fd5b50505050508080610e4590613549565b915050610d7c565b5050505050505050565b60106020526000908152604090208054600182015460028301805492936001600160a01b0390921692610e899061330b565b80601f0160208091040260200160405190810160405280929190818152602001828054610eb59061330b565b8015610f025780601f10610ed757610100808354040283529160200191610f02565b820191906000526020600020905b815481529060010190602001808311610ee557829003601f168201915b5050505050905083565b60006001600160a01b038216610f785760405162461bcd60e51b815260206004820152602b60248201527f455243313135353a2062616c616e636520717565727920666f7220746865207a60448201526a65726f206164647265737360a81b6064820152608401610797565b506001600160a01b031660009081526004602052604090205490565b610fa18585858585611809565b610fa9610af5565b60008481526010602052604090819020549051633faea84d60e21b815260048101919091526001600160a01b038681166024830152919091169063febaa1349034906044016000604051808303818588803b15801561100757600080fd5b505af115801561101b573d6000803e3d6000fd5b50505050505050505050565b6001600160a01b038316331480611043575061104383336106a2565b61105f5760405162461bcd60e51b8152600401610797906133aa565b61106a838383611b66565b505050565b600e805461107c9061330b565b80601f01602080910402602001604051908101604052809291908181526020018280546110a89061330b565b80156110f55780601f106110ca576101008083540402835291602001916110f5565b820191906000526020600020905b8154815290600101906020018083116110d857829003601f168201915b505050505081565b61110561192f565b61110f6000611d03565b565b6060600b80546111209061330b565b80601f016020809104026020016040519081016040528092919081815260200182805461114c9061330b565b80156111995780601f1061116e57610100808354040283529160200191611199565b820191906000526020600020905b81548152906001019060200180831161117c57829003601f168201915b5050505050905090565b6060825184511480156111b7575081518351145b6111fa5760405162461bcd60e51b8152602060048201526014602482015273092dcecc2d8d2c840c2e4e4c2f240d8cadccee8d60631b6044820152606401610797565b600084516001600160401b0381111561121557611215612b41565b60405190808252806020026020018201604052801561123e578160200160208202803683370190505b50905060005b85518163ffffffff1610156113cd576000600f600081546112649061342b565b919050819055905080838363ffffffff168151811061128557611285613415565b602002602001018181525050848263ffffffff16815181106112a9576112a9613415565b60209081029190910181015160008381526010909252604090912090815560010180546001600160a01b031916331790558751889063ffffffff84169081106112f4576112f4613415565b602002602001015160106000838152602001908152602001600020600201908161131e919061348a565b50888263ffffffff168151811061133757611337613415565b602002602001015160136000838152602001908152602001600020908161135e919061348a565b506000868363ffffffff168151811061137957611379613415565b60200260200101516001600160601b031611156113ba576113ba8133888563ffffffff16815181106113ad576113ad613415565b6020026020010151611d55565b50806113c581613549565b915050611244565b506113e933828760405180602001604052806000815250611e63565b600080611400875134611b3390919063ffffffff16565b91509150816114515760405162461bcd60e51b815260206004820152601860248201527f43616c63756c6174696f6e206572726f72206f662064697600000000000000006044820152606401610797565b60005b87518163ffffffff16101561153a57600d5486516001600160a01b0390911690637b987bea908490899063ffffffff861690811061149457611494613415565b602002602001015130888663ffffffff16815181106114b5576114b5613415565b60200260200101516040518563ffffffff1660e01b81526004016114f5939291909283526001600160a01b03919091166020830152604082015260600190565b6000604051808303818588803b15801561150e57600080fd5b505af1158015611522573d6000803e3d6000fd5b5050505050808061153290613549565b915050611454565b509198975050505050505050565b61155061192f565b600b61106a82848361356c565b610d39338383611fbd565b600080600f6000815461157a9061342b565b918290555060008181526010602052604090208481556001810180546001600160a01b031916331790559091506002016115b4878261348a565b506115d03382876040518060200160405280600081525061209d565b60008181526013602052604090206115e8888261348a565b506001600160601b0384161561160357611603813386611d55565b600d54604051633dcc3df560e11b815260048101859052306024820152604481018390526001600160a01b0390911690637b987bea9034906064016000604051808303818588803b15801561165757600080fd5b505af115801561166b573d6000803e3d6000fd5b50939a9950505050505050505050565b6060600060015b600f5481116116cf576000818152601060205260409020600101546001600160a01b038086169116036116bd57816116b98161342b565b9250505b806116c78161342b565b915050611682565b506000816001600160401b038111156116ea576116ea612b41565b604051908082528060200260200182016040528015611713578160200160208202803683370190505b509050600060015b600f548111611785576000818152601060205260409020600101546001600160a01b03808816911603611773578083836117548161342b565b94508151811061176657611766613415565b6020026020010181815250505b8061177d8161342b565b91505061171b565b5090949350505050565b6000611799610af5565b6001600160a01b031663428c090b6040518163ffffffff1660e01b8152600401602060405180830381865afa1580156117d6573d6000803e3d6000fd5b505050506040513d601f19601f82011682018060405250810190610b63919061362b565b6060600c80546111209061330b565b6001600160a01b038516331480611825575061182585336106a2565b6118415760405162461bcd60e51b8152600401610797906133aa565b610a578585858585612186565b61185661192f565b6001600160a01b0381166118bb5760405162461bcd60e51b815260206004820152602660248201527f4f776e61626c653a206e6577206f776e657220697320746865207a65726f206160448201526564647265737360d01b6064820152608401610797565b6118c481611d03565b50565b6001600160a01b0383163314806118e357506118e383336106a2565b6118ff5760405162461bcd60e51b8152600401610797906133aa565b61106a8383836122be565b60006001600160e01b0319821663152a902d60e11b14806107c357506107c3826123d6565b6003546001600160a01b0316331461110f5760405162461bcd60e51b815260206004820181905260248201527f4f776e61626c653a2063616c6c6572206973206e6f7420746865206f776e65726044820152606401610797565b81518351146119aa5760405162461bcd60e51b815260040161079790613644565b6001600160a01b0384166119d05760405162461bcd60e51b81526004016107979061368c565b336119df818787878787612426565b60005b8451811015611ac55760008582815181106119ff576119ff613415565b602002602001015190506000858381518110611a1d57611a1d613415565b602090810291909101810151600084815280835260408082206001600160a01b038e168352909352919091205490915081811015611a6d5760405162461bcd60e51b8152600401610797906136d1565b6000838152602081815260408083206001600160a01b038e8116855292528083208585039055908b16825281208054849290611aaa90849061371b565b9250508190555050505080611abe9061342b565b90506119e2565b50846001600160a01b0316866001600160a01b0316826001600160a01b03167f4a39dc06d4c0dbc64b70af90fd698a233a518aa5d07e595d983b8c0526c8f7fb8787604051611b1592919061372e565b60405180910390a4611b2b818787878787612434565b505050505050565b60008082600003611b4957506000905080610a0b565b6001838581611b5a57611b5a613372565b04915091509250929050565b6001600160a01b038316611b8c5760405162461bcd60e51b815260040161079790613753565b8051825114611bad5760405162461bcd60e51b815260040161079790613644565b6000339050611bd081856000868660405180602001604052806000815250612426565b60005b8351811015611c95576000848281518110611bf057611bf0613415565b602002602001015190506000848381518110611c0e57611c0e613415565b602090810291909101810151600084815280835260408082206001600160a01b038c168352909352919091205490915081811015611c5e5760405162461bcd60e51b815260040161079790613796565b6000928352602083815260408085206001600160a01b038b1686529091529092209103905580611c8d8161342b565b915050611bd3565b5060006001600160a01b0316846001600160a01b0316826001600160a01b03167f4a39dc06d4c0dbc64b70af90fd698a233a518aa5d07e595d983b8c0526c8f7fb8686604051611ce692919061372e565b60405180910390a460408051602081019091526000905250505050565b600380546001600160a01b038381166001600160a01b0319831681179093556040519116919082907f8be0079c531659141344cd1fd0a4f28419497f9722a3daafe3b4186f6b6457e090600090a35050565b6127106001600160601b0382161115611dc35760405162461bcd60e51b815260206004820152602a60248201527f455243323938313a20726f79616c7479206665652077696c6c206578636565646044820152692073616c65507269636560b01b6064820152608401610797565b6001600160a01b038216611e195760405162461bcd60e51b815260206004820152601b60248201527f455243323938313a20496e76616c696420706172616d657465727300000000006044820152606401610797565b6040805180820182526001600160a01b0393841681526001600160601b0392831660208083019182526000968752601290529190942093519051909116600160a01b029116179055565b6001600160a01b038416611e895760405162461bcd60e51b8152600401610797906137da565b8151835114611eaa5760405162461bcd60e51b815260040161079790613644565b33611eba81600087878787612426565b60005b8451811015611f5557838181518110611ed857611ed8613415565b6020026020010151600080878481518110611ef557611ef5613415565b602002602001015181526020019081526020016000206000886001600160a01b03166001600160a01b031681526020019081526020016000206000828254611f3d919061371b565b90915550819050611f4d8161342b565b915050611ebd565b50846001600160a01b031660006001600160a01b0316826001600160a01b03167f4a39dc06d4c0dbc64b70af90fd698a233a518aa5d07e595d983b8c0526c8f7fb8787604051611fa692919061372e565b60405180910390a4610a5781600087878787612434565b816001600160a01b0316836001600160a01b0316036120305760405162461bcd60e51b815260206004820152602960248201527f455243313135353a2073657474696e6720617070726f76616c20737461747573604482015268103337b91039b2b63360b91b6064820152608401610797565b6001600160a01b03838116600081815260016020908152604080832094871680845294825291829020805460ff191686151590811790915591519182527f17307eab39ab6107e8899845ad3d59bd9653f200f220920489ca2b5937696c31910160405180910390a3505050565b6001600160a01b0384166120c35760405162461bcd60e51b8152600401610797906137da565b3360006120cf8561258f565b905060006120dc8561258f565b90506120ed83600089858589612426565b6000868152602081815260408083206001600160a01b038b1684529091528120805487929061211d90849061371b565b909155505060408051878152602081018790526001600160a01b03808a1692600092918716917fc3d58168c5ae7397731d063d5bbf3d657854427343f4c083240f7aacaa2d0f62910160405180910390a461217d836000898989896125da565b50505050505050565b6001600160a01b0384166121ac5760405162461bcd60e51b81526004016107979061368c565b3360006121b88561258f565b905060006121c58561258f565b90506121d5838989858589612426565b6000868152602081815260408083206001600160a01b038c168452909152902054858110156122165760405162461bcd60e51b8152600401610797906136d1565b6000878152602081815260408083206001600160a01b038d8116855292528083208985039055908a1682528120805488929061225390849061371b565b909155505060408051888152602081018890526001600160a01b03808b16928c821692918816917fc3d58168c5ae7397731d063d5bbf3d657854427343f4c083240f7aacaa2d0f62910160405180910390a46122b3848a8a8a8a8a6125da565b505050505050505050565b6001600160a01b0383166122e45760405162461bcd60e51b815260040161079790613753565b3360006122f08461258f565b905060006122fd8461258f565b905061231d83876000858560405180602001604052806000815250612426565b6000858152602081815260408083206001600160a01b038a1684529091529020548481101561235e5760405162461bcd60e51b815260040161079790613796565b6000868152602081815260408083206001600160a01b038b81168086529184528285208a8703905582518b81529384018a90529092908816917fc3d58168c5ae7397731d063d5bbf3d657854427343f4c083240f7aacaa2d0f62910160405180910390a460408051602081019091526000905261217d565b60006001600160e01b03198216636cdb3d1360e11b148061240757506001600160e01b031982166303a24d0760e21b145b806107c357506301ffc9a760e01b6001600160e01b03198316146107c3565b611b2b868686868686612695565b6001600160a01b0384163b15611b2b5760405163bc197c8160e01b81526001600160a01b0385169063bc197c8190612478908990899088908890889060040161381b565b6020604051808303816000875af19250505080156124b3575060408051601f3d908101601f191682019092526124b091810190613879565b60015b61255f576124bf613896565b806308c379a0036124f857506124d36138b2565b806124de57506124fa565b8060405162461bcd60e51b81526004016107979190612aef565b505b60405162461bcd60e51b815260206004820152603460248201527f455243313135353a207472616e7366657220746f206e6f6e2d455243313135356044820152732932b1b2b4bb32b91034b6b83632b6b2b73a32b960611b6064820152608401610797565b6001600160e01b0319811663bc197c8160e01b1461217d5760405162461bcd60e51b81526004016107979061393b565b604080516001808252818301909252606091600091906020808301908036833701905050905082816000815181106125c9576125c9613415565b602090810291909101015292915050565b6001600160a01b0384163b15611b2b5760405163f23a6e6160e01b81526001600160a01b0385169063f23a6e619061261e9089908990889088908890600401613983565b6020604051808303816000875af1925050508015612659575060408051601f3d908101601f1916820190925261265691810190613879565b60015b612665576124bf613896565b6001600160e01b0319811663f23a6e6160e01b1461217d5760405162461bcd60e51b81526004016107979061393b565b60005b83518163ffffffff16101561217d576000848263ffffffff16815181106126c1576126c1613415565b602002602001015190506000848363ffffffff16815181106126e5576126e5613415565b6020026020010151905060006001600160a01b0316886001600160a01b0316036127565761275182600880546000838152600960205260408120829055600182018355919091527ff3f7a9fe364faab93b216da50a3214154f22a0a2b415b23a84c8169e8b636ee30155565b6127be565b866001600160a01b0316886001600160a01b03161415801561278057508061277e8984610730565b145b156127be5761278f8883612885565b6001600160a01b03881660009081526004602052604081208054600192906127b89084906139c8565b90915550505b876001600160a01b0316876001600160a01b0316141580156127e857506001600160a01b03871615155b80156127fb57506127f98783610730565b155b1561283e5761280a8783612922565b6001600160a01b038716600090815260046020526040812080546001929061283390849061371b565b909155506128709050565b6001600160a01b038716158015612862575060008281526007602052604090205481145b156128705761287082612966565b5050808061287d90613549565b915050612698565b6000600161289284610f0c565b61289c91906139c8565b6000838152600660205260409020549091508082146128ef576001600160a01b03841660009081526005602090815260408083208584528252808320548484528184208190558352600690915290208190555b5060009182526006602090815260408084208490556001600160a01b039094168352600581528383209183525290812055565b600061292d83610f0c565b6001600160a01b039093166000908152600560209081526040808320868452825280832085905593825260069052919091209190915550565b600854600090612978906001906139c8565b600083815260096020526040812054600880549394509092849081106129a0576129a0613415565b9060005260206000200154905080600883815481106129c1576129c1613415565b60009182526020808320909101929092558281526009909152604080822084905585825281205560088054806129f9576129f96139db565b6001900381819060005260206000200160009055905550505050565b6001600160a01b03811681146118c457600080fd5b60008060408385031215612a3d57600080fd5b8235612a4881612a15565b946020939093013593505050565b6001600160e01b0319811681146118c457600080fd5b600060208284031215612a7e57600080fd5b8135612a8981612a56565b9392505050565b600060208284031215612aa257600080fd5b5035919050565b6000815180845260005b81811015612acf57602081850181015186830182015201612ab3565b506000602082860101526020601f19601f83011685010191505092915050565b602081526000612a896020830184612aa9565b600060208284031215612b1457600080fd5b8135612a8981612a15565b60008060408385031215612b3257600080fd5b50508035926020909101359150565b634e487b7160e01b600052604160045260246000fd5b601f8201601f191681016001600160401b0381118282101715612b7c57612b7c612b41565b6040525050565b60006001600160401b03821115612b9c57612b9c612b41565b5060051b60200190565b600082601f830112612bb757600080fd5b81356020612bc482612b83565b604051612bd18282612b57565b83815260059390931b8501820192828101915086841115612bf157600080fd5b8286015b84811015612c0c5780358352918301918301612bf5565b509695505050505050565b600082601f830112612c2857600080fd5b81356001600160401b03811115612c4157612c41612b41565b604051612c58601f8301601f191660200182612b57565b818152846020838601011115612c6d57600080fd5b816020850160208301376000918101602001919091529392505050565b600080600080600060a08688031215612ca257600080fd5b8535612cad81612a15565b94506020860135612cbd81612a15565b935060408601356001600160401b0380821115612cd957600080fd5b612ce589838a01612ba6565b94506060880135915080821115612cfb57600080fd5b612d0789838a01612ba6565b93506080880135915080821115612d1d57600080fd5b50612d2a88828901612c17565b9150509295509295909350565b60008060408385031215612d4a57600080fd5b82356001600160401b0380821115612d6157600080fd5b818501915085601f830112612d7557600080fd5b81356020612d8282612b83565b604051612d8f8282612b57565b83815260059390931b8501820192828101915089841115612daf57600080fd5b948201945b83861015612dd6578535612dc781612a15565b82529482019490820190612db4565b96505086013592505080821115612dec57600080fd5b50612df985828601612ba6565b9150509250929050565b600081518084526020808501945080840160005b83811015612e3357815187529582019590820190600101612e17565b509495945050505050565b602081526000612a896020830184612e03565b600060208284031215612e6357600080fd5b81356001600160401b03811115612e7957600080fd5b612e8584828501612c17565b949350505050565b8381526001600160a01b0383166020820152606060408201819052600090612eb790830184612aa9565b95945050505050565b600080600080600060a08688031215612ed857600080fd5b8535612ee381612a15565b94506020860135612ef381612a15565b9350604086013592506060860135915060808601356001600160401b03811115612f1c57600080fd5b612d2a88828901612c17565b600080600060608486031215612f3d57600080fd5b8335612f4881612a15565b925060208401356001600160401b0380821115612f6457600080fd5b612f7087838801612ba6565b93506040860135915080821115612f8657600080fd5b50612f9386828701612ba6565b9150509250925092565b600082601f830112612fae57600080fd5b81356020612fbb82612b83565b604051612fc88282612b57565b83815260059390931b8501820192828101915086841115612fe857600080fd5b8286015b84811015612c0c5780356001600160401b0381111561300b5760008081fd5b6130198986838b0101612c17565b845250918301918301612fec565b80356001600160601b038116811461303e57600080fd5b919050565b600082601f83011261305457600080fd5b8135602061306182612b83565b60405161306e8282612b57565b83815260059390931b850182019282810191508684111561308e57600080fd5b8286015b84811015612c0c576130a381613027565b8352918301918301613092565b600080600080600060a086880312156130c857600080fd5b85356001600160401b03808211156130df57600080fd5b6130eb89838a01612f9d565b9650602088013591508082111561310157600080fd5b61310d89838a01612f9d565b9550604088013591508082111561312357600080fd5b61312f89838a01612ba6565b9450606088013591508082111561314557600080fd5b61315189838a01613043565b9350608088013591508082111561316757600080fd5b50612d2a88828901612ba6565b6000806020838503121561318757600080fd5b82356001600160401b038082111561319e57600080fd5b818501915085601f8301126131b257600080fd5b8135818111156131c157600080fd5b8660208285010111156131d357600080fd5b60209290920196919550909350505050565b600080604083850312156131f857600080fd5b823561320381612a15565b91506020830135801515811461321857600080fd5b809150509250929050565b600080600080600060a0868803121561323b57600080fd5b85356001600160401b038082111561325257600080fd5b61325e89838a01612c17565b9650602088013591508082111561327457600080fd5b5061328188828901612c17565b9450506040860135925061329760608701613027565b949793965091946080013592915050565b600080604083850312156132bb57600080fd5b82356132c681612a15565b9150602083013561321881612a15565b6000806000606084860312156132eb57600080fd5b83356132f681612a15565b95602085013595506040909401359392505050565b600181811c9082168061331f57607f821691505b60208210810361333f57634e487b7160e01b600052602260045260246000fd5b50919050565b634e487b7160e01b600052601160045260246000fd5b80820281158282048414176107c3576107c3613345565b634e487b7160e01b600052601260045260246000fd5b6000826133a557634e487b7160e01b600052601260045260246000fd5b500490565b6020808252602e908201527f455243313135353a2063616c6c6572206973206e6f7420746f6b656e206f776e60408201526d195c881bdc88185c1c1c9bdd995960921b606082015260800190565b60006020828403121561340a57600080fd5b8151612a8981612a15565b634e487b7160e01b600052603260045260246000fd5b60006001820161343d5761343d613345565b5060010190565b601f82111561106a57600081815260208120601f850160051c8101602086101561346b5750805b601f850160051c820191505b81811015611b2b57828155600101613477565b81516001600160401b038111156134a3576134a3612b41565b6134b7816134b1845461330b565b84613444565b602080601f8311600181146134ec57600084156134d45750858301515b600019600386901b1c1916600185901b178555611b2b565b600085815260208120601f198616915b8281101561351b578886015182559484019460019091019084016134fc565b50858210156135395787850151600019600388901b60f8161c191681555b5050505050600190811b01905550565b600063ffffffff80831681810361356257613562613345565b6001019392505050565b6001600160401b0383111561358357613583612b41565b61359783613591835461330b565b83613444565b6000601f8411600181146135cb57600085156135b35750838201355b600019600387901b1c1916600186901b178355610a57565b600083815260209020601f19861690835b828110156135fc57868501358255602094850194600190920191016135dc565b50868210156136195760001960f88860031b161c19848701351681555b505060018560011b0183555050505050565b60006020828403121561363d57600080fd5b5051919050565b60208082526028908201527f455243313135353a2069647320616e6420616d6f756e7473206c656e677468206040820152670dad2e6dac2e8c6d60c31b606082015260800190565b60208082526025908201527f455243313135353a207472616e7366657220746f20746865207a65726f206164604082015264647265737360d81b606082015260800190565b6020808252602a908201527f455243313135353a20696e73756666696369656e742062616c616e636520666f60408201526939103a3930b739b332b960b11b606082015260800190565b808201808211156107c3576107c3613345565b6040815260006137416040830185612e03565b8281036020840152612eb78185612e03565b60208082526023908201527f455243313135353a206275726e2066726f6d20746865207a65726f206164647260408201526265737360e81b606082015260800190565b60208082526024908201527f455243313135353a206275726e20616d6f756e7420657863656564732062616c604082015263616e636560e01b606082015260800190565b60208082526021908201527f455243313135353a206d696e7420746f20746865207a65726f206164647265736040820152607360f81b606082015260800190565b6001600160a01b0386811682528516602082015260a06040820181905260009061384790830186612e03565b82810360608401526138598186612e03565b9050828103608084015261386d8185612aa9565b98975050505050505050565b60006020828403121561388b57600080fd5b8151612a8981612a56565b600060033d11156138af5760046000803e5060005160e01c5b90565b600060443d10156138c05790565b6040516003193d81016004833e81513d6001600160401b0381602484011181841117156138ef57505050505090565b82850191508151818111156139075750505050505090565b843d87010160208285010111156139215750505050505090565b61393060208286010187612b57565b509095945050505050565b60208082526028908201527f455243313135353a204552433131353552656365697665722072656a656374656040820152676420746f6b656e7360c01b606082015260800190565b6001600160a01b03868116825285166020820152604081018490526060810183905260a0608082018190526000906139bd90830184612aa9565b979650505050505050565b818103818111156107c3576107c3613345565b634e487b7160e01b600052603160045260246000fdfea264697066735822122075c5e8148119bb8ac64af1ae5d012e4dee91fb876c2a453287a3d8c1e155e89764736f6c63430008110033",
  "linkReferences": {},
  "deployedLinkReferences": {}
}