{
  "contractName": "VWBL",
  "abi": [
    {
      "inputs": [
        {
          "internalType": "string",
          "name": "_baseURI",
          "type": "string"
        },
        {
          "internalType": "address",
          "name": "_gatewayContract",
          "type": "address"
        }
      ],
      "stateMutability": "nonpayable",
      "type": "constructor"
    },
    {
      "anonymous": false,
      "inputs": [
        {
          "indexed": true,
          "internalType": "address",
          "name": "owner",
          "type": "address"
        },
        {
          "indexed": true,
          "internalType": "address",
          "name": "approved",
          "type": "address"
        },
        {
          "indexed": true,
          "internalType": "uint256",
          "name": "tokenId",
          "type": "uint256"
        }
      ],
      "name": "Approval",
      "type": "event"
    },
    {
      "anonymous": false,
      "inputs": [
        {
          "indexed": true,
          "internalType": "address",
          "name": "owner",
          "type": "address"
        },
        {
          "indexed": true,
          "internalType": "address",
          "name": "operator",
          "type": "address"
        },
        {
          "indexed": false,
          "internalType": "bool",
          "name": "approved",
          "type": "bool"
        }
      ],
      "name": "ApprovalForAll",
      "type": "event"
    },
    {
      "anonymous": false,
      "inputs": [
        {
          "indexed": true,
          "internalType": "address",
          "name": "previousOwner",
          "type": "address"
        },
        {
          "indexed": true,
          "internalType": "address",
          "name": "newOwner",
          "type": "address"
        }
      ],
      "name": "OwnershipTransferred",
      "type": "event"
    },
    {
      "anonymous": false,
      "inputs": [
        {
          "indexed": true,
          "internalType": "address",
          "name": "from",
          "type": "address"
        },
        {
          "indexed": true,
          "internalType": "address",
          "name": "to",
          "type": "address"
        },
        {
          "indexed": true,
          "internalType": "uint256",
          "name": "tokenId",
          "type": "uint256"
        }
      ],
      "name": "Transfer",
      "type": "event"
    },
    {
      "anonymous": false,
      "inputs": [
        {
          "indexed": false,
          "internalType": "address",
          "name": "oldGatewayContract",
          "type": "address"
        },
        {
          "indexed": false,
          "internalType": "address",
          "name": "newGatewayContract",
          "type": "address"
        }
      ],
      "name": "gatewayContractChanged",
      "type": "event"
    },
    {
      "inputs": [],
      "name": "INVERSE_BASIS_POINT",
      "outputs": [
        {
          "internalType": "uint256",
          "name": "",
          "type": "uint256"
        }
      ],
      "stateMutability": "view",
      "type": "function",
      "constant": true
    },
    {
      "inputs": [
        {
          "internalType": "address",
          "name": "to",
          "type": "address"
        },
        {
          "internalType": "uint256",
          "name": "tokenId",
          "type": "uint256"
        }
      ],
      "name": "approve",
      "outputs": [],
      "stateMutability": "nonpayable",
      "type": "function"
    },
    {
      "inputs": [
        {
          "internalType": "address",
          "name": "owner",
          "type": "address"
        }
      ],
      "name": "balanceOf",
      "outputs": [
        {
          "internalType": "uint256",
          "name": "",
          "type": "uint256"
        }
      ],
      "stateMutability": "view",
      "type": "function",
      "constant": true
    },
    {
      "inputs": [],
      "name": "baseURI",
      "outputs": [
        {
          "internalType": "string",
          "name": "",
          "type": "string"
        }
      ],
      "stateMutability": "view",
      "type": "function",
      "constant": true
    },
    {
      "inputs": [],
      "name": "counter",
      "outputs": [
        {
          "internalType": "uint256",
          "name": "",
          "type": "uint256"
        }
      ],
      "stateMutability": "view",
      "type": "function",
      "constant": true
    },
    {
      "inputs": [],
      "name": "gatewayContract",
      "outputs": [
        {
          "internalType": "address",
          "name": "",
          "type": "address"
        }
      ],
      "stateMutability": "view",
      "type": "function",
      "constant": true
    },
    {
      "inputs": [
        {
          "internalType": "uint256",
          "name": "tokenId",
          "type": "uint256"
        }
      ],
      "name": "getApproved",
      "outputs": [
        {
          "internalType": "address",
          "name": "",
          "type": "address"
        }
      ],
      "stateMutability": "view",
      "type": "function",
      "constant": true
    },
    {
      "inputs": [
        {
          "internalType": "address",
          "name": "minter",
          "type": "address"
        }
      ],
      "name": "getTokenByMinter",
      "outputs": [
        {
          "internalType": "uint256[]",
          "name": "",
          "type": "uint256[]"
        }
      ],
      "stateMutability": "view",
      "type": "function",
      "constant": true
    },
    {
      "inputs": [
        {
          "internalType": "address",
          "name": "owner",
          "type": "address"
        },
        {
          "internalType": "address",
          "name": "operator",
          "type": "address"
        }
      ],
      "name": "isApprovedForAll",
      "outputs": [
        {
          "internalType": "bool",
          "name": "",
          "type": "bool"
        }
      ],
      "stateMutability": "view",
      "type": "function",
      "constant": true
    },
    {
      "inputs": [],
      "name": "name",
      "outputs": [
        {
          "internalType": "string",
          "name": "",
          "type": "string"
        }
      ],
      "stateMutability": "view",
      "type": "function",
      "constant": true
    },
    {
      "inputs": [],
      "name": "owner",
      "outputs": [
        {
          "internalType": "address",
          "name": "",
          "type": "address"
        }
      ],
      "stateMutability": "view",
      "type": "function",
      "constant": true
    },
    {
      "inputs": [
        {
          "internalType": "uint256",
          "name": "tokenId",
          "type": "uint256"
        }
      ],
      "name": "ownerOf",
      "outputs": [
        {
          "internalType": "address",
          "name": "",
          "type": "address"
        }
      ],
      "stateMutability": "view",
      "type": "function",
      "constant": true
    },
    {
      "inputs": [],
      "name": "renounceOwnership",
      "outputs": [],
      "stateMutability": "nonpayable",
      "type": "function"
    },
    {
      "inputs": [
        {
          "internalType": "uint256",
          "name": "_tokenId",
          "type": "uint256"
        },
        {
          "internalType": "uint256",
          "name": "_salePrice",
          "type": "uint256"
        }
      ],
      "name": "royaltyInfo",
      "outputs": [
        {
          "internalType": "address",
          "name": "receiver",
          "type": "address"
        },
        {
          "internalType": "uint256",
          "name": "royaltyAmount",
          "type": "uint256"
        }
      ],
      "stateMutability": "view",
      "type": "function",
      "constant": true
    },
    {
      "inputs": [
        {
          "internalType": "address",
          "name": "from",
          "type": "address"
        },
        {
          "internalType": "address",
          "name": "to",
          "type": "address"
        },
        {
          "internalType": "uint256",
          "name": "tokenId",
          "type": "uint256"
        }
      ],
      "name": "safeTransferFrom",
      "outputs": [],
      "stateMutability": "nonpayable",
      "type": "function"
    },
    {
      "inputs": [
        {
          "internalType": "address",
          "name": "operator",
          "type": "address"
        },
        {
          "internalType": "bool",
          "name": "approved",
          "type": "bool"
        }
      ],
      "name": "setApprovalForAll",
      "outputs": [],
      "stateMutability": "nonpayable",
      "type": "function"
    },
    {
      "inputs": [
        {
          "internalType": "bytes4",
          "name": "interfaceId",
          "type": "bytes4"
        }
      ],
      "name": "supportsInterface",
      "outputs": [
        {
          "internalType": "bool",
          "name": "",
          "type": "bool"
        }
      ],
      "stateMutability": "view",
      "type": "function",
      "constant": true
    },
    {
      "inputs": [],
      "name": "symbol",
      "outputs": [
        {
          "internalType": "string",
          "name": "",
          "type": "string"
        }
      ],
      "stateMutability": "view",
      "type": "function",
      "constant": true
    },
    {
      "inputs": [
        {
          "internalType": "uint256",
          "name": "index",
          "type": "uint256"
        }
      ],
      "name": "tokenByIndex",
      "outputs": [
        {
          "internalType": "uint256",
          "name": "",
          "type": "uint256"
        }
      ],
      "stateMutability": "view",
      "type": "function",
      "constant": true
    },
    {
      "inputs": [
        {
          "internalType": "uint256",
          "name": "",
          "type": "uint256"
        }
      ],
      "name": "tokenIdToRoyaltyInfo",
      "outputs": [
        {
          "internalType": "address",
          "name": "recipient",
          "type": "address"
        },
        {
          "internalType": "uint256",
          "name": "royaltiesPercentage",
          "type": "uint256"
        }
      ],
      "stateMutability": "view",
      "type": "function",
      "constant": true
    },
    {
      "inputs": [
        {
          "internalType": "uint256",
          "name": "",
          "type": "uint256"
        }
      ],
      "name": "tokenIdToTokenInfo",
      "outputs": [
        {
          "internalType": "bytes32",
          "name": "documentId",
          "type": "bytes32"
        },
        {
          "internalType": "address",
          "name": "minterAddress",
          "type": "address"
        },
        {
          "internalType": "string",
          "name": "getKeyURl",
          "type": "string"
        }
      ],
      "stateMutability": "view",
      "type": "function",
      "constant": true
    },
    {
      "inputs": [
        {
          "internalType": "address",
          "name": "owner",
          "type": "address"
        },
        {
          "internalType": "uint256",
          "name": "index",
          "type": "uint256"
        }
      ],
      "name": "tokenOfOwnerByIndex",
      "outputs": [
        {
          "internalType": "uint256",
          "name": "",
          "type": "uint256"
        }
      ],
      "stateMutability": "view",
      "type": "function",
      "constant": true
    },
    {
      "inputs": [
        {
          "internalType": "uint256",
          "name": "tokenId",
          "type": "uint256"
        }
      ],
      "name": "tokenURI",
      "outputs": [
        {
          "internalType": "string",
          "name": "",
          "type": "string"
        }
      ],
      "stateMutability": "view",
      "type": "function",
      "constant": true
    },
    {
      "inputs": [],
      "name": "totalSupply",
      "outputs": [
        {
          "internalType": "uint256",
          "name": "",
          "type": "uint256"
        }
      ],
      "stateMutability": "view",
      "type": "function",
      "constant": true
    },
    {
      "inputs": [
        {
          "internalType": "address",
          "name": "from",
          "type": "address"
        },
        {
          "internalType": "address",
          "name": "to",
          "type": "address"
        },
        {
          "internalType": "uint256",
          "name": "tokenId",
          "type": "uint256"
        }
      ],
      "name": "transferFrom",
      "outputs": [],
      "stateMutability": "nonpayable",
      "type": "function"
    },
    {
      "inputs": [
        {
          "internalType": "address",
          "name": "newOwner",
          "type": "address"
        }
      ],
      "name": "transferOwnership",
      "outputs": [],
      "stateMutability": "nonpayable",
      "type": "function"
    },
    {
      "inputs": [
        {
          "internalType": "string",
          "name": "_baseURI",
          "type": "string"
        }
      ],
      "name": "setBaseURI",
      "outputs": [],
      "stateMutability": "nonpayable",
      "type": "function"
    },
    {
      "inputs": [
        {
          "internalType": "address",
          "name": "newGatewayContract",
          "type": "address"
        }
      ],
      "name": "setGatewayContract",
      "outputs": [],
      "stateMutability": "nonpayable",
      "type": "function"
    },
    {
      "inputs": [],
      "name": "getFee",
      "outputs": [
        {
          "internalType": "uint256",
          "name": "",
          "type": "uint256"
        }
      ],
      "stateMutability": "view",
      "type": "function",
      "constant": true
    },
    {
      "inputs": [
        {
          "internalType": "string",
          "name": "_getKeyURl",
          "type": "string"
        },
        {
          "internalType": "uint256",
          "name": "_royaltiesPercentage",
          "type": "uint256"
        },
        {
          "internalType": "bytes32",
          "name": "_documentId",
          "type": "bytes32"
        }
      ],
      "name": "mint",
      "outputs": [
        {
          "internalType": "uint256",
          "name": "",
          "type": "uint256"
        }
      ],
      "stateMutability": "payable",
      "type": "function",
      "payable": true
    },
    {
      "inputs": [
        {
          "internalType": "uint256",
          "name": "tokenId",
          "type": "uint256"
        }
      ],
      "name": "getMinter",
      "outputs": [
        {
          "internalType": "address",
          "name": "",
          "type": "address"
        }
      ],
      "stateMutability": "view",
      "type": "function",
      "constant": true
    }
  ],
  "bytecode": "0x60806040526000600a553480156200001657600080fd5b50604051620027dd380380620027dd833981016040819052620000399162000217565b6040805180820182526004808252631595d09360e21b60208084018281528551808701909652928552840152815191929162000078916000916200013e565b5080516200008e9060019060208401906200013e565b505050620000ab620000a5620000e860201b60201c565b620000ec565b8151620000c090600e9060208501906200013e565b50600f80546001600160a01b0319166001600160a01b03929092169190911790555062000345565b3390565b600d80546001600160a01b038381166001600160a01b0319831681179093556040519116919082907f8be0079c531659141344cd1fd0a4f28419497f9722a3daafe3b4186f6b6457e090600090a35050565b8280546200014c9062000308565b90600052602060002090601f016020900481019282620001705760008555620001bb565b82601f106200018b57805160ff1916838001178555620001bb565b82800160010185558215620001bb579182015b82811115620001bb5782518255916020019190600101906200019e565b50620001c9929150620001cd565b5090565b5b80821115620001c95760008155600101620001ce565b634e487b7160e01b600052604160045260246000fd5b80516001600160a01b03811681146200021257600080fd5b919050565b600080604083850312156200022b57600080fd5b82516001600160401b03808211156200024357600080fd5b818501915085601f8301126200025857600080fd5b8151818111156200026d576200026d620001e4565b604051601f8201601f19908116603f01168101908382118183101715620002985762000298620001e4565b81604052828152602093508884848701011115620002b557600080fd5b600091505b82821015620002d95784820184015181830185015290830190620002ba565b82821115620002eb5760008484830101525b9550620002fd915050858201620001fa565b925050509250929050565b600181811c908216806200031d57607f821691505b602082108114156200033f57634e487b7160e01b600052602260045260246000fd5b50919050565b61248880620003556000396000f3fe6080604052600436106101e35760003560e01c80636352211e11610102578063c87b56dd11610095578063de5bb4b711610064578063de5bb4b7146105ca578063e985e9c5146105dd578063eb0cde1d14610626578063f2fde38b1461064657600080fd5b8063c87b56dd14610552578063cae6047f14610572578063ce5af33614610588578063ced72f87146105b557600080fd5b80638da5cb5b116100d15780638da5cb5b146104df57806395d89b41146104fd578063a22cb46514610512578063b88d4fde1461053257600080fd5b80636352211e146104755780636c0360eb1461049557806370a08231146104aa578063715018a6146104ca57600080fd5b80632f745c591161017a57806355f804b31161014957806355f804b3146103d75780635b7121f8146103f75780635fb8bcd51461043057806361bc221a1461045f57600080fd5b80632f745c591461035757806342842e0e146103775780634f6ccce71461039757806350932cb5146103b757600080fd5b806318160ddd116101b657806318160ddd1461029957806319daf1bf146102b857806323b872dd146103175780632a55205a1461033757600080fd5b806301ffc9a7146101e857806306fdde031461021d578063081812fc1461023f578063095ea7b314610277575b600080fd5b3480156101f457600080fd5b50610208610203366004611dc3565b610666565b60405190151581526020015b60405180910390f35b34801561022957600080fd5b50610232610691565b6040516102149190611e38565b34801561024b57600080fd5b5061025f61025a366004611e4b565b610723565b6040516001600160a01b039091168152602001610214565b34801561028357600080fd5b50610297610292366004611e80565b6107bd565b005b3480156102a557600080fd5b506008545b604051908152602001610214565b3480156102c457600080fd5b506102f86102d3366004611e4b565b600c60205260009081526040902080546001909101546001600160a01b039091169082565b604080516001600160a01b039093168352602083019190915201610214565b34801561032357600080fd5b50610297610332366004611eaa565b6108d3565b34801561034357600080fd5b506102f8610352366004611ee6565b610904565b34801561036357600080fd5b506102aa610372366004611e80565b61095e565b34801561038357600080fd5b50610297610392366004611eaa565b6109f4565b3480156103a357600080fd5b506102aa6103b2366004611e4b565b610a0f565b3480156103c357600080fd5b506102976103d2366004611f08565b610aa2565b3480156103e357600080fd5b506102976103f2366004611fcf565b610b48565b34801561040357600080fd5b5061025f610412366004611e4b565b6000908152600b60205260409020600101546001600160a01b031690565b34801561043c57600080fd5b5061045061044b366004611e4b565b610b89565b60405161021493929190612004565b34801561046b57600080fd5b506102aa600a5481565b34801561048157600080fd5b5061025f610490366004611e4b565b610c3e565b3480156104a157600080fd5b50610232610cb5565b3480156104b657600080fd5b506102aa6104c5366004611f08565b610d43565b3480156104d657600080fd5b50610297610dca565b3480156104eb57600080fd5b50600d546001600160a01b031661025f565b34801561050957600080fd5b50610232610e00565b34801561051e57600080fd5b5061029761052d366004612037565b610e0f565b34801561053e57600080fd5b5061029761054d366004612073565b610e1a565b34801561055e57600080fd5b5061023261056d366004611e4b565b610e52565b34801561057e57600080fd5b506102aa61271081565b34801561059457600080fd5b506105a86105a3366004611f08565b610f2d565b60405161021491906120ef565b3480156105c157600080fd5b506102aa611044565b6102aa6105d8366004612133565b6110b7565b3480156105e957600080fd5b506102086105f8366004612181565b6001600160a01b03918216600090815260056020908152604080832093909416825291909152205460ff1690565b34801561063257600080fd5b50600f5461025f906001600160a01b031681565b34801561065257600080fd5b50610297610661366004611f08565b61113c565b60006001600160e01b0319821663152a902d60e11b148061068b575061068b826111d7565b92915050565b6060600080546106a0906121b4565b80601f01602080910402602001604051908101604052809291908181526020018280546106cc906121b4565b80156107195780601f106106ee57610100808354040283529160200191610719565b820191906000526020600020905b8154815290600101906020018083116106fc57829003601f168201915b5050505050905090565b6000818152600260205260408120546001600160a01b03166107a15760405162461bcd60e51b815260206004820152602c60248201527f4552433732313a20617070726f76656420717565727920666f72206e6f6e657860448201526b34b9ba32b73a103a37b5b2b760a11b60648201526084015b60405180910390fd5b506000908152600460205260409020546001600160a01b031690565b60006107c882610c3e565b9050806001600160a01b0316836001600160a01b031614156108365760405162461bcd60e51b815260206004820152602160248201527f4552433732313a20617070726f76616c20746f2063757272656e74206f776e656044820152603960f91b6064820152608401610798565b336001600160a01b0382161480610852575061085281336105f8565b6108c45760405162461bcd60e51b815260206004820152603860248201527f4552433732313a20617070726f76652063616c6c6572206973206e6f74206f7760448201527f6e6572206e6f7220617070726f76656420666f7220616c6c00000000000000006064820152608401610798565b6108ce83836111fc565b505050565b6108dd338261126a565b6108f95760405162461bcd60e51b8152600401610798906121ef565b6108ce838383611361565b6000828152600c60209081526040808320815180830190925280546001600160a01b031682526001015491810182905282918290612710906109469087612256565b610950919061228b565b915196919550909350505050565b600061096983610d43565b82106109cb5760405162461bcd60e51b815260206004820152602b60248201527f455243373231456e756d657261626c653a206f776e657220696e646578206f7560448201526a74206f6620626f756e647360a81b6064820152608401610798565b506001600160a01b03919091166000908152600660209081526040808320938352929052205490565b6108ce83838360405180602001604052806000815250610e1a565b6000610a1a60085490565b8210610a7d5760405162461bcd60e51b815260206004820152602c60248201527f455243373231456e756d657261626c653a20676c6f62616c20696e646578206f60448201526b7574206f6620626f756e647360a01b6064820152608401610798565b60088281548110610a9057610a9061229f565b90600052602060002001549050919050565b600d546001600160a01b03163314610acc5760405162461bcd60e51b8152600401610798906122b5565b600f546001600160a01b0382811691161415610ae757600080fd5b600f80546001600160a01b038381166001600160a01b031983168117909355604080519190921680825260208201939093527f9b015b8749c8a182300e9c8c7699c761729b84ff89651162dd89881ff1273f63910160405180910390a15050565b600d546001600160a01b03163314610b725760405162461bcd60e51b8152600401610798906122b5565b8051610b8590600e906020840190611d14565b5050565b600b6020526000908152604090208054600182015460028301805492936001600160a01b0390921692610bbb906121b4565b80601f0160208091040260200160405190810160405280929190818152602001828054610be7906121b4565b8015610c345780601f10610c0957610100808354040283529160200191610c34565b820191906000526020600020905b815481529060010190602001808311610c1757829003601f168201915b5050505050905083565b6000818152600260205260408120546001600160a01b03168061068b5760405162461bcd60e51b815260206004820152602960248201527f4552433732313a206f776e657220717565727920666f72206e6f6e657869737460448201526832b73a103a37b5b2b760b91b6064820152608401610798565b600e8054610cc2906121b4565b80601f0160208091040260200160405190810160405280929190818152602001828054610cee906121b4565b8015610d3b5780601f10610d1057610100808354040283529160200191610d3b565b820191906000526020600020905b815481529060010190602001808311610d1e57829003601f168201915b505050505081565b60006001600160a01b038216610dae5760405162461bcd60e51b815260206004820152602a60248201527f4552433732313a2062616c616e636520717565727920666f7220746865207a65604482015269726f206164647265737360b01b6064820152608401610798565b506001600160a01b031660009081526003602052604090205490565b600d546001600160a01b03163314610df45760405162461bcd60e51b8152600401610798906122b5565b610dfe6000611508565b565b6060600180546106a0906121b4565b610b8533838361155a565b610e24338361126a565b610e405760405162461bcd60e51b8152600401610798906121ef565b610e4c84848484611629565b50505050565b6000818152600260205260409020546060906001600160a01b0316610ed15760405162461bcd60e51b815260206004820152602f60248201527f4552433732314d657461646174613a2055524920717565727920666f72206e6f60448201526e3732bc34b9ba32b73a103a37b5b2b760891b6064820152608401610798565b6000610edb61165c565b90506000815111610efb5760405180602001604052806000815250610f26565b80610f058461166b565b604051602001610f169291906122ea565b6040516020818303038152906040525b9392505050565b6060600060015b600a548111610f82576000818152600b60205260409020600101546001600160a01b0385811691161415610f705781610f6c81612319565b9250505b80610f7a81612319565b915050610f34565b5060008167ffffffffffffffff811115610f9e57610f9e611f23565b604051908082528060200260200182016040528015610fc7578160200160208202803683370190505b509050600060015b600a54811161103a576000818152600b60205260409020600101546001600160a01b03878116911614156110285780838361100981612319565b94508151811061101b5761101b61229f565b6020026020010181815250505b8061103281612319565b915050610fcf565b5090949350505050565b600f546040805163428c090b60e01b815290516000926001600160a01b03169163428c090b9160048083019260209291908290030181865afa15801561108e573d6000803e3d6000fd5b505050506040513d601f19601f820116820180604052508101906110b29190612334565b905090565b6000806110c5838686611769565b600f5460405163292571e360e11b815260048101869052306024820152604481018390529192506001600160a01b03169063524ae3c69034906064016000604051808303818588803b15801561111a57600080fd5b505af115801561112e573d6000803e3d6000fd5b509398975050505050505050565b600d546001600160a01b031633146111665760405162461bcd60e51b8152600401610798906122b5565b6001600160a01b0381166111cb5760405162461bcd60e51b815260206004820152602660248201527f4f776e61626c653a206e6577206f776e657220697320746865207a65726f206160448201526564647265737360d01b6064820152608401610798565b6111d481611508565b50565b60006001600160e01b0319821663780e9d6360e01b148061068b575061068b82611830565b600081815260046020526040902080546001600160a01b0319166001600160a01b038416908117909155819061123182610c3e565b6001600160a01b03167f8c5be1e5ebec7d5bd14f71427d1e84f3dd0314c0f7b2291e5b200ac8c7c3b92560405160405180910390a45050565b6000818152600260205260408120546001600160a01b03166112e35760405162461bcd60e51b815260206004820152602c60248201527f4552433732313a206f70657261746f7220717565727920666f72206e6f6e657860448201526b34b9ba32b73a103a37b5b2b760a11b6064820152608401610798565b60006112ee83610c3e565b9050806001600160a01b0316846001600160a01b0316148061133557506001600160a01b0380821660009081526005602090815260408083209388168352929052205460ff165b806113595750836001600160a01b031661134e84610723565b6001600160a01b0316145b949350505050565b826001600160a01b031661137482610c3e565b6001600160a01b0316146113d85760405162461bcd60e51b815260206004820152602560248201527f4552433732313a207472616e736665722066726f6d20696e636f72726563742060448201526437bbb732b960d91b6064820152608401610798565b6001600160a01b03821661143a5760405162461bcd60e51b8152602060048201526024808201527f4552433732313a207472616e7366657220746f20746865207a65726f206164646044820152637265737360e01b6064820152608401610798565b611445838383611880565b6114506000826111fc565b6001600160a01b038316600090815260036020526040812080546001929061147990849061234d565b90915550506001600160a01b03821660009081526003602052604081208054600192906114a7908490612364565b909155505060008181526002602052604080822080546001600160a01b0319166001600160a01b0386811691821790925591518493918716917fddf252ad1be2c89b69c2b068fc378daa952ba7f163c4a11628f55a4df523b3ef91a4505050565b600d80546001600160a01b038381166001600160a01b0319831681179093556040519116919082907f8be0079c531659141344cd1fd0a4f28419497f9722a3daafe3b4186f6b6457e090600090a35050565b816001600160a01b0316836001600160a01b031614156115bc5760405162461bcd60e51b815260206004820152601960248201527f4552433732313a20617070726f766520746f2063616c6c6572000000000000006044820152606401610798565b6001600160a01b03838116600081815260056020908152604080832094871680845294825291829020805460ff191686151590811790915591519182527f17307eab39ab6107e8899845ad3d59bd9653f200f220920489ca2b5937696c31910160405180910390a3505050565b611634848484611361565b61164084848484611938565b610e4c5760405162461bcd60e51b81526004016107989061237c565b6060600e80546106a0906121b4565b60608161168f5750506040805180820190915260018152600360fc1b602082015290565b8160005b81156116b957806116a381612319565b91506116b29050600a8361228b565b9150611693565b60008167ffffffffffffffff8111156116d4576116d4611f23565b6040519080825280601f01601f1916602001820160405280156116fe576020820181803683370190505b5090505b84156113595761171360018361234d565b9150611720600a866123ce565b61172b906030612364565b60f81b8183815181106117405761174061229f565b60200101906001600160f81b031916908160001a905350611762600a8661228b565b9450611702565b600080600a6000815461177b90612319565b9182905550604080516060810182528781523360208083019182528284018981526000868152600b8352949094208351815591516001830180546001600160a01b0319166001600160a01b03909216919091179055925180519495509193849391926117ee926002850192910190611d14565b509050506117fc3383611a36565b8315611827576000828152600c6020526040902080546001600160a01b031916331781556001018490555b50949350505050565b60006001600160e01b031982166380ac58cd60e01b148061186157506001600160e01b03198216635b5e139f60e01b145b8061068b57506301ffc9a760e01b6001600160e01b031983161461068b565b6001600160a01b0383166118db576118d681600880546000838152600960205260408120829055600182018355919091527ff3f7a9fe364faab93b216da50a3214154f22a0a2b415b23a84c8169e8b636ee30155565b6118fe565b816001600160a01b0316836001600160a01b0316146118fe576118fe8382611b84565b6001600160a01b038216611915576108ce81611c21565b826001600160a01b0316826001600160a01b0316146108ce576108ce8282611cd0565b60006001600160a01b0384163b15611a2b57604051630a85bd0160e11b81526001600160a01b0385169063150b7a029061197c9033908990889088906004016123e2565b6020604051808303816000875af19250505080156119b7575060408051601f3d908101601f191682019092526119b49181019061241f565b60015b611a11573d8080156119e5576040519150601f19603f3d011682016040523d82523d6000602084013e6119ea565b606091505b508051611a095760405162461bcd60e51b81526004016107989061237c565b805181602001fd5b6001600160e01b031916630a85bd0160e11b149050611359565b506001949350505050565b6001600160a01b038216611a8c5760405162461bcd60e51b815260206004820181905260248201527f4552433732313a206d696e7420746f20746865207a65726f20616464726573736044820152606401610798565b6000818152600260205260409020546001600160a01b031615611af15760405162461bcd60e51b815260206004820152601c60248201527f4552433732313a20746f6b656e20616c7265616479206d696e746564000000006044820152606401610798565b611afd60008383611880565b6001600160a01b0382166000908152600360205260408120805460019290611b26908490612364565b909155505060008181526002602052604080822080546001600160a01b0319166001600160a01b03861690811790915590518392907fddf252ad1be2c89b69c2b068fc378daa952ba7f163c4a11628f55a4df523b3ef908290a45050565b60006001611b9184610d43565b611b9b919061234d565b600083815260076020526040902054909150808214611bee576001600160a01b03841660009081526006602090815260408083208584528252808320548484528184208190558352600790915290208190555b5060009182526007602090815260408084208490556001600160a01b039094168352600681528383209183525290812055565b600854600090611c339060019061234d565b60008381526009602052604081205460088054939450909284908110611c5b57611c5b61229f565b906000526020600020015490508060088381548110611c7c57611c7c61229f565b6000918252602080832090910192909255828152600990915260408082208490558582528120556008805480611cb457611cb461243c565b6001900381819060005260206000200160009055905550505050565b6000611cdb83610d43565b6001600160a01b039093166000908152600660209081526040808320868452825280832085905593825260079052919091209190915550565b828054611d20906121b4565b90600052602060002090601f016020900481019282611d425760008555611d88565b82601f10611d5b57805160ff1916838001178555611d88565b82800160010185558215611d88579182015b82811115611d88578251825591602001919060010190611d6d565b50611d94929150611d98565b5090565b5b80821115611d945760008155600101611d99565b6001600160e01b0319811681146111d457600080fd5b600060208284031215611dd557600080fd5b8135610f2681611dad565b60005b83811015611dfb578181015183820152602001611de3565b83811115610e4c5750506000910152565b60008151808452611e24816020860160208601611de0565b601f01601f19169290920160200192915050565b602081526000610f266020830184611e0c565b600060208284031215611e5d57600080fd5b5035919050565b80356001600160a01b0381168114611e7b57600080fd5b919050565b60008060408385031215611e9357600080fd5b611e9c83611e64565b946020939093013593505050565b600080600060608486031215611ebf57600080fd5b611ec884611e64565b9250611ed660208501611e64565b9150604084013590509250925092565b60008060408385031215611ef957600080fd5b50508035926020909101359150565b600060208284031215611f1a57600080fd5b610f2682611e64565b634e487b7160e01b600052604160045260246000fd5b600067ffffffffffffffff80841115611f5457611f54611f23565b604051601f8501601f19908116603f01168101908282118183101715611f7c57611f7c611f23565b81604052809350858152868686011115611f9557600080fd5b858560208301376000602087830101525050509392505050565b600082601f830112611fc057600080fd5b610f2683833560208501611f39565b600060208284031215611fe157600080fd5b813567ffffffffffffffff811115611ff857600080fd5b61135984828501611faf565b8381526001600160a01b038316602082015260606040820181905260009061202e90830184611e0c565b95945050505050565b6000806040838503121561204a57600080fd5b61205383611e64565b91506020830135801515811461206857600080fd5b809150509250929050565b6000806000806080858703121561208957600080fd5b61209285611e64565b93506120a060208601611e64565b925060408501359150606085013567ffffffffffffffff8111156120c357600080fd5b8501601f810187136120d457600080fd5b6120e387823560208401611f39565b91505092959194509250565b6020808252825182820181905260009190848201906040850190845b818110156121275783518352928401929184019160010161210b565b50909695505050505050565b60008060006060848603121561214857600080fd5b833567ffffffffffffffff81111561215f57600080fd5b61216b86828701611faf565b9660208601359650604090950135949350505050565b6000806040838503121561219457600080fd5b61219d83611e64565b91506121ab60208401611e64565b90509250929050565b600181811c908216806121c857607f821691505b602082108114156121e957634e487b7160e01b600052602260045260246000fd5b50919050565b60208082526031908201527f4552433732313a207472616e736665722063616c6c6572206973206e6f74206f6040820152701ddb995c881b9bdc88185c1c1c9bdd9959607a1b606082015260800190565b634e487b7160e01b600052601160045260246000fd5b600081600019048311821515161561227057612270612240565b500290565b634e487b7160e01b600052601260045260246000fd5b60008261229a5761229a612275565b500490565b634e487b7160e01b600052603260045260246000fd5b6020808252818101527f4f776e61626c653a2063616c6c6572206973206e6f7420746865206f776e6572604082015260600190565b600083516122fc818460208801611de0565b835190830190612310818360208801611de0565b01949350505050565b600060001982141561232d5761232d612240565b5060010190565b60006020828403121561234657600080fd5b5051919050565b60008282101561235f5761235f612240565b500390565b6000821982111561237757612377612240565b500190565b60208082526032908201527f4552433732313a207472616e7366657220746f206e6f6e20455243373231526560408201527131b2b4bb32b91034b6b83632b6b2b73a32b960711b606082015260800190565b6000826123dd576123dd612275565b500690565b6001600160a01b038581168252841660208201526040810183905260806060820181905260009061241590830184611e0c565b9695505050505050565b60006020828403121561243157600080fd5b8151610f2681611dad565b634e487b7160e01b600052603160045260246000fdfea26469706673582212209e812897b23f3bd5f661eceb8fe570775f9f4e32346207974efa48501be1e02764736f6c634300080b0033",
  "immutableReferences": {},
  "source": "pragma solidity ^0.8.0;\n\nimport \"@openzeppelin/contracts/token/ERC721/ERC721.sol\";\nimport \"@openzeppelin/contracts/token/ERC721/extensions/ERC721Enumerable.sol\";\nimport \"@openzeppelin/contracts/access/Ownable.sol\";\nimport \"@openzeppelin/contracts/interfaces/IERC2981.sol\";\nimport \"@openzeppelin/contracts/utils/introspection/IERC165.sol\";\n\nimport \"./IVWBL.sol\";\nimport \"./gateway/IVWBLGateway.sol\";\n\nabstract contract VWBLProtocol is ERC721Enumerable, IERC2981 {\n    uint256 public counter = 0;\n    struct TokenInfo {\n        bytes32 documentId;\n        address minterAddress;\n        string getKeyURl;\n    }\n\n    struct RoyaltyInfo {\n        address recipient;\n        uint256 royaltiesPercentage; // if percentage is 3.5, royaltiesPercentage=3.5*10^2 (decimal is 2)\n    }\n\n    mapping(uint256 => TokenInfo) public tokenIdToTokenInfo;\n    mapping(uint256 => RoyaltyInfo) public tokenIdToRoyaltyInfo;\n\n    uint256 public constant INVERSE_BASIS_POINT = 10000;\n\n    function _mint(bytes32 _documentId, string memory _getKeyURl, uint256 _royaltiesPercentage) internal returns (uint256) {\n        uint256 tokenId = ++counter;\n        TokenInfo memory tokenInfo = TokenInfo(_documentId, msg.sender, _getKeyURl);\n        tokenIdToTokenInfo[tokenId] = tokenInfo;\n        _mint(msg.sender, tokenId);\n        if (_royaltiesPercentage > 0) {\n            _setRoyalty(tokenId, msg.sender, _royaltiesPercentage);\n        }\n        return tokenId;\n    }\n\n    function getTokenByMinter(address minter)\n        public\n        view\n        returns (uint256[] memory)\n    {\n        uint256 resultCount = 0;\n        for (uint256 i = 1; i <= counter; i++) {\n            if (tokenIdToTokenInfo[i].minterAddress == minter) {\n                resultCount++;\n            }\n        }\n        uint256[] memory tokens = new uint256[](resultCount);\n        uint256 currentCounter = 0;\n        for (uint256 i = 1; i <= counter; i++) {\n            if (tokenIdToTokenInfo[i].minterAddress == minter) {\n                tokens[currentCounter++] = i;\n            }\n        }\n        return tokens;\n    }\n\n    function supportsInterface(bytes4 interfaceId)\n        public\n        view\n        virtual\n        override(IERC165, ERC721Enumerable)\n        returns (bool)\n    {\n        return interfaceId == type(IERC2981).interfaceId || super.supportsInterface(interfaceId);\n    }\n\n    function royaltyInfo(uint256 _tokenId, uint256 _salePrice)\n        external\n        view\n        override\n        returns (address receiver, uint256 royaltyAmount)\n    {\n        RoyaltyInfo memory royaltyInfo = tokenIdToRoyaltyInfo[_tokenId];\n        uint256 _royalties = (_salePrice * royaltyInfo.royaltiesPercentage) / INVERSE_BASIS_POINT;\n        return (royaltyInfo.recipient, _royalties);\n    }\n\n    function _setRoyalty(\n        uint256 _tokenId,\n        address _recipient,\n        uint256 _royaltiesPercentage\n    ) internal {\n        RoyaltyInfo storage royaltyInfo = tokenIdToRoyaltyInfo[_tokenId];\n        royaltyInfo.recipient = _recipient;\n        royaltyInfo.royaltiesPercentage = _royaltiesPercentage;\n    }\n}\n\ncontract VWBL is VWBLProtocol, Ownable, IVWBL {\n    string public baseURI;\n    address public gatewayContract;\n\n    event gatewayContractChanged(address oldGatewayContract, address newGatewayContract);\n\n    constructor(string memory _baseURI, address _gatewayContract) ERC721(\"VWBL\", \"VWBL\") {\n        baseURI = _baseURI;\n        gatewayContract = _gatewayContract;\n    }\n\n    function _baseURI() internal view override returns (string memory) {\n        return baseURI;\n    }\n\n    function setBaseURI(string memory _baseURI) public onlyOwner {\n        baseURI = _baseURI;\n    }\n\n    function setGatewayContract(address newGatewayContract) public onlyOwner {\n        require(newGatewayContract != gatewayContract);\n        address oldGatewayContract = gatewayContract;\n        gatewayContract = newGatewayContract;\n\n        emit gatewayContractChanged(oldGatewayContract, newGatewayContract);\n    }\n\n    function getFee() public view returns (uint256) {\n        return IVWBLGateway(gatewayContract).feeWei();\n    }\n\n    function mint(string memory _getKeyURl, uint256 _royaltiesPercentage, bytes32 _documentId) public payable returns (uint256) {\n        uint256 tokenId = super._mint(_documentId, _getKeyURl, _royaltiesPercentage);\n\n        IVWBLGateway(gatewayContract).grantAccessControl{value: msg.value}(_documentId, address(this), tokenId);\n\n        return tokenId;\n    }\n\n    function getMinter(uint256 tokenId) public view returns (address) {\n        return tokenIdToTokenInfo[tokenId].minterAddress;\n    }\n}\n",
  "sourcePath": "/Users/asumayamada/Work/ango-ya/VWBL-protocol/contracts/ERC721/VWBL.sol",
  "compiler": {
    "name": "solc",
    "version": "0.8.11+commit.d7f03943.Emscripten.clang"
  },
  "schemaVersion": "3.4.7",
  "updatedAt": "2022-05-27T10:16:46.890Z",
  "networkType": "ethereum",
  "devdoc": {
    "kind": "dev",
    "methods": {
      "approve(address,uint256)": {
        "details": "See {IERC721-approve}."
      },
      "balanceOf(address)": {
        "details": "See {IERC721-balanceOf}."
      },
      "getApproved(uint256)": {
        "details": "See {IERC721-getApproved}."
      },
      "isApprovedForAll(address,address)": {
        "details": "See {IERC721-isApprovedForAll}."
      },
      "name()": {
        "details": "See {IERC721Metadata-name}."
      },
      "owner()": {
        "details": "Returns the address of the current owner."
      },
      "ownerOf(uint256)": {
        "details": "See {IERC721-ownerOf}."
      },
      "renounceOwnership()": {
        "details": "Leaves the contract without owner. It will not be possible to call `onlyOwner` functions anymore. Can only be called by the current owner. NOTE: Renouncing ownership will leave the contract without an owner, thereby removing any functionality that is only available to the owner."
      },
      "safeTransferFrom(address,address,uint256)": {
        "details": "See {IERC721-safeTransferFrom}."
      },
      "safeTransferFrom(address,address,uint256,bytes)": {
        "details": "See {IERC721-safeTransferFrom}."
      },
      "setApprovalForAll(address,bool)": {
        "details": "See {IERC721-setApprovalForAll}."
      },
      "symbol()": {
        "details": "See {IERC721Metadata-symbol}."
      },
      "tokenByIndex(uint256)": {
        "details": "See {IERC721Enumerable-tokenByIndex}."
      },
      "tokenOfOwnerByIndex(address,uint256)": {
        "details": "See {IERC721Enumerable-tokenOfOwnerByIndex}."
      },
      "tokenURI(uint256)": {
        "details": "See {IERC721Metadata-tokenURI}."
      },
      "totalSupply()": {
        "details": "See {IERC721Enumerable-totalSupply}."
      },
      "transferFrom(address,address,uint256)": {
        "details": "See {IERC721-transferFrom}."
      },
      "transferOwnership(address)": {
        "details": "Transfers ownership of the contract to a new account (`newOwner`). Can only be called by the current owner."
      }
    },
    "version": 1
  },
  "userdoc": {
    "kind": "user",
    "methods": {},
    "version": 1
  }
}