{
  "contractName": "VWBL",
  "abi": [
    {
      "inputs": [
        {
          "internalType": "string",
          "name": "_baseURI",
          "type": "string"
        },
        {
          "internalType": "address",
          "name": "_gatewayContract",
          "type": "address"
        }
      ],
      "stateMutability": "nonpayable",
      "type": "constructor"
    },
    {
      "anonymous": false,
      "inputs": [
        {
          "indexed": true,
          "internalType": "address",
          "name": "owner",
          "type": "address"
        },
        {
          "indexed": true,
          "internalType": "address",
          "name": "approved",
          "type": "address"
        },
        {
          "indexed": true,
          "internalType": "uint256",
          "name": "tokenId",
          "type": "uint256"
        }
      ],
      "name": "Approval",
      "type": "event"
    },
    {
      "anonymous": false,
      "inputs": [
        {
          "indexed": true,
          "internalType": "address",
          "name": "owner",
          "type": "address"
        },
        {
          "indexed": true,
          "internalType": "address",
          "name": "operator",
          "type": "address"
        },
        {
          "indexed": false,
          "internalType": "bool",
          "name": "approved",
          "type": "bool"
        }
      ],
      "name": "ApprovalForAll",
      "type": "event"
    },
    {
      "anonymous": false,
      "inputs": [
        {
          "indexed": true,
          "internalType": "address",
          "name": "previousOwner",
          "type": "address"
        },
        {
          "indexed": true,
          "internalType": "address",
          "name": "newOwner",
          "type": "address"
        }
      ],
      "name": "OwnershipTransferred",
      "type": "event"
    },
    {
      "anonymous": false,
      "inputs": [
        {
          "indexed": true,
          "internalType": "address",
          "name": "from",
          "type": "address"
        },
        {
          "indexed": true,
          "internalType": "address",
          "name": "to",
          "type": "address"
        },
        {
          "indexed": true,
          "internalType": "uint256",
          "name": "tokenId",
          "type": "uint256"
        }
      ],
      "name": "Transfer",
      "type": "event"
    },
    {
      "anonymous": false,
      "inputs": [
        {
          "indexed": false,
          "internalType": "address",
          "name": "oldGatewayContract",
          "type": "address"
        },
        {
          "indexed": false,
          "internalType": "address",
          "name": "newGatewayContract",
          "type": "address"
        }
      ],
      "name": "gatewayContractChanged",
      "type": "event"
    },
    {
      "inputs": [],
      "name": "INVERSE_BASIS_POINT",
      "outputs": [
        {
          "internalType": "uint256",
          "name": "",
          "type": "uint256"
        }
      ],
      "stateMutability": "view",
      "type": "function",
      "constant": true
    },
    {
      "inputs": [
        {
          "internalType": "address",
          "name": "to",
          "type": "address"
        },
        {
          "internalType": "uint256",
          "name": "tokenId",
          "type": "uint256"
        }
      ],
      "name": "approve",
      "outputs": [],
      "stateMutability": "nonpayable",
      "type": "function"
    },
    {
      "inputs": [
        {
          "internalType": "address",
          "name": "owner",
          "type": "address"
        }
      ],
      "name": "balanceOf",
      "outputs": [
        {
          "internalType": "uint256",
          "name": "",
          "type": "uint256"
        }
      ],
      "stateMutability": "view",
      "type": "function",
      "constant": true
    },
    {
      "inputs": [],
      "name": "baseURI",
      "outputs": [
        {
          "internalType": "string",
          "name": "",
          "type": "string"
        }
      ],
      "stateMutability": "view",
      "type": "function",
      "constant": true
    },
    {
      "inputs": [],
      "name": "counter",
      "outputs": [
        {
          "internalType": "uint256",
          "name": "",
          "type": "uint256"
        }
      ],
      "stateMutability": "view",
      "type": "function",
      "constant": true
    },
    {
      "inputs": [],
      "name": "gatewayContract",
      "outputs": [
        {
          "internalType": "address",
          "name": "",
          "type": "address"
        }
      ],
      "stateMutability": "view",
      "type": "function",
      "constant": true
    },
    {
      "inputs": [
        {
          "internalType": "uint256",
          "name": "tokenId",
          "type": "uint256"
        }
      ],
      "name": "getApproved",
      "outputs": [
        {
          "internalType": "address",
          "name": "",
          "type": "address"
        }
      ],
      "stateMutability": "view",
      "type": "function",
      "constant": true
    },
    {
      "inputs": [
        {
          "internalType": "address",
          "name": "minter",
          "type": "address"
        }
      ],
      "name": "getTokenByMinter",
      "outputs": [
        {
          "internalType": "uint256[]",
          "name": "",
          "type": "uint256[]"
        }
      ],
      "stateMutability": "view",
      "type": "function",
      "constant": true
    },
    {
      "inputs": [
        {
          "internalType": "address",
          "name": "owner",
          "type": "address"
        },
        {
          "internalType": "address",
          "name": "operator",
          "type": "address"
        }
      ],
      "name": "isApprovedForAll",
      "outputs": [
        {
          "internalType": "bool",
          "name": "",
          "type": "bool"
        }
      ],
      "stateMutability": "view",
      "type": "function",
      "constant": true
    },
    {
      "inputs": [],
      "name": "name",
      "outputs": [
        {
          "internalType": "string",
          "name": "",
          "type": "string"
        }
      ],
      "stateMutability": "view",
      "type": "function",
      "constant": true
    },
    {
      "inputs": [],
      "name": "owner",
      "outputs": [
        {
          "internalType": "address",
          "name": "",
          "type": "address"
        }
      ],
      "stateMutability": "view",
      "type": "function",
      "constant": true
    },
    {
      "inputs": [
        {
          "internalType": "uint256",
          "name": "tokenId",
          "type": "uint256"
        }
      ],
      "name": "ownerOf",
      "outputs": [
        {
          "internalType": "address",
          "name": "",
          "type": "address"
        }
      ],
      "stateMutability": "view",
      "type": "function",
      "constant": true
    },
    {
      "inputs": [],
      "name": "renounceOwnership",
      "outputs": [],
      "stateMutability": "nonpayable",
      "type": "function"
    },
    {
      "inputs": [
        {
          "internalType": "uint256",
          "name": "_tokenId",
          "type": "uint256"
        },
        {
          "internalType": "uint256",
          "name": "_salePrice",
          "type": "uint256"
        }
      ],
      "name": "royaltyInfo",
      "outputs": [
        {
          "internalType": "address",
          "name": "receiver",
          "type": "address"
        },
        {
          "internalType": "uint256",
          "name": "royaltyAmount",
          "type": "uint256"
        }
      ],
      "stateMutability": "view",
      "type": "function",
      "constant": true
    },
    {
      "inputs": [
        {
          "internalType": "address",
          "name": "from",
          "type": "address"
        },
        {
          "internalType": "address",
          "name": "to",
          "type": "address"
        },
        {
          "internalType": "uint256",
          "name": "tokenId",
          "type": "uint256"
        }
      ],
      "name": "safeTransferFrom",
      "outputs": [],
      "stateMutability": "nonpayable",
      "type": "function"
    },
    {
      "inputs": [
        {
          "internalType": "address",
          "name": "from",
          "type": "address"
        },
        {
          "internalType": "address",
          "name": "to",
          "type": "address"
        },
        {
          "internalType": "uint256",
          "name": "tokenId",
          "type": "uint256"
        },
        {
          "internalType": "bytes",
          "name": "_data",
          "type": "bytes"
        }
      ],
      "name": "safeTransferFrom",
      "outputs": [],
      "stateMutability": "nonpayable",
      "type": "function"
    },
    {
      "inputs": [
        {
          "internalType": "address",
          "name": "operator",
          "type": "address"
        },
        {
          "internalType": "bool",
          "name": "approved",
          "type": "bool"
        }
      ],
      "name": "setApprovalForAll",
      "outputs": [],
      "stateMutability": "nonpayable",
      "type": "function"
    },
    {
      "inputs": [
        {
          "internalType": "bytes4",
          "name": "interfaceId",
          "type": "bytes4"
        }
      ],
      "name": "supportsInterface",
      "outputs": [
        {
          "internalType": "bool",
          "name": "",
          "type": "bool"
        }
      ],
      "stateMutability": "view",
      "type": "function",
      "constant": true
    },
    {
      "inputs": [],
      "name": "symbol",
      "outputs": [
        {
          "internalType": "string",
          "name": "",
          "type": "string"
        }
      ],
      "stateMutability": "view",
      "type": "function",
      "constant": true
    },
    {
      "inputs": [
        {
          "internalType": "uint256",
          "name": "index",
          "type": "uint256"
        }
      ],
      "name": "tokenByIndex",
      "outputs": [
        {
          "internalType": "uint256",
          "name": "",
          "type": "uint256"
        }
      ],
      "stateMutability": "view",
      "type": "function",
      "constant": true
    },
    {
      "inputs": [
        {
          "internalType": "uint256",
          "name": "",
          "type": "uint256"
        }
      ],
      "name": "tokenIdToRoyaltyInfo",
      "outputs": [
        {
          "internalType": "address",
          "name": "recipient",
          "type": "address"
        },
        {
          "internalType": "uint256",
          "name": "royaltiesPercentage",
          "type": "uint256"
        }
      ],
      "stateMutability": "view",
      "type": "function",
      "constant": true
    },
    {
      "inputs": [
        {
          "internalType": "uint256",
          "name": "",
          "type": "uint256"
        }
      ],
      "name": "tokenIdToTokenInfo",
      "outputs": [
        {
          "internalType": "bytes32",
          "name": "documentId",
          "type": "bytes32"
        },
        {
          "internalType": "address",
          "name": "minterAddress",
          "type": "address"
        },
        {
          "internalType": "string",
          "name": "getKeyURl",
          "type": "string"
        }
      ],
      "stateMutability": "view",
      "type": "function",
      "constant": true
    },
    {
      "inputs": [
        {
          "internalType": "address",
          "name": "owner",
          "type": "address"
        },
        {
          "internalType": "uint256",
          "name": "index",
          "type": "uint256"
        }
      ],
      "name": "tokenOfOwnerByIndex",
      "outputs": [
        {
          "internalType": "uint256",
          "name": "",
          "type": "uint256"
        }
      ],
      "stateMutability": "view",
      "type": "function",
      "constant": true
    },
    {
      "inputs": [
        {
          "internalType": "uint256",
          "name": "tokenId",
          "type": "uint256"
        }
      ],
      "name": "tokenURI",
      "outputs": [
        {
          "internalType": "string",
          "name": "",
          "type": "string"
        }
      ],
      "stateMutability": "view",
      "type": "function",
      "constant": true
    },
    {
      "inputs": [],
      "name": "totalSupply",
      "outputs": [
        {
          "internalType": "uint256",
          "name": "",
          "type": "uint256"
        }
      ],
      "stateMutability": "view",
      "type": "function",
      "constant": true
    },
    {
      "inputs": [
        {
          "internalType": "address",
          "name": "from",
          "type": "address"
        },
        {
          "internalType": "address",
          "name": "to",
          "type": "address"
        },
        {
          "internalType": "uint256",
          "name": "tokenId",
          "type": "uint256"
        }
      ],
      "name": "transferFrom",
      "outputs": [],
      "stateMutability": "nonpayable",
      "type": "function"
    },
    {
      "inputs": [
        {
          "internalType": "address",
          "name": "newOwner",
          "type": "address"
        }
      ],
      "name": "transferOwnership",
      "outputs": [],
      "stateMutability": "nonpayable",
      "type": "function"
    },
    {
      "inputs": [
        {
          "internalType": "string",
          "name": "_baseURI",
          "type": "string"
        }
      ],
      "name": "setBaseURI",
      "outputs": [],
      "stateMutability": "nonpayable",
      "type": "function"
    },
    {
      "inputs": [
        {
          "internalType": "address",
          "name": "newGatewayContract",
          "type": "address"
        }
      ],
      "name": "setGatewayContract",
      "outputs": [],
      "stateMutability": "nonpayable",
      "type": "function"
    },
    {
      "inputs": [],
      "name": "getFee",
      "outputs": [
        {
          "internalType": "uint256",
          "name": "",
          "type": "uint256"
        }
      ],
      "stateMutability": "view",
      "type": "function",
      "constant": true
    },
    {
      "inputs": [
        {
          "internalType": "string",
          "name": "_getKeyURl",
          "type": "string"
        },
        {
          "internalType": "uint256",
          "name": "_royaltiesPercentage",
          "type": "uint256"
        },
        {
          "internalType": "bytes32",
          "name": "_documentId",
          "type": "bytes32"
        }
      ],
      "name": "mint",
      "outputs": [
        {
          "internalType": "uint256",
          "name": "",
          "type": "uint256"
        }
      ],
      "stateMutability": "payable",
      "type": "function",
      "payable": true
    }
  ],
  "bytecode": "0x60806040526000600a553480156200001657600080fd5b506040516200274438038062002744833981016040819052620000399162000217565b6040805180820182526004808252631595d09360e21b60208084018281528551808701909652928552840152815191929162000078916000916200013e565b5080516200008e9060019060208401906200013e565b505050620000ab620000a5620000e860201b60201c565b620000ec565b8151620000c090600e9060208501906200013e565b50600f80546001600160a01b0319166001600160a01b03929092169190911790555062000345565b3390565b600d80546001600160a01b038381166001600160a01b0319831681179093556040519116919082907f8be0079c531659141344cd1fd0a4f28419497f9722a3daafe3b4186f6b6457e090600090a35050565b8280546200014c9062000308565b90600052602060002090601f016020900481019282620001705760008555620001bb565b82601f106200018b57805160ff1916838001178555620001bb565b82800160010185558215620001bb579182015b82811115620001bb5782518255916020019190600101906200019e565b50620001c9929150620001cd565b5090565b5b80821115620001c95760008155600101620001ce565b634e487b7160e01b600052604160045260246000fd5b80516001600160a01b03811681146200021257600080fd5b919050565b600080604083850312156200022b57600080fd5b82516001600160401b03808211156200024357600080fd5b818501915085601f8301126200025857600080fd5b8151818111156200026d576200026d620001e4565b604051601f8201601f19908116603f01168101908382118183101715620002985762000298620001e4565b81604052828152602093508884848701011115620002b557600080fd5b600091505b82821015620002d95784820184015181830185015290830190620002ba565b82821115620002eb5760008484830101525b9550620002fd915050858201620001fa565b925050509250929050565b600181811c908216806200031d57607f821691505b602082108114156200033f57634e487b7160e01b600052602260045260246000fd5b50919050565b6123ef80620003556000396000f3fe6080604052600436106101d85760003560e01c80636352211e11610102578063c87b56dd11610095578063de5bb4b711610064578063de5bb4b714610586578063e985e9c514610599578063eb0cde1d146105e2578063f2fde38b1461060257600080fd5b8063c87b56dd1461050e578063cae6047f1461052e578063ce5af33614610544578063ced72f871461057157600080fd5b80638da5cb5b116100d15780638da5cb5b1461049b57806395d89b41146104b9578063a22cb465146104ce578063b88d4fde146104ee57600080fd5b80636352211e146104315780636c0360eb1461045157806370a0823114610466578063715018a61461048657600080fd5b80632a55205a1161017a57806350932cb51161014957806350932cb5146103ac57806355f804b3146103cc5780635fb8bcd5146103ec57806361bc221a1461041b57600080fd5b80632a55205a1461032c5780632f745c591461034c57806342842e0e1461036c5780634f6ccce71461038c57600080fd5b8063095ea7b3116101b6578063095ea7b31461026c57806318160ddd1461028e57806319daf1bf146102ad57806323b872dd1461030c57600080fd5b806301ffc9a7146101dd57806306fdde0314610212578063081812fc14610234575b600080fd5b3480156101e957600080fd5b506101fd6101f8366004611d2a565b610622565b60405190151581526020015b60405180910390f35b34801561021e57600080fd5b5061022761064d565b6040516102099190611d9f565b34801561024057600080fd5b5061025461024f366004611db2565b6106df565b6040516001600160a01b039091168152602001610209565b34801561027857600080fd5b5061028c610287366004611de7565b610779565b005b34801561029a57600080fd5b506008545b604051908152602001610209565b3480156102b957600080fd5b506102ed6102c8366004611db2565b600c60205260009081526040902080546001909101546001600160a01b039091169082565b604080516001600160a01b039093168352602083019190915201610209565b34801561031857600080fd5b5061028c610327366004611e11565b61088f565b34801561033857600080fd5b506102ed610347366004611e4d565b6108c0565b34801561035857600080fd5b5061029f610367366004611de7565b61091a565b34801561037857600080fd5b5061028c610387366004611e11565b6109b0565b34801561039857600080fd5b5061029f6103a7366004611db2565b6109cb565b3480156103b857600080fd5b5061028c6103c7366004611e6f565b610a5e565b3480156103d857600080fd5b5061028c6103e7366004611f36565b610b04565b3480156103f857600080fd5b5061040c610407366004611db2565b610b45565b60405161020993929190611f6b565b34801561042757600080fd5b5061029f600a5481565b34801561043d57600080fd5b5061025461044c366004611db2565b610bfa565b34801561045d57600080fd5b50610227610c71565b34801561047257600080fd5b5061029f610481366004611e6f565b610cff565b34801561049257600080fd5b5061028c610d86565b3480156104a757600080fd5b50600d546001600160a01b0316610254565b3480156104c557600080fd5b50610227610dbc565b3480156104da57600080fd5b5061028c6104e9366004611f9e565b610dcb565b3480156104fa57600080fd5b5061028c610509366004611fda565b610dd6565b34801561051a57600080fd5b50610227610529366004611db2565b610e0e565b34801561053a57600080fd5b5061029f61271081565b34801561055057600080fd5b5061056461055f366004611e6f565b610ee9565b6040516102099190612056565b34801561057d57600080fd5b5061029f610fab565b61029f61059436600461209a565b61101e565b3480156105a557600080fd5b506101fd6105b43660046120e8565b6001600160a01b03918216600090815260056020908152604080832093909416825291909152205460ff1690565b3480156105ee57600080fd5b50600f54610254906001600160a01b031681565b34801561060e57600080fd5b5061028c61061d366004611e6f565b6110a3565b60006001600160e01b0319821663152a902d60e11b148061064757506106478261113e565b92915050565b60606000805461065c9061211b565b80601f01602080910402602001604051908101604052809291908181526020018280546106889061211b565b80156106d55780601f106106aa576101008083540402835291602001916106d5565b820191906000526020600020905b8154815290600101906020018083116106b857829003601f168201915b5050505050905090565b6000818152600260205260408120546001600160a01b031661075d5760405162461bcd60e51b815260206004820152602c60248201527f4552433732313a20617070726f76656420717565727920666f72206e6f6e657860448201526b34b9ba32b73a103a37b5b2b760a11b60648201526084015b60405180910390fd5b506000908152600460205260409020546001600160a01b031690565b600061078482610bfa565b9050806001600160a01b0316836001600160a01b031614156107f25760405162461bcd60e51b815260206004820152602160248201527f4552433732313a20617070726f76616c20746f2063757272656e74206f776e656044820152603960f91b6064820152608401610754565b336001600160a01b038216148061080e575061080e81336105b4565b6108805760405162461bcd60e51b815260206004820152603860248201527f4552433732313a20617070726f76652063616c6c6572206973206e6f74206f7760448201527f6e6572206e6f7220617070726f76656420666f7220616c6c00000000000000006064820152608401610754565b61088a8383611163565b505050565b61089933826111d1565b6108b55760405162461bcd60e51b815260040161075490612156565b61088a8383836112c8565b6000828152600c60209081526040808320815180830190925280546001600160a01b0316825260010154918101829052829182906127109061090290876121bd565b61090c91906121f2565b915196919550909350505050565b600061092583610cff565b82106109875760405162461bcd60e51b815260206004820152602b60248201527f455243373231456e756d657261626c653a206f776e657220696e646578206f7560448201526a74206f6620626f756e647360a81b6064820152608401610754565b506001600160a01b03919091166000908152600660209081526040808320938352929052205490565b61088a83838360405180602001604052806000815250610dd6565b60006109d660085490565b8210610a395760405162461bcd60e51b815260206004820152602c60248201527f455243373231456e756d657261626c653a20676c6f62616c20696e646578206f60448201526b7574206f6620626f756e647360a01b6064820152608401610754565b60088281548110610a4c57610a4c612206565b90600052602060002001549050919050565b600d546001600160a01b03163314610a885760405162461bcd60e51b81526004016107549061221c565b600f546001600160a01b0382811691161415610aa357600080fd5b600f80546001600160a01b038381166001600160a01b031983168117909355604080519190921680825260208201939093527f9b015b8749c8a182300e9c8c7699c761729b84ff89651162dd89881ff1273f63910160405180910390a15050565b600d546001600160a01b03163314610b2e5760405162461bcd60e51b81526004016107549061221c565b8051610b4190600e906020840190611c7b565b5050565b600b6020526000908152604090208054600182015460028301805492936001600160a01b0390921692610b779061211b565b80601f0160208091040260200160405190810160405280929190818152602001828054610ba39061211b565b8015610bf05780601f10610bc557610100808354040283529160200191610bf0565b820191906000526020600020905b815481529060010190602001808311610bd357829003601f168201915b5050505050905083565b6000818152600260205260408120546001600160a01b0316806106475760405162461bcd60e51b815260206004820152602960248201527f4552433732313a206f776e657220717565727920666f72206e6f6e657869737460448201526832b73a103a37b5b2b760b91b6064820152608401610754565b600e8054610c7e9061211b565b80601f0160208091040260200160405190810160405280929190818152602001828054610caa9061211b565b8015610cf75780601f10610ccc57610100808354040283529160200191610cf7565b820191906000526020600020905b815481529060010190602001808311610cda57829003601f168201915b505050505081565b60006001600160a01b038216610d6a5760405162461bcd60e51b815260206004820152602a60248201527f4552433732313a2062616c616e636520717565727920666f7220746865207a65604482015269726f206164647265737360b01b6064820152608401610754565b506001600160a01b031660009081526003602052604090205490565b600d546001600160a01b03163314610db05760405162461bcd60e51b81526004016107549061221c565b610dba600061146f565b565b60606001805461065c9061211b565b610b413383836114c1565b610de033836111d1565b610dfc5760405162461bcd60e51b815260040161075490612156565b610e0884848484611590565b50505050565b6000818152600260205260409020546060906001600160a01b0316610e8d5760405162461bcd60e51b815260206004820152602f60248201527f4552433732314d657461646174613a2055524920717565727920666f72206e6f60448201526e3732bc34b9ba32b73a103a37b5b2b760891b6064820152608401610754565b6000610e976115c3565b90506000815111610eb75760405180602001604052806000815250610ee2565b80610ec1846115d2565b604051602001610ed2929190612251565b6040516020818303038152906040525b9392505050565b6060600080600a5467ffffffffffffffff811115610f0957610f09611e8a565b604051908082528060200260200182016040528015610f32578160200160208202803683370190505b50905060015b600a548111610fa3576000818152600b60205260409020600101546001600160a01b0386811691161415610f9157808284610f7281612280565b955081518110610f8457610f84612206565b6020026020010181815250505b80610f9b81612280565b915050610f38565b509392505050565b600f546040805163428c090b60e01b815290516000926001600160a01b03169163428c090b9160048083019260209291908290030181865afa158015610ff5573d6000803e3d6000fd5b505050506040513d601f19601f82011682018060405250810190611019919061229b565b905090565b60008061102c8386866116d0565b600f5460405163292571e360e11b815260048101869052306024820152604481018390529192506001600160a01b03169063524ae3c69034906064016000604051808303818588803b15801561108157600080fd5b505af1158015611095573d6000803e3d6000fd5b509398975050505050505050565b600d546001600160a01b031633146110cd5760405162461bcd60e51b81526004016107549061221c565b6001600160a01b0381166111325760405162461bcd60e51b815260206004820152602660248201527f4f776e61626c653a206e6577206f776e657220697320746865207a65726f206160448201526564647265737360d01b6064820152608401610754565b61113b8161146f565b50565b60006001600160e01b0319821663780e9d6360e01b1480610647575061064782611797565b600081815260046020526040902080546001600160a01b0319166001600160a01b038416908117909155819061119882610bfa565b6001600160a01b03167f8c5be1e5ebec7d5bd14f71427d1e84f3dd0314c0f7b2291e5b200ac8c7c3b92560405160405180910390a45050565b6000818152600260205260408120546001600160a01b031661124a5760405162461bcd60e51b815260206004820152602c60248201527f4552433732313a206f70657261746f7220717565727920666f72206e6f6e657860448201526b34b9ba32b73a103a37b5b2b760a11b6064820152608401610754565b600061125583610bfa565b9050806001600160a01b0316846001600160a01b031614806112905750836001600160a01b0316611285846106df565b6001600160a01b0316145b806112c057506001600160a01b0380821660009081526005602090815260408083209388168352929052205460ff165b949350505050565b826001600160a01b03166112db82610bfa565b6001600160a01b03161461133f5760405162461bcd60e51b815260206004820152602560248201527f4552433732313a207472616e736665722066726f6d20696e636f72726563742060448201526437bbb732b960d91b6064820152608401610754565b6001600160a01b0382166113a15760405162461bcd60e51b8152602060048201526024808201527f4552433732313a207472616e7366657220746f20746865207a65726f206164646044820152637265737360e01b6064820152608401610754565b6113ac8383836117e7565b6113b7600082611163565b6001600160a01b03831660009081526003602052604081208054600192906113e09084906122b4565b90915550506001600160a01b038216600090815260036020526040812080546001929061140e9084906122cb565b909155505060008181526002602052604080822080546001600160a01b0319166001600160a01b0386811691821790925591518493918716917fddf252ad1be2c89b69c2b068fc378daa952ba7f163c4a11628f55a4df523b3ef91a4505050565b600d80546001600160a01b038381166001600160a01b0319831681179093556040519116919082907f8be0079c531659141344cd1fd0a4f28419497f9722a3daafe3b4186f6b6457e090600090a35050565b816001600160a01b0316836001600160a01b031614156115235760405162461bcd60e51b815260206004820152601960248201527f4552433732313a20617070726f766520746f2063616c6c6572000000000000006044820152606401610754565b6001600160a01b03838116600081815260056020908152604080832094871680845294825291829020805460ff191686151590811790915591519182527f17307eab39ab6107e8899845ad3d59bd9653f200f220920489ca2b5937696c31910160405180910390a3505050565b61159b8484846112c8565b6115a78484848461189f565b610e085760405162461bcd60e51b8152600401610754906122e3565b6060600e805461065c9061211b565b6060816115f65750506040805180820190915260018152600360fc1b602082015290565b8160005b8115611620578061160a81612280565b91506116199050600a836121f2565b91506115fa565b60008167ffffffffffffffff81111561163b5761163b611e8a565b6040519080825280601f01601f191660200182016040528015611665576020820181803683370190505b5090505b84156112c05761167a6001836122b4565b9150611687600a86612335565b6116929060306122cb565b60f81b8183815181106116a7576116a7612206565b60200101906001600160f81b031916908160001a9053506116c9600a866121f2565b9450611669565b600080600a600081546116e290612280565b9182905550604080516060810182528781523360208083019182528284018981526000868152600b8352949094208351815591516001830180546001600160a01b0319166001600160a01b0390921691909117905592518051949550919384939192611755926002850192910190611c7b565b50905050611763338361199d565b831561178e576000828152600c6020526040902080546001600160a01b031916331781556001018490555b50949350505050565b60006001600160e01b031982166380ac58cd60e01b14806117c857506001600160e01b03198216635b5e139f60e01b145b8061064757506301ffc9a760e01b6001600160e01b0319831614610647565b6001600160a01b0383166118425761183d81600880546000838152600960205260408120829055600182018355919091527ff3f7a9fe364faab93b216da50a3214154f22a0a2b415b23a84c8169e8b636ee30155565b611865565b816001600160a01b0316836001600160a01b031614611865576118658382611aeb565b6001600160a01b03821661187c5761088a81611b88565b826001600160a01b0316826001600160a01b03161461088a5761088a8282611c37565b60006001600160a01b0384163b1561199257604051630a85bd0160e11b81526001600160a01b0385169063150b7a02906118e3903390899088908890600401612349565b6020604051808303816000875af192505050801561191e575060408051601f3d908101601f1916820190925261191b91810190612386565b60015b611978573d80801561194c576040519150601f19603f3d011682016040523d82523d6000602084013e611951565b606091505b5080516119705760405162461bcd60e51b8152600401610754906122e3565b805181602001fd5b6001600160e01b031916630a85bd0160e11b1490506112c0565b506001949350505050565b6001600160a01b0382166119f35760405162461bcd60e51b815260206004820181905260248201527f4552433732313a206d696e7420746f20746865207a65726f20616464726573736044820152606401610754565b6000818152600260205260409020546001600160a01b031615611a585760405162461bcd60e51b815260206004820152601c60248201527f4552433732313a20746f6b656e20616c7265616479206d696e746564000000006044820152606401610754565b611a64600083836117e7565b6001600160a01b0382166000908152600360205260408120805460019290611a8d9084906122cb565b909155505060008181526002602052604080822080546001600160a01b0319166001600160a01b03861690811790915590518392907fddf252ad1be2c89b69c2b068fc378daa952ba7f163c4a11628f55a4df523b3ef908290a45050565b60006001611af884610cff565b611b0291906122b4565b600083815260076020526040902054909150808214611b55576001600160a01b03841660009081526006602090815260408083208584528252808320548484528184208190558352600790915290208190555b5060009182526007602090815260408084208490556001600160a01b039094168352600681528383209183525290812055565b600854600090611b9a906001906122b4565b60008381526009602052604081205460088054939450909284908110611bc257611bc2612206565b906000526020600020015490508060088381548110611be357611be3612206565b6000918252602080832090910192909255828152600990915260408082208490558582528120556008805480611c1b57611c1b6123a3565b6001900381819060005260206000200160009055905550505050565b6000611c4283610cff565b6001600160a01b039093166000908152600660209081526040808320868452825280832085905593825260079052919091209190915550565b828054611c879061211b565b90600052602060002090601f016020900481019282611ca95760008555611cef565b82601f10611cc257805160ff1916838001178555611cef565b82800160010185558215611cef579182015b82811115611cef578251825591602001919060010190611cd4565b50611cfb929150611cff565b5090565b5b80821115611cfb5760008155600101611d00565b6001600160e01b03198116811461113b57600080fd5b600060208284031215611d3c57600080fd5b8135610ee281611d14565b60005b83811015611d62578181015183820152602001611d4a565b83811115610e085750506000910152565b60008151808452611d8b816020860160208601611d47565b601f01601f19169290920160200192915050565b602081526000610ee26020830184611d73565b600060208284031215611dc457600080fd5b5035919050565b80356001600160a01b0381168114611de257600080fd5b919050565b60008060408385031215611dfa57600080fd5b611e0383611dcb565b946020939093013593505050565b600080600060608486031215611e2657600080fd5b611e2f84611dcb565b9250611e3d60208501611dcb565b9150604084013590509250925092565b60008060408385031215611e6057600080fd5b50508035926020909101359150565b600060208284031215611e8157600080fd5b610ee282611dcb565b634e487b7160e01b600052604160045260246000fd5b600067ffffffffffffffff80841115611ebb57611ebb611e8a565b604051601f8501601f19908116603f01168101908282118183101715611ee357611ee3611e8a565b81604052809350858152868686011115611efc57600080fd5b858560208301376000602087830101525050509392505050565b600082601f830112611f2757600080fd5b610ee283833560208501611ea0565b600060208284031215611f4857600080fd5b813567ffffffffffffffff811115611f5f57600080fd5b6112c084828501611f16565b8381526001600160a01b0383166020820152606060408201819052600090611f9590830184611d73565b95945050505050565b60008060408385031215611fb157600080fd5b611fba83611dcb565b915060208301358015158114611fcf57600080fd5b809150509250929050565b60008060008060808587031215611ff057600080fd5b611ff985611dcb565b935061200760208601611dcb565b925060408501359150606085013567ffffffffffffffff81111561202a57600080fd5b8501601f8101871361203b57600080fd5b61204a87823560208401611ea0565b91505092959194509250565b6020808252825182820181905260009190848201906040850190845b8181101561208e57835183529284019291840191600101612072565b50909695505050505050565b6000806000606084860312156120af57600080fd5b833567ffffffffffffffff8111156120c657600080fd5b6120d286828701611f16565b9660208601359650604090950135949350505050565b600080604083850312156120fb57600080fd5b61210483611dcb565b915061211260208401611dcb565b90509250929050565b600181811c9082168061212f57607f821691505b6020821081141561215057634e487b7160e01b600052602260045260246000fd5b50919050565b60208082526031908201527f4552433732313a207472616e736665722063616c6c6572206973206e6f74206f6040820152701ddb995c881b9bdc88185c1c1c9bdd9959607a1b606082015260800190565b634e487b7160e01b600052601160045260246000fd5b60008160001904831182151516156121d7576121d76121a7565b500290565b634e487b7160e01b600052601260045260246000fd5b600082612201576122016121dc565b500490565b634e487b7160e01b600052603260045260246000fd5b6020808252818101527f4f776e61626c653a2063616c6c6572206973206e6f7420746865206f776e6572604082015260600190565b60008351612263818460208801611d47565b835190830190612277818360208801611d47565b01949350505050565b6000600019821415612294576122946121a7565b5060010190565b6000602082840312156122ad57600080fd5b5051919050565b6000828210156122c6576122c66121a7565b500390565b600082198211156122de576122de6121a7565b500190565b60208082526032908201527f4552433732313a207472616e7366657220746f206e6f6e20455243373231526560408201527131b2b4bb32b91034b6b83632b6b2b73a32b960711b606082015260800190565b600082612344576123446121dc565b500690565b6001600160a01b038581168252841660208201526040810183905260806060820181905260009061237c90830184611d73565b9695505050505050565b60006020828403121561239857600080fd5b8151610ee281611d14565b634e487b7160e01b600052603160045260246000fdfea2646970667358221220003ef36c5e51d090dc0c96d1590ac5e7e7fe4e3388474fd0a02b52dfa07610eb64736f6c634300080b0033",
  "immutableReferences": {},
  "source": "pragma solidity ^0.8.0;\n\nimport \"@openzeppelin/contracts/token/ERC721/ERC721.sol\";\nimport \"@openzeppelin/contracts/token/ERC721/extensions/ERC721Enumerable.sol\";\nimport \"@openzeppelin/contracts/access/Ownable.sol\";\nimport \"@openzeppelin/contracts/interfaces/IERC2981.sol\";\nimport \"@openzeppelin/contracts/utils/introspection/IERC165.sol\";\n\nimport \"./gateway/IVWBLGateway.sol\";\n\nabstract contract VWBLProtocol is ERC721Enumerable, IERC2981 {\n    uint256 public counter = 0;\n    struct TokenInfo {\n        bytes32 documentId;\n        address minterAddress;\n        string getKeyURl;\n    }\n\n    struct RoyaltyInfo {\n        address recipient;\n        uint256 royaltiesPercentage; // if percentage is 3.5, royaltiesPercentage=3.5*10^2 (decimal is 2)\n    }\n\n    mapping(uint256 => TokenInfo) public tokenIdToTokenInfo;\n    mapping(uint256 => RoyaltyInfo) public tokenIdToRoyaltyInfo;\n\n    uint256 public constant INVERSE_BASIS_POINT = 10000;\n\n    function _mint(bytes32 _documentId, string memory _getKeyURl, uint256 _royaltiesPercentage) internal returns (uint256) {\n        uint256 tokenId = ++counter;\n        TokenInfo memory tokenInfo = TokenInfo(_documentId, msg.sender, _getKeyURl);\n        tokenIdToTokenInfo[tokenId] = tokenInfo;\n        _mint(msg.sender, tokenId);\n        if (_royaltiesPercentage > 0) {\n            _setRoyalty(tokenId, msg.sender, _royaltiesPercentage);\n        }\n        return tokenId;\n    }\n\n    function getTokenByMinter(address minter)\n        public\n        view\n        returns (uint256[] memory)\n    {\n        uint256 currentCounter = 0;\n        uint256[] memory tokens = new uint256[](counter);\n        for (uint256 i = 1; i <= counter; i++) {\n            if (tokenIdToTokenInfo[i].minterAddress == minter) {\n                tokens[currentCounter++] = i;\n            }\n        }\n        return tokens;\n    }\n\n    function supportsInterface(bytes4 interfaceId)\n        public\n        view\n        virtual\n        override(IERC165, ERC721Enumerable)\n        returns (bool)\n    {\n        return interfaceId == type(IERC2981).interfaceId || super.supportsInterface(interfaceId);\n    }\n\n    function royaltyInfo(uint256 _tokenId, uint256 _salePrice)\n        external\n        view\n        override\n        returns (address receiver, uint256 royaltyAmount)\n    {\n        RoyaltyInfo memory royaltyInfo = tokenIdToRoyaltyInfo[_tokenId];\n        uint256 _royalties = (_salePrice * royaltyInfo.royaltiesPercentage) / INVERSE_BASIS_POINT;\n        return (royaltyInfo.recipient, _royalties);\n    }\n\n    function _setRoyalty(\n        uint256 _tokenId,\n        address _recipient,\n        uint256 _royaltiesPercentage\n    ) internal {\n        RoyaltyInfo storage royaltyInfo = tokenIdToRoyaltyInfo[_tokenId];\n        royaltyInfo.recipient = _recipient;\n        royaltyInfo.royaltiesPercentage = _royaltiesPercentage;\n    }\n}\n\ncontract VWBL is VWBLProtocol, Ownable {\n    string public baseURI;\n    address public gatewayContract;\n\n    event gatewayContractChanged(address oldGatewayContract, address newGatewayContract);\n\n    constructor(string memory _baseURI, address _gatewayContract) ERC721(\"VWBL\", \"VWBL\") {\n        baseURI = _baseURI;\n        gatewayContract = _gatewayContract;\n    }\n\n    function _baseURI() internal view override returns (string memory) {\n        return baseURI;\n    }\n\n    function setBaseURI(string memory _baseURI) public onlyOwner {\n        baseURI = _baseURI;\n    }\n\n    function setGatewayContract(address newGatewayContract) public onlyOwner {\n        require(newGatewayContract != gatewayContract);\n        address oldGatewayContract = gatewayContract;\n        gatewayContract = newGatewayContract;\n\n        emit gatewayContractChanged(oldGatewayContract, newGatewayContract);\n    }\n\n    function getFee() public view returns (uint256) {\n        return IVWBLGateway(gatewayContract).feeWei();\n    }\n\n    function mint(string memory _getKeyURl, uint256 _royaltiesPercentage, bytes32 _documentId) public payable returns (uint256) {\n        uint256 tokenId = super._mint(_documentId, _getKeyURl, _royaltiesPercentage);\n\n        IVWBLGateway(gatewayContract).grantAccessControl{value: msg.value}(_documentId, address(this), tokenId);\n\n        return tokenId;\n    }\n}\n",
  "sourcePath": "/home/yuki/git/VWBL/contract/contracts/ERC721/VWBL.sol",
  "compiler": {
    "name": "solc",
    "version": "0.8.11+commit.d7f03943.Emscripten.clang"
  },
  "schemaVersion": "3.4.4",
  "updatedAt": "2022-04-10T08:24:52.021Z",
  "networkType": "ethereum",
  "devdoc": {
    "kind": "dev",
    "methods": {
      "approve(address,uint256)": {
        "details": "See {IERC721-approve}."
      },
      "balanceOf(address)": {
        "details": "See {IERC721-balanceOf}."
      },
      "getApproved(uint256)": {
        "details": "See {IERC721-getApproved}."
      },
      "isApprovedForAll(address,address)": {
        "details": "See {IERC721-isApprovedForAll}."
      },
      "name()": {
        "details": "See {IERC721Metadata-name}."
      },
      "owner()": {
        "details": "Returns the address of the current owner."
      },
      "ownerOf(uint256)": {
        "details": "See {IERC721-ownerOf}."
      },
      "renounceOwnership()": {
        "details": "Leaves the contract without owner. It will not be possible to call `onlyOwner` functions anymore. Can only be called by the current owner. NOTE: Renouncing ownership will leave the contract without an owner, thereby removing any functionality that is only available to the owner."
      },
      "safeTransferFrom(address,address,uint256)": {
        "details": "See {IERC721-safeTransferFrom}."
      },
      "safeTransferFrom(address,address,uint256,bytes)": {
        "details": "See {IERC721-safeTransferFrom}."
      },
      "setApprovalForAll(address,bool)": {
        "details": "See {IERC721-setApprovalForAll}."
      },
      "symbol()": {
        "details": "See {IERC721Metadata-symbol}."
      },
      "tokenByIndex(uint256)": {
        "details": "See {IERC721Enumerable-tokenByIndex}."
      },
      "tokenOfOwnerByIndex(address,uint256)": {
        "details": "See {IERC721Enumerable-tokenOfOwnerByIndex}."
      },
      "tokenURI(uint256)": {
        "details": "See {IERC721Metadata-tokenURI}."
      },
      "totalSupply()": {
        "details": "See {IERC721Enumerable-totalSupply}."
      },
      "transferFrom(address,address,uint256)": {
        "details": "See {IERC721-transferFrom}."
      },
      "transferOwnership(address)": {
        "details": "Transfers ownership of the contract to a new account (`newOwner`). Can only be called by the current owner."
      }
    },
    "version": 1
  },
  "userdoc": {
    "kind": "user",
    "methods": {},
    "version": 1
  }
}