{
  "contractName": "VWBLERC1155Metadata",
  "abi": [
    {
      "inputs": [
        {
          "internalType": "string",
          "name": "_baseURI",
          "type": "string"
        },
        {
          "internalType": "address",
          "name": "_gatewayProxy",
          "type": "address"
        },
        {
          "internalType": "address",
          "name": "_accessCheckerContract",
          "type": "address"
        }
      ],
      "stateMutability": "nonpayable",
      "type": "constructor"
    },
    {
      "anonymous": false,
      "inputs": [
        {
          "indexed": true,
          "internalType": "address",
          "name": "account",
          "type": "address"
        },
        {
          "indexed": true,
          "internalType": "address",
          "name": "operator",
          "type": "address"
        },
        {
          "indexed": false,
          "internalType": "bool",
          "name": "approved",
          "type": "bool"
        }
      ],
      "name": "ApprovalForAll",
      "type": "event"
    },
    {
      "anonymous": false,
      "inputs": [
        {
          "indexed": true,
          "internalType": "address",
          "name": "previousOwner",
          "type": "address"
        },
        {
          "indexed": true,
          "internalType": "address",
          "name": "newOwner",
          "type": "address"
        }
      ],
      "name": "OwnershipTransferred",
      "type": "event"
    },
    {
      "anonymous": false,
      "inputs": [
        {
          "indexed": true,
          "internalType": "address",
          "name": "operator",
          "type": "address"
        },
        {
          "indexed": true,
          "internalType": "address",
          "name": "from",
          "type": "address"
        },
        {
          "indexed": true,
          "internalType": "address",
          "name": "to",
          "type": "address"
        },
        {
          "indexed": false,
          "internalType": "uint256[]",
          "name": "ids",
          "type": "uint256[]"
        },
        {
          "indexed": false,
          "internalType": "uint256[]",
          "name": "values",
          "type": "uint256[]"
        }
      ],
      "name": "TransferBatch",
      "type": "event"
    },
    {
      "anonymous": false,
      "inputs": [
        {
          "indexed": true,
          "internalType": "address",
          "name": "operator",
          "type": "address"
        },
        {
          "indexed": true,
          "internalType": "address",
          "name": "from",
          "type": "address"
        },
        {
          "indexed": true,
          "internalType": "address",
          "name": "to",
          "type": "address"
        },
        {
          "indexed": false,
          "internalType": "uint256",
          "name": "id",
          "type": "uint256"
        },
        {
          "indexed": false,
          "internalType": "uint256",
          "name": "value",
          "type": "uint256"
        }
      ],
      "name": "TransferSingle",
      "type": "event"
    },
    {
      "anonymous": false,
      "inputs": [
        {
          "indexed": false,
          "internalType": "string",
          "name": "value",
          "type": "string"
        },
        {
          "indexed": true,
          "internalType": "uint256",
          "name": "id",
          "type": "uint256"
        }
      ],
      "name": "URI",
      "type": "event"
    },
    {
      "anonymous": false,
      "inputs": [
        {
          "indexed": false,
          "internalType": "address",
          "name": "oldAccessCheckerContract",
          "type": "address"
        },
        {
          "indexed": false,
          "internalType": "address",
          "name": "newAccessCheckerContract",
          "type": "address"
        }
      ],
      "name": "accessCheckerContractChanged",
      "type": "event"
    },
    {
      "inputs": [],
      "name": "INVERSE_BASIS_POINT",
      "outputs": [
        {
          "internalType": "uint256",
          "name": "",
          "type": "uint256"
        }
      ],
      "stateMutability": "view",
      "type": "function"
    },
    {
      "inputs": [
        {
          "internalType": "uint256",
          "name": "",
          "type": "uint256"
        }
      ],
      "name": "_tokenIdToTokenBalance",
      "outputs": [
        {
          "internalType": "uint256",
          "name": "",
          "type": "uint256"
        }
      ],
      "stateMutability": "view",
      "type": "function"
    },
    {
      "inputs": [],
      "name": "accessCheckerContract",
      "outputs": [
        {
          "internalType": "address",
          "name": "",
          "type": "address"
        }
      ],
      "stateMutability": "view",
      "type": "function"
    },
    {
      "inputs": [
        {
          "internalType": "address",
          "name": "account",
          "type": "address"
        },
        {
          "internalType": "uint256",
          "name": "id",
          "type": "uint256"
        }
      ],
      "name": "balanceOf",
      "outputs": [
        {
          "internalType": "uint256",
          "name": "",
          "type": "uint256"
        }
      ],
      "stateMutability": "view",
      "type": "function"
    },
    {
      "inputs": [
        {
          "internalType": "address[]",
          "name": "accounts",
          "type": "address[]"
        },
        {
          "internalType": "uint256[]",
          "name": "ids",
          "type": "uint256[]"
        }
      ],
      "name": "balanceOfBatch",
      "outputs": [
        {
          "internalType": "uint256[]",
          "name": "",
          "type": "uint256[]"
        }
      ],
      "stateMutability": "view",
      "type": "function"
    },
    {
      "inputs": [
        {
          "internalType": "address",
          "name": "account",
          "type": "address"
        },
        {
          "internalType": "uint256",
          "name": "id",
          "type": "uint256"
        },
        {
          "internalType": "uint256",
          "name": "value",
          "type": "uint256"
        }
      ],
      "name": "burn",
      "outputs": [],
      "stateMutability": "nonpayable",
      "type": "function"
    },
    {
      "inputs": [
        {
          "internalType": "address",
          "name": "account",
          "type": "address"
        },
        {
          "internalType": "uint256[]",
          "name": "ids",
          "type": "uint256[]"
        },
        {
          "internalType": "uint256[]",
          "name": "values",
          "type": "uint256[]"
        }
      ],
      "name": "burnBatch",
      "outputs": [],
      "stateMutability": "nonpayable",
      "type": "function"
    },
    {
      "inputs": [],
      "name": "counter",
      "outputs": [
        {
          "internalType": "uint256",
          "name": "",
          "type": "uint256"
        }
      ],
      "stateMutability": "view",
      "type": "function"
    },
    {
      "inputs": [],
      "name": "gatewayProxy",
      "outputs": [
        {
          "internalType": "address",
          "name": "",
          "type": "address"
        }
      ],
      "stateMutability": "view",
      "type": "function"
    },
    {
      "inputs": [
        {
          "internalType": "address",
          "name": "account",
          "type": "address"
        },
        {
          "internalType": "address",
          "name": "operator",
          "type": "address"
        }
      ],
      "name": "isApprovedForAll",
      "outputs": [
        {
          "internalType": "bool",
          "name": "",
          "type": "bool"
        }
      ],
      "stateMutability": "view",
      "type": "function"
    },
    {
      "inputs": [],
      "name": "owner",
      "outputs": [
        {
          "internalType": "address",
          "name": "",
          "type": "address"
        }
      ],
      "stateMutability": "view",
      "type": "function"
    },
    {
      "inputs": [],
      "name": "renounceOwnership",
      "outputs": [],
      "stateMutability": "nonpayable",
      "type": "function"
    },
    {
      "inputs": [
        {
          "internalType": "address",
          "name": "from",
          "type": "address"
        },
        {
          "internalType": "address",
          "name": "to",
          "type": "address"
        },
        {
          "internalType": "uint256[]",
          "name": "ids",
          "type": "uint256[]"
        },
        {
          "internalType": "uint256[]",
          "name": "amounts",
          "type": "uint256[]"
        },
        {
          "internalType": "bytes",
          "name": "data",
          "type": "bytes"
        }
      ],
      "name": "safeBatchTransferFrom",
      "outputs": [],
      "stateMutability": "nonpayable",
      "type": "function"
    },
    {
      "inputs": [
        {
          "internalType": "address",
          "name": "from",
          "type": "address"
        },
        {
          "internalType": "address",
          "name": "to",
          "type": "address"
        },
        {
          "internalType": "uint256",
          "name": "id",
          "type": "uint256"
        },
        {
          "internalType": "uint256",
          "name": "amount",
          "type": "uint256"
        },
        {
          "internalType": "bytes",
          "name": "data",
          "type": "bytes"
        }
      ],
      "name": "safeTransferFrom",
      "outputs": [],
      "stateMutability": "nonpayable",
      "type": "function"
    },
    {
      "inputs": [
        {
          "internalType": "address",
          "name": "operator",
          "type": "address"
        },
        {
          "internalType": "bool",
          "name": "approved",
          "type": "bool"
        }
      ],
      "name": "setApprovalForAll",
      "outputs": [],
      "stateMutability": "nonpayable",
      "type": "function"
    },
    {
      "inputs": [
        {
          "internalType": "uint256",
          "name": "index",
          "type": "uint256"
        }
      ],
      "name": "tokenByIndex",
      "outputs": [
        {
          "internalType": "uint256",
          "name": "",
          "type": "uint256"
        }
      ],
      "stateMutability": "view",
      "type": "function"
    },
    {
      "inputs": [
        {
          "internalType": "address",
          "name": "owner",
          "type": "address"
        }
      ],
      "name": "tokenCountOfOwner",
      "outputs": [
        {
          "internalType": "uint256",
          "name": "",
          "type": "uint256"
        }
      ],
      "stateMutability": "view",
      "type": "function"
    },
    {
      "inputs": [
        {
          "internalType": "uint256",
          "name": "",
          "type": "uint256"
        }
      ],
      "name": "tokenIdToRoyaltyInfo",
      "outputs": [
        {
          "internalType": "address",
          "name": "recipient",
          "type": "address"
        },
        {
          "internalType": "uint256",
          "name": "royaltiesPercentage",
          "type": "uint256"
        }
      ],
      "stateMutability": "view",
      "type": "function"
    },
    {
      "inputs": [
        {
          "internalType": "uint256",
          "name": "",
          "type": "uint256"
        }
      ],
      "name": "tokenIdToTokenInfo",
      "outputs": [
        {
          "internalType": "address",
          "name": "minterAddress",
          "type": "address"
        },
        {
          "internalType": "bytes32",
          "name": "documentId",
          "type": "bytes32"
        },
        {
          "internalType": "string",
          "name": "getKeyURl",
          "type": "string"
        }
      ],
      "stateMutability": "view",
      "type": "function"
    },
    {
      "inputs": [
        {
          "internalType": "address",
          "name": "owner",
          "type": "address"
        },
        {
          "internalType": "uint256",
          "name": "index",
          "type": "uint256"
        }
      ],
      "name": "tokenOfOwnerByIndex",
      "outputs": [
        {
          "internalType": "uint256",
          "name": "",
          "type": "uint256"
        }
      ],
      "stateMutability": "view",
      "type": "function"
    },
    {
      "inputs": [],
      "name": "totalSupply",
      "outputs": [
        {
          "internalType": "uint256",
          "name": "",
          "type": "uint256"
        }
      ],
      "stateMutability": "view",
      "type": "function"
    },
    {
      "inputs": [
        {
          "internalType": "address",
          "name": "newOwner",
          "type": "address"
        }
      ],
      "name": "transferOwnership",
      "outputs": [],
      "stateMutability": "nonpayable",
      "type": "function"
    },
    {
      "inputs": [
        {
          "internalType": "uint256",
          "name": "",
          "type": "uint256"
        }
      ],
      "name": "uri",
      "outputs": [
        {
          "internalType": "string",
          "name": "",
          "type": "string"
        }
      ],
      "stateMutability": "view",
      "type": "function"
    },
    {
      "inputs": [
        {
          "internalType": "uint256",
          "name": "tokenId",
          "type": "uint256"
        }
      ],
      "name": "tokenURI",
      "outputs": [
        {
          "internalType": "string",
          "name": "",
          "type": "string"
        }
      ],
      "stateMutability": "view",
      "type": "function"
    },
    {
      "inputs": [
        {
          "internalType": "address",
          "name": "newAccessCheckerContract",
          "type": "address"
        }
      ],
      "name": "setAccessCheckerContract",
      "outputs": [],
      "stateMutability": "nonpayable",
      "type": "function"
    },
    {
      "inputs": [],
      "name": "getGatewayAddress",
      "outputs": [
        {
          "internalType": "address",
          "name": "",
          "type": "address"
        }
      ],
      "stateMutability": "view",
      "type": "function"
    },
    {
      "inputs": [],
      "name": "getFee",
      "outputs": [
        {
          "internalType": "uint256",
          "name": "",
          "type": "uint256"
        }
      ],
      "stateMutability": "view",
      "type": "function"
    },
    {
      "inputs": [
        {
          "internalType": "uint256",
          "name": "tokenId",
          "type": "uint256"
        }
      ],
      "name": "getMinter",
      "outputs": [
        {
          "internalType": "address",
          "name": "",
          "type": "address"
        }
      ],
      "stateMutability": "view",
      "type": "function"
    },
    {
      "inputs": [
        {
          "internalType": "string",
          "name": "_metadataURl",
          "type": "string"
        },
        {
          "internalType": "string",
          "name": "_getKeyURl",
          "type": "string"
        },
        {
          "internalType": "uint256",
          "name": "_amount",
          "type": "uint256"
        },
        {
          "internalType": "uint256",
          "name": "_royaltiesPercentage",
          "type": "uint256"
        },
        {
          "internalType": "bytes32",
          "name": "_documentId",
          "type": "bytes32"
        }
      ],
      "name": "mint",
      "outputs": [
        {
          "internalType": "uint256",
          "name": "",
          "type": "uint256"
        }
      ],
      "stateMutability": "payable",
      "type": "function"
    },
    {
      "inputs": [
        {
          "internalType": "string",
          "name": "_metadataURl",
          "type": "string"
        },
        {
          "internalType": "string",
          "name": "_getKeyURl",
          "type": "string"
        },
        {
          "internalType": "uint256[]",
          "name": "_amounts",
          "type": "uint256[]"
        },
        {
          "internalType": "uint256[]",
          "name": "_royaltiesPercentages",
          "type": "uint256[]"
        },
        {
          "internalType": "bytes32[]",
          "name": "_documentIds",
          "type": "bytes32[]"
        }
      ],
      "name": "mintBatch",
      "outputs": [],
      "stateMutability": "payable",
      "type": "function"
    },
    {
      "inputs": [
        {
          "internalType": "address",
          "name": "from",
          "type": "address"
        },
        {
          "internalType": "address",
          "name": "to",
          "type": "address"
        },
        {
          "internalType": "uint256",
          "name": "id",
          "type": "uint256"
        },
        {
          "internalType": "uint256",
          "name": "amount",
          "type": "uint256"
        },
        {
          "internalType": "bytes",
          "name": "data",
          "type": "bytes"
        }
      ],
      "name": "safeTransferAndPayFee",
      "outputs": [],
      "stateMutability": "payable",
      "type": "function"
    },
    {
      "inputs": [
        {
          "internalType": "address",
          "name": "from",
          "type": "address"
        },
        {
          "internalType": "address",
          "name": "to",
          "type": "address"
        },
        {
          "internalType": "uint256[]",
          "name": "ids",
          "type": "uint256[]"
        },
        {
          "internalType": "uint256[]",
          "name": "amounts",
          "type": "uint256[]"
        },
        {
          "internalType": "bytes",
          "name": "data",
          "type": "bytes"
        }
      ],
      "name": "safeBatchTransferAndPayFee",
      "outputs": [],
      "stateMutability": "payable",
      "type": "function"
    },
    {
      "inputs": [
        {
          "internalType": "address",
          "name": "minter",
          "type": "address"
        }
      ],
      "name": "getTokenByMinter",
      "outputs": [
        {
          "components": [
            {
              "internalType": "address",
              "name": "minterAddress",
              "type": "address"
            },
            {
              "internalType": "bytes32",
              "name": "documentId",
              "type": "bytes32"
            },
            {
              "internalType": "string",
              "name": "getKeyURl",
              "type": "string"
            }
          ],
          "internalType": "struct VWBLERC1155Metadata.TokenInfo[]",
          "name": "",
          "type": "tuple[]"
        }
      ],
      "stateMutability": "view",
      "type": "function"
    },
    {
      "inputs": [
        {
          "internalType": "bytes4",
          "name": "interfaceId",
          "type": "bytes4"
        }
      ],
      "name": "supportsInterface",
      "outputs": [
        {
          "internalType": "bool",
          "name": "",
          "type": "bool"
        }
      ],
      "stateMutability": "view",
      "type": "function"
    },
    {
      "inputs": [
        {
          "internalType": "uint256",
          "name": "_tokenId",
          "type": "uint256"
        },
        {
          "internalType": "uint256",
          "name": "_salePrice",
          "type": "uint256"
        }
      ],
      "name": "royaltyInfo",
      "outputs": [
        {
          "internalType": "address",
          "name": "receiver",
          "type": "address"
        },
        {
          "internalType": "uint256",
          "name": "royaltyAmount",
          "type": "uint256"
        }
      ],
      "stateMutability": "view",
      "type": "function"
    }
  ],
  "bytecode": "0x60806040526000600c553480156200001657600080fd5b506040516200398f3803806200398f8339810160408190526200003991620001c6565b82620000453362000084565b6200005081620000d4565b50600a80546001600160a01b039384166001600160a01b031991821617909155600b80549290931691161790555062000306565b600080546001600160a01b038381166001600160a01b0319831681178455604051919092169283917f8be0079c531659141344cd1fd0a4f28419497f9722a3daafe3b4186f6b6457e09190a35050565b8051620000e9906004906020840190620000ed565b5050565b828054620000fb90620002c9565b90600052602060002090601f0160209004810192826200011f57600085556200016a565b82601f106200013a57805160ff19168380011785556200016a565b828001600101855582156200016a579182015b828111156200016a5782518255916020019190600101906200014d565b50620001789291506200017c565b5090565b5b808211156200017857600081556001016200017d565b634e487b7160e01b600052604160045260246000fd5b80516001600160a01b0381168114620001c157600080fd5b919050565b600080600060608486031215620001dc57600080fd5b83516001600160401b0380821115620001f457600080fd5b818601915086601f8301126200020957600080fd5b8151818111156200021e576200021e62000193565b604051601f8201601f19908116603f0116810190838211818310171562000249576200024962000193565b816040528281526020935089848487010111156200026657600080fd5b600091505b828210156200028a57848201840151818301850152908301906200026b565b828211156200029c5760008484830101525b9650620002ae915050868201620001a9565b93505050620002c060408501620001a9565b90509250925092565b600181811c90821680620002de57607f821691505b602082108114156200030057634e487b7160e01b600052602260045260246000fd5b50919050565b61367980620003166000396000f3fe6080604052600436106102035760003560e01c806368e586e811610118578063c87b56dd116100a0578063ced72f871161006f578063ced72f8714610632578063e985e9c514610647578063f242432a14610690578063f2fde38b146106b0578063f5298aca146106d057600080fd5b8063c87b56dd146105bc578063cae6047f146105dc578063cbbe7cb8146105f2578063ce5af3361461060557600080fd5b80638840fc9d116100e75780638840fc9d146105115780638da5cb5b1461053e57806393fab57b1461055c578063a22cb4651461057c578063b41bde131461059c57600080fd5b806368e586e8146104a95780636ab29c08146104c95780636b20c454146104dc578063715018a6146104fc57600080fd5b80632eb2c2d61161019b5780634f6ccce71161016a5780634f6ccce7146103fb5780635b7121f81461041b5780635c330f83146104515780635fb8bcd51461046457806361bc221a1461049357600080fd5b80632eb2c2d6146103615780632f745c591461038157806335711346146103a15780634e1273f4146103ce57600080fd5b806319daf1bf116101d757806319daf1bf146102ad5780632812a3d21461030c5780632a55205a1461032e5780632d4e6ddb1461034e57600080fd5b8062fdd58e1461020857806301ffc9a71461023b5780630e89341c1461026b57806318160ddd14610298575b600080fd5b34801561021457600080fd5b506102286102233660046128e6565b6106f0565b6040519081526020015b60405180910390f35b34801561024757600080fd5b5061025b610256366004612928565b610749565b6040519015158152602001610232565b34801561027757600080fd5b5061028b61028636600461294c565b610774565b60405161023291906129b2565b3480156102a457600080fd5b50600854610228565b3480156102b957600080fd5b506102ed6102c836600461294c565b600f60205260009081526040902080546001909101546001600160a01b039091169082565b604080516001600160a01b039093168352602083019190915201610232565b34801561031857600080fd5b5061032c6103273660046129c5565b610808565b005b34801561033a57600080fd5b506102ed6103493660046129e2565b6108ae565b61032c61035c366004612b4d565b61090a565b34801561036d57600080fd5b5061032c61037c366004612c1e565b610c64565b34801561038d57600080fd5b5061022861039c3660046128e6565b610cfb565b3480156103ad57600080fd5b506103b6610d92565b6040516001600160a01b039091168152602001610232565b3480156103da57600080fd5b506103ee6103e9366004612cbe565b610e05565b6040516102329190612dc5565b34801561040757600080fd5b5061022861041636600461294c565b610f2e565b34801561042757600080fd5b506103b661043636600461294c565b6000908152600e60205260409020546001600160a01b031690565b61032c61045f366004612c1e565b610fc2565b34801561047057600080fd5b5061048461047f36600461294c565b6110c8565b60405161023293929190612dd8565b34801561049f57600080fd5b50610228600c5481565b3480156104b557600080fd5b506102286104c43660046129c5565b61117d565b61032c6104d7366004612e08565b6111c1565b3480156104e857600080fd5b5061032c6104f7366004612e70565b611257565b34801561050857600080fd5b5061032c61129f565b34801561051d57600080fd5b5061022861052c36600461294c565b60026020526000908152604090205481565b34801561054a57600080fd5b506000546001600160a01b03166103b6565b34801561056857600080fd5b50600b546103b6906001600160a01b031681565b34801561058857600080fd5b5061032c610597366004612ee5565b6112d5565b3480156105a857600080fd5b50600a546103b6906001600160a01b031681565b3480156105c857600080fd5b5061028b6105d736600461294c565b6112e4565b3480156105e857600080fd5b5061022861271081565b610228610600366004612f23565b61136a565b34801561061157600080fd5b506106256106203660046129c5565b6113f3565b6040516102329190612fa1565b34801561063e57600080fd5b50610228611598565b34801561065357600080fd5b5061025b610662366004613029565b6001600160a01b03918216600090815260036020908152604080832093909416825291909152205460ff1690565b34801561069c57600080fd5b5061032c6106ab366004612e08565b611603565b3480156106bc57600080fd5b5061032c6106cb3660046129c5565b61168a565b3480156106dc57600080fd5b5061032c6106eb366004613057565b611725565b60006001600160a01b0383166107215760405162461bcd60e51b81526004016107189061308c565b60405180910390fd5b5060009081526001602090815260408083206001600160a01b03949094168352929052205490565b60006001600160e01b0319821663152a902d60e11b148061076e575061076e82611768565b92915050565b606060048054610783906130d7565b80601f01602080910402602001604051908101604052809291908181526020018280546107af906130d7565b80156107fc5780601f106107d1576101008083540402835291602001916107fc565b820191906000526020600020905b8154815290600101906020018083116107df57829003601f168201915b50505050509050919050565b6000546001600160a01b031633146108325760405162461bcd60e51b815260040161071890613112565b600b546001600160a01b038281169116141561084d57600080fd5b600b80546001600160a01b038381166001600160a01b031983168117909355604080519190921680825260208201939093527f9aaef5934caac7bf8ee7de13d1a1e98122180cb78e64abeae728ad559df64a66910160405180910390a15050565b6000828152600f60209081526040808320815180830190925280546001600160a01b031682526001015491810182905282918290612710906108f0908761315d565b6108fa9190613192565b91519350909150505b9250929050565b8151835114801561091c575080518251145b61095f5760405162461bcd60e51b8152602060048201526014602482015273092dcecc2d8d2c840c2e4e4c2f240d8cadccee8d60631b6044820152606401610718565b600083516001600160401b0381111561097a5761097a612a04565b6040519080825280602002602001820160405280156109a3578160200160208202803683370190505b50905060005b84518163ffffffff161015610aec576000600c600081546109c9906131b4565b919050819055905080838363ffffffff16815181106109ea576109ea6131cf565b6020908102919091018101919091526000828152600e9091526040902080546001600160a01b031916331790558351849063ffffffff8416908110610a3157610a316131cf565b6020908102919091018101516000838152600e83526040902060018101919091558851610a66926002909201918a0190612838565b506000818152600d602090815260409091208951610a86928b0190612838565b506000858363ffffffff1681518110610aa157610aa16131cf565b60200260200101511115610ad957610ad98133878563ffffffff1681518110610acc57610acc6131cf565b60200260200101516117b8565b5080610ae4816131e5565b9150506109a9565b50610b08338286604051806020016040528060008152506117eb565b600080610b1f86513461196a90919063ffffffff16565b9150915081610b705760405162461bcd60e51b815260206004820152601860248201527f43616c63756c6174696f6e206572726f72206f662064697600000000000000006044820152606401610718565b60005b86518163ffffffff161015610c5957600b5485516001600160a01b0390911690637b987bea908490889063ffffffff8616908110610bb357610bb36131cf565b602002602001015130888663ffffffff1681518110610bd457610bd46131cf565b60200260200101516040518563ffffffff1660e01b8152600401610c14939291909283526001600160a01b03919091166020830152604082015260600190565b6000604051808303818588803b158015610c2d57600080fd5b505af1158015610c41573d6000803e3d6000fd5b50505050508080610c51906131e5565b915050610b73565b505050505050505050565b6001600160a01b038516331480610c805750610c808533610662565b610ce75760405162461bcd60e51b815260206004820152603260248201527f455243313135353a207472616e736665722063616c6c6572206973206e6f74206044820152711bdddb995c881b9bdc88185c1c1c9bdd995960721b6064820152608401610718565b610cf4858585858561199a565b5050505050565b6000610d068361117d565b8210610d695760405162461bcd60e51b815260206004820152602c60248201527f45524331313535456e756d657261626c653a206f776e657220696e646578206f60448201526b7574206f6620626f756e647360a01b6064820152608401610718565b506001600160a01b03919091166000908152600660209081526040808320938352929052205490565b600a5460408051631ab889a360e11b815290516000926001600160a01b03169163357113469160048083019260209291908290030181865afa158015610ddc573d6000803e3d6000fd5b505050506040513d601f19601f82011682018060405250810190610e009190613209565b905090565b60608151835114610e6a5760405162461bcd60e51b815260206004820152602960248201527f455243313135353a206163636f756e747320616e6420696473206c656e677468604482015268040dad2e6dac2e8c6d60bb1b6064820152608401610718565b600083516001600160401b03811115610e8557610e85612a04565b604051908082528060200260200182016040528015610eae578160200160208202803683370190505b50905060005b8451811015610f2657610ef9858281518110610ed257610ed26131cf565b6020026020010151858381518110610eec57610eec6131cf565b60200260200101516106f0565b828281518110610f0b57610f0b6131cf565b6020908102919091010152610f1f816131b4565b9050610eb4565b509392505050565b6000610f3960085490565b8210610f9d5760405162461bcd60e51b815260206004820152602d60248201527f45524331313535456e756d657261626c653a20676c6f62616c20696e6465782060448201526c6f7574206f6620626f756e647360981b6064820152608401610718565b60088281548110610fb057610fb06131cf565b90600052602060002001549050919050565b610fcf8585858585610c64565b600080610fe685513461196a90919063ffffffff16565b9150915060005b85518163ffffffff1610156110be57611004610d92565b6001600160a01b031663febaa13483600e60008a8663ffffffff168151811061102f5761102f6131cf565b60200260200101518152602001908152602001600020600101548a6040518463ffffffff1660e01b81526004016110799291909182526001600160a01b0316602082015260400190565b6000604051808303818588803b15801561109257600080fd5b505af11580156110a6573d6000803e3d6000fd5b505050505080806110b6906131e5565b915050610fed565b5050505050505050565b600e602052600090815260409020805460018201546002830180546001600160a01b039093169391926110fa906130d7565b80601f0160208091040260200160405190810160405280929190818152602001828054611126906130d7565b80156111735780601f1061114857610100808354040283529160200191611173565b820191906000526020600020905b81548152906001019060200180831161115657829003601f168201915b5050505050905083565b60006001600160a01b0382166111a55760405162461bcd60e51b81526004016107189061308c565b506001600160a01b031660009081526005602052604090205490565b6111ce8585858585611603565b6111d6610d92565b6000848152600e602052604090819020600101549051633faea84d60e21b815260048101919091526001600160a01b038681166024830152919091169063febaa1349034906044016000604051808303818588803b15801561123757600080fd5b505af115801561124b573d6000803e3d6000fd5b50505050505050505050565b6001600160a01b03831633148061127357506112738333610662565b61128f5760405162461bcd60e51b815260040161071890613226565b61129a838383611b47565b505050565b6000546001600160a01b031633146112c95760405162461bcd60e51b815260040161071890613112565b6112d36000611d0c565b565b6112e0338383611d5c565b5050565b6000818152600d60205260409020805460609190611301906130d7565b151590506113515760405162461bcd60e51b815260206004820152601960248201527f455243313135353a20696e76616c696420746f6b656e204944000000000000006044820152606401610718565b6000828152600d602052604090208054610783906130d7565b60008061137a8787878787611e3d565b600b54604051633dcc3df560e11b815260048101869052306024820152604481018390529192506001600160a01b031690637b987bea9034906064016000604051808303818588803b1580156113cf57600080fd5b505af11580156113e3573d6000803e3d6000fd5b50939a9950505050505050505050565b6060600080600c546001600160401b0381111561141257611412612a04565b60405190808252806020026020018201604052801561145f57816020015b604080516060808201835260008083526020830152918101919091528152602001906001900390816114305790505b50905060015b600c548111610f26576000818152600e60205260409020546001600160a01b0386811691161415611586576000818152600e6020908152604091829020825160608101845281546001600160a01b0316815260018201549281019290925260028101805492939192918401916114da906130d7565b80601f0160208091040260200160405190810160405280929190818152602001828054611506906130d7565b80156115535780601f1061152857610100808354040283529160200191611553565b820191906000526020600020905b81548152906001019060200180831161153657829003601f168201915b505050505081525050828480611568906131b4565b95508151811061157a5761157a6131cf565b60200260200101819052505b80611590816131b4565b915050611465565b60006115a2610d92565b6001600160a01b031663428c090b6040518163ffffffff1660e01b8152600401602060405180830381865afa1580156115df573d6000803e3d6000fd5b505050506040513d601f19601f82011682018060405250810190610e009190613274565b6001600160a01b03851633148061161f575061161f8533610662565b61167d5760405162461bcd60e51b815260206004820152602960248201527f455243313135353a2063616c6c6572206973206e6f74206f776e6572206e6f7260448201526808185c1c1c9bdd995960ba1b6064820152608401610718565b610cf48585858585611eea565b6000546001600160a01b031633146116b45760405162461bcd60e51b815260040161071890613112565b6001600160a01b0381166117195760405162461bcd60e51b815260206004820152602660248201527f4f776e61626c653a206e6577206f776e657220697320746865207a65726f206160448201526564647265737360d01b6064820152608401610718565b61172281611d0c565b50565b6001600160a01b03831633148061174157506117418333610662565b61175d5760405162461bcd60e51b815260040161071890613226565b61129a83838361201b565b60006001600160e01b03198216636cdb3d1360e11b148061179957506001600160e01b031982166303a24d0760e21b145b8061076e57506301ffc9a760e01b6001600160e01b031983161461076e565b6000928352600f602052604090922080546001600160a01b0319166001600160a01b039290921691909117815560010155565b6001600160a01b0384166118115760405162461bcd60e51b81526004016107189061328d565b81518351146118325760405162461bcd60e51b8152600401610718906132ce565b3361184281600087878787612168565b60005b8451811015611902576000858281518110611862576118626131cf565b6020026020010151905084828151811061187e5761187e6131cf565b60209081029190910181015160008381526001835260408082206001600160a01b038c1683529093529182208054919290916118bb908490613316565b925050819055508482815181106118d4576118d46131cf565b60209081029190910181015160009283526002909152604090912055806118fa816131b4565b915050611845565b50846001600160a01b031660006001600160a01b0316826001600160a01b03167f4a39dc06d4c0dbc64b70af90fd698a233a518aa5d07e595d983b8c0526c8f7fb878760405161195392919061332e565b60405180910390a4610cf481600087878787612176565b6000808261197d57506000905080610903565b600183858161198e5761198e61317c565b04915091509250929050565b81518351146119bb5760405162461bcd60e51b8152600401610718906132ce565b6001600160a01b0384166119e15760405162461bcd60e51b815260040161071890613353565b336119f0818787878787612168565b60005b8451811015611ad9576000858281518110611a1057611a106131cf565b602002602001015190506000858381518110611a2e57611a2e6131cf565b60209081029190910181015160008481526001835260408082206001600160a01b038e168352909352919091205490915081811015611a7f5760405162461bcd60e51b815260040161071890613398565b60008381526001602090815260408083206001600160a01b038e8116855292528083208585039055908b16825281208054849290611abe908490613316565b9250508190555050505080611ad2906131b4565b90506119f3565b50846001600160a01b0316866001600160a01b0316826001600160a01b03167f4a39dc06d4c0dbc64b70af90fd698a233a518aa5d07e595d983b8c0526c8f7fb8787604051611b2992919061332e565b60405180910390a4611b3f818787878787612176565b505050505050565b6001600160a01b038316611b6d5760405162461bcd60e51b8152600401610718906133e2565b8051825114611b8e5760405162461bcd60e51b8152600401610718906132ce565b6000339050611bb181856000868660405180602001604052806000815250612168565b60005b8351811015611c9e576000848281518110611bd157611bd16131cf565b602002602001015190506000848381518110611bef57611bef6131cf565b60209081029190910181015160008481526001835260408082206001600160a01b038c168352909352919091205490915081811015611c405760405162461bcd60e51b815260040161071890613425565b60008381526001602090815260408083206001600160a01b038c16845282528083208585039055858352600290915281208054849290611c81908490613469565b925050819055505050508080611c96906131b4565b915050611bb4565b5060006001600160a01b0316846001600160a01b0316826001600160a01b03167f4a39dc06d4c0dbc64b70af90fd698a233a518aa5d07e595d983b8c0526c8f7fb8686604051611cef92919061332e565b60405180910390a460408051602081019091526000905250505050565b600080546001600160a01b038381166001600160a01b0319831681178455604051919092169283917f8be0079c531659141344cd1fd0a4f28419497f9722a3daafe3b4186f6b6457e09190a35050565b816001600160a01b0316836001600160a01b03161415611dd05760405162461bcd60e51b815260206004820152602960248201527f455243313135353a2073657474696e6720617070726f76616c20737461747573604482015268103337b91039b2b63360b91b6064820152608401610718565b6001600160a01b03838116600081815260036020908152604080832094871680845294825291829020805460ff191686151590811790915591519182527f17307eab39ab6107e8899845ad3d59bd9653f200f220920489ca2b5937696c31910160405180910390a3505050565b600080600c60008154611e4f906131b4565b91829055506000818152600e6020908152604090912080546001600160a01b03191633178155600181018690558851929350611e9392600290910191890190612838565b50611eaf338287604051806020016040528060008152506122d2565b6000818152600d602090815260409091208851611ece928a0190612838565b508315611ee057611ee08133866117b8565b9695505050505050565b6001600160a01b038416611f105760405162461bcd60e51b815260040161071890613353565b336000611f1c856123c5565b90506000611f29856123c5565b9050611f39838989858589612168565b60008681526001602090815260408083206001600160a01b038c16845290915290205485811015611f7c5760405162461bcd60e51b815260040161071890613398565b60008781526001602090815260408083206001600160a01b038d8116855292528083208985039055908a16825281208054889290611fbb908490613316565b909155505060408051888152602081018890526001600160a01b03808b16928c821692918816917fc3d58168c5ae7397731d063d5bbf3d657854427343f4c083240f7aacaa2d0f62910160405180910390a4610c59848a8a8a8a8a612410565b6001600160a01b0383166120415760405162461bcd60e51b8152600401610718906133e2565b33600061204d846123c5565b9050600061205a846123c5565b905061207a83876000858560405180602001604052806000815250612168565b60008581526001602090815260408083206001600160a01b038a168452909152902054848110156120bd5760405162461bcd60e51b815260040161071890613425565b60008681526001602090815260408083206001600160a01b038b168452825280832088850390558883526002909152812080548792906120fe908490613469565b909155505060408051878152602081018790526000916001600160a01b038a811692908816917fc3d58168c5ae7397731d063d5bbf3d657854427343f4c083240f7aacaa2d0f62910160405180910390a46040805160208101909152600090525b50505050505050565b611b3f8686868686866124cb565b6001600160a01b0384163b15611b3f5760405163bc197c8160e01b81526001600160a01b0385169063bc197c81906121ba9089908990889088908890600401613480565b6020604051808303816000875af19250505080156121f5575060408051601f3d908101601f191682019092526121f2918101906134de565b60015b6122a2576122016134fb565b806308c379a0141561223b5750612216613517565b80612221575061223d565b8060405162461bcd60e51b815260040161071891906129b2565b505b60405162461bcd60e51b815260206004820152603460248201527f455243313135353a207472616e7366657220746f206e6f6e20455243313135356044820152732932b1b2b4bb32b91034b6b83632b6b2b73a32b960611b6064820152608401610718565b6001600160e01b0319811663bc197c8160e01b1461215f5760405162461bcd60e51b8152600401610718906135a0565b6001600160a01b0384166122f85760405162461bcd60e51b81526004016107189061328d565b336000612304856123c5565b90506000612311856123c5565b905061232283600089858589612168565b60008681526001602090815260408083206001600160a01b038b16845290915281208054879290612354908490613316565b909155505060408051878152602081018790526001600160a01b03808a1692600092918716917fc3d58168c5ae7397731d063d5bbf3d657854427343f4c083240f7aacaa2d0f62910160405180910390a4600086815260026020526040902085905561215f83600089898989612410565b604080516001808252818301909252606091600091906020808301908036833701905050905082816000815181106123ff576123ff6131cf565b602090810291909101015292915050565b6001600160a01b0384163b15611b3f5760405163f23a6e6160e01b81526001600160a01b0385169063f23a6e619061245490899089908890889088906004016135e8565b6020604051808303816000875af192505050801561248f575060408051601f3d908101601f1916820190925261248c918101906134de565b60015b61249b576122016134fb565b6001600160e01b0319811663f23a6e6160e01b1461215f5760405162461bcd60e51b8152600401610718906135a0565b60005b83518163ffffffff16101561215f576000848263ffffffff16815181106124f7576124f76131cf565b602002602001015190506000848363ffffffff168151811061251b5761251b6131cf565b6020026020010151905060006001600160a01b0316886001600160a01b0316141561258d5761258882600880546000838152600960205260408120829055600182018355919091527ff3f7a9fe364faab93b216da50a3214154f22a0a2b415b23a84c8169e8b636ee30155565b6125f5565b866001600160a01b0316886001600160a01b0316141580156125b75750806125b589846106f0565b145b156125f5576125c688836126a8565b6001600160a01b03881660009081526005602052604081208054600192906125ef908490613469565b90915550505b876001600160a01b0316876001600160a01b03161415801561261e575061261c87836106f0565b155b156126615761262d8783612745565b6001600160a01b0387166000908152600560205260408120805460019290612656908490613316565b909155506126939050565b6001600160a01b038716158015612685575060008281526002602052604090205481145b156126935761269382612789565b505080806126a0906131e5565b9150506124ce565b600060016126b58461117d565b6126bf9190613469565b600083815260076020526040902054909150808214612712576001600160a01b03841660009081526006602090815260408083208584528252808320548484528184208190558352600790915290208190555b5060009182526007602090815260408084208490556001600160a01b039094168352600681528383209183525290812055565b60006127508361117d565b6001600160a01b039093166000908152600660209081526040808320868452825280832085905593825260079052919091209190915550565b60085460009061279b90600190613469565b600083815260096020526040812054600880549394509092849081106127c3576127c36131cf565b9060005260206000200154905080600883815481106127e4576127e46131cf565b600091825260208083209091019290925582815260099091526040808220849055858252812055600880548061281c5761281c61362d565b6001900381819060005260206000200160009055905550505050565b828054612844906130d7565b90600052602060002090601f01602090048101928261286657600085556128ac565b82601f1061287f57805160ff19168380011785556128ac565b828001600101855582156128ac579182015b828111156128ac578251825591602001919060010190612891565b506128b89291506128bc565b5090565b5b808211156128b857600081556001016128bd565b6001600160a01b038116811461172257600080fd5b600080604083850312156128f957600080fd5b8235612904816128d1565b946020939093013593505050565b6001600160e01b03198116811461172257600080fd5b60006020828403121561293a57600080fd5b813561294581612912565b9392505050565b60006020828403121561295e57600080fd5b5035919050565b6000815180845260005b8181101561298b5760208185018101518683018201520161296f565b8181111561299d576000602083870101525b50601f01601f19169290920160200192915050565b6020815260006129456020830184612965565b6000602082840312156129d757600080fd5b8135612945816128d1565b600080604083850312156129f557600080fd5b50508035926020909101359150565b634e487b7160e01b600052604160045260246000fd5b601f8201601f191681016001600160401b0381118282101715612a3f57612a3f612a04565b6040525050565b600082601f830112612a5757600080fd5b81356001600160401b03811115612a7057612a70612a04565b604051612a87601f8301601f191660200182612a1a565b818152846020838601011115612a9c57600080fd5b816020850160208301376000918101602001919091529392505050565b60006001600160401b03821115612ad257612ad2612a04565b5060051b60200190565b600082601f830112612aed57600080fd5b81356020612afa82612ab9565b604051612b078282612a1a565b83815260059390931b8501820192828101915086841115612b2757600080fd5b8286015b84811015612b425780358352918301918301612b2b565b509695505050505050565b600080600080600060a08688031215612b6557600080fd5b85356001600160401b0380821115612b7c57600080fd5b612b8889838a01612a46565b96506020880135915080821115612b9e57600080fd5b612baa89838a01612a46565b95506040880135915080821115612bc057600080fd5b612bcc89838a01612adc565b94506060880135915080821115612be257600080fd5b612bee89838a01612adc565b93506080880135915080821115612c0457600080fd5b50612c1188828901612adc565b9150509295509295909350565b600080600080600060a08688031215612c3657600080fd5b8535612c41816128d1565b94506020860135612c51816128d1565b935060408601356001600160401b0380821115612c6d57600080fd5b612c7989838a01612adc565b94506060880135915080821115612c8f57600080fd5b612c9b89838a01612adc565b93506080880135915080821115612cb157600080fd5b50612c1188828901612a46565b60008060408385031215612cd157600080fd5b82356001600160401b0380821115612ce857600080fd5b818501915085601f830112612cfc57600080fd5b81356020612d0982612ab9565b604051612d168282612a1a565b83815260059390931b8501820192828101915089841115612d3657600080fd5b948201945b83861015612d5d578535612d4e816128d1565b82529482019490820190612d3b565b96505086013592505080821115612d7357600080fd5b50612d8085828601612adc565b9150509250929050565b600081518084526020808501945080840160005b83811015612dba57815187529582019590820190600101612d9e565b509495945050505050565b6020815260006129456020830184612d8a565b60018060a01b0384168152826020820152606060408201526000612dff6060830184612965565b95945050505050565b600080600080600060a08688031215612e2057600080fd5b8535612e2b816128d1565b94506020860135612e3b816128d1565b9350604086013592506060860135915060808601356001600160401b03811115612e6457600080fd5b612c1188828901612a46565b600080600060608486031215612e8557600080fd5b8335612e90816128d1565b925060208401356001600160401b0380821115612eac57600080fd5b612eb887838801612adc565b93506040860135915080821115612ece57600080fd5b50612edb86828701612adc565b9150509250925092565b60008060408385031215612ef857600080fd5b8235612f03816128d1565b915060208301358015158114612f1857600080fd5b809150509250929050565b600080600080600060a08688031215612f3b57600080fd5b85356001600160401b0380821115612f5257600080fd5b612f5e89838a01612a46565b96506020880135915080821115612f7457600080fd5b50612f8188828901612a46565b959895975050505060408401359360608101359360809091013592509050565b60006020808301818452808551808352604092508286019150828160051b87010184880160005b8381101561301b57888303603f19018552815180516001600160a01b031684528781015188850152860151606087850181905261300781860183612965565b968901969450505090860190600101612fc8565b509098975050505050505050565b6000806040838503121561303c57600080fd5b8235613047816128d1565b91506020830135612f18816128d1565b60008060006060848603121561306c57600080fd5b8335613077816128d1565b95602085013595506040909401359392505050565b6020808252602b908201527f455243313135353a2062616c616e636520717565727920666f7220746865207a60408201526a65726f206164647265737360a81b606082015260800190565b600181811c908216806130eb57607f821691505b6020821081141561310c57634e487b7160e01b600052602260045260246000fd5b50919050565b6020808252818101527f4f776e61626c653a2063616c6c6572206973206e6f7420746865206f776e6572604082015260600190565b634e487b7160e01b600052601160045260246000fd5b600081600019048311821515161561317757613177613147565b500290565b634e487b7160e01b600052601260045260246000fd5b6000826131af57634e487b7160e01b600052601260045260246000fd5b500490565b60006000198214156131c8576131c8613147565b5060010190565b634e487b7160e01b600052603260045260246000fd5b600063ffffffff808316818114156131ff576131ff613147565b6001019392505050565b60006020828403121561321b57600080fd5b8151612945816128d1565b6020808252602e908201527f455243313135353a2063616c6c6572206973206e6f7420746f6b656e206f776e60408201526d195c881bdc88185c1c1c9bdd995960921b606082015260800190565b60006020828403121561328657600080fd5b5051919050565b60208082526021908201527f455243313135353a206d696e7420746f20746865207a65726f206164647265736040820152607360f81b606082015260800190565b60208082526028908201527f455243313135353a2069647320616e6420616d6f756e7473206c656e677468206040820152670dad2e6dac2e8c6d60c31b606082015260800190565b6000821982111561332957613329613147565b500190565b6040815260006133416040830185612d8a565b8281036020840152612dff8185612d8a565b60208082526025908201527f455243313135353a207472616e7366657220746f20746865207a65726f206164604082015264647265737360d81b606082015260800190565b6020808252602a908201527f455243313135353a20696e73756666696369656e742062616c616e636520666f60408201526939103a3930b739b332b960b11b606082015260800190565b60208082526023908201527f455243313135353a206275726e2066726f6d20746865207a65726f206164647260408201526265737360e81b606082015260800190565b60208082526024908201527f455243313135353a206275726e20616d6f756e7420657863656564732062616c604082015263616e636560e01b606082015260800190565b60008282101561347b5761347b613147565b500390565b6001600160a01b0386811682528516602082015260a0604082018190526000906134ac90830186612d8a565b82810360608401526134be8186612d8a565b905082810360808401526134d28185612965565b98975050505050505050565b6000602082840312156134f057600080fd5b815161294581612912565b600060033d11156135145760046000803e5060005160e01c5b90565b600060443d10156135255790565b6040516003193d81016004833e81513d6001600160401b03816024840111818411171561355457505050505090565b828501915081518181111561356c5750505050505090565b843d87010160208285010111156135865750505050505090565b61359560208286010187612a1a565b509095945050505050565b60208082526028908201527f455243313135353a204552433131353552656365697665722072656a656374656040820152676420746f6b656e7360c01b606082015260800190565b6001600160a01b03868116825285166020820152604081018490526060810183905260a06080820181905260009061362290830184612965565b979650505050505050565b634e487b7160e01b600052603160045260246000fdfea26469706673582212207c673bdcdf8b796626b98bcd5d3a8886ed9e008890aaf912acc8965c12953b0b64736f6c634300080b0033",
  "immutableReferences": {},
  "source": "// SPDX-License-Identifier: MIT\npragma solidity ^0.8.0;\n\nimport \"../ERC1155Enumerable.sol\";\nimport \"../dependencies/ERC1155Burnable.sol\";\nimport \"../dependencies/IERC2981.sol\";\nimport \"../dependencies/IERC165.sol\";\nimport \"../IAccessControlCheckerByERC1155.sol\";\nimport \"../../../gateway/IGatewayProxy.sol\";\nimport \"../../../gateway/IVWBLGateway.sol\";\nimport \"@openzeppelin/contracts/utils/math/SafeMath.sol\";\nimport \"../dependencies/Ownable.sol\";\n\n/**\n * @dev Erc1155 which is added Viewable features that only ERC1155 Owner can view digital content\n */\ncontract VWBLERC1155Metadata is IERC2981, Ownable, ERC1155Enumerable, ERC1155Burnable {\n    using SafeMath for uint256;\n\n    address public gatewayProxy;\n    address public accessCheckerContract;\n\n    uint256 public counter = 0;\n\n    struct TokenInfo {\n        address minterAddress;\n        bytes32 documentId;\n        string getKeyURl;\n    }\n\n    struct RoyaltyInfo {\n        address recipient;\n        uint256 royaltiesPercentage; // if percentage is 3.5, royaltiesPercentage=3.5*10^2 (decimal is 2)\n    }\n\n    mapping(uint256 => string) private _tokenURIs;\n    mapping(uint256 => TokenInfo) public tokenIdToTokenInfo;\n    mapping(uint256 => RoyaltyInfo) public tokenIdToRoyaltyInfo;\n\n    uint256 public constant INVERSE_BASIS_POINT = 10000;\n\n    event accessCheckerContractChanged(address oldAccessCheckerContract, address newAccessCheckerContract);\n\n    constructor(\n        string memory _baseURI,\n        address _gatewayProxy,\n        address _accessCheckerContract\n    ) ERC1155(_baseURI) {\n        gatewayProxy = _gatewayProxy;\n        accessCheckerContract = _accessCheckerContract;\n    }\n\n    function _beforeTokenTransfer(\n        address operator,\n        address from,\n        address to,\n        uint256[] memory ids,\n        uint256[] memory amounts,\n        bytes memory data\n    ) internal override(ERC1155, ERC1155Enumerable) {\n        super._beforeTokenTransfer(operator, from, to, ids, amounts, data);\n    }\n\n    function tokenURI(uint256 tokenId) public view returns (string memory) {\n        require(bytes(_tokenURIs[tokenId]).length != 0, \"ERC1155: invalid token ID\");\n        return _tokenURIs[tokenId];\n    }\n\n    function _mint(\n        string memory _metadataURl,\n        string memory _getKeyURl,\n        uint256 _amount,\n        uint256 _royaltiesPercentage,\n        bytes32 _documentId\n    ) internal returns (uint256) {\n        uint256 tokenId = ++counter;\n        tokenIdToTokenInfo[tokenId].minterAddress = msg.sender;\n        tokenIdToTokenInfo[tokenId].documentId = _documentId;\n        tokenIdToTokenInfo[tokenId].getKeyURl = _getKeyURl;\n        super._mint(msg.sender, tokenId, _amount, \"\");\n        _tokenURIs[tokenId] = _metadataURl;\n        if (_royaltiesPercentage > 0) {\n            _setRoyalty(tokenId, msg.sender, _royaltiesPercentage);\n        }\n        return tokenId;\n    }\n\n    /**\n     * @notice Set new access condition contract address\n     * @param newAccessCheckerContract The contract address of new access condition contract\n     */\n    function setAccessCheckerContract(address newAccessCheckerContract) public onlyOwner {\n        require(newAccessCheckerContract != accessCheckerContract);\n        address oldAccessCheckerContract = accessCheckerContract;\n        accessCheckerContract = newAccessCheckerContract;\n\n        emit accessCheckerContractChanged(oldAccessCheckerContract, newAccessCheckerContract);\n    }\n\n    /**\n     * @notice Get VWBL gateway address\n     */\n    function getGatewayAddress() public view returns (address) {\n        return IGatewayProxy(gatewayProxy).getGatewayAddress();\n    }\n\n    /**\n     * @notice Get VWBL Fee\n     */\n    function getFee() public view returns (uint256) {\n        return IVWBLGateway(getGatewayAddress()).feeWei();\n    }\n\n    /**\n     * @notice Get minter of ERC1155 by tokenId\n     * @param tokenId The Identifier of ERC1155\n     */\n    function getMinter(uint256 tokenId) public view returns (address) {\n        return tokenIdToTokenInfo[tokenId].minterAddress;\n    }\n\n    /**\n     * @notice Mint ERC1155, grant access feature and register access condition of digital content.\n     * @param _getKeyURl The URl of VWBL Network(Key management network)\n     * @param _amount The token quantity\n     * @param _royaltiesPercentage Royalty percentage of ERC1155\n     * @param _documentId The Identifier of digital content and decryption key\n     */\n    function mint(\n        string memory _metadataURl,\n        string memory _getKeyURl,\n        uint256 _amount,\n        uint256 _royaltiesPercentage,\n        bytes32 _documentId\n    ) public payable returns (uint256) {\n        uint256 tokenId = _mint(_metadataURl, _getKeyURl, _amount, _royaltiesPercentage, _documentId);\n\n        IAccessControlCheckerByERC1155(accessCheckerContract).grantAccessControlAndRegisterERC1155{value: msg.value}(\n            _documentId,\n            address(this),\n            tokenId\n        );\n\n        return tokenId;\n    }\n\n    /**\n     * @notice Batch mint ERC1155, grant access feature and register access condition of digital content.\n     * @param _getKeyURl The Url of VWBL Network(Key management network)\n     * @param _amounts The array of token quantity\n     * @param _royaltiesPercentages Array of Royalty percentage of ERC1155\n     * @param _documentIds The array of Identifier of digital content and decryption key\n     */\n    function mintBatch(\n        string memory _metadataURl,\n        string memory _getKeyURl,\n        uint256[] memory _amounts,\n        uint256[] memory _royaltiesPercentages,\n        bytes32[] memory _documentIds\n    ) public payable {\n        require(\n            _amounts.length == _royaltiesPercentages.length && _royaltiesPercentages.length == _documentIds.length,\n            \"Invalid array length\"\n        );\n\n        uint256[] memory tokenIds = new uint256[](_amounts.length);\n        for (uint32 i = 0; i < _amounts.length; i++) {\n            uint256 tokenId = ++counter;\n            tokenIds[i] = tokenId;\n            tokenIdToTokenInfo[tokenId].minterAddress = msg.sender;\n            tokenIdToTokenInfo[tokenId].documentId = _documentIds[i];\n            tokenIdToTokenInfo[tokenId].getKeyURl = _getKeyURl;\n            _tokenURIs[tokenId] = _metadataURl;\n            if (_royaltiesPercentages[i] > 0) {\n                _setRoyalty(tokenId, msg.sender, _royaltiesPercentages[i]);\n            }\n        }\n\n        _mintBatch(msg.sender, tokenIds, _amounts, \"\");\n\n        (bool calResult, uint256 fee) = msg.value.tryDiv(_amounts.length);\n        require(calResult, \"Calculation error of div\");\n        for (uint32 i = 0; i < _amounts.length; i++) {\n            IAccessControlCheckerByERC1155(accessCheckerContract).grantAccessControlAndRegisterERC1155{value: fee}(\n                _documentIds[i],\n                address(this),\n                tokenIds[i]\n            );\n        }\n    }\n\n    function safeTransferAndPayFee(\n        address from,\n        address to,\n        uint256 id,\n        uint256 amount,\n        bytes memory data\n    ) public payable {\n        safeTransferFrom(from, to, id, amount, data);\n        IVWBLGateway(getGatewayAddress()).payFee{value: msg.value}(tokenIdToTokenInfo[id].documentId, to);\n    }\n\n    function safeBatchTransferAndPayFee(\n        address from,\n        address to,\n        uint256[] memory ids,\n        uint256[] memory amounts,\n        bytes memory data\n    ) public payable {\n        safeBatchTransferFrom(from, to, ids, amounts, data);\n        (bool calResult, uint256 fee) = msg.value.tryDiv(ids.length);\n        for (uint32 i = 0; i < ids.length; i++) {\n            IVWBLGateway(getGatewayAddress()).payFee{value: fee}(tokenIdToTokenInfo[ids[i]].documentId, to);\n        }\n    }\n\n    /**\n     * @notice Get token Info for each minter\n     * @param minter The address of ERC1155 Minter\n     */\n    function getTokenByMinter(address minter) public view returns (TokenInfo[] memory) {\n        uint256 currentCounter = 0;\n        TokenInfo[] memory tokens = new TokenInfo[](counter);\n        for (uint256 i = 1; i <= counter; i++) {\n            if (tokenIdToTokenInfo[i].minterAddress == minter) {\n                tokens[currentCounter++] = tokenIdToTokenInfo[i];\n            }\n        }\n        return tokens;\n    }\n\n    function supportsInterface(bytes4 interfaceId) public view virtual override(IERC165, ERC1155) returns (bool) {\n        return interfaceId == type(IERC2981).interfaceId || super.supportsInterface(interfaceId);\n    }\n\n    /**\n     * @notice Called with the sale price to determine how much royalty is owned and to whom,\n     * @param _tokenId The NFT asset queried for royalty information\n     * @param _salePrice The sale price of the NFT asset specified by _tokenId\n     * @return receiver Address of who should be sent the royalty payment\n     * @return royaltyAmount The royalty payment amount for _salePrice\n     */\n    function royaltyInfo(uint256 _tokenId, uint256 _salePrice)\n        external\n        view\n        override\n        returns (address receiver, uint256 royaltyAmount)\n    {\n        RoyaltyInfo memory royaltyInfo = tokenIdToRoyaltyInfo[_tokenId];\n        uint256 _royalties = (_salePrice * royaltyInfo.royaltiesPercentage) / INVERSE_BASIS_POINT;\n        return (royaltyInfo.recipient, _royalties);\n    }\n\n    function _setRoyalty(\n        uint256 _tokenId,\n        address _recipient,\n        uint256 _royaltiesPercentage\n    ) private {\n        RoyaltyInfo storage royaltyInfo = tokenIdToRoyaltyInfo[_tokenId];\n        royaltyInfo.recipient = _recipient;\n        royaltyInfo.royaltiesPercentage = _royaltiesPercentage;\n    }\n}\n",
  "sourcePath": "/Users/asumayamada/Work/ango-ya/VWBL-protocol/contracts/access-condition/ERC1155/extensions/VWBLERC1155Metadata.sol",
  "compiler": {
    "name": "solc",
    "version": "0.8.11+commit.d7f03943.Emscripten.clang"
  },
  "schemaVersion": "3.4.7",
  "updatedAt": "2022-10-13T13:16:47.686Z",
  "devdoc": {
    "details": "Erc1155 which is added Viewable features that only ERC1155 Owner can view digital content",
    "kind": "dev",
    "methods": {
      "balanceOf(address,uint256)": {
        "details": "See {IERC1155-balanceOf}. Requirements: - `account` cannot be the zero address."
      },
      "balanceOfBatch(address[],uint256[])": {
        "details": "See {IERC1155-balanceOfBatch}. Requirements: - `accounts` and `ids` must have the same length."
      },
      "getMinter(uint256)": {
        "params": {
          "tokenId": "The Identifier of ERC1155"
        }
      },
      "getTokenByMinter(address)": {
        "params": {
          "minter": "The address of ERC1155 Minter"
        }
      },
      "isApprovedForAll(address,address)": {
        "details": "See {IERC1155-isApprovedForAll}."
      },
      "mint(string,string,uint256,uint256,bytes32)": {
        "params": {
          "_amount": "The token quantity",
          "_documentId": "The Identifier of digital content and decryption key",
          "_getKeyURl": "The URl of VWBL Network(Key management network)",
          "_royaltiesPercentage": "Royalty percentage of ERC1155"
        }
      },
      "mintBatch(string,string,uint256[],uint256[],bytes32[])": {
        "params": {
          "_amounts": "The array of token quantity",
          "_documentIds": "The array of Identifier of digital content and decryption key",
          "_getKeyURl": "The Url of VWBL Network(Key management network)",
          "_royaltiesPercentages": "Array of Royalty percentage of ERC1155"
        }
      },
      "owner()": {
        "details": "Returns the address of the current owner."
      },
      "renounceOwnership()": {
        "details": "Leaves the contract without owner. It will not be possible to call `onlyOwner` functions anymore. Can only be called by the current owner. NOTE: Renouncing ownership will leave the contract without an owner, thereby removing any functionality that is only available to the owner."
      },
      "royaltyInfo(uint256,uint256)": {
        "params": {
          "_salePrice": "The sale price of the NFT asset specified by _tokenId",
          "_tokenId": "The NFT asset queried for royalty information"
        },
        "returns": {
          "receiver": "Address of who should be sent the royalty payment",
          "royaltyAmount": "The royalty payment amount for _salePrice"
        }
      },
      "safeBatchTransferFrom(address,address,uint256[],uint256[],bytes)": {
        "details": "See {IERC1155-safeBatchTransferFrom}."
      },
      "safeTransferFrom(address,address,uint256,uint256,bytes)": {
        "details": "See {IERC1155-safeTransferFrom}."
      },
      "setAccessCheckerContract(address)": {
        "params": {
          "newAccessCheckerContract": "The contract address of new access condition contract"
        }
      },
      "setApprovalForAll(address,bool)": {
        "details": "See {IERC1155-setApprovalForAll}."
      },
      "transferOwnership(address)": {
        "details": "Transfers ownership of the contract to a new account (`newOwner`). Can only be called by the current owner."
      },
      "uri(uint256)": {
        "details": "See {IERC1155MetadataURI-uri}. This implementation returns the same URI for *all* token types. It relies on the token type ID substitution mechanism https://eips.ethereum.org/EIPS/eip-1155#metadata[defined in the EIP]. Clients calling this function must replace the `\\{id\\}` substring with the actual token type ID."
      }
    },
    "version": 1
  },
  "userdoc": {
    "kind": "user",
    "methods": {
      "getFee()": {
        "notice": "Get VWBL Fee"
      },
      "getGatewayAddress()": {
        "notice": "Get VWBL gateway address"
      },
      "getMinter(uint256)": {
        "notice": "Get minter of ERC1155 by tokenId"
      },
      "getTokenByMinter(address)": {
        "notice": "Get token Info for each minter"
      },
      "mint(string,string,uint256,uint256,bytes32)": {
        "notice": "Mint ERC1155, grant access feature and register access condition of digital content."
      },
      "mintBatch(string,string,uint256[],uint256[],bytes32[])": {
        "notice": "Batch mint ERC1155, grant access feature and register access condition of digital content."
      },
      "royaltyInfo(uint256,uint256)": {
        "notice": "Called with the sale price to determine how much royalty is owned and to whom,"
      },
      "setAccessCheckerContract(address)": {
        "notice": "Set new access condition contract address"
      }
    },
    "version": 1
  }
}