{
  "contractName": "VWBLSupportIPFS",
  "abi": [
    {
      "inputs": [
        {
          "internalType": "address",
          "name": "_gatewayContract",
          "type": "address"
        },
        {
          "internalType": "address",
          "name": "_accessCheckerContract",
          "type": "address"
        }
      ],
      "stateMutability": "nonpayable",
      "type": "constructor"
    },
    {
      "anonymous": false,
      "inputs": [
        {
          "indexed": true,
          "internalType": "address",
          "name": "owner",
          "type": "address"
        },
        {
          "indexed": true,
          "internalType": "address",
          "name": "approved",
          "type": "address"
        },
        {
          "indexed": true,
          "internalType": "uint256",
          "name": "tokenId",
          "type": "uint256"
        }
      ],
      "name": "Approval",
      "type": "event"
    },
    {
      "anonymous": false,
      "inputs": [
        {
          "indexed": true,
          "internalType": "address",
          "name": "owner",
          "type": "address"
        },
        {
          "indexed": true,
          "internalType": "address",
          "name": "operator",
          "type": "address"
        },
        {
          "indexed": false,
          "internalType": "bool",
          "name": "approved",
          "type": "bool"
        }
      ],
      "name": "ApprovalForAll",
      "type": "event"
    },
    {
      "anonymous": false,
      "inputs": [
        {
          "indexed": true,
          "internalType": "address",
          "name": "previousOwner",
          "type": "address"
        },
        {
          "indexed": true,
          "internalType": "address",
          "name": "newOwner",
          "type": "address"
        }
      ],
      "name": "OwnershipTransferred",
      "type": "event"
    },
    {
      "anonymous": false,
      "inputs": [
        {
          "indexed": true,
          "internalType": "address",
          "name": "from",
          "type": "address"
        },
        {
          "indexed": true,
          "internalType": "address",
          "name": "to",
          "type": "address"
        },
        {
          "indexed": true,
          "internalType": "uint256",
          "name": "tokenId",
          "type": "uint256"
        }
      ],
      "name": "Transfer",
      "type": "event"
    },
    {
      "anonymous": false,
      "inputs": [
        {
          "indexed": false,
          "internalType": "address",
          "name": "oldAccessCheckerContract",
          "type": "address"
        },
        {
          "indexed": false,
          "internalType": "address",
          "name": "newAccessCheckerContract",
          "type": "address"
        }
      ],
      "name": "accessCheckerContractChanged",
      "type": "event"
    },
    {
      "anonymous": false,
      "inputs": [
        {
          "indexed": false,
          "internalType": "address",
          "name": "oldGatewayContract",
          "type": "address"
        },
        {
          "indexed": false,
          "internalType": "address",
          "name": "newGatewayContract",
          "type": "address"
        }
      ],
      "name": "gatewayContractChanged",
      "type": "event"
    },
    {
      "inputs": [],
      "name": "INVERSE_BASIS_POINT",
      "outputs": [
        {
          "internalType": "uint256",
          "name": "",
          "type": "uint256"
        }
      ],
      "stateMutability": "view",
      "type": "function",
      "constant": true
    },
    {
      "inputs": [],
      "name": "accessCheckerContract",
      "outputs": [
        {
          "internalType": "address",
          "name": "",
          "type": "address"
        }
      ],
      "stateMutability": "view",
      "type": "function",
      "constant": true
    },
    {
      "inputs": [
        {
          "internalType": "address",
          "name": "to",
          "type": "address"
        },
        {
          "internalType": "uint256",
          "name": "tokenId",
          "type": "uint256"
        }
      ],
      "name": "approve",
      "outputs": [],
      "stateMutability": "nonpayable",
      "type": "function"
    },
    {
      "inputs": [
        {
          "internalType": "address",
          "name": "owner",
          "type": "address"
        }
      ],
      "name": "balanceOf",
      "outputs": [
        {
          "internalType": "uint256",
          "name": "",
          "type": "uint256"
        }
      ],
      "stateMutability": "view",
      "type": "function",
      "constant": true
    },
    {
      "inputs": [],
      "name": "counter",
      "outputs": [
        {
          "internalType": "uint256",
          "name": "",
          "type": "uint256"
        }
      ],
      "stateMutability": "view",
      "type": "function",
      "constant": true
    },
    {
      "inputs": [],
      "name": "gatewayContract",
      "outputs": [
        {
          "internalType": "address",
          "name": "",
          "type": "address"
        }
      ],
      "stateMutability": "view",
      "type": "function",
      "constant": true
    },
    {
      "inputs": [
        {
          "internalType": "uint256",
          "name": "tokenId",
          "type": "uint256"
        }
      ],
      "name": "getApproved",
      "outputs": [
        {
          "internalType": "address",
          "name": "",
          "type": "address"
        }
      ],
      "stateMutability": "view",
      "type": "function",
      "constant": true
    },
    {
      "inputs": [
        {
          "internalType": "address",
          "name": "minter",
          "type": "address"
        }
      ],
      "name": "getTokenByMinter",
      "outputs": [
        {
          "internalType": "uint256[]",
          "name": "",
          "type": "uint256[]"
        }
      ],
      "stateMutability": "view",
      "type": "function",
      "constant": true
    },
    {
      "inputs": [
        {
          "internalType": "address",
          "name": "owner",
          "type": "address"
        },
        {
          "internalType": "address",
          "name": "operator",
          "type": "address"
        }
      ],
      "name": "isApprovedForAll",
      "outputs": [
        {
          "internalType": "bool",
          "name": "",
          "type": "bool"
        }
      ],
      "stateMutability": "view",
      "type": "function",
      "constant": true
    },
    {
      "inputs": [],
      "name": "name",
      "outputs": [
        {
          "internalType": "string",
          "name": "",
          "type": "string"
        }
      ],
      "stateMutability": "view",
      "type": "function",
      "constant": true
    },
    {
      "inputs": [],
      "name": "owner",
      "outputs": [
        {
          "internalType": "address",
          "name": "",
          "type": "address"
        }
      ],
      "stateMutability": "view",
      "type": "function",
      "constant": true
    },
    {
      "inputs": [
        {
          "internalType": "uint256",
          "name": "tokenId",
          "type": "uint256"
        }
      ],
      "name": "ownerOf",
      "outputs": [
        {
          "internalType": "address",
          "name": "",
          "type": "address"
        }
      ],
      "stateMutability": "view",
      "type": "function",
      "constant": true
    },
    {
      "inputs": [],
      "name": "renounceOwnership",
      "outputs": [],
      "stateMutability": "nonpayable",
      "type": "function"
    },
    {
      "inputs": [
        {
          "internalType": "uint256",
          "name": "_tokenId",
          "type": "uint256"
        },
        {
          "internalType": "uint256",
          "name": "_salePrice",
          "type": "uint256"
        }
      ],
      "name": "royaltyInfo",
      "outputs": [
        {
          "internalType": "address",
          "name": "receiver",
          "type": "address"
        },
        {
          "internalType": "uint256",
          "name": "royaltyAmount",
          "type": "uint256"
        }
      ],
      "stateMutability": "view",
      "type": "function",
      "constant": true
    },
    {
      "inputs": [
        {
          "internalType": "address",
          "name": "from",
          "type": "address"
        },
        {
          "internalType": "address",
          "name": "to",
          "type": "address"
        },
        {
          "internalType": "uint256",
          "name": "tokenId",
          "type": "uint256"
        }
      ],
      "name": "safeTransferFrom",
      "outputs": [],
      "stateMutability": "nonpayable",
      "type": "function"
    },
    {
      "inputs": [
        {
          "internalType": "address",
          "name": "operator",
          "type": "address"
        },
        {
          "internalType": "bool",
          "name": "approved",
          "type": "bool"
        }
      ],
      "name": "setApprovalForAll",
      "outputs": [],
      "stateMutability": "nonpayable",
      "type": "function"
    },
    {
      "inputs": [
        {
          "internalType": "bytes4",
          "name": "interfaceId",
          "type": "bytes4"
        }
      ],
      "name": "supportsInterface",
      "outputs": [
        {
          "internalType": "bool",
          "name": "",
          "type": "bool"
        }
      ],
      "stateMutability": "view",
      "type": "function",
      "constant": true
    },
    {
      "inputs": [],
      "name": "symbol",
      "outputs": [
        {
          "internalType": "string",
          "name": "",
          "type": "string"
        }
      ],
      "stateMutability": "view",
      "type": "function",
      "constant": true
    },
    {
      "inputs": [
        {
          "internalType": "uint256",
          "name": "index",
          "type": "uint256"
        }
      ],
      "name": "tokenByIndex",
      "outputs": [
        {
          "internalType": "uint256",
          "name": "",
          "type": "uint256"
        }
      ],
      "stateMutability": "view",
      "type": "function",
      "constant": true
    },
    {
      "inputs": [
        {
          "internalType": "uint256",
          "name": "",
          "type": "uint256"
        }
      ],
      "name": "tokenIdToRoyaltyInfo",
      "outputs": [
        {
          "internalType": "address",
          "name": "recipient",
          "type": "address"
        },
        {
          "internalType": "uint256",
          "name": "royaltiesPercentage",
          "type": "uint256"
        }
      ],
      "stateMutability": "view",
      "type": "function",
      "constant": true
    },
    {
      "inputs": [
        {
          "internalType": "uint256",
          "name": "",
          "type": "uint256"
        }
      ],
      "name": "tokenIdToTokenInfo",
      "outputs": [
        {
          "internalType": "bytes32",
          "name": "documentId",
          "type": "bytes32"
        },
        {
          "internalType": "address",
          "name": "minterAddress",
          "type": "address"
        },
        {
          "internalType": "string",
          "name": "getKeyURl",
          "type": "string"
        }
      ],
      "stateMutability": "view",
      "type": "function",
      "constant": true
    },
    {
      "inputs": [
        {
          "internalType": "address",
          "name": "owner",
          "type": "address"
        },
        {
          "internalType": "uint256",
          "name": "index",
          "type": "uint256"
        }
      ],
      "name": "tokenOfOwnerByIndex",
      "outputs": [
        {
          "internalType": "uint256",
          "name": "",
          "type": "uint256"
        }
      ],
      "stateMutability": "view",
      "type": "function",
      "constant": true
    },
    {
      "inputs": [
        {
          "internalType": "uint256",
          "name": "tokenId",
          "type": "uint256"
        }
      ],
      "name": "tokenURI",
      "outputs": [
        {
          "internalType": "string",
          "name": "",
          "type": "string"
        }
      ],
      "stateMutability": "view",
      "type": "function",
      "constant": true
    },
    {
      "inputs": [],
      "name": "totalSupply",
      "outputs": [
        {
          "internalType": "uint256",
          "name": "",
          "type": "uint256"
        }
      ],
      "stateMutability": "view",
      "type": "function",
      "constant": true
    },
    {
      "inputs": [
        {
          "internalType": "address",
          "name": "from",
          "type": "address"
        },
        {
          "internalType": "address",
          "name": "to",
          "type": "address"
        },
        {
          "internalType": "uint256",
          "name": "tokenId",
          "type": "uint256"
        }
      ],
      "name": "transferFrom",
      "outputs": [],
      "stateMutability": "nonpayable",
      "type": "function"
    },
    {
      "inputs": [
        {
          "internalType": "address",
          "name": "newOwner",
          "type": "address"
        }
      ],
      "name": "transferOwnership",
      "outputs": [],
      "stateMutability": "nonpayable",
      "type": "function"
    },
    {
      "inputs": [
        {
          "internalType": "address",
          "name": "newGatewayContract",
          "type": "address"
        }
      ],
      "name": "setGatewayContract",
      "outputs": [],
      "stateMutability": "nonpayable",
      "type": "function"
    },
    {
      "inputs": [
        {
          "internalType": "address",
          "name": "newAccessCheckerContract",
          "type": "address"
        }
      ],
      "name": "setAccessCheckerContract",
      "outputs": [],
      "stateMutability": "nonpayable",
      "type": "function"
    },
    {
      "inputs": [],
      "name": "getFee",
      "outputs": [
        {
          "internalType": "uint256",
          "name": "",
          "type": "uint256"
        }
      ],
      "stateMutability": "view",
      "type": "function",
      "constant": true
    },
    {
      "inputs": [
        {
          "internalType": "string",
          "name": "_metadataURl",
          "type": "string"
        },
        {
          "internalType": "string",
          "name": "_getKeyURl",
          "type": "string"
        },
        {
          "internalType": "uint256",
          "name": "_royaltiesPercentage",
          "type": "uint256"
        },
        {
          "internalType": "bytes32",
          "name": "_documentId",
          "type": "bytes32"
        }
      ],
      "name": "mint",
      "outputs": [
        {
          "internalType": "uint256",
          "name": "",
          "type": "uint256"
        }
      ],
      "stateMutability": "payable",
      "type": "function",
      "payable": true
    },
    {
      "inputs": [
        {
          "internalType": "uint256",
          "name": "tokenId",
          "type": "uint256"
        }
      ],
      "name": "getMinter",
      "outputs": [
        {
          "internalType": "address",
          "name": "",
          "type": "address"
        }
      ],
      "stateMutability": "view",
      "type": "function",
      "constant": true
    }
  ],
  "bytecode": "0x60806040526000600b553480156200001657600080fd5b50604051620025cd380380620025cd8339810160408190526200003991620001f6565b6040805180820182526004808252631595d09360e21b602080840182815285518087019096529285528401528151919291620000789160009162000133565b5080516200008e90600190602084019062000133565b505050620000ab620000a5620000dd60201b60201c565b620000e1565b600f80546001600160a01b039384166001600160a01b031991821617909155601080549290931691161790556200026b565b3390565b600e80546001600160a01b038381166001600160a01b0319831681179093556040519116919082907f8be0079c531659141344cd1fd0a4f28419497f9722a3daafe3b4186f6b6457e090600090a35050565b82805462000141906200022e565b90600052602060002090601f016020900481019282620001655760008555620001b0565b82601f106200018057805160ff1916838001178555620001b0565b82800160010185558215620001b0579182015b82811115620001b057825182559160200191906001019062000193565b50620001be929150620001c2565b5090565b5b80821115620001be5760008155600101620001c3565b80516001600160a01b0381168114620001f157600080fd5b919050565b600080604083850312156200020a57600080fd5b6200021583620001d9565b91506200022560208401620001d9565b90509250929050565b600181811c908216806200024357607f821691505b602082108114156200026557634e487b7160e01b600052602260045260246000fd5b50919050565b612352806200027b6000396000f3fe6080604052600436106101e35760003560e01c806361bc221a11610102578063b88d4fde11610095578063ced72f8711610064578063ced72f87146105d7578063e985e9c5146105ec578063eb0cde1d14610635578063f2fde38b1461065557600080fd5b8063b88d4fde14610554578063c87b56dd14610574578063cae6047f14610594578063ce5af336146105aa57600080fd5b80638da5cb5b116100d15780638da5cb5b146104e157806393fab57b146104ff57806395d89b411461051f578063a22cb4651461053457600080fd5b806361bc221a146104765780636352211e1461048c57806370a08231146104ac578063715018a6146104cc57600080fd5b80632812a3d21161017a5780634f6ccce7116101495780634f6ccce7146103ce57806350932cb5146103ee5780635b7121f81461040e5780635fb8bcd51461044757600080fd5b80632812a3d21461034e5780632a55205a1461036e5780632f745c591461038e57806342842e0e146103ae57600080fd5b8063095ea7b3116101b6578063095ea7b31461029857806318160ddd146102ba57806319daf1bf146102cf57806323b872dd1461032e57600080fd5b806301ffc9a7146101e857806302f024991461021d57806306fdde031461023e578063081812fc14610260575b600080fd5b3480156101f457600080fd5b50610208610203366004611ceb565b610675565b60405190151581526020015b60405180910390f35b61023061022b366004611dbb565b6106a0565b604051908152602001610214565b34801561024a57600080fd5b50610253610729565b6040516102149190611e7c565b34801561026c57600080fd5b5061028061027b366004611e8f565b6107bb565b6040516001600160a01b039091168152602001610214565b3480156102a457600080fd5b506102b86102b3366004611ec4565b610855565b005b3480156102c657600080fd5b50600854610230565b3480156102db57600080fd5b5061030f6102ea366004611e8f565b600d60205260009081526040902080546001909101546001600160a01b039091169082565b604080516001600160a01b039093168352602083019190915201610214565b34801561033a57600080fd5b506102b8610349366004611eee565b61096b565b34801561035a57600080fd5b506102b8610369366004611f2a565b61099c565b34801561037a57600080fd5b5061030f610389366004611f45565b610a43565b34801561039a57600080fd5b506102306103a9366004611ec4565b610a9d565b3480156103ba57600080fd5b506102b86103c9366004611eee565b610b33565b3480156103da57600080fd5b506102306103e9366004611e8f565b610b4e565b3480156103fa57600080fd5b506102b8610409366004611f2a565b610be1565b34801561041a57600080fd5b50610280610429366004611e8f565b6000908152600c60205260409020600101546001600160a01b031690565b34801561045357600080fd5b50610467610462366004611e8f565b610c80565b60405161021493929190611f67565b34801561048257600080fd5b50610230600b5481565b34801561049857600080fd5b506102806104a7366004611e8f565b610d35565b3480156104b857600080fd5b506102306104c7366004611f2a565b610dac565b3480156104d857600080fd5b506102b8610e33565b3480156104ed57600080fd5b50600e546001600160a01b0316610280565b34801561050b57600080fd5b50601054610280906001600160a01b031681565b34801561052b57600080fd5b50610253610e69565b34801561054057600080fd5b506102b861054f366004611f9a565b610e78565b34801561056057600080fd5b506102b861056f366004611fd6565b610e87565b34801561058057600080fd5b5061025361058f366004611e8f565b610ebf565b3480156105a057600080fd5b5061023061271081565b3480156105b657600080fd5b506105ca6105c5366004611f2a565b610fca565b6040516102149190612052565b3480156105e357600080fd5b506102306110e1565b3480156105f857600080fd5b50610208610607366004612096565b6001600160a01b03918216600090815260056020908152604080832093909416825291909152205460ff1690565b34801561064157600080fd5b50600f54610280906001600160a01b031681565b34801561066157600080fd5b506102b8610670366004611f2a565b611154565b60006001600160e01b0319821663152a902d60e11b148061069a575061069a826111ef565b92915050565b6000806106af83878787611214565b601054604051630f384cd960e01b815260048101869052306024820152604481018390529192506001600160a01b031690630f384cd99034906064016000604051808303818588803b15801561070457600080fd5b505af1158015610718573d6000803e3d6000fd5b50939450505050505b949350505050565b606060008054610738906120c9565b80601f0160208091040260200160405190810160405280929190818152602001828054610764906120c9565b80156107b15780601f10610786576101008083540402835291602001916107b1565b820191906000526020600020905b81548152906001019060200180831161079457829003601f168201915b5050505050905090565b6000818152600260205260408120546001600160a01b03166108395760405162461bcd60e51b815260206004820152602c60248201527f4552433732313a20617070726f76656420717565727920666f72206e6f6e657860448201526b34b9ba32b73a103a37b5b2b760a11b60648201526084015b60405180910390fd5b506000908152600460205260409020546001600160a01b031690565b600061086082610d35565b9050806001600160a01b0316836001600160a01b031614156108ce5760405162461bcd60e51b815260206004820152602160248201527f4552433732313a20617070726f76616c20746f2063757272656e74206f776e656044820152603960f91b6064820152608401610830565b336001600160a01b03821614806108ea57506108ea8133610607565b61095c5760405162461bcd60e51b815260206004820152603860248201527f4552433732313a20617070726f76652063616c6c6572206973206e6f74206f7760448201527f6e6572206e6f7220617070726f76656420666f7220616c6c00000000000000006064820152608401610830565b61096683836112fc565b505050565b610975338261136a565b6109915760405162461bcd60e51b815260040161083090612104565b610966838383611460565b600e546001600160a01b031633146109c65760405162461bcd60e51b815260040161083090612155565b6010546001600160a01b03828116911614156109e157600080fd5b601080546001600160a01b038381166001600160a01b031983168117909355604080519190921680825260208201939093527f9aaef5934caac7bf8ee7de13d1a1e98122180cb78e64abeae728ad559df64a6691015b60405180910390a15050565b6000828152600d60209081526040808320815180830190925280546001600160a01b03168252600101549181018290528291829061271090610a8590876121a0565b610a8f91906121bf565b915196919550909350505050565b6000610aa883610dac565b8210610b0a5760405162461bcd60e51b815260206004820152602b60248201527f455243373231456e756d657261626c653a206f776e657220696e646578206f7560448201526a74206f6620626f756e647360a81b6064820152608401610830565b506001600160a01b03919091166000908152600660209081526040808320938352929052205490565b61096683838360405180602001604052806000815250610e87565b6000610b5960085490565b8210610bbc5760405162461bcd60e51b815260206004820152602c60248201527f455243373231456e756d657261626c653a20676c6f62616c20696e646578206f60448201526b7574206f6620626f756e647360a01b6064820152608401610830565b60088281548110610bcf57610bcf6121e1565b90600052602060002001549050919050565b600e546001600160a01b03163314610c0b5760405162461bcd60e51b815260040161083090612155565b600f546001600160a01b0382811691161415610c2657600080fd5b600f80546001600160a01b038381166001600160a01b031983168117909355604080519190921680825260208201939093527f9b015b8749c8a182300e9c8c7699c761729b84ff89651162dd89881ff1273f639101610a37565b600c6020526000908152604090208054600182015460028301805492936001600160a01b0390921692610cb2906120c9565b80601f0160208091040260200160405190810160405280929190818152602001828054610cde906120c9565b8015610d2b5780601f10610d0057610100808354040283529160200191610d2b565b820191906000526020600020905b815481529060010190602001808311610d0e57829003601f168201915b5050505050905083565b6000818152600260205260408120546001600160a01b03168061069a5760405162461bcd60e51b815260206004820152602960248201527f4552433732313a206f776e657220717565727920666f72206e6f6e657869737460448201526832b73a103a37b5b2b760b91b6064820152608401610830565b60006001600160a01b038216610e175760405162461bcd60e51b815260206004820152602a60248201527f4552433732313a2062616c616e636520717565727920666f7220746865207a65604482015269726f206164647265737360b01b6064820152608401610830565b506001600160a01b031660009081526003602052604090205490565b600e546001600160a01b03163314610e5d5760405162461bcd60e51b815260040161083090612155565b610e676000611607565b565b606060018054610738906120c9565b610e83338383611659565b5050565b610e91338361136a565b610ead5760405162461bcd60e51b815260040161083090612104565b610eb984848484611728565b50505050565b6000818152600a60205260409020805460609190610edc906120c9565b15159050610f2c5760405162461bcd60e51b815260206004820152601860248201527f4552433732313a20696e76616c696420746f6b656e20494400000000000000006044820152606401610830565b6000828152600a602052604090208054610f45906120c9565b80601f0160208091040260200160405190810160405280929190818152602001828054610f71906120c9565b8015610fbe5780601f10610f9357610100808354040283529160200191610fbe565b820191906000526020600020905b815481529060010190602001808311610fa157829003601f168201915b50505050509050919050565b6060600060015b600b54811161101f576000818152600c60205260409020600101546001600160a01b038581169116141561100d5781611009816121f7565b9250505b80611017816121f7565b915050610fd1565b5060008167ffffffffffffffff81111561103b5761103b611d0f565b604051908082528060200260200182016040528015611064578160200160208202803683370190505b509050600060015b600b5481116110d7576000818152600c60205260409020600101546001600160a01b03878116911614156110c5578083836110a6816121f7565b9450815181106110b8576110b86121e1565b6020026020010181815250505b806110cf816121f7565b91505061106c565b5090949350505050565b600f546040805163428c090b60e01b815290516000926001600160a01b03169163428c090b9160048083019260209291908290030181865afa15801561112b573d6000803e3d6000fd5b505050506040513d601f19601f8201168201806040525081019061114f9190612212565b905090565b600e546001600160a01b0316331461117e5760405162461bcd60e51b815260040161083090612155565b6001600160a01b0381166111e35760405162461bcd60e51b815260206004820152602660248201527f4f776e61626c653a206e6577206f776e657220697320746865207a65726f206160448201526564647265737360d01b6064820152608401610830565b6111ec81611607565b50565b60006001600160e01b0319821663780e9d6360e01b148061069a575061069a8261175b565b600080600b60008154611226906121f7565b9182905550604080516060810182528881523360208083019182528284018981526000868152600c8352949094208351815591516001830180546001600160a01b0319166001600160a01b0390921691909117905592518051949550919384939192611299926002850192910190611c3c565b509050506112a733836117ab565b6000828152600a6020908152604090912087516112c692890190611c3c565b5083156112f2576000828152600d6020526040902080546001600160a01b031916331781556001018490555b5095945050505050565b600081815260046020526040902080546001600160a01b0319166001600160a01b038416908117909155819061133182610d35565b6001600160a01b03167f8c5be1e5ebec7d5bd14f71427d1e84f3dd0314c0f7b2291e5b200ac8c7c3b92560405160405180910390a45050565b6000818152600260205260408120546001600160a01b03166113e35760405162461bcd60e51b815260206004820152602c60248201527f4552433732313a206f70657261746f7220717565727920666f72206e6f6e657860448201526b34b9ba32b73a103a37b5b2b760a11b6064820152608401610830565b60006113ee83610d35565b9050806001600160a01b0316846001600160a01b0316148061143557506001600160a01b0380821660009081526005602090815260408083209388168352929052205460ff165b806107215750836001600160a01b031661144e846107bb565b6001600160a01b031614949350505050565b826001600160a01b031661147382610d35565b6001600160a01b0316146114d75760405162461bcd60e51b815260206004820152602560248201527f4552433732313a207472616e736665722066726f6d20696e636f72726563742060448201526437bbb732b960d91b6064820152608401610830565b6001600160a01b0382166115395760405162461bcd60e51b8152602060048201526024808201527f4552433732313a207472616e7366657220746f20746865207a65726f206164646044820152637265737360e01b6064820152608401610830565b6115448383836118f9565b61154f6000826112fc565b6001600160a01b038316600090815260036020526040812080546001929061157890849061222b565b90915550506001600160a01b03821660009081526003602052604081208054600192906115a6908490612242565b909155505060008181526002602052604080822080546001600160a01b0319166001600160a01b0386811691821790925591518493918716917fddf252ad1be2c89b69c2b068fc378daa952ba7f163c4a11628f55a4df523b3ef91a4505050565b600e80546001600160a01b038381166001600160a01b0319831681179093556040519116919082907f8be0079c531659141344cd1fd0a4f28419497f9722a3daafe3b4186f6b6457e090600090a35050565b816001600160a01b0316836001600160a01b031614156116bb5760405162461bcd60e51b815260206004820152601960248201527f4552433732313a20617070726f766520746f2063616c6c6572000000000000006044820152606401610830565b6001600160a01b03838116600081815260056020908152604080832094871680845294825291829020805460ff191686151590811790915591519182527f17307eab39ab6107e8899845ad3d59bd9653f200f220920489ca2b5937696c31910160405180910390a3505050565b611733848484611460565b61173f848484846119b1565b610eb95760405162461bcd60e51b81526004016108309061225a565b60006001600160e01b031982166380ac58cd60e01b148061178c57506001600160e01b03198216635b5e139f60e01b145b8061069a57506301ffc9a760e01b6001600160e01b031983161461069a565b6001600160a01b0382166118015760405162461bcd60e51b815260206004820181905260248201527f4552433732313a206d696e7420746f20746865207a65726f20616464726573736044820152606401610830565b6000818152600260205260409020546001600160a01b0316156118665760405162461bcd60e51b815260206004820152601c60248201527f4552433732313a20746f6b656e20616c7265616479206d696e746564000000006044820152606401610830565b611872600083836118f9565b6001600160a01b038216600090815260036020526040812080546001929061189b908490612242565b909155505060008181526002602052604080822080546001600160a01b0319166001600160a01b03861690811790915590518392907fddf252ad1be2c89b69c2b068fc378daa952ba7f163c4a11628f55a4df523b3ef908290a45050565b6001600160a01b0383166119545761194f81600880546000838152600960205260408120829055600182018355919091527ff3f7a9fe364faab93b216da50a3214154f22a0a2b415b23a84c8169e8b636ee30155565b611977565b816001600160a01b0316836001600160a01b031614611977576119778382611aac565b6001600160a01b03821661198e5761096681611b49565b826001600160a01b0316826001600160a01b031614610966576109668282611bf8565b60006001600160a01b0384163b15611aa457604051630a85bd0160e11b81526001600160a01b0385169063150b7a02906119f59033908990889088906004016122ac565b6020604051808303816000875af1925050508015611a30575060408051601f3d908101601f19168201909252611a2d918101906122e9565b60015b611a8a573d808015611a5e576040519150601f19603f3d011682016040523d82523d6000602084013e611a63565b606091505b508051611a825760405162461bcd60e51b81526004016108309061225a565b805181602001fd5b6001600160e01b031916630a85bd0160e11b149050610721565b506001610721565b60006001611ab984610dac565b611ac3919061222b565b600083815260076020526040902054909150808214611b16576001600160a01b03841660009081526006602090815260408083208584528252808320548484528184208190558352600790915290208190555b5060009182526007602090815260408084208490556001600160a01b039094168352600681528383209183525290812055565b600854600090611b5b9060019061222b565b60008381526009602052604081205460088054939450909284908110611b8357611b836121e1565b906000526020600020015490508060088381548110611ba457611ba46121e1565b6000918252602080832090910192909255828152600990915260408082208490558582528120556008805480611bdc57611bdc612306565b6001900381819060005260206000200160009055905550505050565b6000611c0383610dac565b6001600160a01b039093166000908152600660209081526040808320868452825280832085905593825260079052919091209190915550565b828054611c48906120c9565b90600052602060002090601f016020900481019282611c6a5760008555611cb0565b82601f10611c8357805160ff1916838001178555611cb0565b82800160010185558215611cb0579182015b82811115611cb0578251825591602001919060010190611c95565b50611cbc929150611cc0565b5090565b5b80821115611cbc5760008155600101611cc1565b6001600160e01b0319811681146111ec57600080fd5b600060208284031215611cfd57600080fd5b8135611d0881611cd5565b9392505050565b634e487b7160e01b600052604160045260246000fd5b600067ffffffffffffffff80841115611d4057611d40611d0f565b604051601f8501601f19908116603f01168101908282118183101715611d6857611d68611d0f565b81604052809350858152868686011115611d8157600080fd5b858560208301376000602087830101525050509392505050565b600082601f830112611dac57600080fd5b611d0883833560208501611d25565b60008060008060808587031215611dd157600080fd5b843567ffffffffffffffff80821115611de957600080fd5b611df588838901611d9b565b95506020870135915080821115611e0b57600080fd5b50611e1887828801611d9b565b949794965050505060408301359260600135919050565b6000815180845260005b81811015611e5557602081850181015186830182015201611e39565b81811115611e67576000602083870101525b50601f01601f19169290920160200192915050565b602081526000611d086020830184611e2f565b600060208284031215611ea157600080fd5b5035919050565b80356001600160a01b0381168114611ebf57600080fd5b919050565b60008060408385031215611ed757600080fd5b611ee083611ea8565b946020939093013593505050565b600080600060608486031215611f0357600080fd5b611f0c84611ea8565b9250611f1a60208501611ea8565b9150604084013590509250925092565b600060208284031215611f3c57600080fd5b611d0882611ea8565b60008060408385031215611f5857600080fd5b50508035926020909101359150565b8381526001600160a01b0383166020820152606060408201819052600090611f9190830184611e2f565b95945050505050565b60008060408385031215611fad57600080fd5b611fb683611ea8565b915060208301358015158114611fcb57600080fd5b809150509250929050565b60008060008060808587031215611fec57600080fd5b611ff585611ea8565b935061200360208601611ea8565b925060408501359150606085013567ffffffffffffffff81111561202657600080fd5b8501601f8101871361203757600080fd5b61204687823560208401611d25565b91505092959194509250565b6020808252825182820181905260009190848201906040850190845b8181101561208a5783518352928401929184019160010161206e565b50909695505050505050565b600080604083850312156120a957600080fd5b6120b283611ea8565b91506120c060208401611ea8565b90509250929050565b600181811c908216806120dd57607f821691505b602082108114156120fe57634e487b7160e01b600052602260045260246000fd5b50919050565b60208082526031908201527f4552433732313a207472616e736665722063616c6c6572206973206e6f74206f6040820152701ddb995c881b9bdc88185c1c1c9bdd9959607a1b606082015260800190565b6020808252818101527f4f776e61626c653a2063616c6c6572206973206e6f7420746865206f776e6572604082015260600190565b634e487b7160e01b600052601160045260246000fd5b60008160001904831182151516156121ba576121ba61218a565b500290565b6000826121dc57634e487b7160e01b600052601260045260246000fd5b500490565b634e487b7160e01b600052603260045260246000fd5b600060001982141561220b5761220b61218a565b5060010190565b60006020828403121561222457600080fd5b5051919050565b60008282101561223d5761223d61218a565b500390565b600082198211156122555761225561218a565b500190565b60208082526032908201527f4552433732313a207472616e7366657220746f206e6f6e20455243373231526560408201527131b2b4bb32b91034b6b83632b6b2b73a32b960711b606082015260800190565b6001600160a01b03858116825284166020820152604081018390526080606082018190526000906122df90830184611e2f565b9695505050505050565b6000602082840312156122fb57600080fd5b8151611d0881611cd5565b634e487b7160e01b600052603160045260246000fdfea2646970667358221220ef198391a71cb2a06452abf8db4deeaa2390440937015afefeb98043d24d472e64736f6c634300080b0033",
  "immutableReferences": {},
  "source": "// SPDX-License-Identifier: MIT\npragma solidity ^0.8.0;\n\nimport \"@openzeppelin/contracts/token/ERC721/ERC721.sol\";\nimport \"@openzeppelin/contracts/token/ERC721/extensions/ERC721Enumerable.sol\";\nimport \"@openzeppelin/contracts/access/Ownable.sol\";\nimport \"@openzeppelin/contracts/interfaces/IERC2981.sol\";\nimport \"@openzeppelin/contracts/utils/introspection/IERC165.sol\";\n\nimport \"./IVWBLSupportIPFS.sol\";\nimport \"../access-condition/IAccessControlCheckerByNFT.sol\";\nimport \"../gateway/IVWBLGateway.sol\";\n\nabstract contract VWBLProtocol is ERC721Enumerable, IERC2981 {\n    mapping(uint256 => string) private _tokenURIs;\n    \n    uint256 public counter = 0;\n    \n    struct TokenInfo {\n        bytes32 documentId;\n        address minterAddress;\n        string getKeyURl;\n    }\n\n    struct RoyaltyInfo {\n        address recipient;\n        uint256 royaltiesPercentage; // if percentage is 3.5, royaltiesPercentage=3.5*10^2 (decimal is 2)\n    }\n\n    mapping(uint256 => TokenInfo) public tokenIdToTokenInfo;\n    mapping(uint256 => RoyaltyInfo) public tokenIdToRoyaltyInfo;\n\n    uint256 public constant INVERSE_BASIS_POINT = 10000;\n\n    function tokenURI(uint256 tokenId) public view override returns (string memory) {\n        require(\n            bytes(_tokenURIs[tokenId]).length != 0,\n            \"ERC721: invalid token ID\"\n        );\n        return _tokenURIs[tokenId];\n    }\n\n    function _mint(\n        bytes32 _documentId, \n        string memory _metadataURl,\n        string memory _getKeyURl, \n        uint256 _royaltiesPercentage\n    ) internal returns (uint256) {\n        uint256 tokenId = ++counter;\n        TokenInfo memory tokenInfo = TokenInfo(_documentId, msg.sender, _getKeyURl);\n        tokenIdToTokenInfo[tokenId] = tokenInfo;\n        _mint(msg.sender, tokenId);\n        _tokenURIs[tokenId] = _metadataURl;\n        if (_royaltiesPercentage > 0) {\n            _setRoyalty(tokenId, msg.sender, _royaltiesPercentage);\n        }\n        return tokenId;\n    }\n\n    function getTokenByMinter(address minter)\n        public\n        view\n        returns (uint256[] memory)\n    {\n        uint256 resultCount = 0;\n        for (uint256 i = 1; i <= counter; i++) {\n            if (tokenIdToTokenInfo[i].minterAddress == minter) {\n                resultCount++;\n            }\n        }\n        uint256[] memory tokens = new uint256[](resultCount);\n        uint256 currentCounter = 0;\n        for (uint256 i = 1; i <= counter; i++) {\n            if (tokenIdToTokenInfo[i].minterAddress == minter) {\n                tokens[currentCounter++] = i;\n            }\n        }\n        return tokens;\n    }\n\n    function supportsInterface(bytes4 interfaceId)\n        public\n        view\n        virtual\n        override(IERC165, ERC721Enumerable)\n        returns (bool)\n    {\n        return interfaceId == type(IERC2981).interfaceId || super.supportsInterface(interfaceId);\n    }\n\n    function royaltyInfo(uint256 _tokenId, uint256 _salePrice)\n        external\n        view\n        override\n        returns (address receiver, uint256 royaltyAmount)\n    {\n        RoyaltyInfo memory royaltyInfo = tokenIdToRoyaltyInfo[_tokenId];\n        uint256 _royalties = (_salePrice * royaltyInfo.royaltiesPercentage) / INVERSE_BASIS_POINT;\n        return (royaltyInfo.recipient, _royalties);\n    }\n\n    function _setRoyalty(\n        uint256 _tokenId,\n        address _recipient,\n        uint256 _royaltiesPercentage\n    ) internal {\n        RoyaltyInfo storage royaltyInfo = tokenIdToRoyaltyInfo[_tokenId];\n        royaltyInfo.recipient = _recipient;\n        royaltyInfo.royaltiesPercentage = _royaltiesPercentage;\n    }\n}\n\ncontract VWBLSupportIPFS is VWBLProtocol, Ownable, IVWBLSupportIPFS {\n    address public gatewayContract;\n    address public accessCheckerContract;\n\n    event gatewayContractChanged(address oldGatewayContract, address newGatewayContract);\n    event accessCheckerContractChanged(address oldAccessCheckerContract, address newAccessCheckerContract);\n\n    constructor(\n        address _gatewayContract, \n        address _accessCheckerContract\n    ) ERC721(\"VWBL\", \"VWBL\") {\n        gatewayContract = _gatewayContract;\n        accessCheckerContract = _accessCheckerContract;\n    }\n\n    function setGatewayContract(address newGatewayContract) public onlyOwner {\n        require(newGatewayContract != gatewayContract);\n        address oldGatewayContract = gatewayContract;\n        gatewayContract = newGatewayContract;\n\n        emit gatewayContractChanged(oldGatewayContract, newGatewayContract);\n    }\n\n    function setAccessCheckerContract(address newAccessCheckerContract) public onlyOwner {\n        require(newAccessCheckerContract != accessCheckerContract);\n        address oldAccessCheckerContract = accessCheckerContract;\n        accessCheckerContract = newAccessCheckerContract;\n\n        emit accessCheckerContractChanged(oldAccessCheckerContract, newAccessCheckerContract);\n    }\n\n    function getFee() public view returns (uint256) {\n        return IVWBLGateway(gatewayContract).feeWei();\n    }\n\n    function mint(\n        string memory _metadataURl,\n        string memory _getKeyURl, \n        uint256 _royaltiesPercentage, \n        bytes32 _documentId\n    ) public payable returns (uint256) {\n        uint256 tokenId = super._mint(_documentId, _metadataURl, _getKeyURl, _royaltiesPercentage);\n\n        // grant access control to nft and pay vwbl fee and register nft data to access control checker contract\n        IAccessControlCheckerByNFT(accessCheckerContract).grantAccessControlAndRegisterNFT{value: msg.value}(_documentId, address(this), tokenId);\n\n        return tokenId;\n    }\n\n    function getMinter(uint256 tokenId) public view returns (address) {\n        return tokenIdToTokenInfo[tokenId].minterAddress;\n    }\n}\n",
  "sourcePath": "/Users/hashimotoitsuki/VWBL-protocol/contracts/ERC721/ipfs/VWBLSupportIPFS.sol",
  "compiler": {
    "name": "solc",
    "version": "0.8.11+commit.d7f03943.Emscripten.clang"
  },
  "schemaVersion": "3.4.7",
  "updatedAt": "2022-07-11T12:47:33.172Z",
  "networkType": "ethereum",
  "devdoc": {
    "kind": "dev",
    "methods": {
      "approve(address,uint256)": {
        "details": "See {IERC721-approve}."
      },
      "balanceOf(address)": {
        "details": "See {IERC721-balanceOf}."
      },
      "getApproved(uint256)": {
        "details": "See {IERC721-getApproved}."
      },
      "isApprovedForAll(address,address)": {
        "details": "See {IERC721-isApprovedForAll}."
      },
      "name()": {
        "details": "See {IERC721Metadata-name}."
      },
      "owner()": {
        "details": "Returns the address of the current owner."
      },
      "ownerOf(uint256)": {
        "details": "See {IERC721-ownerOf}."
      },
      "renounceOwnership()": {
        "details": "Leaves the contract without owner. It will not be possible to call `onlyOwner` functions anymore. Can only be called by the current owner. NOTE: Renouncing ownership will leave the contract without an owner, thereby removing any functionality that is only available to the owner."
      },
      "safeTransferFrom(address,address,uint256)": {
        "details": "See {IERC721-safeTransferFrom}."
      },
      "safeTransferFrom(address,address,uint256,bytes)": {
        "details": "See {IERC721-safeTransferFrom}."
      },
      "setApprovalForAll(address,bool)": {
        "details": "See {IERC721-setApprovalForAll}."
      },
      "symbol()": {
        "details": "See {IERC721Metadata-symbol}."
      },
      "tokenByIndex(uint256)": {
        "details": "See {IERC721Enumerable-tokenByIndex}."
      },
      "tokenOfOwnerByIndex(address,uint256)": {
        "details": "See {IERC721Enumerable-tokenOfOwnerByIndex}."
      },
      "tokenURI(uint256)": {
        "details": "See {IERC721Metadata-tokenURI}."
      },
      "totalSupply()": {
        "details": "See {IERC721Enumerable-totalSupply}."
      },
      "transferFrom(address,address,uint256)": {
        "details": "See {IERC721-transferFrom}."
      },
      "transferOwnership(address)": {
        "details": "Transfers ownership of the contract to a new account (`newOwner`). Can only be called by the current owner."
      }
    },
    "version": 1
  },
  "userdoc": {
    "kind": "user",
    "methods": {},
    "version": 1
  }
}