{
  "contractName": "VWBL",
  "abi": [
    {
      "inputs": [
        {
          "internalType": "string",
          "name": "_baseURI",
          "type": "string"
        },
        {
          "internalType": "address",
          "name": "_gatewayContract",
          "type": "address"
        }
      ],
      "stateMutability": "nonpayable",
      "type": "constructor"
    },
    {
      "anonymous": false,
      "inputs": [
        {
          "indexed": true,
          "internalType": "address",
          "name": "owner",
          "type": "address"
        },
        {
          "indexed": true,
          "internalType": "address",
          "name": "approved",
          "type": "address"
        },
        {
          "indexed": true,
          "internalType": "uint256",
          "name": "tokenId",
          "type": "uint256"
        }
      ],
      "name": "Approval",
      "type": "event"
    },
    {
      "anonymous": false,
      "inputs": [
        {
          "indexed": true,
          "internalType": "address",
          "name": "owner",
          "type": "address"
        },
        {
          "indexed": true,
          "internalType": "address",
          "name": "operator",
          "type": "address"
        },
        {
          "indexed": false,
          "internalType": "bool",
          "name": "approved",
          "type": "bool"
        }
      ],
      "name": "ApprovalForAll",
      "type": "event"
    },
    {
      "anonymous": false,
      "inputs": [
        {
          "indexed": true,
          "internalType": "address",
          "name": "previousOwner",
          "type": "address"
        },
        {
          "indexed": true,
          "internalType": "address",
          "name": "newOwner",
          "type": "address"
        }
      ],
      "name": "OwnershipTransferred",
      "type": "event"
    },
    {
      "anonymous": false,
      "inputs": [
        {
          "indexed": true,
          "internalType": "address",
          "name": "from",
          "type": "address"
        },
        {
          "indexed": true,
          "internalType": "address",
          "name": "to",
          "type": "address"
        },
        {
          "indexed": true,
          "internalType": "uint256",
          "name": "tokenId",
          "type": "uint256"
        }
      ],
      "name": "Transfer",
      "type": "event"
    },
    {
      "anonymous": false,
      "inputs": [
        {
          "indexed": false,
          "internalType": "address",
          "name": "oldGatewayContract",
          "type": "address"
        },
        {
          "indexed": false,
          "internalType": "address",
          "name": "newGatewayContract",
          "type": "address"
        }
      ],
      "name": "gatewayContractChanged",
      "type": "event"
    },
    {
      "inputs": [],
      "name": "INVERSE_BASIS_POINT",
      "outputs": [
        {
          "internalType": "uint256",
          "name": "",
          "type": "uint256"
        }
      ],
      "stateMutability": "view",
      "type": "function"
    },
    {
      "inputs": [
        {
          "internalType": "address",
          "name": "to",
          "type": "address"
        },
        {
          "internalType": "uint256",
          "name": "tokenId",
          "type": "uint256"
        }
      ],
      "name": "approve",
      "outputs": [],
      "stateMutability": "nonpayable",
      "type": "function"
    },
    {
      "inputs": [
        {
          "internalType": "address",
          "name": "owner",
          "type": "address"
        }
      ],
      "name": "balanceOf",
      "outputs": [
        {
          "internalType": "uint256",
          "name": "",
          "type": "uint256"
        }
      ],
      "stateMutability": "view",
      "type": "function"
    },
    {
      "inputs": [],
      "name": "baseURI",
      "outputs": [
        {
          "internalType": "string",
          "name": "",
          "type": "string"
        }
      ],
      "stateMutability": "view",
      "type": "function"
    },
    {
      "inputs": [],
      "name": "counter",
      "outputs": [
        {
          "internalType": "uint256",
          "name": "",
          "type": "uint256"
        }
      ],
      "stateMutability": "view",
      "type": "function"
    },
    {
      "inputs": [],
      "name": "gatewayContract",
      "outputs": [
        {
          "internalType": "address",
          "name": "",
          "type": "address"
        }
      ],
      "stateMutability": "view",
      "type": "function"
    },
    {
      "inputs": [
        {
          "internalType": "uint256",
          "name": "tokenId",
          "type": "uint256"
        }
      ],
      "name": "getApproved",
      "outputs": [
        {
          "internalType": "address",
          "name": "",
          "type": "address"
        }
      ],
      "stateMutability": "view",
      "type": "function"
    },
    {
      "inputs": [
        {
          "internalType": "address",
          "name": "minter",
          "type": "address"
        }
      ],
      "name": "getTokenByMinter",
      "outputs": [
        {
          "internalType": "uint256[]",
          "name": "",
          "type": "uint256[]"
        }
      ],
      "stateMutability": "view",
      "type": "function"
    },
    {
      "inputs": [
        {
          "internalType": "address",
          "name": "owner",
          "type": "address"
        },
        {
          "internalType": "address",
          "name": "operator",
          "type": "address"
        }
      ],
      "name": "isApprovedForAll",
      "outputs": [
        {
          "internalType": "bool",
          "name": "",
          "type": "bool"
        }
      ],
      "stateMutability": "view",
      "type": "function"
    },
    {
      "inputs": [],
      "name": "name",
      "outputs": [
        {
          "internalType": "string",
          "name": "",
          "type": "string"
        }
      ],
      "stateMutability": "view",
      "type": "function"
    },
    {
      "inputs": [],
      "name": "owner",
      "outputs": [
        {
          "internalType": "address",
          "name": "",
          "type": "address"
        }
      ],
      "stateMutability": "view",
      "type": "function"
    },
    {
      "inputs": [
        {
          "internalType": "uint256",
          "name": "tokenId",
          "type": "uint256"
        }
      ],
      "name": "ownerOf",
      "outputs": [
        {
          "internalType": "address",
          "name": "",
          "type": "address"
        }
      ],
      "stateMutability": "view",
      "type": "function"
    },
    {
      "inputs": [],
      "name": "renounceOwnership",
      "outputs": [],
      "stateMutability": "nonpayable",
      "type": "function"
    },
    {
      "inputs": [
        {
          "internalType": "uint256",
          "name": "_tokenId",
          "type": "uint256"
        },
        {
          "internalType": "uint256",
          "name": "_salePrice",
          "type": "uint256"
        }
      ],
      "name": "royaltyInfo",
      "outputs": [
        {
          "internalType": "address",
          "name": "receiver",
          "type": "address"
        },
        {
          "internalType": "uint256",
          "name": "royaltyAmount",
          "type": "uint256"
        }
      ],
      "stateMutability": "view",
      "type": "function"
    },
    {
      "inputs": [
        {
          "internalType": "address",
          "name": "from",
          "type": "address"
        },
        {
          "internalType": "address",
          "name": "to",
          "type": "address"
        },
        {
          "internalType": "uint256",
          "name": "tokenId",
          "type": "uint256"
        }
      ],
      "name": "safeTransferFrom",
      "outputs": [],
      "stateMutability": "nonpayable",
      "type": "function"
    },
    {
      "inputs": [
        {
          "internalType": "address",
          "name": "from",
          "type": "address"
        },
        {
          "internalType": "address",
          "name": "to",
          "type": "address"
        },
        {
          "internalType": "uint256",
          "name": "tokenId",
          "type": "uint256"
        },
        {
          "internalType": "bytes",
          "name": "_data",
          "type": "bytes"
        }
      ],
      "name": "safeTransferFrom",
      "outputs": [],
      "stateMutability": "nonpayable",
      "type": "function"
    },
    {
      "inputs": [
        {
          "internalType": "address",
          "name": "operator",
          "type": "address"
        },
        {
          "internalType": "bool",
          "name": "approved",
          "type": "bool"
        }
      ],
      "name": "setApprovalForAll",
      "outputs": [],
      "stateMutability": "nonpayable",
      "type": "function"
    },
    {
      "inputs": [
        {
          "internalType": "bytes4",
          "name": "interfaceId",
          "type": "bytes4"
        }
      ],
      "name": "supportsInterface",
      "outputs": [
        {
          "internalType": "bool",
          "name": "",
          "type": "bool"
        }
      ],
      "stateMutability": "view",
      "type": "function"
    },
    {
      "inputs": [],
      "name": "symbol",
      "outputs": [
        {
          "internalType": "string",
          "name": "",
          "type": "string"
        }
      ],
      "stateMutability": "view",
      "type": "function"
    },
    {
      "inputs": [
        {
          "internalType": "uint256",
          "name": "index",
          "type": "uint256"
        }
      ],
      "name": "tokenByIndex",
      "outputs": [
        {
          "internalType": "uint256",
          "name": "",
          "type": "uint256"
        }
      ],
      "stateMutability": "view",
      "type": "function"
    },
    {
      "inputs": [
        {
          "internalType": "uint256",
          "name": "",
          "type": "uint256"
        }
      ],
      "name": "tokenIdToRoyaltyInfo",
      "outputs": [
        {
          "internalType": "address",
          "name": "recipient",
          "type": "address"
        },
        {
          "internalType": "uint256",
          "name": "royaltiesPercentage",
          "type": "uint256"
        }
      ],
      "stateMutability": "view",
      "type": "function"
    },
    {
      "inputs": [
        {
          "internalType": "uint256",
          "name": "",
          "type": "uint256"
        }
      ],
      "name": "tokenIdToTokenInfo",
      "outputs": [
        {
          "internalType": "address",
          "name": "minterAddress",
          "type": "address"
        },
        {
          "internalType": "string",
          "name": "getKeyURl",
          "type": "string"
        }
      ],
      "stateMutability": "view",
      "type": "function"
    },
    {
      "inputs": [
        {
          "internalType": "address",
          "name": "owner",
          "type": "address"
        },
        {
          "internalType": "uint256",
          "name": "index",
          "type": "uint256"
        }
      ],
      "name": "tokenOfOwnerByIndex",
      "outputs": [
        {
          "internalType": "uint256",
          "name": "",
          "type": "uint256"
        }
      ],
      "stateMutability": "view",
      "type": "function"
    },
    {
      "inputs": [
        {
          "internalType": "uint256",
          "name": "tokenId",
          "type": "uint256"
        }
      ],
      "name": "tokenURI",
      "outputs": [
        {
          "internalType": "string",
          "name": "",
          "type": "string"
        }
      ],
      "stateMutability": "view",
      "type": "function"
    },
    {
      "inputs": [],
      "name": "totalSupply",
      "outputs": [
        {
          "internalType": "uint256",
          "name": "",
          "type": "uint256"
        }
      ],
      "stateMutability": "view",
      "type": "function"
    },
    {
      "inputs": [
        {
          "internalType": "address",
          "name": "from",
          "type": "address"
        },
        {
          "internalType": "address",
          "name": "to",
          "type": "address"
        },
        {
          "internalType": "uint256",
          "name": "tokenId",
          "type": "uint256"
        }
      ],
      "name": "transferFrom",
      "outputs": [],
      "stateMutability": "nonpayable",
      "type": "function"
    },
    {
      "inputs": [
        {
          "internalType": "address",
          "name": "newOwner",
          "type": "address"
        }
      ],
      "name": "transferOwnership",
      "outputs": [],
      "stateMutability": "nonpayable",
      "type": "function"
    },
    {
      "inputs": [
        {
          "internalType": "string",
          "name": "_baseURI",
          "type": "string"
        }
      ],
      "name": "setBaseURI",
      "outputs": [],
      "stateMutability": "nonpayable",
      "type": "function"
    },
    {
      "inputs": [
        {
          "internalType": "address",
          "name": "newGatewayContract",
          "type": "address"
        }
      ],
      "name": "setGatewayContract",
      "outputs": [],
      "stateMutability": "nonpayable",
      "type": "function"
    },
    {
      "inputs": [],
      "name": "getFee",
      "outputs": [
        {
          "internalType": "uint256",
          "name": "",
          "type": "uint256"
        }
      ],
      "stateMutability": "view",
      "type": "function"
    },
    {
      "inputs": [
        {
          "internalType": "string",
          "name": "_getKeyURl",
          "type": "string"
        },
        {
          "internalType": "uint256",
          "name": "_royaltiesPercentage",
          "type": "uint256"
        },
        {
          "internalType": "bytes32",
          "name": "documentId",
          "type": "bytes32"
        }
      ],
      "name": "mint",
      "outputs": [
        {
          "internalType": "uint256",
          "name": "",
          "type": "uint256"
        }
      ],
      "stateMutability": "payable",
      "type": "function"
    },
    {
      "inputs": [
        {
          "internalType": "uint256",
          "name": "_tokenId",
          "type": "uint256"
        },
        {
          "internalType": "address",
          "name": "_to",
          "type": "address"
        }
      ],
      "name": "send",
      "outputs": [],
      "stateMutability": "nonpayable",
      "type": "function"
    }
  ],
  "bytecode": "0x60806040526000600a553480156200001657600080fd5b506040516200274738038062002747833981016040819052620000399162000217565b6040805180820182526004808252631595d09360e21b60208084018281528551808701909652928552840152815191929162000078916000916200013e565b5080516200008e9060019060208401906200013e565b505050620000ab620000a5620000e860201b60201c565b620000ec565b8151620000c090600e9060208501906200013e565b50600f80546001600160a01b0319166001600160a01b03929092169190911790555062000345565b3390565b600d80546001600160a01b038381166001600160a01b0319831681179093556040519116919082907f8be0079c531659141344cd1fd0a4f28419497f9722a3daafe3b4186f6b6457e090600090a35050565b8280546200014c9062000308565b90600052602060002090601f016020900481019282620001705760008555620001bb565b82601f106200018b57805160ff1916838001178555620001bb565b82800160010185558215620001bb579182015b82811115620001bb5782518255916020019190600101906200019e565b50620001c9929150620001cd565b5090565b5b80821115620001c95760008155600101620001ce565b634e487b7160e01b600052604160045260246000fd5b80516001600160a01b03811681146200021257600080fd5b919050565b600080604083850312156200022b57600080fd5b82516001600160401b03808211156200024357600080fd5b818501915085601f8301126200025857600080fd5b8151818111156200026d576200026d620001e4565b604051601f8201601f19908116603f01168101908382118183101715620002985762000298620001e4565b81604052828152602093508884848701011115620002b557600080fd5b600091505b82821015620002d95784820184015181830185015290830190620002ba565b82821115620002eb5760008484830101525b9550620002fd915050858201620001fa565b925050509250929050565b600181811c908216806200031d57607f821691505b602082108114156200033f57634e487b7160e01b600052602260045260246000fd5b50919050565b6123f280620003556000396000f3fe6080604052600436106101e35760003560e01c80636c0360eb11610102578063c87b56dd11610095578063de5bb4b711610064578063de5bb4b7146105b0578063e985e9c5146105c3578063eb0cde1d1461060c578063f2fde38b1461062c57600080fd5b8063c87b56dd14610538578063cae6047f14610558578063ce5af3361461056e578063ced72f871461059b57600080fd5b80638da5cb5b116100d15780638da5cb5b146104c557806395d89b41146104e3578063a22cb465146104f8578063b88d4fde1461051857600080fd5b80636c0360eb1461045b57806370a0823114610470578063715018a614610490578063785d04f5146104a557600080fd5b80632f745c591161017a57806355f804b31161014957806355f804b3146103d75780635fb8bcd5146103f757806361bc221a146104255780636352211e1461043b57600080fd5b80632f745c591461035757806342842e0e146103775780634f6ccce71461039757806350932cb5146103b757600080fd5b806318160ddd116101b657806318160ddd1461029957806319daf1bf146102b857806323b872dd146103175780632a55205a1461033757600080fd5b806301ffc9a7146101e857806306fdde031461021d578063081812fc1461023f578063095ea7b314610277575b600080fd5b3480156101f457600080fd5b50610208610203366004611d19565b61064c565b60405190151581526020015b60405180910390f35b34801561022957600080fd5b50610232610677565b6040516102149190611d8e565b34801561024b57600080fd5b5061025f61025a366004611da1565b610709565b6040516001600160a01b039091168152602001610214565b34801561028357600080fd5b50610297610292366004611dd6565b6107a3565b005b3480156102a557600080fd5b506008545b604051908152602001610214565b3480156102c457600080fd5b506102f86102d3366004611da1565b600c60205260009081526040902080546001909101546001600160a01b039091169082565b604080516001600160a01b039093168352602083019190915201610214565b34801561032357600080fd5b50610297610332366004611e00565b6108b9565b34801561034357600080fd5b506102f8610352366004611e3c565b6108ea565b34801561036357600080fd5b506102aa610372366004611dd6565b610944565b34801561038357600080fd5b50610297610392366004611e00565b6109da565b3480156103a357600080fd5b506102aa6103b2366004611da1565b6109f5565b3480156103c357600080fd5b506102976103d2366004611e5e565b610a88565b3480156103e357600080fd5b506102976103f2366004611f25565b610b2e565b34801561040357600080fd5b50610417610412366004611da1565b610b6f565b604051610214929190611f5a565b34801561043157600080fd5b506102aa600a5481565b34801561044757600080fd5b5061025f610456366004611da1565b610c1e565b34801561046757600080fd5b50610232610c95565b34801561047c57600080fd5b506102aa61048b366004611e5e565b610d23565b34801561049c57600080fd5b50610297610daa565b3480156104b157600080fd5b506102976104c0366004611f7e565b610de0565b3480156104d157600080fd5b50600d546001600160a01b031661025f565b3480156104ef57600080fd5b50610232610deb565b34801561050457600080fd5b50610297610513366004611faa565b610dfa565b34801561052457600080fd5b50610297610533366004611fe6565b610e05565b34801561054457600080fd5b50610232610553366004611da1565b610e3d565b34801561056457600080fd5b506102aa61271081565b34801561057a57600080fd5b5061058e610589366004611e5e565b610f18565b6040516102149190612062565b3480156105a757600080fd5b506102aa610fd7565b6102aa6105be3660046120a6565b61104a565b3480156105cf57600080fd5b506102086105de3660046120f4565b6001600160a01b03918216600090815260056020908152604080832093909416825291909152205460ff1690565b34801561061857600080fd5b50600f5461025f906001600160a01b031681565b34801561063857600080fd5b50610297610647366004611e5e565b6110ce565b60006001600160e01b0319821663152a902d60e11b1480610671575061067182611169565b92915050565b6060600080546106869061211e565b80601f01602080910402602001604051908101604052809291908181526020018280546106b29061211e565b80156106ff5780601f106106d4576101008083540402835291602001916106ff565b820191906000526020600020905b8154815290600101906020018083116106e257829003601f168201915b5050505050905090565b6000818152600260205260408120546001600160a01b03166107875760405162461bcd60e51b815260206004820152602c60248201527f4552433732313a20617070726f76656420717565727920666f72206e6f6e657860448201526b34b9ba32b73a103a37b5b2b760a11b60648201526084015b60405180910390fd5b506000908152600460205260409020546001600160a01b031690565b60006107ae82610c1e565b9050806001600160a01b0316836001600160a01b0316141561081c5760405162461bcd60e51b815260206004820152602160248201527f4552433732313a20617070726f76616c20746f2063757272656e74206f776e656044820152603960f91b606482015260840161077e565b336001600160a01b0382161480610838575061083881336105de565b6108aa5760405162461bcd60e51b815260206004820152603860248201527f4552433732313a20617070726f76652063616c6c6572206973206e6f74206f7760448201527f6e6572206e6f7220617070726f76656420666f7220616c6c0000000000000000606482015260840161077e565b6108b4838361118e565b505050565b6108c333826111fc565b6108df5760405162461bcd60e51b815260040161077e90612159565b6108b48383836112f3565b6000828152600c60209081526040808320815180830190925280546001600160a01b0316825260010154918101829052829182906127109061092c90876121c0565b61093691906121f5565b915196919550909350505050565b600061094f83610d23565b82106109b15760405162461bcd60e51b815260206004820152602b60248201527f455243373231456e756d657261626c653a206f776e657220696e646578206f7560448201526a74206f6620626f756e647360a81b606482015260840161077e565b506001600160a01b03919091166000908152600660209081526040808320938352929052205490565b6108b483838360405180602001604052806000815250610e05565b6000610a0060085490565b8210610a635760405162461bcd60e51b815260206004820152602c60248201527f455243373231456e756d657261626c653a20676c6f62616c20696e646578206f60448201526b7574206f6620626f756e647360a01b606482015260840161077e565b60088281548110610a7657610a76612209565b90600052602060002001549050919050565b600d546001600160a01b03163314610ab25760405162461bcd60e51b815260040161077e9061221f565b600f546001600160a01b0382811691161415610acd57600080fd5b600f80546001600160a01b038381166001600160a01b031983168117909355604080519190921680825260208201939093527f9b015b8749c8a182300e9c8c7699c761729b84ff89651162dd89881ff1273f63910160405180910390a15050565b600d546001600160a01b03163314610b585760405162461bcd60e51b815260040161077e9061221f565b8051610b6b90600e906020840190611c6a565b5050565b600b60205260009081526040902080546001820180546001600160a01b039092169291610b9b9061211e565b80601f0160208091040260200160405190810160405280929190818152602001828054610bc79061211e565b8015610c145780601f10610be957610100808354040283529160200191610c14565b820191906000526020600020905b815481529060010190602001808311610bf757829003601f168201915b5050505050905082565b6000818152600260205260408120546001600160a01b0316806106715760405162461bcd60e51b815260206004820152602960248201527f4552433732313a206f776e657220717565727920666f72206e6f6e657869737460448201526832b73a103a37b5b2b760b91b606482015260840161077e565b600e8054610ca29061211e565b80601f0160208091040260200160405190810160405280929190818152602001828054610cce9061211e565b8015610d1b5780601f10610cf057610100808354040283529160200191610d1b565b820191906000526020600020905b815481529060010190602001808311610cfe57829003601f168201915b505050505081565b60006001600160a01b038216610d8e5760405162461bcd60e51b815260206004820152602a60248201527f4552433732313a2062616c616e636520717565727920666f7220746865207a65604482015269726f206164647265737360b01b606482015260840161077e565b506001600160a01b031660009081526003602052604090205490565b600d546001600160a01b03163314610dd45760405162461bcd60e51b815260040161077e9061221f565b610dde600061149a565b565b610b6b3382846112f3565b6060600180546106869061211e565b610b6b3383836114ec565b610e0f33836111fc565b610e2b5760405162461bcd60e51b815260040161077e90612159565b610e37848484846115bb565b50505050565b6000818152600260205260409020546060906001600160a01b0316610ebc5760405162461bcd60e51b815260206004820152602f60248201527f4552433732314d657461646174613a2055524920717565727920666f72206e6f60448201526e3732bc34b9ba32b73a103a37b5b2b760891b606482015260840161077e565b6000610ec66115ee565b90506000815111610ee65760405180602001604052806000815250610f11565b80610ef0846115fd565b604051602001610f01929190612254565b6040516020818303038152906040525b9392505050565b6060600080600a5467ffffffffffffffff811115610f3857610f38611e79565b604051908082528060200260200182016040528015610f61578160200160208202803683370190505b50905060015b600a548111610fcf576000818152600b60205260409020546001600160a01b0386811691161415610fbd57808284610f9e81612283565b955081518110610fb057610fb0612209565b6020026020010181815250505b80610fc781612283565b915050610f67565b509392505050565b600f546040805163428c090b60e01b815290516000926001600160a01b03169163428c090b9160048083019260209291908290030181865afa158015611021573d6000803e3d6000fd5b505050506040513d601f19601f82011682018060405250810190611045919061229e565b905090565b60008061105785856116fb565b600f5460405163292571e360e11b815260048101869052306024820152604481018390529192506001600160a01b03169063524ae3c69034906064016000604051808303818588803b1580156110ac57600080fd5b505af11580156110c0573d6000803e3d6000fd5b509398975050505050505050565b600d546001600160a01b031633146110f85760405162461bcd60e51b815260040161077e9061221f565b6001600160a01b03811661115d5760405162461bcd60e51b815260206004820152602660248201527f4f776e61626c653a206e6577206f776e657220697320746865207a65726f206160448201526564647265737360d01b606482015260840161077e565b6111668161149a565b50565b60006001600160e01b0319821663780e9d6360e01b1480610671575061067182611786565b600081815260046020526040902080546001600160a01b0319166001600160a01b03841690811790915581906111c382610c1e565b6001600160a01b03167f8c5be1e5ebec7d5bd14f71427d1e84f3dd0314c0f7b2291e5b200ac8c7c3b92560405160405180910390a45050565b6000818152600260205260408120546001600160a01b03166112755760405162461bcd60e51b815260206004820152602c60248201527f4552433732313a206f70657261746f7220717565727920666f72206e6f6e657860448201526b34b9ba32b73a103a37b5b2b760a11b606482015260840161077e565b600061128083610c1e565b9050806001600160a01b0316846001600160a01b031614806112bb5750836001600160a01b03166112b084610709565b6001600160a01b0316145b806112eb57506001600160a01b0380821660009081526005602090815260408083209388168352929052205460ff165b949350505050565b826001600160a01b031661130682610c1e565b6001600160a01b03161461136a5760405162461bcd60e51b815260206004820152602560248201527f4552433732313a207472616e736665722066726f6d20696e636f72726563742060448201526437bbb732b960d91b606482015260840161077e565b6001600160a01b0382166113cc5760405162461bcd60e51b8152602060048201526024808201527f4552433732313a207472616e7366657220746f20746865207a65726f206164646044820152637265737360e01b606482015260840161077e565b6113d78383836117d6565b6113e260008261118e565b6001600160a01b038316600090815260036020526040812080546001929061140b9084906122b7565b90915550506001600160a01b03821660009081526003602052604081208054600192906114399084906122ce565b909155505060008181526002602052604080822080546001600160a01b0319166001600160a01b0386811691821790925591518493918716917fddf252ad1be2c89b69c2b068fc378daa952ba7f163c4a11628f55a4df523b3ef91a4505050565b600d80546001600160a01b038381166001600160a01b0319831681179093556040519116919082907f8be0079c531659141344cd1fd0a4f28419497f9722a3daafe3b4186f6b6457e090600090a35050565b816001600160a01b0316836001600160a01b0316141561154e5760405162461bcd60e51b815260206004820152601960248201527f4552433732313a20617070726f766520746f2063616c6c657200000000000000604482015260640161077e565b6001600160a01b03838116600081815260056020908152604080832094871680845294825291829020805460ff191686151590811790915591519182527f17307eab39ab6107e8899845ad3d59bd9653f200f220920489ca2b5937696c31910160405180910390a3505050565b6115c68484846112f3565b6115d28484848461188e565b610e375760405162461bcd60e51b815260040161077e906122e6565b6060600e80546106869061211e565b6060816116215750506040805180820190915260018152600360fc1b602082015290565b8160005b811561164b578061163581612283565b91506116449050600a836121f5565b9150611625565b60008167ffffffffffffffff81111561166657611666611e79565b6040519080825280601f01601f191660200182016040528015611690576020820181803683370190505b5090505b84156112eb576116a56001836122b7565b91506116b2600a86612338565b6116bd9060306122ce565b60f81b8183815181106116d2576116d2612209565b60200101906001600160f81b031916908160001a9053506116f4600a866121f5565b9450611694565b600080600a6000815461170d90612283565b91829055506000818152600b6020908152604090912080546001600160a01b03191633178155865192935061174a92600190910191870190611c6a565b50611755338261198c565b8215610f11576000818152600c6020526040902080546001600160a01b031916331781556001018390559392505050565b60006001600160e01b031982166380ac58cd60e01b14806117b757506001600160e01b03198216635b5e139f60e01b145b8061067157506301ffc9a760e01b6001600160e01b0319831614610671565b6001600160a01b0383166118315761182c81600880546000838152600960205260408120829055600182018355919091527ff3f7a9fe364faab93b216da50a3214154f22a0a2b415b23a84c8169e8b636ee30155565b611854565b816001600160a01b0316836001600160a01b031614611854576118548382611ada565b6001600160a01b03821661186b576108b481611b77565b826001600160a01b0316826001600160a01b0316146108b4576108b48282611c26565b60006001600160a01b0384163b1561198157604051630a85bd0160e11b81526001600160a01b0385169063150b7a02906118d290339089908890889060040161234c565b6020604051808303816000875af192505050801561190d575060408051601f3d908101601f1916820190925261190a91810190612389565b60015b611967573d80801561193b576040519150601f19603f3d011682016040523d82523d6000602084013e611940565b606091505b50805161195f5760405162461bcd60e51b815260040161077e906122e6565b805181602001fd5b6001600160e01b031916630a85bd0160e11b1490506112eb565b506001949350505050565b6001600160a01b0382166119e25760405162461bcd60e51b815260206004820181905260248201527f4552433732313a206d696e7420746f20746865207a65726f2061646472657373604482015260640161077e565b6000818152600260205260409020546001600160a01b031615611a475760405162461bcd60e51b815260206004820152601c60248201527f4552433732313a20746f6b656e20616c7265616479206d696e74656400000000604482015260640161077e565b611a53600083836117d6565b6001600160a01b0382166000908152600360205260408120805460019290611a7c9084906122ce565b909155505060008181526002602052604080822080546001600160a01b0319166001600160a01b03861690811790915590518392907fddf252ad1be2c89b69c2b068fc378daa952ba7f163c4a11628f55a4df523b3ef908290a45050565b60006001611ae784610d23565b611af191906122b7565b600083815260076020526040902054909150808214611b44576001600160a01b03841660009081526006602090815260408083208584528252808320548484528184208190558352600790915290208190555b5060009182526007602090815260408084208490556001600160a01b039094168352600681528383209183525290812055565b600854600090611b89906001906122b7565b60008381526009602052604081205460088054939450909284908110611bb157611bb1612209565b906000526020600020015490508060088381548110611bd257611bd2612209565b6000918252602080832090910192909255828152600990915260408082208490558582528120556008805480611c0a57611c0a6123a6565b6001900381819060005260206000200160009055905550505050565b6000611c3183610d23565b6001600160a01b039093166000908152600660209081526040808320868452825280832085905593825260079052919091209190915550565b828054611c769061211e565b90600052602060002090601f016020900481019282611c985760008555611cde565b82601f10611cb157805160ff1916838001178555611cde565b82800160010185558215611cde579182015b82811115611cde578251825591602001919060010190611cc3565b50611cea929150611cee565b5090565b5b80821115611cea5760008155600101611cef565b6001600160e01b03198116811461116657600080fd5b600060208284031215611d2b57600080fd5b8135610f1181611d03565b60005b83811015611d51578181015183820152602001611d39565b83811115610e375750506000910152565b60008151808452611d7a816020860160208601611d36565b601f01601f19169290920160200192915050565b602081526000610f116020830184611d62565b600060208284031215611db357600080fd5b5035919050565b80356001600160a01b0381168114611dd157600080fd5b919050565b60008060408385031215611de957600080fd5b611df283611dba565b946020939093013593505050565b600080600060608486031215611e1557600080fd5b611e1e84611dba565b9250611e2c60208501611dba565b9150604084013590509250925092565b60008060408385031215611e4f57600080fd5b50508035926020909101359150565b600060208284031215611e7057600080fd5b610f1182611dba565b634e487b7160e01b600052604160045260246000fd5b600067ffffffffffffffff80841115611eaa57611eaa611e79565b604051601f8501601f19908116603f01168101908282118183101715611ed257611ed2611e79565b81604052809350858152868686011115611eeb57600080fd5b858560208301376000602087830101525050509392505050565b600082601f830112611f1657600080fd5b610f1183833560208501611e8f565b600060208284031215611f3757600080fd5b813567ffffffffffffffff811115611f4e57600080fd5b6112eb84828501611f05565b6001600160a01b03831681526040602082018190526000906112eb90830184611d62565b60008060408385031215611f9157600080fd5b82359150611fa160208401611dba565b90509250929050565b60008060408385031215611fbd57600080fd5b611fc683611dba565b915060208301358015158114611fdb57600080fd5b809150509250929050565b60008060008060808587031215611ffc57600080fd5b61200585611dba565b935061201360208601611dba565b925060408501359150606085013567ffffffffffffffff81111561203657600080fd5b8501601f8101871361204757600080fd5b61205687823560208401611e8f565b91505092959194509250565b6020808252825182820181905260009190848201906040850190845b8181101561209a5783518352928401929184019160010161207e565b50909695505050505050565b6000806000606084860312156120bb57600080fd5b833567ffffffffffffffff8111156120d257600080fd5b6120de86828701611f05565b9660208601359650604090950135949350505050565b6000806040838503121561210757600080fd5b61211083611dba565b9150611fa160208401611dba565b600181811c9082168061213257607f821691505b6020821081141561215357634e487b7160e01b600052602260045260246000fd5b50919050565b60208082526031908201527f4552433732313a207472616e736665722063616c6c6572206973206e6f74206f6040820152701ddb995c881b9bdc88185c1c1c9bdd9959607a1b606082015260800190565b634e487b7160e01b600052601160045260246000fd5b60008160001904831182151516156121da576121da6121aa565b500290565b634e487b7160e01b600052601260045260246000fd5b600082612204576122046121df565b500490565b634e487b7160e01b600052603260045260246000fd5b6020808252818101527f4f776e61626c653a2063616c6c6572206973206e6f7420746865206f776e6572604082015260600190565b60008351612266818460208801611d36565b83519083019061227a818360208801611d36565b01949350505050565b6000600019821415612297576122976121aa565b5060010190565b6000602082840312156122b057600080fd5b5051919050565b6000828210156122c9576122c96121aa565b500390565b600082198211156122e1576122e16121aa565b500190565b60208082526032908201527f4552433732313a207472616e7366657220746f206e6f6e20455243373231526560408201527131b2b4bb32b91034b6b83632b6b2b73a32b960711b606082015260800190565b600082612347576123476121df565b500690565b6001600160a01b038581168252841660208201526040810183905260806060820181905260009061237f90830184611d62565b9695505050505050565b60006020828403121561239b57600080fd5b8151610f1181611d03565b634e487b7160e01b600052603160045260246000fdfea26469706673582212203ca27900cd6603921825b7f725020a93239f5e09cf58ccc121b54a03961036ce64736f6c634300080b0033",
  "immutableReferences": {},
  "source": "pragma solidity ^0.8.0;\n\nimport \"@openzeppelin/contracts/token/ERC721/ERC721.sol\";\nimport \"@openzeppelin/contracts/token/ERC721/extensions/ERC721Enumerable.sol\";\nimport \"@openzeppelin/contracts/access/Ownable.sol\";\nimport \"@openzeppelin/contracts/interfaces/IERC2981.sol\";\nimport \"@openzeppelin/contracts/utils/introspection/IERC165.sol\";\n\nimport \"./gateway/IVWBLGateway.sol\";\n\nabstract contract VWBLProtocol is ERC721Enumerable, IERC2981 {\n    uint256 public counter = 0;\n    struct TokenInfo {\n        address minterAddress;\n        string getKeyURl;\n    }\n\n    struct RoyaltyInfo {\n        address recipient;\n        uint256 royaltiesPercentage; // if percentage is 3.5, royaltiesPercentage=3.5*10^2 (decimal is 2)\n    }\n\n    mapping(uint256 => TokenInfo) public tokenIdToTokenInfo;\n    mapping(uint256 => RoyaltyInfo) public tokenIdToRoyaltyInfo;\n\n    uint256 public constant INVERSE_BASIS_POINT = 10000;\n\n    function _mint(string memory _getKeyURl, uint256 _royaltiesPercentage) internal returns (uint256) {\n        uint256 tokenId = ++counter;\n        tokenIdToTokenInfo[tokenId].minterAddress = msg.sender;\n        tokenIdToTokenInfo[tokenId].getKeyURl = _getKeyURl;\n        _mint(msg.sender, tokenId);\n        if (_royaltiesPercentage > 0) {\n            _setRoyalty(tokenId, msg.sender, _royaltiesPercentage);\n        }\n        return tokenId;\n    }\n\n    function getTokenByMinter(address minter)\n        public\n        view\n        returns (uint256[] memory)\n    {\n        uint256 currentCounter = 0;\n        uint256[] memory tokens = new uint256[](counter);\n        for (uint256 i = 1; i <= counter; i++) {\n            if (tokenIdToTokenInfo[i].minterAddress == minter) {\n                tokens[currentCounter++] = i;\n            }\n        }\n        return tokens;\n    }\n\n    function supportsInterface(bytes4 interfaceId)\n        public\n        view\n        virtual\n        override(IERC165, ERC721Enumerable)\n        returns (bool)\n    {\n        return interfaceId == type(IERC2981).interfaceId || super.supportsInterface(interfaceId);\n    }\n\n    function royaltyInfo(uint256 _tokenId, uint256 _salePrice)\n        external\n        view\n        override\n        returns (address receiver, uint256 royaltyAmount)\n    {\n        RoyaltyInfo memory royaltyInfo = tokenIdToRoyaltyInfo[_tokenId];\n        uint256 _royalties = (_salePrice * royaltyInfo.royaltiesPercentage) / INVERSE_BASIS_POINT;\n        return (royaltyInfo.recipient, _royalties);\n    }\n\n    function _setRoyalty(\n        uint256 _tokenId,\n        address _recipient,\n        uint256 _royaltiesPercentage\n    ) internal {\n        RoyaltyInfo storage royaltyInfo = tokenIdToRoyaltyInfo[_tokenId];\n        royaltyInfo.recipient = _recipient;\n        royaltyInfo.royaltiesPercentage = _royaltiesPercentage;\n    }\n}\n\ncontract VWBL is VWBLProtocol, Ownable {\n    string public baseURI;\n    address public gatewayContract;\n\n    event gatewayContractChanged(address oldGatewayContract, address newGatewayContract);\n\n    constructor(string memory _baseURI, address _gatewayContract) ERC721(\"VWBL\", \"VWBL\") {\n        baseURI = _baseURI;\n        gatewayContract = _gatewayContract;\n    }\n\n    function _baseURI() internal view override returns (string memory) {\n        return baseURI;\n    }\n\n    function setBaseURI(string memory _baseURI) public onlyOwner {\n        baseURI = _baseURI;\n    }\n\n    function setGatewayContract(address newGatewayContract) public onlyOwner {\n        require(newGatewayContract != gatewayContract);\n        address oldGatewayContract = gatewayContract;\n        gatewayContract = newGatewayContract;\n\n        emit gatewayContractChanged(oldGatewayContract, newGatewayContract);\n    }\n\n    function getFee() public view returns (uint256) {\n        return IVWBLGateway(gatewayContract).feeWei();\n    }\n\n    function mint(string memory _getKeyURl, uint256 _royaltiesPercentage, bytes32 documentId) public payable returns (uint256) {\n        uint256 tokenId = super._mint(_getKeyURl, _royaltiesPercentage);\n\n        IVWBLGateway(gatewayContract).grantAccessControl{value: msg.value}(documentId, address(this), tokenId);\n\n        return tokenId;\n    }\n\n    function send(uint256 _tokenId, address _to) public{\n        super._transfer(msg.sender, _to, _tokenId);\n    }\n}\n",
  "sourcePath": "/home/yuki/git/VWBL/contract/contracts/ERC721/VWBL.sol",
  "compiler": {
    "name": "solc",
    "version": "0.8.11+commit.d7f03943.Emscripten.clang"
  },
  "schemaVersion": "3.4.4",
  "updatedAt": "2022-04-04T10:16:41.323Z",
  "devdoc": {
    "kind": "dev",
    "methods": {
      "approve(address,uint256)": {
        "details": "See {IERC721-approve}."
      },
      "balanceOf(address)": {
        "details": "See {IERC721-balanceOf}."
      },
      "getApproved(uint256)": {
        "details": "See {IERC721-getApproved}."
      },
      "isApprovedForAll(address,address)": {
        "details": "See {IERC721-isApprovedForAll}."
      },
      "name()": {
        "details": "See {IERC721Metadata-name}."
      },
      "owner()": {
        "details": "Returns the address of the current owner."
      },
      "ownerOf(uint256)": {
        "details": "See {IERC721-ownerOf}."
      },
      "renounceOwnership()": {
        "details": "Leaves the contract without owner. It will not be possible to call `onlyOwner` functions anymore. Can only be called by the current owner. NOTE: Renouncing ownership will leave the contract without an owner, thereby removing any functionality that is only available to the owner."
      },
      "safeTransferFrom(address,address,uint256)": {
        "details": "See {IERC721-safeTransferFrom}."
      },
      "safeTransferFrom(address,address,uint256,bytes)": {
        "details": "See {IERC721-safeTransferFrom}."
      },
      "setApprovalForAll(address,bool)": {
        "details": "See {IERC721-setApprovalForAll}."
      },
      "symbol()": {
        "details": "See {IERC721Metadata-symbol}."
      },
      "tokenByIndex(uint256)": {
        "details": "See {IERC721Enumerable-tokenByIndex}."
      },
      "tokenOfOwnerByIndex(address,uint256)": {
        "details": "See {IERC721Enumerable-tokenOfOwnerByIndex}."
      },
      "tokenURI(uint256)": {
        "details": "See {IERC721Metadata-tokenURI}."
      },
      "totalSupply()": {
        "details": "See {IERC721Enumerable-totalSupply}."
      },
      "transferFrom(address,address,uint256)": {
        "details": "See {IERC721-transferFrom}."
      },
      "transferOwnership(address)": {
        "details": "Transfers ownership of the contract to a new account (`newOwner`). Can only be called by the current owner."
      }
    },
    "version": 1
  },
  "userdoc": {
    "kind": "user",
    "methods": {},
    "version": 1
  }
}