{
  "_format": "hh-sol-artifact-1",
  "contractName": "VWBLERC721ERC2981ForMetadata",
  "sourceName": "contracts/access-condition/ERC721/extensions/VWBLERC721ERC2981ForMetadata.sol",
  "abi": [
    {
      "inputs": [
        {
          "internalType": "address",
          "name": "_gatewayProxy",
          "type": "address"
        },
        {
          "internalType": "address",
          "name": "_accessCheckerContract",
          "type": "address"
        },
        {
          "internalType": "string",
          "name": "_signMessage",
          "type": "string"
        }
      ],
      "stateMutability": "nonpayable",
      "type": "constructor"
    },
    {
      "anonymous": false,
      "inputs": [
        {
          "indexed": true,
          "internalType": "address",
          "name": "owner",
          "type": "address"
        },
        {
          "indexed": true,
          "internalType": "address",
          "name": "approved",
          "type": "address"
        },
        {
          "indexed": true,
          "internalType": "uint256",
          "name": "tokenId",
          "type": "uint256"
        }
      ],
      "name": "Approval",
      "type": "event"
    },
    {
      "anonymous": false,
      "inputs": [
        {
          "indexed": true,
          "internalType": "address",
          "name": "owner",
          "type": "address"
        },
        {
          "indexed": true,
          "internalType": "address",
          "name": "operator",
          "type": "address"
        },
        {
          "indexed": false,
          "internalType": "bool",
          "name": "approved",
          "type": "bool"
        }
      ],
      "name": "ApprovalForAll",
      "type": "event"
    },
    {
      "anonymous": false,
      "inputs": [
        {
          "indexed": true,
          "internalType": "address",
          "name": "previousOwner",
          "type": "address"
        },
        {
          "indexed": true,
          "internalType": "address",
          "name": "newOwner",
          "type": "address"
        }
      ],
      "name": "OwnershipTransferred",
      "type": "event"
    },
    {
      "anonymous": false,
      "inputs": [
        {
          "indexed": true,
          "internalType": "address",
          "name": "from",
          "type": "address"
        },
        {
          "indexed": true,
          "internalType": "address",
          "name": "to",
          "type": "address"
        },
        {
          "indexed": true,
          "internalType": "uint256",
          "name": "tokenId",
          "type": "uint256"
        }
      ],
      "name": "Transfer",
      "type": "event"
    },
    {
      "anonymous": false,
      "inputs": [
        {
          "indexed": false,
          "internalType": "address",
          "name": "oldAccessCheckerContract",
          "type": "address"
        },
        {
          "indexed": false,
          "internalType": "address",
          "name": "newAccessCheckerContract",
          "type": "address"
        }
      ],
      "name": "accessCheckerContractChanged",
      "type": "event"
    },
    {
      "inputs": [],
      "name": "accessCheckerContract",
      "outputs": [
        {
          "internalType": "address",
          "name": "",
          "type": "address"
        }
      ],
      "stateMutability": "view",
      "type": "function"
    },
    {
      "inputs": [
        {
          "internalType": "address",
          "name": "to",
          "type": "address"
        },
        {
          "internalType": "uint256",
          "name": "tokenId",
          "type": "uint256"
        }
      ],
      "name": "approve",
      "outputs": [],
      "stateMutability": "nonpayable",
      "type": "function"
    },
    {
      "inputs": [
        {
          "internalType": "address",
          "name": "owner",
          "type": "address"
        }
      ],
      "name": "balanceOf",
      "outputs": [
        {
          "internalType": "uint256",
          "name": "",
          "type": "uint256"
        }
      ],
      "stateMutability": "view",
      "type": "function"
    },
    {
      "inputs": [],
      "name": "baseURI",
      "outputs": [
        {
          "internalType": "string",
          "name": "",
          "type": "string"
        }
      ],
      "stateMutability": "view",
      "type": "function"
    },
    {
      "inputs": [],
      "name": "counter",
      "outputs": [
        {
          "internalType": "uint256",
          "name": "",
          "type": "uint256"
        }
      ],
      "stateMutability": "view",
      "type": "function"
    },
    {
      "inputs": [],
      "name": "gatewayProxy",
      "outputs": [
        {
          "internalType": "address",
          "name": "",
          "type": "address"
        }
      ],
      "stateMutability": "view",
      "type": "function"
    },
    {
      "inputs": [],
      "name": "getAllowOrigins",
      "outputs": [
        {
          "internalType": "string",
          "name": "",
          "type": "string"
        }
      ],
      "stateMutability": "view",
      "type": "function"
    },
    {
      "inputs": [
        {
          "internalType": "uint256",
          "name": "tokenId",
          "type": "uint256"
        }
      ],
      "name": "getApproved",
      "outputs": [
        {
          "internalType": "address",
          "name": "",
          "type": "address"
        }
      ],
      "stateMutability": "view",
      "type": "function"
    },
    {
      "inputs": [],
      "name": "getFee",
      "outputs": [
        {
          "internalType": "uint256",
          "name": "",
          "type": "uint256"
        }
      ],
      "stateMutability": "view",
      "type": "function"
    },
    {
      "inputs": [],
      "name": "getGatewayAddress",
      "outputs": [
        {
          "internalType": "address",
          "name": "",
          "type": "address"
        }
      ],
      "stateMutability": "view",
      "type": "function"
    },
    {
      "inputs": [
        {
          "internalType": "uint256",
          "name": "tokenId",
          "type": "uint256"
        }
      ],
      "name": "getMinter",
      "outputs": [
        {
          "internalType": "address",
          "name": "",
          "type": "address"
        }
      ],
      "stateMutability": "view",
      "type": "function"
    },
    {
      "inputs": [],
      "name": "getSignMessage",
      "outputs": [
        {
          "internalType": "string",
          "name": "",
          "type": "string"
        }
      ],
      "stateMutability": "view",
      "type": "function"
    },
    {
      "inputs": [
        {
          "internalType": "address",
          "name": "minter",
          "type": "address"
        }
      ],
      "name": "getTokenByMinter",
      "outputs": [
        {
          "internalType": "uint256[]",
          "name": "",
          "type": "uint256[]"
        }
      ],
      "stateMutability": "view",
      "type": "function"
    },
    {
      "inputs": [
        {
          "internalType": "address",
          "name": "owner",
          "type": "address"
        },
        {
          "internalType": "address",
          "name": "operator",
          "type": "address"
        }
      ],
      "name": "isApprovedForAll",
      "outputs": [
        {
          "internalType": "bool",
          "name": "",
          "type": "bool"
        }
      ],
      "stateMutability": "view",
      "type": "function"
    },
    {
      "inputs": [
        {
          "internalType": "string",
          "name": "_metadataURL",
          "type": "string"
        },
        {
          "internalType": "string",
          "name": "_getKeyURl",
          "type": "string"
        },
        {
          "internalType": "uint96",
          "name": "_feeNumerator",
          "type": "uint96"
        },
        {
          "internalType": "bytes32",
          "name": "_documentId",
          "type": "bytes32"
        }
      ],
      "name": "mint",
      "outputs": [
        {
          "internalType": "uint256",
          "name": "",
          "type": "uint256"
        }
      ],
      "stateMutability": "payable",
      "type": "function"
    },
    {
      "inputs": [],
      "name": "name",
      "outputs": [
        {
          "internalType": "string",
          "name": "",
          "type": "string"
        }
      ],
      "stateMutability": "view",
      "type": "function"
    },
    {
      "inputs": [],
      "name": "owner",
      "outputs": [
        {
          "internalType": "address",
          "name": "",
          "type": "address"
        }
      ],
      "stateMutability": "view",
      "type": "function"
    },
    {
      "inputs": [
        {
          "internalType": "uint256",
          "name": "tokenId",
          "type": "uint256"
        }
      ],
      "name": "ownerOf",
      "outputs": [
        {
          "internalType": "address",
          "name": "",
          "type": "address"
        }
      ],
      "stateMutability": "view",
      "type": "function"
    },
    {
      "inputs": [],
      "name": "renounceOwnership",
      "outputs": [],
      "stateMutability": "nonpayable",
      "type": "function"
    },
    {
      "inputs": [
        {
          "internalType": "uint256",
          "name": "_tokenId",
          "type": "uint256"
        },
        {
          "internalType": "uint256",
          "name": "_salePrice",
          "type": "uint256"
        }
      ],
      "name": "royaltyInfo",
      "outputs": [
        {
          "internalType": "address",
          "name": "",
          "type": "address"
        },
        {
          "internalType": "uint256",
          "name": "",
          "type": "uint256"
        }
      ],
      "stateMutability": "view",
      "type": "function"
    },
    {
      "inputs": [
        {
          "internalType": "address",
          "name": "from",
          "type": "address"
        },
        {
          "internalType": "address",
          "name": "to",
          "type": "address"
        },
        {
          "internalType": "uint256",
          "name": "tokenId",
          "type": "uint256"
        }
      ],
      "name": "safeTransferFrom",
      "outputs": [],
      "stateMutability": "nonpayable",
      "type": "function"
    },
    {
      "inputs": [
        {
          "internalType": "address",
          "name": "from",
          "type": "address"
        },
        {
          "internalType": "address",
          "name": "to",
          "type": "address"
        },
        {
          "internalType": "uint256",
          "name": "tokenId",
          "type": "uint256"
        },
        {
          "internalType": "bytes",
          "name": "data",
          "type": "bytes"
        }
      ],
      "name": "safeTransferFrom",
      "outputs": [],
      "stateMutability": "nonpayable",
      "type": "function"
    },
    {
      "inputs": [
        {
          "internalType": "address",
          "name": "newAccessCheckerContract",
          "type": "address"
        }
      ],
      "name": "setAccessCheckerContract",
      "outputs": [],
      "stateMutability": "nonpayable",
      "type": "function"
    },
    {
      "inputs": [
        {
          "internalType": "string",
          "name": "_origins",
          "type": "string"
        }
      ],
      "name": "setAllowOrigins",
      "outputs": [],
      "stateMutability": "nonpayable",
      "type": "function"
    },
    {
      "inputs": [
        {
          "internalType": "address",
          "name": "operator",
          "type": "address"
        },
        {
          "internalType": "bool",
          "name": "approved",
          "type": "bool"
        }
      ],
      "name": "setApprovalForAll",
      "outputs": [],
      "stateMutability": "nonpayable",
      "type": "function"
    },
    {
      "inputs": [
        {
          "internalType": "string",
          "name": "_baseURI",
          "type": "string"
        }
      ],
      "name": "setBaseURI",
      "outputs": [],
      "stateMutability": "nonpayable",
      "type": "function"
    },
    {
      "inputs": [
        {
          "internalType": "string",
          "name": "_signMessage",
          "type": "string"
        }
      ],
      "name": "setSignMessage",
      "outputs": [],
      "stateMutability": "nonpayable",
      "type": "function"
    },
    {
      "inputs": [
        {
          "internalType": "bytes4",
          "name": "interfaceId",
          "type": "bytes4"
        }
      ],
      "name": "supportsInterface",
      "outputs": [
        {
          "internalType": "bool",
          "name": "",
          "type": "bool"
        }
      ],
      "stateMutability": "view",
      "type": "function"
    },
    {
      "inputs": [],
      "name": "symbol",
      "outputs": [
        {
          "internalType": "string",
          "name": "",
          "type": "string"
        }
      ],
      "stateMutability": "view",
      "type": "function"
    },
    {
      "inputs": [
        {
          "internalType": "uint256",
          "name": "index",
          "type": "uint256"
        }
      ],
      "name": "tokenByIndex",
      "outputs": [
        {
          "internalType": "uint256",
          "name": "",
          "type": "uint256"
        }
      ],
      "stateMutability": "view",
      "type": "function"
    },
    {
      "inputs": [
        {
          "internalType": "uint256",
          "name": "",
          "type": "uint256"
        }
      ],
      "name": "tokenIdToTokenInfo",
      "outputs": [
        {
          "internalType": "bytes32",
          "name": "documentId",
          "type": "bytes32"
        },
        {
          "internalType": "address",
          "name": "minterAddress",
          "type": "address"
        },
        {
          "internalType": "string",
          "name": "getKeyURl",
          "type": "string"
        }
      ],
      "stateMutability": "view",
      "type": "function"
    },
    {
      "inputs": [
        {
          "internalType": "address",
          "name": "owner",
          "type": "address"
        },
        {
          "internalType": "uint256",
          "name": "index",
          "type": "uint256"
        }
      ],
      "name": "tokenOfOwnerByIndex",
      "outputs": [
        {
          "internalType": "uint256",
          "name": "",
          "type": "uint256"
        }
      ],
      "stateMutability": "view",
      "type": "function"
    },
    {
      "inputs": [
        {
          "internalType": "uint256",
          "name": "tokenId",
          "type": "uint256"
        }
      ],
      "name": "tokenURI",
      "outputs": [
        {
          "internalType": "string",
          "name": "",
          "type": "string"
        }
      ],
      "stateMutability": "view",
      "type": "function"
    },
    {
      "inputs": [],
      "name": "totalSupply",
      "outputs": [
        {
          "internalType": "uint256",
          "name": "",
          "type": "uint256"
        }
      ],
      "stateMutability": "view",
      "type": "function"
    },
    {
      "inputs": [
        {
          "internalType": "address",
          "name": "from",
          "type": "address"
        },
        {
          "internalType": "address",
          "name": "to",
          "type": "address"
        },
        {
          "internalType": "uint256",
          "name": "tokenId",
          "type": "uint256"
        }
      ],
      "name": "transferFrom",
      "outputs": [],
      "stateMutability": "nonpayable",
      "type": "function"
    },
    {
      "inputs": [
        {
          "internalType": "address",
          "name": "newOwner",
          "type": "address"
        }
      ],
      "name": "transferOwnership",
      "outputs": [],
      "stateMutability": "nonpayable",
      "type": "function"
    },
    {
      "inputs": [
        {
          "internalType": "uint256",
          "name": "tokenId",
          "type": "uint256"
        },
        {
          "internalType": "address",
          "name": "grantee",
          "type": "address"
        }
      ],
      "name": "grantViewPermission",
      "outputs": [
        {
          "internalType": "uint256",
          "name": "",
          "type": "uint256"
        }
      ],
      "stateMutability": "nonpayable",
      "type": "function"
    },
    {
      "inputs": [
        {
          "internalType": "uint256",
          "name": "tokenId",
          "type": "uint256"
        },
        {
          "internalType": "address",
          "name": "user",
          "type": "address"
        }
      ],
      "name": "checkViewPermission",
      "outputs": [
        {
          "internalType": "bool",
          "name": "",
          "type": "bool"
        }
      ],
      "stateMutability": "view",
      "type": "function"
    }
  ],
  "bytecode": "0x608060405260006006553480156200001657600080fd5b5060405162002be438038062002be48339810160408190526200003991620001b5565b604051806040016040528060048152602001631595d09360e21b815250604051806040016040528060048152602001631595d09360e21b81525060405180602001604052806000815250858585828282620000a36200009d6200012e60201b60201c565b62000132565b600180546001600160a01b0319166001600160a01b0385161790556002620000cc82826200033e565b5050600480546001600160a01b0319166001600160a01b0392909216919091179055506005620000fd85826200033e565b505050505081600890816200011391906200033e565b5060096200012282826200033e565b5050505050506200040a565b3390565b600080546001600160a01b038381166001600160a01b0319831681178455604051919092169283917f8be0079c531659141344cd1fd0a4f28419497f9722a3daafe3b4186f6b6457e09190a35050565b80516001600160a01b03811681146200019a57600080fd5b919050565b634e487b7160e01b600052604160045260246000fd5b600080600060608486031215620001cb57600080fd5b620001d68462000182565b92506020620001e781860162000182565b60408601519093506001600160401b03808211156200020557600080fd5b818701915087601f8301126200021a57600080fd5b8151818111156200022f576200022f6200019f565b604051601f8201601f19908116603f011681019083821181831017156200025a576200025a6200019f565b816040528281528a868487010111156200027357600080fd5b600093505b8284101562000297578484018601518185018701529285019262000278565b60008684830101528096505050505050509250925092565b600181811c90821680620002c457607f821691505b602082108103620002e557634e487b7160e01b600052602260045260246000fd5b50919050565b601f8211156200033957600081815260208120601f850160051c81016020861015620003145750805b601f850160051c820191505b81811015620003355782815560010162000320565b5050505b505050565b81516001600160401b038111156200035a576200035a6200019f565b62000372816200036b8454620002af565b84620002eb565b602080601f831160018114620003aa5760008415620003915750858301515b600019600386901b1c1916600185901b17855562000335565b600085815260208120601f198616915b82811015620003db57888601518255948401946001909101908401620003ba565b5085821015620003fa5787850151600019600388901b60f8161c191681555b5050505050600190811b01905550565b6127ca806200041a6000396000f3fe60806040526004361061020f5760003560e01c80636352211e11610118578063a22cb465116100a0578063ce5af3361161006f578063ce5af3361461061b578063ced72f8714610648578063d185f5201461065d578063e985e9c514610672578063f2fde38b146106bb57600080fd5b8063a22cb4651461059b578063b41bde13146105bb578063b88d4fde146105db578063c87b56dd146105fb57600080fd5b80637db551b0116100e75780637db551b0146105135780638da5cb5b1461052857806393fab57b1461054657806395d89b41146105665780639ab5e9751461057b57600080fd5b80636352211e146104a95780636c0360eb146104c957806370a08231146104de578063715018a6146104fe57600080fd5b8063357113461161019b57806355f804b31161016a57806355f804b3146103eb5780635a920f061461040b5780635b7121f81461042b5780635fb8bcd51461046457806361bc221a1461049357600080fd5b8063357113461461038357806342842e0e146103985780634d96f2c2146103b85780634f6ccce7146103cb57600080fd5b806318160ddd116101e257806318160ddd146102c557806323b872dd146102e45780632812a3d2146103045780632a55205a146103245780632f745c591461036357600080fd5b806301ffc9a71461021457806306fdde0314610249578063081812fc1461026b578063095ea7b3146102a3575b600080fd5b34801561022057600080fd5b5061023461022f366004611e90565b6106db565b60405190151581526020015b60405180910390f35b34801561025557600080fd5b5061025e6106ec565b6040516102409190611efa565b34801561027757600080fd5b5061028b610286366004611f0d565b61077e565b6040516001600160a01b039091168152602001610240565b3480156102af57600080fd5b506102c36102be366004611f3b565b6107a5565b005b3480156102d157600080fd5b506010545b604051908152602001610240565b3480156102f057600080fd5b506102c36102ff366004611f67565b6108bf565b34801561031057600080fd5b506102c361031f366004611fa8565b6108f0565b34801561033057600080fd5b5061034461033f366004611fc5565b610974565b604080516001600160a01b039093168352602083019190915201610240565b34801561036f57600080fd5b506102d661037e366004611f3b565b610a20565b34801561038f57600080fd5b5061028b610ab6565b3480156103a457600080fd5b506102c36103b3366004611f67565b610b29565b6102d66103c6366004612093565b610b44565b3480156103d757600080fd5b506102d66103e6366004611f0d565b610c7c565b3480156103f757600080fd5b506102c361040636600461211d565b610d0f565b34801561041757600080fd5b506102c361042636600461211d565b610d27565b34801561043757600080fd5b5061028b610446366004611f0d565b6000908152600760205260409020600101546001600160a01b031690565b34801561047057600080fd5b5061048461047f366004611f0d565b610d3b565b60405161024093929190612152565b34801561049f57600080fd5b506102d660065481565b3480156104b557600080fd5b5061028b6104c4366004611f0d565b610df0565b3480156104d557600080fd5b5061025e610e25565b3480156104ea57600080fd5b506102d66104f9366004611fa8565b610eb3565b34801561050a57600080fd5b506102c3610f39565b34801561051f57600080fd5b5061025e610f4d565b34801561053457600080fd5b506000546001600160a01b031661028b565b34801561055257600080fd5b5060045461028b906001600160a01b031681565b34801561057257600080fd5b5061025e610f5c565b34801561058757600080fd5b506102c3610596366004612185565b610f6b565b3480156105a757600080fd5b506102c36105b63660046121f7565b610f80565b3480156105c757600080fd5b5060015461028b906001600160a01b031681565b3480156105e757600080fd5b506102c36105f6366004612235565b610f8b565b34801561060757600080fd5b5061025e610616366004611f0d565b610fc3565b34801561062757600080fd5b5061063b610636366004611fa8565b61109f565b60405161024091906122b5565b34801561065457600080fd5b506102d66111b4565b34801561066957600080fd5b5061025e61121f565b34801561067e57600080fd5b5061023461068d3660046122f9565b6001600160a01b039182166000908152600d6020908152604080832093909416825291909152205460ff1690565b3480156106c757600080fd5b506102c36106d6366004611fa8565b61122e565b60006106e6826112a7565b92915050565b6060600880546106fb90612327565b80601f016020809104026020016040519081016040528092919081815260200182805461072790612327565b80156107745780601f1061074957610100808354040283529160200191610774565b820191906000526020600020905b81548152906001019060200180831161075757829003601f168201915b5050505050905090565b6000610789826112cc565b506000908152600c60205260409020546001600160a01b031690565b60006107b082610df0565b9050806001600160a01b0316836001600160a01b0316036108225760405162461bcd60e51b815260206004820152602160248201527f4552433732313a20617070726f76616c20746f2063757272656e74206f776e656044820152603960f91b60648201526084015b60405180910390fd5b336001600160a01b038216148061083e575061083e813361068d565b6108b05760405162461bcd60e51b815260206004820152603d60248201527f4552433732313a20617070726f76652063616c6c6572206973206e6f7420746f60448201527f6b656e206f776e6572206f7220617070726f76656420666f7220616c6c0000006064820152608401610819565b6108ba8383611300565b505050565b6108c9338261136e565b6108e55760405162461bcd60e51b815260040161081990612361565b6108ba8383836113ec565b6108f861155d565b6004546001600160a01b039081169082160361091357600080fd5b600480546001600160a01b038381166001600160a01b031983168117909355604080519190921680825260208201939093527f9aaef5934caac7bf8ee7de13d1a1e98122180cb78e64abeae728ad559df64a66910160405180910390a15050565b60008281526013602090815260408083208151808301909252546001600160a01b038116808352600160a01b9091046001600160601b03169282019290925282916109e95750604080518082019091526012546001600160a01b0381168252600160a01b90046001600160601b031660208201525b602081015160009061271090610a08906001600160601b0316876123c4565b610a1291906123db565b915196919550909350505050565b6000610a2b83610eb3565b8210610a8d5760405162461bcd60e51b815260206004820152602b60248201527f455243373231456e756d657261626c653a206f776e657220696e646578206f7560448201526a74206f6620626f756e647360a81b6064820152608401610819565b506001600160a01b03919091166000908152600e60209081526040808320938352929052205490565b60015460408051631ab889a360e11b815290516000926001600160a01b03169163357113469160048083019260209291908290030181865afa158015610b00573d6000803e3d6000fd5b505050506040513d601f19601f82011682018060405250810190610b2491906123fd565b905090565b6108ba83838360405180602001604052806000815250610f8b565b600080600660008154610b569061241a565b9182905550604080516060810182528581523360208083019182528284018a8152600086815260079092529390208251815590516001820180546001600160a01b0319166001600160a01b039092169190911790559151929350918291906002820190610bc39082612481565b50905050610bd133836115b7565b6000828152601460205260409020610be98882612481565b506001600160601b03851615610c0457610c04823387611750565b60048054604051630f384cd960e01b8152918201869052306024830152604482018490526001600160a01b031690630f384cd99034906064016000604051808303818588803b158015610c5657600080fd5b505af1158015610c6a573d6000803e3d6000fd5b5094955050505050505b949350505050565b6000610c8760105490565b8210610cea5760405162461bcd60e51b815260206004820152602c60248201527f455243373231456e756d657261626c653a20676c6f62616c20696e646578206f60448201526b7574206f6620626f756e647360a01b6064820152608401610819565b60108281548110610cfd57610cfd612541565b90600052602060002001549050919050565b610d1761155d565b6005610d238282612481565b5050565b610d2f61155d565b6003610d238282612481565b60076020526000908152604090208054600182015460028301805492936001600160a01b0390921692610d6d90612327565b80601f0160208091040260200160405190810160405280929190818152602001828054610d9990612327565b8015610de65780601f10610dbb57610100808354040283529160200191610de6565b820191906000526020600020905b815481529060010190602001808311610dc957829003601f168201915b5050505050905083565b6000818152600a60205260408120546001600160a01b0316806106e65760405162461bcd60e51b815260040161081990612557565b60058054610e3290612327565b80601f0160208091040260200160405190810160405280929190818152602001828054610e5e90612327565b8015610eab5780601f10610e8057610100808354040283529160200191610eab565b820191906000526020600020905b815481529060010190602001808311610e8e57829003601f168201915b505050505081565b60006001600160a01b038216610f1d5760405162461bcd60e51b815260206004820152602960248201527f4552433732313a2061646472657373207a65726f206973206e6f7420612076616044820152683634b21037bbb732b960b91b6064820152608401610819565b506001600160a01b03166000908152600b602052604090205490565b610f4161155d565b610f4b600061185e565b565b6060600280546106fb90612327565b6060600980546106fb90612327565b610f7361155d565b60026108ba82848361258e565b610d233383836118ae565b610f95338361136e565b610fb15760405162461bcd60e51b815260040161081990612361565b610fbd8484848461197c565b50505050565b6000818152601460205260409020805460609190610fe090612327565b90506000036110015760405162461bcd60e51b815260040161081990612557565b6000828152601460205260409020805461101a90612327565b80601f016020809104026020016040519081016040528092919081815260200182805461104690612327565b80156110935780601f1061106857610100808354040283529160200191611093565b820191906000526020600020905b81548152906001019060200180831161107657829003601f168201915b50505050509050919050565b6060600060015b60065481116110f3576000818152600760205260409020600101546001600160a01b038086169116036110e157816110dd8161241a565b9250505b806110eb8161241a565b9150506110a6565b5060008167ffffffffffffffff81111561110f5761110f611fe7565b604051908082528060200260200182016040528015611138578160200160208202803683370190505b509050600060015b60065481116111aa576000818152600760205260409020600101546001600160a01b03808816911603611198578083836111798161241a565b94508151811061118b5761118b612541565b6020026020010181815250505b806111a28161241a565b915050611140565b5090949350505050565b60006111be610ab6565b6001600160a01b031663428c090b6040518163ffffffff1660e01b8152600401602060405180830381865afa1580156111fb573d6000803e3d6000fd5b505050506040513d601f19601f82011682018060405250810190610b24919061264e565b6060600380546106fb90612327565b61123661155d565b6001600160a01b03811661129b5760405162461bcd60e51b815260206004820152602660248201527f4f776e61626c653a206e6577206f776e657220697320746865207a65726f206160448201526564647265737360d01b6064820152608401610819565b6112a48161185e565b50565b60006001600160e01b0319821663152a902d60e11b14806106e657506106e6826119af565b6000818152600a60205260409020546001600160a01b03166112a45760405162461bcd60e51b815260040161081990612557565b6000818152600c6020526040902080546001600160a01b0319166001600160a01b038416908117909155819061133582610df0565b6001600160a01b03167f8c5be1e5ebec7d5bd14f71427d1e84f3dd0314c0f7b2291e5b200ac8c7c3b92560405160405180910390a45050565b60008061137a83610df0565b9050806001600160a01b0316846001600160a01b031614806113c157506001600160a01b038082166000908152600d602090815260408083209388168352929052205460ff165b80610c745750836001600160a01b03166113da8461077e565b6001600160a01b031614949350505050565b826001600160a01b03166113ff82610df0565b6001600160a01b0316146114255760405162461bcd60e51b815260040161081990612667565b6001600160a01b0382166114875760405162461bcd60e51b8152602060048201526024808201527f4552433732313a207472616e7366657220746f20746865207a65726f206164646044820152637265737360e01b6064820152608401610819565b61149483838360016119d4565b826001600160a01b03166114a782610df0565b6001600160a01b0316146114cd5760405162461bcd60e51b815260040161081990612667565b6000818152600c6020908152604080832080546001600160a01b03199081169091556001600160a01b03878116808652600b8552838620805460001901905590871680865283862080546001019055868652600a90945282852080549092168417909155905184937fddf252ad1be2c89b69c2b068fc378daa952ba7f163c4a11628f55a4df523b3ef91a4505050565b6000546001600160a01b03163314610f4b5760405162461bcd60e51b815260206004820181905260248201527f4f776e61626c653a2063616c6c6572206973206e6f7420746865206f776e65726044820152606401610819565b6001600160a01b03821661160d5760405162461bcd60e51b815260206004820181905260248201527f4552433732313a206d696e7420746f20746865207a65726f20616464726573736044820152606401610819565b6000818152600a60205260409020546001600160a01b0316156116725760405162461bcd60e51b815260206004820152601c60248201527f4552433732313a20746f6b656e20616c7265616479206d696e746564000000006044820152606401610819565b6116806000838360016119d4565b6000818152600a60205260409020546001600160a01b0316156116e55760405162461bcd60e51b815260206004820152601c60248201527f4552433732313a20746f6b656e20616c7265616479206d696e746564000000006044820152606401610819565b6001600160a01b0382166000818152600b6020908152604080832080546001019055848352600a90915280822080546001600160a01b0319168417905551839291907fddf252ad1be2c89b69c2b068fc378daa952ba7f163c4a11628f55a4df523b3ef908290a45050565b6127106001600160601b03821611156117be5760405162461bcd60e51b815260206004820152602a60248201527f455243323938313a20726f79616c7479206665652077696c6c206578636565646044820152692073616c65507269636560b01b6064820152608401610819565b6001600160a01b0382166118145760405162461bcd60e51b815260206004820152601b60248201527f455243323938313a20496e76616c696420706172616d657465727300000000006044820152606401610819565b6040805180820182526001600160a01b0393841681526001600160601b0392831660208083019182526000968752601390529190942093519051909116600160a01b029116179055565b600080546001600160a01b038381166001600160a01b0319831681178455604051919092169283917f8be0079c531659141344cd1fd0a4f28419497f9722a3daafe3b4186f6b6457e09190a35050565b816001600160a01b0316836001600160a01b03160361190f5760405162461bcd60e51b815260206004820152601960248201527f4552433732313a20617070726f766520746f2063616c6c6572000000000000006044820152606401610819565b6001600160a01b038381166000818152600d6020908152604080832094871680845294825291829020805460ff191686151590811790915591519182527f17307eab39ab6107e8899845ad3d59bd9653f200f220920489ca2b5937696c31910160405180910390a3505050565b6119878484846113ec565b61199384848484611b14565b610fbd5760405162461bcd60e51b8152600401610819906126ac565b60006001600160e01b0319821663780e9d6360e01b14806106e657506106e682611c12565b6119e084848484611c62565b6001811115611a4f5760405162461bcd60e51b815260206004820152603560248201527f455243373231456e756d657261626c653a20636f6e7365637574697665207472604482015274185b9cd9995c9cc81b9bdd081cdd5c1c1bdc9d1959605a1b6064820152608401610819565b816001600160a01b038516611aab57611aa681601080546000838152601160205260408120829055600182018355919091527f1b6847dc741a1b0cd08d278845f9d819d87b734759afb55fe2de5cb82a9ae6720155565b611ace565b836001600160a01b0316856001600160a01b031614611ace57611ace8582611cea565b6001600160a01b038416611aea57611ae581611d87565b611b0d565b846001600160a01b0316846001600160a01b031614611b0d57611b0d8482611e36565b5050505050565b60006001600160a01b0384163b15611c0a57604051630a85bd0160e11b81526001600160a01b0385169063150b7a0290611b589033908990889088906004016126fe565b6020604051808303816000875af1925050508015611b93575060408051601f3d908101601f19168201909252611b909181019061273b565b60015b611bf0573d808015611bc1576040519150601f19603f3d011682016040523d82523d6000602084013e611bc6565b606091505b508051600003611be85760405162461bcd60e51b8152600401610819906126ac565b805181602001fd5b6001600160e01b031916630a85bd0160e11b149050610c74565b506001610c74565b60006001600160e01b031982166380ac58cd60e01b1480611c4357506001600160e01b03198216635b5e139f60e01b145b806106e657506301ffc9a760e01b6001600160e01b03198316146106e6565b6001811115610fbd576001600160a01b03841615611ca8576001600160a01b0384166000908152600b602052604081208054839290611ca2908490612758565b90915550505b6001600160a01b03831615610fbd576001600160a01b0383166000908152600b602052604081208054839290611cdf90849061276b565b909155505050505050565b60006001611cf784610eb3565b611d019190612758565b6000838152600f6020526040902054909150808214611d54576001600160a01b0384166000908152600e602090815260408083208584528252808320548484528184208190558352600f90915290208190555b506000918252600f602090815260408084208490556001600160a01b039094168352600e81528383209183525290812055565b601054600090611d9990600190612758565b60008381526011602052604081205460108054939450909284908110611dc157611dc1612541565b906000526020600020015490508060108381548110611de257611de2612541565b6000918252602080832090910192909255828152601190915260408082208490558582528120556010805480611e1a57611e1a61277e565b6001900381819060005260206000200160009055905550505050565b6000611e4183610eb3565b6001600160a01b039093166000908152600e602090815260408083208684528252808320859055938252600f9052919091209190915550565b6001600160e01b0319811681146112a457600080fd5b600060208284031215611ea257600080fd5b8135611ead81611e7a565b9392505050565b6000815180845260005b81811015611eda57602081850181015186830182015201611ebe565b506000602082860101526020601f19601f83011685010191505092915050565b602081526000611ead6020830184611eb4565b600060208284031215611f1f57600080fd5b5035919050565b6001600160a01b03811681146112a457600080fd5b60008060408385031215611f4e57600080fd5b8235611f5981611f26565b946020939093013593505050565b600080600060608486031215611f7c57600080fd5b8335611f8781611f26565b92506020840135611f9781611f26565b929592945050506040919091013590565b600060208284031215611fba57600080fd5b8135611ead81611f26565b60008060408385031215611fd857600080fd5b50508035926020909101359150565b634e487b7160e01b600052604160045260246000fd5b600067ffffffffffffffff8084111561201857612018611fe7565b604051601f8501601f19908116603f0116810190828211818310171561204057612040611fe7565b8160405280935085815286868601111561205957600080fd5b858560208301376000602087830101525050509392505050565b600082601f83011261208457600080fd5b611ead83833560208501611ffd565b600080600080608085870312156120a957600080fd5b843567ffffffffffffffff808211156120c157600080fd5b6120cd88838901612073565b955060208701359150808211156120e357600080fd5b506120f087828801612073565b93505060408501356001600160601b038116811461210d57600080fd5b9396929550929360600135925050565b60006020828403121561212f57600080fd5b813567ffffffffffffffff81111561214657600080fd5b610c7484828501612073565b8381526001600160a01b038316602082015260606040820181905260009061217c90830184611eb4565b95945050505050565b6000806020838503121561219857600080fd5b823567ffffffffffffffff808211156121b057600080fd5b818501915085601f8301126121c457600080fd5b8135818111156121d357600080fd5b8660208285010111156121e557600080fd5b60209290920196919550909350505050565b6000806040838503121561220a57600080fd5b823561221581611f26565b91506020830135801515811461222a57600080fd5b809150509250929050565b6000806000806080858703121561224b57600080fd5b843561225681611f26565b9350602085013561226681611f26565b925060408501359150606085013567ffffffffffffffff81111561228957600080fd5b8501601f8101871361229a57600080fd5b6122a987823560208401611ffd565b91505092959194509250565b6020808252825182820181905260009190848201906040850190845b818110156122ed578351835292840192918401916001016122d1565b50909695505050505050565b6000806040838503121561230c57600080fd5b823561231781611f26565b9150602083013561222a81611f26565b600181811c9082168061233b57607f821691505b60208210810361235b57634e487b7160e01b600052602260045260246000fd5b50919050565b6020808252602d908201527f4552433732313a2063616c6c6572206973206e6f7420746f6b656e206f776e6560408201526c1c881bdc88185c1c1c9bdd9959609a1b606082015260800190565b634e487b7160e01b600052601160045260246000fd5b80820281158282048414176106e6576106e66123ae565b6000826123f857634e487b7160e01b600052601260045260246000fd5b500490565b60006020828403121561240f57600080fd5b8151611ead81611f26565b60006001820161242c5761242c6123ae565b5060010190565b601f8211156108ba57600081815260208120601f850160051c8101602086101561245a5750805b601f850160051c820191505b8181101561247957828155600101612466565b505050505050565b815167ffffffffffffffff81111561249b5761249b611fe7565b6124af816124a98454612327565b84612433565b602080601f8311600181146124e457600084156124cc5750858301515b600019600386901b1c1916600185901b178555612479565b600085815260208120601f198616915b82811015612513578886015182559484019460019091019084016124f4565b50858210156125315787850151600019600388901b60f8161c191681555b5050505050600190811b01905550565b634e487b7160e01b600052603260045260246000fd5b60208082526018908201527f4552433732313a20696e76616c696420746f6b656e2049440000000000000000604082015260600190565b67ffffffffffffffff8311156125a6576125a6611fe7565b6125ba836125b48354612327565b83612433565b6000601f8411600181146125ee57600085156125d65750838201355b600019600387901b1c1916600186901b178355611b0d565b600083815260209020601f19861690835b8281101561261f57868501358255602094850194600190920191016125ff565b508682101561263c5760001960f88860031b161c19848701351681555b505060018560011b0183555050505050565b60006020828403121561266057600080fd5b5051919050565b60208082526025908201527f4552433732313a207472616e736665722066726f6d20696e636f72726563742060408201526437bbb732b960d91b606082015260800190565b60208082526032908201527f4552433732313a207472616e7366657220746f206e6f6e20455243373231526560408201527131b2b4bb32b91034b6b83632b6b2b73a32b960711b606082015260800190565b6001600160a01b038581168252841660208201526040810183905260806060820181905260009061273190830184611eb4565b9695505050505050565b60006020828403121561274d57600080fd5b8151611ead81611e7a565b818103818111156106e6576106e66123ae565b808201808211156106e6576106e66123ae565b634e487b7160e01b600052603160045260246000fdfea26469706673582212202853fabeea88e616e7241fec8e8f4c7120757a44e7cc32b4187844aaa88f98f264736f6c63430008110033",
  "linkReferences": {},
  "deployedLinkReferences": {}
}