{
  "_format": "hh-sol-artifact-1",
  "contractName": "VWBLDataCollector",
  "sourceName": "contracts/VWBLDataCollector.sol",
  "abi": [
    {
      "inputs": [
        {
          "internalType": "address",
          "name": "_gatewayProxy",
          "type": "address"
        },
        {
          "internalType": "address",
          "name": "_prevAccessChecker",
          "type": "address"
        }
      ],
      "stateMutability": "nonpayable",
      "type": "constructor"
    },
    {
      "inputs": [],
      "name": "gatewayProxy",
      "outputs": [
        {
          "internalType": "address",
          "name": "",
          "type": "address"
        }
      ],
      "stateMutability": "view",
      "type": "function"
    },
    {
      "inputs": [
        {
          "internalType": "address",
          "name": "addr",
          "type": "address"
        }
      ],
      "name": "getAccessCheckerType",
      "outputs": [
        {
          "internalType": "uint256",
          "name": "",
          "type": "uint256"
        }
      ],
      "stateMutability": "view",
      "type": "function"
    },
    {
      "inputs": [],
      "name": "getAllAccessConditionContracts",
      "outputs": [
        {
          "internalType": "address[]",
          "name": "",
          "type": "address[]"
        }
      ],
      "stateMutability": "view",
      "type": "function"
    },
    {
      "inputs": [],
      "name": "getAllERC1155Contracts",
      "outputs": [
        {
          "internalType": "address[]",
          "name": "",
          "type": "address[]"
        }
      ],
      "stateMutability": "view",
      "type": "function"
    },
    {
      "inputs": [],
      "name": "getAllMintCount",
      "outputs": [
        {
          "internalType": "uint256",
          "name": "",
          "type": "uint256"
        }
      ],
      "stateMutability": "view",
      "type": "function"
    },
    {
      "inputs": [
        {
          "internalType": "address",
          "name": "user",
          "type": "address"
        }
      ],
      "name": "getAllMintedDocumentIds",
      "outputs": [
        {
          "internalType": "bytes32[]",
          "name": "",
          "type": "bytes32[]"
        }
      ],
      "stateMutability": "view",
      "type": "function"
    },
    {
      "inputs": [
        {
          "internalType": "address",
          "name": "user",
          "type": "address"
        }
      ],
      "name": "getAllMintedTokens",
      "outputs": [
        {
          "components": [
            {
              "internalType": "address",
              "name": "contractAddress",
              "type": "address"
            },
            {
              "internalType": "uint256",
              "name": "tokenId",
              "type": "uint256"
            },
            {
              "internalType": "string",
              "name": "tokenURI",
              "type": "string"
            }
          ],
          "internalType": "struct VWBLDataCollector.TokenInfo[]",
          "name": "",
          "type": "tuple[]"
        }
      ],
      "stateMutability": "view",
      "type": "function"
    },
    {
      "inputs": [
        {
          "internalType": "address",
          "name": "user",
          "type": "address"
        }
      ],
      "name": "getAllMintedTokensOfERC1155",
      "outputs": [
        {
          "components": [
            {
              "internalType": "address",
              "name": "contractAddress",
              "type": "address"
            },
            {
              "internalType": "uint256",
              "name": "tokenId",
              "type": "uint256"
            },
            {
              "internalType": "string",
              "name": "tokenURI",
              "type": "string"
            }
          ],
          "internalType": "struct VWBLDataCollector.TokenInfo[]",
          "name": "",
          "type": "tuple[]"
        }
      ],
      "stateMutability": "view",
      "type": "function"
    },
    {
      "inputs": [
        {
          "internalType": "address",
          "name": "user",
          "type": "address"
        }
      ],
      "name": "getAllMintedTokensOfNFT",
      "outputs": [
        {
          "components": [
            {
              "internalType": "address",
              "name": "contractAddress",
              "type": "address"
            },
            {
              "internalType": "uint256",
              "name": "tokenId",
              "type": "uint256"
            },
            {
              "internalType": "string",
              "name": "tokenURI",
              "type": "string"
            }
          ],
          "internalType": "struct VWBLDataCollector.TokenInfo[]",
          "name": "",
          "type": "tuple[]"
        }
      ],
      "stateMutability": "view",
      "type": "function"
    },
    {
      "inputs": [],
      "name": "getAllNFTContracts",
      "outputs": [
        {
          "internalType": "address[]",
          "name": "",
          "type": "address[]"
        }
      ],
      "stateMutability": "view",
      "type": "function"
    },
    {
      "inputs": [
        {
          "internalType": "address",
          "name": "user",
          "type": "address"
        }
      ],
      "name": "getAllOwnedDocumentIds",
      "outputs": [
        {
          "internalType": "bytes32[]",
          "name": "",
          "type": "bytes32[]"
        }
      ],
      "stateMutability": "view",
      "type": "function"
    },
    {
      "inputs": [
        {
          "internalType": "address",
          "name": "user",
          "type": "address"
        }
      ],
      "name": "getAllOwnedTokens",
      "outputs": [
        {
          "components": [
            {
              "internalType": "address",
              "name": "contractAddress",
              "type": "address"
            },
            {
              "internalType": "uint256",
              "name": "tokenId",
              "type": "uint256"
            },
            {
              "internalType": "string",
              "name": "tokenURI",
              "type": "string"
            }
          ],
          "internalType": "struct VWBLDataCollector.TokenInfo[]",
          "name": "",
          "type": "tuple[]"
        }
      ],
      "stateMutability": "view",
      "type": "function"
    },
    {
      "inputs": [
        {
          "internalType": "address",
          "name": "contractAddress",
          "type": "address"
        }
      ],
      "name": "getAllTokensFromOptionalContract",
      "outputs": [
        {
          "components": [
            {
              "internalType": "address",
              "name": "contractAddress",
              "type": "address"
            },
            {
              "internalType": "uint256",
              "name": "tokenId",
              "type": "uint256"
            },
            {
              "internalType": "string",
              "name": "tokenURI",
              "type": "string"
            }
          ],
          "internalType": "struct VWBLDataCollector.TokenInfo[]",
          "name": "",
          "type": "tuple[]"
        }
      ],
      "stateMutability": "view",
      "type": "function"
    },
    {
      "inputs": [],
      "name": "getAllVWBLContracts",
      "outputs": [
        {
          "internalType": "address[]",
          "name": "",
          "type": "address[]"
        }
      ],
      "stateMutability": "view",
      "type": "function"
    },
    {
      "inputs": [
        {
          "internalType": "address",
          "name": "contractAddress",
          "type": "address"
        },
        {
          "internalType": "uint256",
          "name": "tokenId",
          "type": "uint256"
        }
      ],
      "name": "getDocumentId",
      "outputs": [
        {
          "internalType": "bytes32",
          "name": "",
          "type": "bytes32"
        }
      ],
      "stateMutability": "view",
      "type": "function"
    },
    {
      "inputs": [],
      "name": "getERC1155AccessConditionContracts",
      "outputs": [
        {
          "internalType": "address[]",
          "name": "",
          "type": "address[]"
        }
      ],
      "stateMutability": "view",
      "type": "function"
    },
    {
      "inputs": [],
      "name": "getGatewayAddress",
      "outputs": [
        {
          "internalType": "address",
          "name": "",
          "type": "address"
        }
      ],
      "stateMutability": "view",
      "type": "function"
    },
    {
      "inputs": [
        {
          "internalType": "address",
          "name": "addr",
          "type": "address"
        }
      ],
      "name": "getMintCount",
      "outputs": [
        {
          "internalType": "uint256",
          "name": "",
          "type": "uint256"
        }
      ],
      "stateMutability": "view",
      "type": "function"
    },
    {
      "inputs": [],
      "name": "getNFTAccessConditionContracts",
      "outputs": [
        {
          "internalType": "address[]",
          "name": "",
          "type": "address[]"
        }
      ],
      "stateMutability": "view",
      "type": "function"
    },
    {
      "inputs": [
        {
          "internalType": "address",
          "name": "contractAddress",
          "type": "address"
        },
        {
          "internalType": "uint256",
          "name": "tokenId",
          "type": "uint256"
        }
      ],
      "name": "getNFTOwner",
      "outputs": [
        {
          "internalType": "address",
          "name": "",
          "type": "address"
        }
      ],
      "stateMutability": "view",
      "type": "function"
    },
    {
      "inputs": [
        {
          "internalType": "address",
          "name": "user",
          "type": "address"
        }
      ],
      "name": "getOwnedDocumentIdsOfERC1155",
      "outputs": [
        {
          "internalType": "bytes32[]",
          "name": "",
          "type": "bytes32[]"
        }
      ],
      "stateMutability": "view",
      "type": "function"
    },
    {
      "inputs": [
        {
          "internalType": "address",
          "name": "user",
          "type": "address"
        }
      ],
      "name": "getOwnedDocumentIdsOfNFT",
      "outputs": [
        {
          "internalType": "bytes32[]",
          "name": "",
          "type": "bytes32[]"
        }
      ],
      "stateMutability": "view",
      "type": "function"
    },
    {
      "inputs": [
        {
          "internalType": "address",
          "name": "user",
          "type": "address"
        }
      ],
      "name": "getOwnedERC1155s",
      "outputs": [
        {
          "components": [
            {
              "internalType": "address",
              "name": "contractAddress",
              "type": "address"
            },
            {
              "internalType": "uint256",
              "name": "tokenId",
              "type": "uint256"
            },
            {
              "internalType": "string",
              "name": "tokenURI",
              "type": "string"
            }
          ],
          "internalType": "struct VWBLDataCollector.TokenInfo[]",
          "name": "",
          "type": "tuple[]"
        }
      ],
      "stateMutability": "view",
      "type": "function"
    },
    {
      "inputs": [
        {
          "internalType": "address",
          "name": "user",
          "type": "address"
        }
      ],
      "name": "getOwnedNFTs",
      "outputs": [
        {
          "components": [
            {
              "internalType": "address",
              "name": "contractAddress",
              "type": "address"
            },
            {
              "internalType": "uint256",
              "name": "tokenId",
              "type": "uint256"
            },
            {
              "internalType": "string",
              "name": "tokenURI",
              "type": "string"
            }
          ],
          "internalType": "struct VWBLDataCollector.TokenInfo[]",
          "name": "",
          "type": "tuple[]"
        }
      ],
      "stateMutability": "view",
      "type": "function"
    },
    {
      "inputs": [
        {
          "internalType": "address",
          "name": "contractAddress",
          "type": "address"
        },
        {
          "internalType": "uint256",
          "name": "tokenId",
          "type": "uint256"
        }
      ],
      "name": "getTokenURI",
      "outputs": [
        {
          "internalType": "string",
          "name": "",
          "type": "string"
        }
      ],
      "stateMutability": "view",
      "type": "function"
    },
    {
      "inputs": [
        {
          "internalType": "address",
          "name": "addr",
          "type": "address"
        }
      ],
      "name": "getVWBLContractsFromOptionalChecker",
      "outputs": [
        {
          "internalType": "address[]",
          "name": "",
          "type": "address[]"
        }
      ],
      "stateMutability": "view",
      "type": "function"
    },
    {
      "inputs": [
        {
          "internalType": "address",
          "name": "addr",
          "type": "address"
        }
      ],
      "name": "getVWBLTokenType",
      "outputs": [
        {
          "internalType": "uint256",
          "name": "",
          "type": "uint256"
        }
      ],
      "stateMutability": "view",
      "type": "function"
    },
    {
      "inputs": [],
      "name": "prevAccessChecker",
      "outputs": [
        {
          "internalType": "address",
          "name": "",
          "type": "address"
        }
      ],
      "stateMutability": "view",
      "type": "function"
    }
  ],
  "bytecode": "0x60806040523480156200001157600080fd5b5060405162004b3c38038062004b3c833981016040819052620000349162000083565b600080546001600160a01b039384166001600160a01b03199182161790915560018054929093169116179055620000bb565b80516001600160a01b03811681146200007e57600080fd5b919050565b600080604083850312156200009757600080fd5b620000a28362000066565b9150620000b26020840162000066565b90509250929050565b614a7180620000cb6000396000f3fe608060405234801561001057600080fd5b50600436106101c45760003560e01c8063729963eb116100f9578063b88a921111610097578063c6444be411610071578063c6444be41461039c578063ca5a0958146103af578063cc6b69a6146103c2578063edc852a3146103d557600080fd5b8063b88a92111461036e578063baaac99914610376578063bef145641461038957600080fd5b80639050f74d116100d35780639050f74d14610338578063a2801f5714610340578063aac6baea14610353578063b41bde131461035b57600080fd5b8063729963eb1461031557806375d5848e1461031d5780637dd4899e1461032557600080fd5b80632b0fe35911610166578063375175df11610140578063375175df146102d457806359ee0a8b146102e7578063637dfb0c146102fa578063693e50aa1461030d57600080fd5b80632b0fe3591461028c5780632e5ba2481461029f57806335711346146102b457600080fd5b806318148f1b116101a257806318148f1b146102255780631993db7c146102385780631b5fad47146102595780632844ddf21461026c57600080fd5b806303ed4264146101c95780630b63fd62146101f25780630f915c6414610212575b600080fd5b6101dc6101d7366004614450565b6103e8565b6040516101e991906144c4565b60405180910390f35b61020561020036600461454c565b6107e9565b6040516101e99190614578565b6101dc610220366004614450565b61091c565b6101dc610233366004614450565b610cd8565b61024b61024636600461454c565b610f67565b6040519081526020016101e9565b61024b610267366004614450565b61108f565b61027f61027a366004614450565b6111d1565b6040516101e9919061458b565b61024b61029a366004614450565b61143c565b6102a761155f565b6040516101e991906145cf565b6102bc61183a565b6040516001600160a01b0390911681526020016101e9565b6101dc6102e2366004614450565b6118b7565b61027f6102f5366004614450565b611c73565b6102bc61030836600461454c565b611f44565b6102a761203e565b6102a7612279565b61024b6124f3565b6101dc610333366004614450565b61256a565b6102a76128b9565b61024b61034e366004614450565b612b46565b6102a7612baa565b6000546102bc906001600160a01b031681565b6102a7612dce565b61027f610384366004614450565b612ff2565b6001546102bc906001600160a01b031681565b6101dc6103aa366004614450565b6132c9565b61027f6103bd366004614450565b613558565b6102a76103d0366004614450565b6138f0565b6101dc6103e3366004614450565b613fe4565b606060006103f58361143c565b9050806001036105d8576000836001600160a01b03166361bc221a6040518163ffffffff1660e01b8152600401602060405180830381865afa15801561043f573d6000803e3d6000fd5b505050506040513d601f19601f820116820180604052508101906104639190614610565b90506000816001600160401b0381111561047f5761047f614629565b6040519080825280602002602001820160405280156104b857816020015b6104a5614411565b81526020019060019003908161049d5790505b50905060005b828110156105cf5760006104d3826001614655565b9050868383815181106104e8576104e8614668565b6020026020010151600001906001600160a01b031690816001600160a01b0316815250508083838151811061051f5761051f614668565b602090810291909101810151015260405163c87b56dd60e01b8152600481018290526001600160a01b0388169063c87b56dd90602401600060405180830381865afa158015610572573d6000803e3d6000fd5b505050506040513d6000823e601f3d908101601f1916820160405261059a9190810190614719565b8383815181106105ac576105ac614668565b6020026020010151604001819052505080806105c79061474d565b9150506104be565b50949350505050565b806002036107b0576000836001600160a01b03166361bc221a6040518163ffffffff1660e01b8152600401602060405180830381865afa158015610620573d6000803e3d6000fd5b505050506040513d601f19601f820116820180604052508101906106449190614610565b90506000816001600160401b0381111561066057610660614629565b60405190808252806020026020018201604052801561069957816020015b610686614411565b81526020019060019003908161067e5790505b50905060005b828110156105cf5760006106b4826001614655565b9050868383815181106106c9576106c9614668565b6020026020010151600001906001600160a01b031690816001600160a01b0316815250508083838151811061070057610700614668565b60209081029190910181015101526040516303a24d0760e21b8152600481018290526001600160a01b03881690630e89341c90602401600060405180830381865afa158015610753573d6000803e3d6000fd5b505050506040513d6000823e601f3d908101601f1916820160405261077b9190810190614719565b83838151811061078d5761078d614668565b6020026020010151604001819052505080806107a89061474d565b91505061069f565b60408051600080825260208201909252906107e1565b6107ce614411565b8152602001906001900390816107c65790505b509392505050565b60405163c87b56dd60e01b8152600481018290526060906001600160a01b0384169063c87b56dd90602401600060405180830381865afa92505050801561085257506040513d6000823e601f3d908101601f1916820160405261084f9190810190614719565b60015b610913576040516303a24d0760e21b8152600481018390526001600160a01b03841690630e89341c90602401600060405180830381865afa9250505080156108bc57506040513d6000823e601f3d908101601f191682016040526108b99190810190614719565b60015b610913576108fe6040518060400160405280601a81526020017f696e76616c69642061646472657373206f7220746f6b656e4964000000000000815250614333565b50604080516020810190915260008152610916565b90505b92915050565b6060600061092983613558565b9050600081516001600160401b0381111561094657610946614629565b60405190808252806020026020018201604052801561097f57816020015b61096c614411565b8152602001906001900390816109645790505b50905060005b82518110156107e157600061099861183a565b6001600160a01b031663c1e630318584815181106109b8576109b8614668565b60200260200101516040518263ffffffff1660e01b81526004016109de91815260200190565b602060405180830381865afa1580156109fb573d6000803e3d6000fd5b505050506040513d601f19601f82011682018060405250810190610a1f9190614766565b9050600080826001600160a01b031663eecbc309878681518110610a4557610a45614668565b60200260200101516040518263ffffffff1660e01b8152600401610a6b91815260200190565b6040805180830381865afa158015610a87573d6000803e3d6000fd5b505050506040513d601f19601f82011682018060405250810190610aab9190614783565b60405163c87b56dd60e01b81526004810182905291935091506001600160a01b0383169063c87b56dd90602401600060405180830381865afa925050508015610b1657506040513d6000823e601f3d908101601f19168201604052610b139190810190614719565b60015b610c44576040516303a24d0760e21b8152600481018290526001600160a01b03831690630e89341c90602401600060405180830381865afa925050508015610b8057506040513d6000823e601f3d908101601f19168201604052610b7d9190810190614719565b60015b610bc257610bbd604051806040016040528060188152602001771d5b995e1c1958dd195908195c9c9bdc881bd8d8dd5c995960421b815250614333565b610cc2565b82868681518110610bd557610bd5614668565b6020026020010151600001906001600160a01b031690816001600160a01b03168152505081868681518110610c0c57610c0c614668565b6020026020010151602001818152505080868681518110610c2f57610c2f614668565b60200260200101516040018190525050610cc2565b82868681518110610c5757610c57614668565b6020026020010151600001906001600160a01b031690816001600160a01b03168152505081868681518110610c8e57610c8e614668565b6020026020010151602001818152505080868681518110610cb157610cb1614668565b602002602001015160400181905250505b5050508080610cd09061474d565b915050610985565b60606000610ce583612ff2565b9050600081516001600160401b03811115610d0257610d02614629565b604051908082528060200260200182016040528015610d3b57816020015b610d28614411565b815260200190600190039081610d205790505b50905060005b82518110156107e1576000610d5461183a565b6001600160a01b031663c1e63031858481518110610d7457610d74614668565b60200260200101516040518263ffffffff1660e01b8152600401610d9a91815260200190565b602060405180830381865afa158015610db7573d6000803e3d6000fd5b505050506040513d601f19601f82011682018060405250810190610ddb9190614766565b9050600080826001600160a01b031663eecbc309878681518110610e0157610e01614668565b60200260200101516040518263ffffffff1660e01b8152600401610e2791815260200190565b6040805180830381865afa158015610e43573d6000803e3d6000fd5b505050506040513d601f19601f82011682018060405250810190610e679190614783565b9150915081858581518110610e7e57610e7e614668565b6020026020010151600001906001600160a01b031690816001600160a01b03168152505080858581518110610eb557610eb5614668565b602090810291909101810151015260405163c87b56dd60e01b8152600481018290526001600160a01b0383169063c87b56dd90602401600060405180830381865afa158015610f08573d6000803e3d6000fd5b505050506040513d6000823e601f3d908101601f19168201604052610f309190810190614719565b858581518110610f4257610f42614668565b6020026020010151604001819052505050508080610f5f9061474d565b915050610d41565b604051635fb8bcd560e01b8152600481018290526000906001600160a01b03841690635fb8bcd590602401600060405180830381865afa925050508015610fd057506040513d6000823e601f3d908101601f19168201604052610fcd91908101906147b1565b60015b61108457604051635fb8bcd560e01b8152600481018390526001600160a01b03841690635fb8bcd590602401600060405180830381865afa92505050801561103a57506040513d6000823e601f3d908101601f1916820160405261103791908101906147b1565b60015b6110845761107c6040518060400160405280601a81526020017f696e76616c69642061646472657373206f7220746f6b656e4964000000000000815250614333565b506000610916565b829350505050610916565b6001546000906001600160a01b03908116908316036110b057506001919050565b816001600160a01b0316637e8d065c6040518163ffffffff1660e01b8152600401600060405180830381865afa92505050801561110f57506040513d6000823e601f3d908101601f1916820160405261110c9190810190614934565b60015b6111bf57816001600160a01b03166380ebb8c66040518163ffffffff1660e01b8152600401600060405180830381865afa92505050801561117257506040513d6000823e601f3d908101601f1916820160405261116f9190810190614934565b60015b6111b5576111b06040518060400160405280601981526020017834b73b30b634b21030b2323932b9b9903bb0b99033b4bb32b760391b815250614333565b6111c9565b5060029392505050565b5060019392505050565b506000919050565b606060006111dd61183a565b6001600160a01b031663478f7a396040518163ffffffff1660e01b8152600401600060405180830381865afa15801561121a573d6000803e3d6000fd5b505050506040513d6000823e601f3d908101601f1916820160405261124291908101906149ab565b9050600081516001600160401b0381111561125f5761125f614629565b604051908082528060200260200182016040528015611288578160200160208202803683370190505b5090506000805b835181101561139657856001600160a01b03166112aa61183a565b6001600160a01b031663c6fd95ae8684815181106112ca576112ca614668565b60200260200101516040518263ffffffff1660e01b81526004016112f091815260200190565b602060405180830381865afa15801561130d573d6000803e3d6000fd5b505050506040513d601f19601f820116820180604052508101906113319190614766565b6001600160a01b0316036113845783818151811061135157611351614668565b602002602001015183838151811061136b5761136b614668565b6020908102919091010152816113808161474d565b9250505b8061138e8161474d565b91505061128f565b6000826001600160401b038111156113b0576113b0614629565b6040519080825280602002602001820160405280156113d9578160200160208202803683370190505b509050600091505b82821015611432578382815181106113fb576113fb614668565b602002602001015181838151811061141557611415614668565b60209081029190910101528161142a8161474d565b9250506113e1565b9695505050505050565b60405163c87b56dd60e01b8152600160048201526000906001600160a01b0383169063c87b56dd90602401600060405180830381865afa9250505080156114a557506040513d6000823e601f3d908101601f191682016040526114a29190810190614719565b60015b611556576040516303a24d0760e21b8152600160048201526001600160a01b03831690630e89341c90602401600060405180830381865afa92505050801561150f57506040513d6000823e601f3d908101601f1916820160405261150c9190810190614719565b60015b61154d576111b06040518060400160405280601981526020017834b73b30b634b21030b2323932b9b9903bb0b99033b4bb32b760391b815250614333565b50600292915050565b50600192915050565b6060600061156b61183a565b6001600160a01b031663478f7a396040518163ffffffff1660e01b8152600401600060405180830381865afa1580156115a8573d6000803e3d6000fd5b505050506040513d6000823e601f3d908101601f191682016040526115d091908101906149ab565b9050600081516001600160401b038111156115ed576115ed614629565b604051908082528060200260200182016040528015611616578160200160208202803683370190505b5090506000805b835182101561174357600061163061183a565b6001600160a01b031663c1e6303186858151811061165057611650614668565b60200260200101516040518263ffffffff1660e01b815260040161167691815260200190565b602060405180830381865afa158015611693573d6000803e3d6000fd5b505050506040513d601f19601f820116820180604052508101906116b79190614766565b905060006116c48261108f565b90508060011480156116dd57506116db8583614379565b155b1561172e57826116ec8161474d565b9350829050856116fd6001866149df565b8151811061170d5761170d614668565b60200260200101906001600160a01b031690816001600160a01b0316815250505b5050818061173b9061474d565b92505061161d565b6000611750826001614655565b6001600160401b0381111561176757611767614629565b604051908082528060200260200182016040528015611790578160200160208202803683370190505b509050600092505b818310156117f6578383815181106117b2576117b2614668565b60200260200101518184815181106117cc576117cc614668565b6001600160a01b0390921660209283029190910190910152826117ee8161474d565b935050611798565b60015481516001600160a01b039091169082908490811061181957611819614668565b6001600160a01b039092166020928302919091019091015295945050505050565b60008060009054906101000a90046001600160a01b03166001600160a01b031663357113466040518163ffffffff1660e01b8152600401602060405180830381865afa15801561188e573d6000803e3d6000fd5b505050506040513d601f19601f820116820180604052508101906118b29190614766565b905090565b606060006118c4836111d1565b9050600081516001600160401b038111156118e1576118e1614629565b60405190808252806020026020018201604052801561191a57816020015b611907614411565b8152602001906001900390816118ff5790505b50905060005b82518110156107e157600061193361183a565b6001600160a01b031663c1e6303185848151811061195357611953614668565b60200260200101516040518263ffffffff1660e01b815260040161197991815260200190565b602060405180830381865afa158015611996573d6000803e3d6000fd5b505050506040513d601f19601f820116820180604052508101906119ba9190614766565b9050600080826001600160a01b031663eecbc3098786815181106119e0576119e0614668565b60200260200101516040518263ffffffff1660e01b8152600401611a0691815260200190565b6040805180830381865afa158015611a22573d6000803e3d6000fd5b505050506040513d601f19601f82011682018060405250810190611a469190614783565b60405163c87b56dd60e01b81526004810182905291935091506001600160a01b0383169063c87b56dd90602401600060405180830381865afa925050508015611ab157506040513d6000823e601f3d908101601f19168201604052611aae9190810190614719565b60015b611bdf576040516303a24d0760e21b8152600481018290526001600160a01b03831690630e89341c90602401600060405180830381865afa925050508015611b1b57506040513d6000823e601f3d908101601f19168201604052611b189190810190614719565b60015b611b5d57611b58604051806040016040528060188152602001771d5b995e1c1958dd195908195c9c9bdc881bd8d8dd5c995960421b815250614333565b611c5d565b82868681518110611b7057611b70614668565b6020026020010151600001906001600160a01b031690816001600160a01b03168152505081868681518110611ba757611ba7614668565b6020026020010151602001818152505080868681518110611bca57611bca614668565b60200260200101516040018190525050611c5d565b82868681518110611bf257611bf2614668565b6020026020010151600001906001600160a01b031690816001600160a01b03168152505081868681518110611c2957611c29614668565b6020026020010151602001818152505080868681518110611c4c57611c4c614668565b602002602001015160400181905250505b5050508080611c6b9061474d565b915050611920565b60606000611c7f61183a565b6001600160a01b031663478f7a396040518163ffffffff1660e01b8152600401600060405180830381865afa158015611cbc573d6000803e3d6000fd5b505050506040513d6000823e601f3d908101601f19168201604052611ce491908101906149ab565b9050600081516001600160401b03811115611d0157611d01614629565b604051908082528060200260200182016040528015611d2a578160200160208202803683370190505b5090506000805b8351821015611ea8576000848381518110611d4e57611d4e614668565b602002602001015190506000611d6261183a565b6001600160a01b031663c1e63031836040518263ffffffff1660e01b8152600401611d8f91815260200190565b602060405180830381865afa158015611dac573d6000803e3d6000fd5b505050506040513d601f19601f82011682018060405250810190611dd09190614766565b9050611ddb8161108f565b6002148015611e565750604051635e14fa1560e11b81526001600160a01b0389811660048301526024820184905282169063bc29f42a90604401602060405180830381865afa158015611e32573d6000803e3d6000fd5b505050506040513d601f19601f82011682018060405250810190611e5691906149f2565b15611e935782611e658161474d565b935082905085611e766001866149df565b81518110611e8657611e86614668565b6020026020010181815250505b50508180611ea09061474d565b925050611d31565b6000816001600160401b03811115611ec257611ec2614629565b604051908082528060200260200182016040528015611eeb578160200160208202803683370190505b509050600092505b8183101561143257838381518110611f0d57611f0d614668565b6020026020010151818481518110611f2757611f27614668565b602090810291909101015282611f3c8161474d565b935050611ef3565b600080611f518484610f67565b90506000611f5d61183a565b6001600160a01b031663c1e63031836040518263ffffffff1660e01b8152600401611f8a91815260200190565b602060405180830381865afa158015611fa7573d6000803e3d6000fd5b505050506040513d601f19601f82011682018060405250810190611fcb9190614766565b604051626a1f6360e11b8152600481018490529091506001600160a01b0382169062d43ec690602401602060405180830381865afa158015612011573d6000803e3d6000fd5b505050506040513d601f19601f820116820180604052508101906120359190614766565b95945050505050565b6060600061204a612279565b9050600061205661183a565b6001600160a01b031663478f7a396040518163ffffffff1660e01b8152600401600060405180830381865afa158015612093573d6000803e3d6000fd5b505050506040513d6000823e601f3d908101601f191682016040526120bb91908101906149ab565b9050600081516001600160401b038111156120d8576120d8614629565b604051908082528060200260200182016040528015612101578160200160208202803683370190505b5090506000805b84518110156121c757600061213586838151811061212857612128614668565b60200260200101516138f0565b905060005b81518110156121b2578361214d8161474d565b94505081818151811061216257612162614668565b60200260200101518560018661217891906149df565b8151811061218857612188614668565b6001600160a01b0390921660209283029190910190910152806121aa8161474d565b91505061213a565b505080806121bf9061474d565b915050612108565b506000816001600160401b038111156121e2576121e2614629565b60405190808252806020026020018201604052801561220b578160200160208202803683370190505b50905060005b8281101561226f5783818151811061222b5761222b614668565b602002602001015182828151811061224557612245614668565b6001600160a01b0390921660209283029190910190910152806122678161474d565b915050612211565b5095945050505050565b6060600061228561183a565b6001600160a01b031663478f7a396040518163ffffffff1660e01b8152600401600060405180830381865afa1580156122c2573d6000803e3d6000fd5b505050506040513d6000823e601f3d908101601f191682016040526122ea91908101906149ab565b9050600081516001600160401b0381111561230757612307614629565b604051908082528060200260200182016040528015612330578160200160208202803683370190505b5090506000805b835182101561244057600061234a61183a565b6001600160a01b031663c1e6303186858151811061236a5761236a614668565b60200260200101516040518263ffffffff1660e01b815260040161239091815260200190565b602060405180830381865afa1580156123ad573d6000803e3d6000fd5b505050506040513d601f19601f820116820180604052508101906123d19190614766565b90506123dd8482614379565b61242d57816123eb8161474d565b9250819050846123fc6001856149df565b8151811061240c5761240c614668565b60200260200101906001600160a01b031690816001600160a01b0316815250505b50816124388161474d565b925050612337565b600061244d826001614655565b6001600160401b0381111561246457612464614629565b60405190808252806020026020018201604052801561248d578160200160208202803683370190505b509050600092505b818310156117f6578383815181106124af576124af614668565b60200260200101518184815181106124c9576124c9614668565b6001600160a01b0390921660209283029190910190910152826124eb8161474d565b935050612495565b6000806124fe61183a565b6001600160a01b031663478f7a396040518163ffffffff1660e01b8152600401600060405180830381865afa15801561253b573d6000803e3d6000fd5b505050506040513d6000823e601f3d908101601f1916820160405261256391908101906149ab565b5192915050565b60606000612577836111d1565b9050600081516001600160401b0381111561259457612594614629565b6040519080825280602002602001820160405280156125cd57816020015b6125ba614411565b8152602001906001900390816125b25790505b5090506000805b835181101561280c5760006125e761183a565b6001600160a01b031663c1e6303186848151811061260757612607614668565b60200260200101516040518263ffffffff1660e01b815260040161262d91815260200190565b602060405180830381865afa15801561264a573d6000803e3d6000fd5b505050506040513d601f19601f8201168201806040525081019061266e9190614766565b9050600080826001600160a01b031663eecbc30988868151811061269457612694614668565b60200260200101516040518263ffffffff1660e01b81526004016126ba91815260200190565b6040805180830381865afa1580156126d6573d6000803e3d6000fd5b505050506040513d601f19601f820116820180604052508101906126fa9190614783565b60405163c87b56dd60e01b81526004810182905291935091506001600160a01b0383169063c87b56dd90602401600060405180830381865afa92505050801561276557506040513d6000823e601f3d908101601f191682016040526127629190810190614719565b60015b156127f6578287878151811061277d5761277d614668565b6020026020010151600001906001600160a01b031690816001600160a01b031681525050818787815181106127b4576127b4614668565b60200260200101516020018181525050808787815181106127d7576127d7614668565b60200260200101516040018190525085806127f19061474d565b965050505b50505080806128049061474d565b9150506125d4565b6000826001600160401b0381111561282657612826614629565b60405190808252806020026020018201604052801561285f57816020015b61284c614411565b8152602001906001900390816128445790505b509050600091505b828210156114325783828151811061288157612881614668565b602002602001015181838151811061289b5761289b614668565b602002602001018190525081806128b19061474d565b925050612867565b606060006128c561183a565b6001600160a01b031663478f7a396040518163ffffffff1660e01b8152600401600060405180830381865afa158015612902573d6000803e3d6000fd5b505050506040513d6000823e601f3d908101601f1916820160405261292a91908101906149ab565b9050600081516001600160401b0381111561294757612947614629565b604051908082528060200260200182016040528015612970578160200160208202803683370190505b5090506000805b8351821015612a9d57600061298a61183a565b6001600160a01b031663c1e630318685815181106129aa576129aa614668565b60200260200101516040518263ffffffff1660e01b81526004016129d091815260200190565b602060405180830381865afa1580156129ed573d6000803e3d6000fd5b505050506040513d601f19601f82011682018060405250810190612a119190614766565b90506000612a1e8261108f565b9050806002148015612a375750612a358583614379565b155b15612a885782612a468161474d565b935082905085612a576001866149df565b81518110612a6757612a67614668565b60200260200101906001600160a01b031690816001600160a01b0316815250505b50508180612a959061474d565b925050612977565b6000816001600160401b03811115612ab757612ab7614629565b604051908082528060200260200182016040528015612ae0578160200160208202803683370190505b509050600092505b8183101561203557838381518110612b0257612b02614668565b6020026020010151818481518110612b1c57612b1c614668565b6001600160a01b039092166020928302919091019091015282612b3e8161474d565b935050612ae8565b6000816001600160a01b03166361bc221a6040518163ffffffff1660e01b8152600401602060405180830381865afa158015612b86573d6000803e3d6000fd5b505050506040513d601f19601f820116820180604052508101906109169190614610565b60606000612bb66128b9565b90506000612bc261183a565b6001600160a01b031663478f7a396040518163ffffffff1660e01b8152600401600060405180830381865afa158015612bff573d6000803e3d6000fd5b505050506040513d6000823e601f3d908101601f19168201604052612c2791908101906149ab565b9050600081516001600160401b03811115612c4457612c44614629565b604051908082528060200260200182016040528015612c6d578160200160208202803683370190505b5090506000805b8451811015612d26576000612c9486838151811061212857612128614668565b905060005b8151811015612d115783612cac8161474d565b945050818181518110612cc157612cc1614668565b602002602001015185600186612cd791906149df565b81518110612ce757612ce7614668565b6001600160a01b039092166020928302919091019091015280612d098161474d565b915050612c99565b50508080612d1e9061474d565b915050612c74565b506000816001600160401b03811115612d4157612d41614629565b604051908082528060200260200182016040528015612d6a578160200160208202803683370190505b50905060005b8281101561226f57838181518110612d8a57612d8a614668565b6020026020010151828281518110612da457612da4614668565b6001600160a01b039092166020928302919091019091015280612dc68161474d565b915050612d70565b60606000612dda61155f565b90506000612de661183a565b6001600160a01b031663478f7a396040518163ffffffff1660e01b8152600401600060405180830381865afa158015612e23573d6000803e3d6000fd5b505050506040513d6000823e601f3d908101601f19168201604052612e4b91908101906149ab565b9050600081516001600160401b03811115612e6857612e68614629565b604051908082528060200260200182016040528015612e91578160200160208202803683370190505b5090506000805b8451811015612f4a576000612eb886838151811061212857612128614668565b905060005b8151811015612f355783612ed08161474d565b945050818181518110612ee557612ee5614668565b602002602001015185600186612efb91906149df565b81518110612f0b57612f0b614668565b6001600160a01b039092166020928302919091019091015280612f2d8161474d565b915050612ebd565b50508080612f429061474d565b915050612e98565b506000816001600160401b03811115612f6557612f65614629565b604051908082528060200260200182016040528015612f8e578160200160208202803683370190505b50905060005b8281101561226f57838181518110612fae57612fae614668565b6020026020010151828281518110612fc857612fc8614668565b6001600160a01b039092166020928302919091019091015280612fea8161474d565b915050612f94565b60606000612ffe61183a565b6001600160a01b031663478f7a396040518163ffffffff1660e01b8152600401600060405180830381865afa15801561303b573d6000803e3d6000fd5b505050506040513d6000823e601f3d908101601f1916820160405261306391908101906149ab565b9050600081516001600160401b0381111561308057613080614629565b6040519080825280602002602001820160405280156130a9578160200160208202803683370190505b5090506000805b835182101561322d5760008483815181106130cd576130cd614668565b6020026020010151905060006130e161183a565b6001600160a01b031663c1e63031836040518263ffffffff1660e01b815260040161310e91815260200190565b602060405180830381865afa15801561312b573d6000803e3d6000fd5b505050506040513d601f19601f8201168201806040525081019061314f9190614766565b905061315a8161108f565b60011480156131db5750604051626a1f6360e11b8152600481018390526001600160a01b03808a16919083169062d43ec690602401602060405180830381865afa1580156131ac573d6000803e3d6000fd5b505050506040513d601f19601f820116820180604052508101906131d09190614766565b6001600160a01b0316145b1561321857826131ea8161474d565b9350829050856131fb6001866149df565b8151811061320b5761320b614668565b6020026020010181815250505b505081806132259061474d565b9250506130b0565b6000816001600160401b0381111561324757613247614629565b604051908082528060200260200182016040528015613270578160200160208202803683370190505b509050600092505b818310156114325783838151811061329257613292614668565b60200260200101518184815181106132ac576132ac614668565b6020908102919091010152826132c18161474d565b935050613278565b606060006132d683611c73565b9050600081516001600160401b038111156132f3576132f3614629565b60405190808252806020026020018201604052801561332c57816020015b613319614411565b8152602001906001900390816133115790505b50905060005b82518110156107e157600061334561183a565b6001600160a01b031663c1e6303185848151811061336557613365614668565b60200260200101516040518263ffffffff1660e01b815260040161338b91815260200190565b602060405180830381865afa1580156133a8573d6000803e3d6000fd5b505050506040513d601f19601f820116820180604052508101906133cc9190614766565b9050600080826001600160a01b031663eecbc3098786815181106133f2576133f2614668565b60200260200101516040518263ffffffff1660e01b815260040161341891815260200190565b6040805180830381865afa158015613434573d6000803e3d6000fd5b505050506040513d601f19601f820116820180604052508101906134589190614783565b915091508185858151811061346f5761346f614668565b6020026020010151600001906001600160a01b031690816001600160a01b031681525050808585815181106134a6576134a6614668565b60209081029190910181015101526040516303a24d0760e21b8152600481018290526001600160a01b03831690630e89341c90602401600060405180830381865afa1580156134f9573d6000803e3d6000fd5b505050506040513d6000823e601f3d908101601f191682016040526135219190810190614719565b85858151811061353357613533614668565b60200260200101516040018190525050505080806135509061474d565b915050613332565b6060600061356461183a565b6001600160a01b031663478f7a396040518163ffffffff1660e01b8152600401600060405180830381865afa1580156135a1573d6000803e3d6000fd5b505050506040513d6000823e601f3d908101601f191682016040526135c991908101906149ab565b9050600081516001600160401b038111156135e6576135e6614629565b60405190808252806020026020018201604052801561360f578160200160208202803683370190505b5090506000805b835182101561385457600084838151811061363357613633614668565b60200260200101519050600061364761183a565b6001600160a01b031663c1e63031836040518263ffffffff1660e01b815260040161367491815260200190565b602060405180830381865afa158015613691573d6000803e3d6000fd5b505050506040513d601f19601f820116820180604052508101906136b59190614766565b90506136c08161108f565b60011480156137415750604051626a1f6360e11b8152600481018390526001600160a01b03808a16919083169062d43ec690602401602060405180830381865afa158015613712573d6000803e3d6000fd5b505050506040513d601f19601f820116820180604052508101906137369190614766565b6001600160a01b0316145b1561377e57826137508161474d565b9350829050856137616001866149df565b8151811061377157613771614668565b6020026020010181815250505b6137878161108f565b60021480156138025750604051635e14fa1560e11b81526001600160a01b0389811660048301526024820184905282169063bc29f42a90604401602060405180830381865afa1580156137de573d6000803e3d6000fd5b505050506040513d601f19601f8201168201806040525081019061380291906149f2565b1561383f57826138118161474d565b9350829050856138226001866149df565b8151811061383257613832614668565b6020026020010181815250505b5050818061384c9061474d565b925050613616565b6000816001600160401b0381111561386e5761386e614629565b604051908082528060200260200182016040528015613897578160200160208202803683370190505b509050600092505b81831015611432578383815181106138b9576138b9614668565b60200260200101518184815181106138d3576138d3614668565b6020908102919091010152826138e88161474d565b93505061389f565b60015460609060009081906001600160a01b0390811690851603613b7057600061391861183a565b6001600160a01b031663478f7a396040518163ffffffff1660e01b8152600401600060405180830381865afa158015613955573d6000803e3d6000fd5b505050506040513d6000823e601f3d908101601f1916820160405261397d91908101906149ab565b9050600081516001600160401b0381111561399a5761399a614629565b6040519080825280602002602001820160405280156139c3578160200160208202803683370190505b509050600092505b8151831015613ac757856001600160a01b031663eecbc3098385815181106139f5576139f5614668565b60200260200101516040518263ffffffff1660e01b8152600401613a1b91815260200190565b6040805180830381865afa925050508015613a53575060408051601f3d908101601f19168201909252613a5091810190614783565b60015b15613ab557613a628383614379565b613ab25785613a708161474d565b965082905083613a816001896149df565b81518110613a9157613a91614668565b60200260200101906001600160a01b031690816001600160a01b0316815250505b50505b82613abf8161474d565b9350506139cb565b6000846001600160401b03811115613ae157613ae1614629565b604051908082528060200260200182016040528015613b0a578160200160208202803683370190505b509050600093505b8484101561143257818481518110613b2c57613b2c614668565b6020026020010151818581518110613b4657613b46614668565b6001600160a01b039092166020928302919091019091015283613b688161474d565b945050613b12565b836001600160a01b0316637e8d065c6040518163ffffffff1660e01b8152600401600060405180830381865afa925050508015613bcf57506040513d6000823e601f3d908101601f19168201604052613bcc9190810190614934565b60015b613e5057836001600160a01b03166380ebb8c66040518163ffffffff1660e01b8152600401600060405180830381865afa925050508015613c3257506040513d6000823e601f3d908101601f19168201604052613c2f9190810190614934565b60015b613ca057613c57604051806060016040528060278152602001614a1560279139614333565b816001600160401b03811115613c6f57613c6f614629565b6040519080825280602002602001820160405280156105cf5781602001602082028036833701905050949350505050565b600081516001600160401b03811115613cbb57613cbb614629565b604051908082528060200260200182016040528015613ce4578160200160208202803683370190505b509050600093505b8151841015613d9c57613d1c81838681518110613d0b57613d0b614668565b602002602001015160000151614379565b613d8a5784613d2a8161474d565b955050818481518110613d3f57613d3f614668565b60200260200101516000015181600187613d5991906149df565b81518110613d6957613d69614668565b60200260200101906001600160a01b031690816001600160a01b0316815250505b83613d948161474d565b945050613cec565b6000856001600160401b03811115613db657613db6614629565b604051908082528060200260200182016040528015613ddf578160200160208202803683370190505b509050600094505b85851015613e4557818581518110613e0157613e01614668565b6020026020010151818681518110613e1b57613e1b614668565b6001600160a01b039092166020928302919091019091015284613e3d8161474d565b955050613de7565b979650505050505050565b600081516001600160401b03811115613e6b57613e6b614629565b604051908082528060200260200182016040528015613e94578160200160208202803683370190505b509050600093505b8151841015613f3b57613ebb81838681518110613d0b57613d0b614668565b613f295784613ec98161474d565b955050818481518110613ede57613ede614668565b60200260200101516000015181600187613ef891906149df565b81518110613f0857613f08614668565b60200260200101906001600160a01b031690816001600160a01b0316815250505b83613f338161474d565b945050613e9c565b6000856001600160401b03811115613f5557613f55614629565b604051908082528060200260200182016040528015613f7e578160200160208202803683370190505b509050600094505b85851015613e4557818581518110613fa057613fa0614668565b6020026020010151818681518110613fba57613fba614668565b6001600160a01b039092166020928302919091019091015284613fdc8161474d565b955050613f86565b60606000613ff1836111d1565b9050600081516001600160401b0381111561400e5761400e614629565b60405190808252806020026020018201604052801561404757816020015b614034614411565b81526020019060019003908161402c5790505b5090506000805b835181101561428657600061406161183a565b6001600160a01b031663c1e6303186848151811061408157614081614668565b60200260200101516040518263ffffffff1660e01b81526004016140a791815260200190565b602060405180830381865afa1580156140c4573d6000803e3d6000fd5b505050506040513d601f19601f820116820180604052508101906140e89190614766565b9050600080826001600160a01b031663eecbc30988868151811061410e5761410e614668565b60200260200101516040518263ffffffff1660e01b815260040161413491815260200190565b6040805180830381865afa158015614150573d6000803e3d6000fd5b505050506040513d601f19601f820116820180604052508101906141749190614783565b6040516303a24d0760e21b81526004810182905291935091506001600160a01b03831690630e89341c90602401600060405180830381865afa9250505080156141df57506040513d6000823e601f3d908101601f191682016040526141dc9190810190614719565b60015b1561427057828787815181106141f7576141f7614668565b6020026020010151600001906001600160a01b031690816001600160a01b0316815250508187878151811061422e5761422e614668565b602002602001015160200181815250508087878151811061425157614251614668565b602002602001015160400181905250858061426b9061474d565b965050505b505050808061427e9061474d565b91505061404e565b6000826001600160401b038111156142a0576142a0614629565b6040519080825280602002602001820160405280156142d957816020015b6142c6614411565b8152602001906001900390816142be5790505b509050600091505b82821015611432578382815181106142fb576142fb614668565b602002602001015181838151811061431557614315614668565b6020026020010181905250818061432b9061474d565b9250506142e1565b614376816040516024016143479190614578565b60408051601f198184030181529190526020810180516001600160e01b031663104c13eb60e21b1790526143f0565b50565b6000825160000361438c57506000610916565b60005b83518110156143e657826001600160a01b03168482815181106143b4576143b4614668565b60200260200101516001600160a01b0316036143d4576001915050610916565b806143de8161474d565b91505061438f565b5060009392505050565b80516a636f6e736f6c652e6c6f67602083016000808483855afa5050505050565b604051806060016040528060006001600160a01b0316815260200160008152602001606081525090565b6001600160a01b038116811461437657600080fd5b60006020828403121561446257600080fd5b813561446d8161443b565b9392505050565b60005b8381101561448f578181015183820152602001614477565b50506000910152565b600081518084526144b0816020860160208601614474565b601f01601f19169290920160200192915050565b60006020808301818452808551808352604092508286019150828160051b87010184880160005b8381101561453e57888303603f19018552815180516001600160a01b031684528781015188850152860151606087850181905261452a81860183614498565b9689019694505050908601906001016144eb565b509098975050505050505050565b6000806040838503121561455f57600080fd5b823561456a8161443b565b946020939093013593505050565b60208152600061446d6020830184614498565b6020808252825182820181905260009190848201906040850190845b818110156145c3578351835292840192918401916001016145a7565b50909695505050505050565b6020808252825182820181905260009190848201906040850190845b818110156145c35783516001600160a01b0316835292840192918401916001016145eb565b60006020828403121561462257600080fd5b5051919050565b634e487b7160e01b600052604160045260246000fd5b634e487b7160e01b600052601160045260246000fd5b808201808211156109165761091661463f565b634e487b7160e01b600052603260045260246000fd5b604051601f8201601f191681016001600160401b03811182821017156146a6576146a6614629565b604052919050565b600082601f8301126146bf57600080fd5b81516001600160401b038111156146d8576146d8614629565b6146eb601f8201601f191660200161467e565b81815284602083860101111561470057600080fd5b614711826020830160208701614474565b949350505050565b60006020828403121561472b57600080fd5b81516001600160401b0381111561474157600080fd5b614711848285016146ae565b60006001820161475f5761475f61463f565b5060010190565b60006020828403121561477857600080fd5b815161446d8161443b565b6000806040838503121561479657600080fd5b82516147a18161443b565b6020939093015192949293505050565b6000806000606084860312156147c657600080fd5b8351925060208401516147d88161443b565b60408501519092506001600160401b038111156147f457600080fd5b614800868287016146ae565b9150509250925092565b60006001600160401b0382111561482357614823614629565b5060051b60200190565b600082601f83011261483e57600080fd5b8151602061485361484e8361480a565b61467e565b82815260059290921b8401810191818101908684111561487257600080fd5b8286015b8481101561488d5780518352918301918301614876565b509695505050505050565b60006148a661484e8461480a565b8381529050602080820190600685901b8401868111156148c557600080fd5b845b8181101561492957604080828a0312156148e15760008081fd5b80518181018181106001600160401b038211171561490157614901614629565b9091528151906149108261443b565b90815281840151848201528452928201926040016148c7565b505050509392505050565b6000806040838503121561494757600080fd5b82516001600160401b038082111561495e57600080fd5b61496a8683870161482d565b9350602085015191508082111561498057600080fd5b508301601f8101851361499257600080fd5b6149a185825160208401614898565b9150509250929050565b6000602082840312156149bd57600080fd5b81516001600160401b038111156149d357600080fd5b6147118482850161482d565b818103818111156109165761091661463f565b600060208284031215614a0457600080fd5b8151801515811461446d57600080fdfe7468652061646472657373206973206e6f74206e66742f6572633131353520636865636b65722ea26469706673582212209f4c4c88ef967fe8c1216fde7c822972e894085df78180e3c050cbdcc05fceff64736f6c63430008110033",
  "linkReferences": {},
  "deployedLinkReferences": {}
}