{
  "contractName": "VWBL",
  "abi": [
    {
      "inputs": [
        {
          "internalType": "string",
          "name": "_baseURI",
          "type": "string"
        },
        {
          "internalType": "address",
          "name": "_gatewayContract",
          "type": "address"
        }
      ],
      "stateMutability": "nonpayable",
      "type": "constructor"
    },
    {
      "anonymous": false,
      "inputs": [
        {
          "indexed": true,
          "internalType": "address",
          "name": "owner",
          "type": "address"
        },
        {
          "indexed": true,
          "internalType": "address",
          "name": "approved",
          "type": "address"
        },
        {
          "indexed": true,
          "internalType": "uint256",
          "name": "tokenId",
          "type": "uint256"
        }
      ],
      "name": "Approval",
      "type": "event"
    },
    {
      "anonymous": false,
      "inputs": [
        {
          "indexed": true,
          "internalType": "address",
          "name": "owner",
          "type": "address"
        },
        {
          "indexed": true,
          "internalType": "address",
          "name": "operator",
          "type": "address"
        },
        {
          "indexed": false,
          "internalType": "bool",
          "name": "approved",
          "type": "bool"
        }
      ],
      "name": "ApprovalForAll",
      "type": "event"
    },
    {
      "anonymous": false,
      "inputs": [
        {
          "indexed": true,
          "internalType": "address",
          "name": "previousOwner",
          "type": "address"
        },
        {
          "indexed": true,
          "internalType": "address",
          "name": "newOwner",
          "type": "address"
        }
      ],
      "name": "OwnershipTransferred",
      "type": "event"
    },
    {
      "anonymous": false,
      "inputs": [
        {
          "indexed": true,
          "internalType": "address",
          "name": "from",
          "type": "address"
        },
        {
          "indexed": true,
          "internalType": "address",
          "name": "to",
          "type": "address"
        },
        {
          "indexed": true,
          "internalType": "uint256",
          "name": "tokenId",
          "type": "uint256"
        }
      ],
      "name": "Transfer",
      "type": "event"
    },
    {
      "anonymous": false,
      "inputs": [
        {
          "indexed": false,
          "internalType": "address",
          "name": "oldGatewayContract",
          "type": "address"
        },
        {
          "indexed": false,
          "internalType": "address",
          "name": "newGatewayContract",
          "type": "address"
        }
      ],
      "name": "gatewayContractChanged",
      "type": "event"
    },
    {
      "inputs": [],
      "name": "INVERSE_BASIS_POINT",
      "outputs": [
        {
          "internalType": "uint256",
          "name": "",
          "type": "uint256"
        }
      ],
      "stateMutability": "view",
      "type": "function"
    },
    {
      "inputs": [
        {
          "internalType": "address",
          "name": "to",
          "type": "address"
        },
        {
          "internalType": "uint256",
          "name": "tokenId",
          "type": "uint256"
        }
      ],
      "name": "approve",
      "outputs": [],
      "stateMutability": "nonpayable",
      "type": "function"
    },
    {
      "inputs": [
        {
          "internalType": "address",
          "name": "owner",
          "type": "address"
        }
      ],
      "name": "balanceOf",
      "outputs": [
        {
          "internalType": "uint256",
          "name": "",
          "type": "uint256"
        }
      ],
      "stateMutability": "view",
      "type": "function"
    },
    {
      "inputs": [],
      "name": "baseURI",
      "outputs": [
        {
          "internalType": "string",
          "name": "",
          "type": "string"
        }
      ],
      "stateMutability": "view",
      "type": "function"
    },
    {
      "inputs": [],
      "name": "counter",
      "outputs": [
        {
          "internalType": "uint256",
          "name": "",
          "type": "uint256"
        }
      ],
      "stateMutability": "view",
      "type": "function"
    },
    {
      "inputs": [],
      "name": "gatewayContract",
      "outputs": [
        {
          "internalType": "address",
          "name": "",
          "type": "address"
        }
      ],
      "stateMutability": "view",
      "type": "function"
    },
    {
      "inputs": [
        {
          "internalType": "uint256",
          "name": "tokenId",
          "type": "uint256"
        }
      ],
      "name": "getApproved",
      "outputs": [
        {
          "internalType": "address",
          "name": "",
          "type": "address"
        }
      ],
      "stateMutability": "view",
      "type": "function"
    },
    {
      "inputs": [
        {
          "internalType": "address",
          "name": "minter",
          "type": "address"
        }
      ],
      "name": "getTokenByMinter",
      "outputs": [
        {
          "internalType": "uint256[]",
          "name": "",
          "type": "uint256[]"
        }
      ],
      "stateMutability": "view",
      "type": "function"
    },
    {
      "inputs": [
        {
          "internalType": "address",
          "name": "owner",
          "type": "address"
        },
        {
          "internalType": "address",
          "name": "operator",
          "type": "address"
        }
      ],
      "name": "isApprovedForAll",
      "outputs": [
        {
          "internalType": "bool",
          "name": "",
          "type": "bool"
        }
      ],
      "stateMutability": "view",
      "type": "function"
    },
    {
      "inputs": [],
      "name": "name",
      "outputs": [
        {
          "internalType": "string",
          "name": "",
          "type": "string"
        }
      ],
      "stateMutability": "view",
      "type": "function"
    },
    {
      "inputs": [],
      "name": "owner",
      "outputs": [
        {
          "internalType": "address",
          "name": "",
          "type": "address"
        }
      ],
      "stateMutability": "view",
      "type": "function"
    },
    {
      "inputs": [
        {
          "internalType": "uint256",
          "name": "tokenId",
          "type": "uint256"
        }
      ],
      "name": "ownerOf",
      "outputs": [
        {
          "internalType": "address",
          "name": "",
          "type": "address"
        }
      ],
      "stateMutability": "view",
      "type": "function"
    },
    {
      "inputs": [],
      "name": "renounceOwnership",
      "outputs": [],
      "stateMutability": "nonpayable",
      "type": "function"
    },
    {
      "inputs": [
        {
          "internalType": "uint256",
          "name": "_tokenId",
          "type": "uint256"
        },
        {
          "internalType": "uint256",
          "name": "_salePrice",
          "type": "uint256"
        }
      ],
      "name": "royaltyInfo",
      "outputs": [
        {
          "internalType": "address",
          "name": "receiver",
          "type": "address"
        },
        {
          "internalType": "uint256",
          "name": "royaltyAmount",
          "type": "uint256"
        }
      ],
      "stateMutability": "view",
      "type": "function"
    },
    {
      "inputs": [
        {
          "internalType": "address",
          "name": "from",
          "type": "address"
        },
        {
          "internalType": "address",
          "name": "to",
          "type": "address"
        },
        {
          "internalType": "uint256",
          "name": "tokenId",
          "type": "uint256"
        }
      ],
      "name": "safeTransferFrom",
      "outputs": [],
      "stateMutability": "nonpayable",
      "type": "function"
    },
    {
      "inputs": [
        {
          "internalType": "address",
          "name": "from",
          "type": "address"
        },
        {
          "internalType": "address",
          "name": "to",
          "type": "address"
        },
        {
          "internalType": "uint256",
          "name": "tokenId",
          "type": "uint256"
        },
        {
          "internalType": "bytes",
          "name": "_data",
          "type": "bytes"
        }
      ],
      "name": "safeTransferFrom",
      "outputs": [],
      "stateMutability": "nonpayable",
      "type": "function"
    },
    {
      "inputs": [
        {
          "internalType": "address",
          "name": "operator",
          "type": "address"
        },
        {
          "internalType": "bool",
          "name": "approved",
          "type": "bool"
        }
      ],
      "name": "setApprovalForAll",
      "outputs": [],
      "stateMutability": "nonpayable",
      "type": "function"
    },
    {
      "inputs": [
        {
          "internalType": "bytes4",
          "name": "interfaceId",
          "type": "bytes4"
        }
      ],
      "name": "supportsInterface",
      "outputs": [
        {
          "internalType": "bool",
          "name": "",
          "type": "bool"
        }
      ],
      "stateMutability": "view",
      "type": "function"
    },
    {
      "inputs": [],
      "name": "symbol",
      "outputs": [
        {
          "internalType": "string",
          "name": "",
          "type": "string"
        }
      ],
      "stateMutability": "view",
      "type": "function"
    },
    {
      "inputs": [
        {
          "internalType": "uint256",
          "name": "index",
          "type": "uint256"
        }
      ],
      "name": "tokenByIndex",
      "outputs": [
        {
          "internalType": "uint256",
          "name": "",
          "type": "uint256"
        }
      ],
      "stateMutability": "view",
      "type": "function"
    },
    {
      "inputs": [
        {
          "internalType": "uint256",
          "name": "",
          "type": "uint256"
        }
      ],
      "name": "tokenIdToRoyaltyInfo",
      "outputs": [
        {
          "internalType": "address",
          "name": "recipient",
          "type": "address"
        },
        {
          "internalType": "uint256",
          "name": "royaltiesPercentage",
          "type": "uint256"
        }
      ],
      "stateMutability": "view",
      "type": "function"
    },
    {
      "inputs": [
        {
          "internalType": "uint256",
          "name": "",
          "type": "uint256"
        }
      ],
      "name": "tokenIdToTokenInfo",
      "outputs": [
        {
          "internalType": "address",
          "name": "minterAddress",
          "type": "address"
        },
        {
          "internalType": "string",
          "name": "getKeyURl",
          "type": "string"
        }
      ],
      "stateMutability": "view",
      "type": "function"
    },
    {
      "inputs": [
        {
          "internalType": "address",
          "name": "owner",
          "type": "address"
        },
        {
          "internalType": "uint256",
          "name": "index",
          "type": "uint256"
        }
      ],
      "name": "tokenOfOwnerByIndex",
      "outputs": [
        {
          "internalType": "uint256",
          "name": "",
          "type": "uint256"
        }
      ],
      "stateMutability": "view",
      "type": "function"
    },
    {
      "inputs": [
        {
          "internalType": "uint256",
          "name": "tokenId",
          "type": "uint256"
        }
      ],
      "name": "tokenURI",
      "outputs": [
        {
          "internalType": "string",
          "name": "",
          "type": "string"
        }
      ],
      "stateMutability": "view",
      "type": "function"
    },
    {
      "inputs": [],
      "name": "totalSupply",
      "outputs": [
        {
          "internalType": "uint256",
          "name": "",
          "type": "uint256"
        }
      ],
      "stateMutability": "view",
      "type": "function"
    },
    {
      "inputs": [
        {
          "internalType": "address",
          "name": "from",
          "type": "address"
        },
        {
          "internalType": "address",
          "name": "to",
          "type": "address"
        },
        {
          "internalType": "uint256",
          "name": "tokenId",
          "type": "uint256"
        }
      ],
      "name": "transferFrom",
      "outputs": [],
      "stateMutability": "nonpayable",
      "type": "function"
    },
    {
      "inputs": [
        {
          "internalType": "address",
          "name": "newOwner",
          "type": "address"
        }
      ],
      "name": "transferOwnership",
      "outputs": [],
      "stateMutability": "nonpayable",
      "type": "function"
    },
    {
      "inputs": [
        {
          "internalType": "string",
          "name": "_baseURI",
          "type": "string"
        }
      ],
      "name": "setBaseURI",
      "outputs": [],
      "stateMutability": "nonpayable",
      "type": "function"
    },
    {
      "inputs": [
        {
          "internalType": "address",
          "name": "newGatewayContract",
          "type": "address"
        }
      ],
      "name": "setGatewayContract",
      "outputs": [],
      "stateMutability": "nonpayable",
      "type": "function"
    },
    {
      "inputs": [],
      "name": "getFee",
      "outputs": [
        {
          "internalType": "uint256",
          "name": "",
          "type": "uint256"
        }
      ],
      "stateMutability": "view",
      "type": "function"
    },
    {
      "inputs": [
        {
          "internalType": "string",
          "name": "_getKeyURl",
          "type": "string"
        },
        {
          "internalType": "uint256",
          "name": "_royaltiesPercentage",
          "type": "uint256"
        }
      ],
      "name": "mint",
      "outputs": [
        {
          "internalType": "uint256",
          "name": "",
          "type": "uint256"
        }
      ],
      "stateMutability": "nonpayable",
      "type": "function"
    },
    {
      "inputs": [
        {
          "internalType": "string",
          "name": "_getKeyURl",
          "type": "string"
        },
        {
          "internalType": "uint256",
          "name": "_royaltiesPercentage",
          "type": "uint256"
        },
        {
          "internalType": "bytes32",
          "name": "documentId",
          "type": "bytes32"
        }
      ],
      "name": "mint",
      "outputs": [
        {
          "internalType": "uint256",
          "name": "",
          "type": "uint256"
        }
      ],
      "stateMutability": "payable",
      "type": "function"
    }
  ],
  "bytecode": "0x60806040526000600a553480156200001657600080fd5b506040516200276238038062002762833981016040819052620000399162000217565b6040805180820182526004808252631595d09360e21b60208084018281528551808701909652928552840152815191929162000078916000916200013e565b5080516200008e9060019060208401906200013e565b505050620000ab620000a5620000e860201b60201c565b620000ec565b8151620000c090600e9060208501906200013e565b50600f80546001600160a01b0319166001600160a01b03929092169190911790555062000345565b3390565b600d80546001600160a01b038381166001600160a01b0319831681179093556040519116919082907f8be0079c531659141344cd1fd0a4f28419497f9722a3daafe3b4186f6b6457e090600090a35050565b8280546200014c9062000308565b90600052602060002090601f016020900481019282620001705760008555620001bb565b82601f106200018b57805160ff1916838001178555620001bb565b82800160010185558215620001bb579182015b82811115620001bb5782518255916020019190600101906200019e565b50620001c9929150620001cd565b5090565b5b80821115620001c95760008155600101620001ce565b634e487b7160e01b600052604160045260246000fd5b80516001600160a01b03811681146200021257600080fd5b919050565b600080604083850312156200022b57600080fd5b82516001600160401b03808211156200024357600080fd5b818501915085601f8301126200025857600080fd5b8151818111156200026d576200026d620001e4565b604051601f8201601f19908116603f01168101908382118183101715620002985762000298620001e4565b81604052828152602093508884848701011115620002b557600080fd5b600091505b82821015620002d95784820184015181830185015290830190620002ba565b82821115620002eb5760008484830101525b9550620002fd915050858201620001fa565b925050509250929050565b600181811c908216806200031d57607f821691505b602082108114156200033f57634e487b7160e01b600052602260045260246000fd5b50919050565b61240d80620003556000396000f3fe6080604052600436106101e35760003560e01c80636352211e11610102578063c87b56dd11610095578063de5bb4b711610064578063de5bb4b7146105b4578063e985e9c5146105c7578063eb0cde1d14610610578063f2fde38b1461063057600080fd5b8063c87b56dd1461053c578063cae6047f1461055c578063ce5af33614610572578063ced72f871461059f57600080fd5b80638da5cb5b116100d15780638da5cb5b146104c957806395d89b41146104e7578063a22cb465146104fc578063b88d4fde1461051c57600080fd5b80636352211e1461045f5780636c0360eb1461047f57806370a0823114610494578063715018a6146104b457600080fd5b80632a55205a1161017a57806350932cb51161014957806350932cb5146103db57806355f804b3146103fb5780635fb8bcd51461041b57806361bc221a1461044957600080fd5b80632a55205a1461035b5780632f745c591461037b57806342842e0e1461039b5780634f6ccce7146103bb57600080fd5b8063095ea7b3116101b6578063095ea7b3146102a557806318160ddd146102c757806319daf1bf146102dc57806323b872dd1461033b57600080fd5b806301ffc9a7146101e8578063056b01ce1461021d57806306fdde031461024b578063081812fc1461026d575b600080fd5b3480156101f457600080fd5b50610208610203366004611d12565b610650565b60405190151581526020015b60405180910390f35b34801561022957600080fd5b5061023d610238366004611ddb565b61067b565b604051908152602001610214565b34801561025757600080fd5b50610260610707565b6040516102149190611e78565b34801561027957600080fd5b5061028d610288366004611e8b565b610799565b6040516001600160a01b039091168152602001610214565b3480156102b157600080fd5b506102c56102c0366004611ec0565b610833565b005b3480156102d357600080fd5b5060085461023d565b3480156102e857600080fd5b5061031c6102f7366004611e8b565b600c60205260009081526040902080546001909101546001600160a01b039091169082565b604080516001600160a01b039093168352602083019190915201610214565b34801561034757600080fd5b506102c5610356366004611eea565b610949565b34801561036757600080fd5b5061031c610376366004611f26565b61097a565b34801561038757600080fd5b5061023d610396366004611ec0565b6109d4565b3480156103a757600080fd5b506102c56103b6366004611eea565b610a6a565b3480156103c757600080fd5b5061023d6103d6366004611e8b565b610a85565b3480156103e757600080fd5b506102c56103f6366004611f48565b610b18565b34801561040757600080fd5b506102c5610416366004611f63565b610bbe565b34801561042757600080fd5b5061043b610436366004611e8b565b610bff565b604051610214929190611f98565b34801561045557600080fd5b5061023d600a5481565b34801561046b57600080fd5b5061028d61047a366004611e8b565b610cae565b34801561048b57600080fd5b50610260610d25565b3480156104a057600080fd5b5061023d6104af366004611f48565b610db3565b3480156104c057600080fd5b506102c5610e3a565b3480156104d557600080fd5b50600d546001600160a01b031661028d565b3480156104f357600080fd5b50610260610e70565b34801561050857600080fd5b506102c5610517366004611fbc565b610e7f565b34801561052857600080fd5b506102c5610537366004611ff8565b610e8a565b34801561054857600080fd5b50610260610557366004611e8b565b610ec2565b34801561056857600080fd5b5061023d61271081565b34801561057e57600080fd5b5061059261058d366004611f48565b610f9c565b6040516102149190612074565b3480156105ab57600080fd5b5061023d61105b565b61023d6105c23660046120b8565b6110ce565b3480156105d357600080fd5b506102086105e2366004612106565b6001600160a01b03918216600090815260056020908152604080832093909416825291909152205460ff1690565b34801561061c57600080fd5b50600f5461028d906001600160a01b031681565b34801561063c57600080fd5b506102c561064b366004611f48565b611152565b60006001600160e01b0319821663152a902d60e11b14806106755750610675826111ed565b92915050565b600080600a6000815461068d9061214f565b91829055506000818152600b6020908152604090912080546001600160a01b0319163317815586519293506106ca92600190910191870190611c63565b506106d53382611212565b8215610700576000818152600c6020526040902080546001600160a01b031916331781556001018390555b9392505050565b6060600080546107169061216a565b80601f01602080910402602001604051908101604052809291908181526020018280546107429061216a565b801561078f5780601f106107645761010080835404028352916020019161078f565b820191906000526020600020905b81548152906001019060200180831161077257829003601f168201915b5050505050905090565b6000818152600260205260408120546001600160a01b03166108175760405162461bcd60e51b815260206004820152602c60248201527f4552433732313a20617070726f76656420717565727920666f72206e6f6e657860448201526b34b9ba32b73a103a37b5b2b760a11b60648201526084015b60405180910390fd5b506000908152600460205260409020546001600160a01b031690565b600061083e82610cae565b9050806001600160a01b0316836001600160a01b031614156108ac5760405162461bcd60e51b815260206004820152602160248201527f4552433732313a20617070726f76616c20746f2063757272656e74206f776e656044820152603960f91b606482015260840161080e565b336001600160a01b03821614806108c857506108c881336105e2565b61093a5760405162461bcd60e51b815260206004820152603860248201527f4552433732313a20617070726f76652063616c6c6572206973206e6f74206f7760448201527f6e6572206e6f7220617070726f76656420666f7220616c6c0000000000000000606482015260840161080e565b6109448383611360565b505050565b61095333826113ce565b61096f5760405162461bcd60e51b815260040161080e906121a5565b6109448383836114c5565b6000828152600c60209081526040808320815180830190925280546001600160a01b031682526001015491810182905282918290612710906109bc90876121f6565b6109c6919061222b565b915196919550909350505050565b60006109df83610db3565b8210610a415760405162461bcd60e51b815260206004820152602b60248201527f455243373231456e756d657261626c653a206f776e657220696e646578206f7560448201526a74206f6620626f756e647360a81b606482015260840161080e565b506001600160a01b03919091166000908152600660209081526040808320938352929052205490565b61094483838360405180602001604052806000815250610e8a565b6000610a9060085490565b8210610af35760405162461bcd60e51b815260206004820152602c60248201527f455243373231456e756d657261626c653a20676c6f62616c20696e646578206f60448201526b7574206f6620626f756e647360a01b606482015260840161080e565b60088281548110610b0657610b0661223f565b90600052602060002001549050919050565b600d546001600160a01b03163314610b425760405162461bcd60e51b815260040161080e90612255565b600f546001600160a01b0382811691161415610b5d57600080fd5b600f80546001600160a01b038381166001600160a01b031983168117909355604080519190921680825260208201939093527f9b015b8749c8a182300e9c8c7699c761729b84ff89651162dd89881ff1273f63910160405180910390a15050565b600d546001600160a01b03163314610be85760405162461bcd60e51b815260040161080e90612255565b8051610bfb90600e906020840190611c63565b5050565b600b60205260009081526040902080546001820180546001600160a01b039092169291610c2b9061216a565b80601f0160208091040260200160405190810160405280929190818152602001828054610c579061216a565b8015610ca45780601f10610c7957610100808354040283529160200191610ca4565b820191906000526020600020905b815481529060010190602001808311610c8757829003601f168201915b5050505050905082565b6000818152600260205260408120546001600160a01b0316806106755760405162461bcd60e51b815260206004820152602960248201527f4552433732313a206f776e657220717565727920666f72206e6f6e657869737460448201526832b73a103a37b5b2b760b91b606482015260840161080e565b600e8054610d329061216a565b80601f0160208091040260200160405190810160405280929190818152602001828054610d5e9061216a565b8015610dab5780601f10610d8057610100808354040283529160200191610dab565b820191906000526020600020905b815481529060010190602001808311610d8e57829003601f168201915b505050505081565b60006001600160a01b038216610e1e5760405162461bcd60e51b815260206004820152602a60248201527f4552433732313a2062616c616e636520717565727920666f7220746865207a65604482015269726f206164647265737360b01b606482015260840161080e565b506001600160a01b031660009081526003602052604090205490565b600d546001600160a01b03163314610e645760405162461bcd60e51b815260040161080e90612255565b610e6e600061166c565b565b6060600180546107169061216a565b610bfb3383836116be565b610e9433836113ce565b610eb05760405162461bcd60e51b815260040161080e906121a5565b610ebc8484848461178d565b50505050565b6000818152600260205260409020546060906001600160a01b0316610f415760405162461bcd60e51b815260206004820152602f60248201527f4552433732314d657461646174613a2055524920717565727920666f72206e6f60448201526e3732bc34b9ba32b73a103a37b5b2b760891b606482015260840161080e565b6000610f4b6117c0565b90506000815111610f6b5760405180602001604052806000815250610700565b80610f75846117cf565b604051602001610f8692919061228a565b6040516020818303038152906040529392505050565b6060600080600a5467ffffffffffffffff811115610fbc57610fbc611d2f565b604051908082528060200260200182016040528015610fe5578160200160208202803683370190505b50905060015b600a548111611053576000818152600b60205260409020546001600160a01b0386811691161415611041578082846110228161214f565b9550815181106110345761103461223f565b6020026020010181815250505b8061104b8161214f565b915050610feb565b509392505050565b600f546040805163428c090b60e01b815290516000926001600160a01b03169163428c090b9160048083019260209291908290030181865afa1580156110a5573d6000803e3d6000fd5b505050506040513d601f19601f820116820180604052508101906110c991906122b9565b905090565b6000806110db858561067b565b600f5460405163292571e360e11b815260048101869052306024820152604481018390529192506001600160a01b03169063524ae3c69034906064016000604051808303818588803b15801561113057600080fd5b505af1158015611144573d6000803e3d6000fd5b509398975050505050505050565b600d546001600160a01b0316331461117c5760405162461bcd60e51b815260040161080e90612255565b6001600160a01b0381166111e15760405162461bcd60e51b815260206004820152602660248201527f4f776e61626c653a206e6577206f776e657220697320746865207a65726f206160448201526564647265737360d01b606482015260840161080e565b6111ea8161166c565b50565b60006001600160e01b0319821663780e9d6360e01b14806106755750610675826118cd565b6001600160a01b0382166112685760405162461bcd60e51b815260206004820181905260248201527f4552433732313a206d696e7420746f20746865207a65726f2061646472657373604482015260640161080e565b6000818152600260205260409020546001600160a01b0316156112cd5760405162461bcd60e51b815260206004820152601c60248201527f4552433732313a20746f6b656e20616c7265616479206d696e74656400000000604482015260640161080e565b6112d96000838361191d565b6001600160a01b03821660009081526003602052604081208054600192906113029084906122d2565b909155505060008181526002602052604080822080546001600160a01b0319166001600160a01b03861690811790915590518392907fddf252ad1be2c89b69c2b068fc378daa952ba7f163c4a11628f55a4df523b3ef908290a45050565b600081815260046020526040902080546001600160a01b0319166001600160a01b038416908117909155819061139582610cae565b6001600160a01b03167f8c5be1e5ebec7d5bd14f71427d1e84f3dd0314c0f7b2291e5b200ac8c7c3b92560405160405180910390a45050565b6000818152600260205260408120546001600160a01b03166114475760405162461bcd60e51b815260206004820152602c60248201527f4552433732313a206f70657261746f7220717565727920666f72206e6f6e657860448201526b34b9ba32b73a103a37b5b2b760a11b606482015260840161080e565b600061145283610cae565b9050806001600160a01b0316846001600160a01b0316148061148d5750836001600160a01b031661148284610799565b6001600160a01b0316145b806114bd57506001600160a01b0380821660009081526005602090815260408083209388168352929052205460ff165b949350505050565b826001600160a01b03166114d882610cae565b6001600160a01b03161461153c5760405162461bcd60e51b815260206004820152602560248201527f4552433732313a207472616e736665722066726f6d20696e636f72726563742060448201526437bbb732b960d91b606482015260840161080e565b6001600160a01b03821661159e5760405162461bcd60e51b8152602060048201526024808201527f4552433732313a207472616e7366657220746f20746865207a65726f206164646044820152637265737360e01b606482015260840161080e565b6115a983838361191d565b6115b4600082611360565b6001600160a01b03831660009081526003602052604081208054600192906115dd9084906122ea565b90915550506001600160a01b038216600090815260036020526040812080546001929061160b9084906122d2565b909155505060008181526002602052604080822080546001600160a01b0319166001600160a01b0386811691821790925591518493918716917fddf252ad1be2c89b69c2b068fc378daa952ba7f163c4a11628f55a4df523b3ef91a4505050565b600d80546001600160a01b038381166001600160a01b0319831681179093556040519116919082907f8be0079c531659141344cd1fd0a4f28419497f9722a3daafe3b4186f6b6457e090600090a35050565b816001600160a01b0316836001600160a01b031614156117205760405162461bcd60e51b815260206004820152601960248201527f4552433732313a20617070726f766520746f2063616c6c657200000000000000604482015260640161080e565b6001600160a01b03838116600081815260056020908152604080832094871680845294825291829020805460ff191686151590811790915591519182527f17307eab39ab6107e8899845ad3d59bd9653f200f220920489ca2b5937696c31910160405180910390a3505050565b6117988484846114c5565b6117a4848484846119d5565b610ebc5760405162461bcd60e51b815260040161080e90612301565b6060600e80546107169061216a565b6060816117f35750506040805180820190915260018152600360fc1b602082015290565b8160005b811561181d57806118078161214f565b91506118169050600a8361222b565b91506117f7565b60008167ffffffffffffffff81111561183857611838611d2f565b6040519080825280601f01601f191660200182016040528015611862576020820181803683370190505b5090505b84156114bd576118776001836122ea565b9150611884600a86612353565b61188f9060306122d2565b60f81b8183815181106118a4576118a461223f565b60200101906001600160f81b031916908160001a9053506118c6600a8661222b565b9450611866565b60006001600160e01b031982166380ac58cd60e01b14806118fe57506001600160e01b03198216635b5e139f60e01b145b8061067557506301ffc9a760e01b6001600160e01b0319831614610675565b6001600160a01b0383166119785761197381600880546000838152600960205260408120829055600182018355919091527ff3f7a9fe364faab93b216da50a3214154f22a0a2b415b23a84c8169e8b636ee30155565b61199b565b816001600160a01b0316836001600160a01b03161461199b5761199b8382611ad3565b6001600160a01b0382166119b25761094481611b70565b826001600160a01b0316826001600160a01b031614610944576109448282611c1f565b60006001600160a01b0384163b15611ac857604051630a85bd0160e11b81526001600160a01b0385169063150b7a0290611a19903390899088908890600401612367565b6020604051808303816000875af1925050508015611a54575060408051601f3d908101601f19168201909252611a51918101906123a4565b60015b611aae573d808015611a82576040519150601f19603f3d011682016040523d82523d6000602084013e611a87565b606091505b508051611aa65760405162461bcd60e51b815260040161080e90612301565b805181602001fd5b6001600160e01b031916630a85bd0160e11b1490506114bd565b506001949350505050565b60006001611ae084610db3565b611aea91906122ea565b600083815260076020526040902054909150808214611b3d576001600160a01b03841660009081526006602090815260408083208584528252808320548484528184208190558352600790915290208190555b5060009182526007602090815260408084208490556001600160a01b039094168352600681528383209183525290812055565b600854600090611b82906001906122ea565b60008381526009602052604081205460088054939450909284908110611baa57611baa61223f565b906000526020600020015490508060088381548110611bcb57611bcb61223f565b6000918252602080832090910192909255828152600990915260408082208490558582528120556008805480611c0357611c036123c1565b6001900381819060005260206000200160009055905550505050565b6000611c2a83610db3565b6001600160a01b039093166000908152600660209081526040808320868452825280832085905593825260079052919091209190915550565b828054611c6f9061216a565b90600052602060002090601f016020900481019282611c915760008555611cd7565b82601f10611caa57805160ff1916838001178555611cd7565b82800160010185558215611cd7579182015b82811115611cd7578251825591602001919060010190611cbc565b50611ce3929150611ce7565b5090565b5b80821115611ce35760008155600101611ce8565b6001600160e01b0319811681146111ea57600080fd5b600060208284031215611d2457600080fd5b813561070081611cfc565b634e487b7160e01b600052604160045260246000fd5b600067ffffffffffffffff80841115611d6057611d60611d2f565b604051601f8501601f19908116603f01168101908282118183101715611d8857611d88611d2f565b81604052809350858152868686011115611da157600080fd5b858560208301376000602087830101525050509392505050565b600082601f830112611dcc57600080fd5b61070083833560208501611d45565b60008060408385031215611dee57600080fd5b823567ffffffffffffffff811115611e0557600080fd5b611e1185828601611dbb565b95602094909401359450505050565b60005b83811015611e3b578181015183820152602001611e23565b83811115610ebc5750506000910152565b60008151808452611e64816020860160208601611e20565b601f01601f19169290920160200192915050565b6020815260006107006020830184611e4c565b600060208284031215611e9d57600080fd5b5035919050565b80356001600160a01b0381168114611ebb57600080fd5b919050565b60008060408385031215611ed357600080fd5b611edc83611ea4565b946020939093013593505050565b600080600060608486031215611eff57600080fd5b611f0884611ea4565b9250611f1660208501611ea4565b9150604084013590509250925092565b60008060408385031215611f3957600080fd5b50508035926020909101359150565b600060208284031215611f5a57600080fd5b61070082611ea4565b600060208284031215611f7557600080fd5b813567ffffffffffffffff811115611f8c57600080fd5b6114bd84828501611dbb565b6001600160a01b03831681526040602082018190526000906114bd90830184611e4c565b60008060408385031215611fcf57600080fd5b611fd883611ea4565b915060208301358015158114611fed57600080fd5b809150509250929050565b6000806000806080858703121561200e57600080fd5b61201785611ea4565b935061202560208601611ea4565b925060408501359150606085013567ffffffffffffffff81111561204857600080fd5b8501601f8101871361205957600080fd5b61206887823560208401611d45565b91505092959194509250565b6020808252825182820181905260009190848201906040850190845b818110156120ac57835183529284019291840191600101612090565b50909695505050505050565b6000806000606084860312156120cd57600080fd5b833567ffffffffffffffff8111156120e457600080fd5b6120f086828701611dbb565b9660208601359650604090950135949350505050565b6000806040838503121561211957600080fd5b61212283611ea4565b915061213060208401611ea4565b90509250929050565b634e487b7160e01b600052601160045260246000fd5b600060001982141561216357612163612139565b5060010190565b600181811c9082168061217e57607f821691505b6020821081141561219f57634e487b7160e01b600052602260045260246000fd5b50919050565b60208082526031908201527f4552433732313a207472616e736665722063616c6c6572206973206e6f74206f6040820152701ddb995c881b9bdc88185c1c1c9bdd9959607a1b606082015260800190565b600081600019048311821515161561221057612210612139565b500290565b634e487b7160e01b600052601260045260246000fd5b60008261223a5761223a612215565b500490565b634e487b7160e01b600052603260045260246000fd5b6020808252818101527f4f776e61626c653a2063616c6c6572206973206e6f7420746865206f776e6572604082015260600190565b6000835161229c818460208801611e20565b8351908301906122b0818360208801611e20565b01949350505050565b6000602082840312156122cb57600080fd5b5051919050565b600082198211156122e5576122e5612139565b500190565b6000828210156122fc576122fc612139565b500390565b60208082526032908201527f4552433732313a207472616e7366657220746f206e6f6e20455243373231526560408201527131b2b4bb32b91034b6b83632b6b2b73a32b960711b606082015260800190565b60008261236257612362612215565b500690565b6001600160a01b038581168252841660208201526040810183905260806060820181905260009061239a90830184611e4c565b9695505050505050565b6000602082840312156123b657600080fd5b815161070081611cfc565b634e487b7160e01b600052603160045260246000fdfea2646970667358221220589e187354e92a4ca8a16c39791350aa100d0523ecd45424a8cd431276ec02bb64736f6c634300080b0033",
  "immutableReferences": {},
  "source": "pragma solidity ^0.8.0;\n\nimport \"@openzeppelin/contracts/token/ERC721/ERC721.sol\";\nimport \"@openzeppelin/contracts/token/ERC721/extensions/ERC721Enumerable.sol\";\nimport \"@openzeppelin/contracts/access/Ownable.sol\";\nimport \"@openzeppelin/contracts/interfaces/IERC2981.sol\";\nimport \"@openzeppelin/contracts/utils/introspection/IERC165.sol\";\n\nimport \"./dependencies/IVWBLGateway.sol\";\n\nabstract contract VWBLProtocol is ERC721Enumerable, IERC2981 {\n    uint256 public counter = 0;\n    struct TokenInfo {\n        address minterAddress;\n        string getKeyURl;\n    }\n\n    struct RoyaltyInfo {\n        address recipient;\n        uint256 royaltiesPercentage; // if percentage is 3.5, royaltiesPercentage=3.5*10^2 (decimal is 2)\n    }\n\n    mapping(uint256 => TokenInfo) public tokenIdToTokenInfo;\n    mapping(uint256 => RoyaltyInfo) public tokenIdToRoyaltyInfo;\n\n    uint256 public constant INVERSE_BASIS_POINT = 10000;\n\n    function mint(string memory _getKeyURl, uint256 _royaltiesPercentage) public returns (uint256) {\n        uint256 tokenId = ++counter;\n        tokenIdToTokenInfo[tokenId].minterAddress = msg.sender;\n        tokenIdToTokenInfo[tokenId].getKeyURl = _getKeyURl;\n        _mint(msg.sender, tokenId);\n        if (_royaltiesPercentage > 0) {\n            _setRoyalty(tokenId, msg.sender, _royaltiesPercentage);\n        }\n        return tokenId;\n    }\n\n    function getTokenByMinter(address minter)\n        public\n        view\n        returns (uint256[] memory)\n    {\n        uint256 currentCounter = 0;\n        uint256[] memory tokens = new uint256[](counter);\n        for (uint256 i = 1; i <= counter; i++) {\n            if (tokenIdToTokenInfo[i].minterAddress == minter) {\n                tokens[currentCounter++] = i;\n            }\n        }\n        return tokens;\n    }\n\n    function supportsInterface(bytes4 interfaceId)\n        public\n        view\n        virtual\n        override(IERC165, ERC721Enumerable)\n        returns (bool)\n    {\n        return interfaceId == type(IERC2981).interfaceId || super.supportsInterface(interfaceId);\n    }\n\n    function royaltyInfo(uint256 _tokenId, uint256 _salePrice)\n        external\n        view\n        override\n        returns (address receiver, uint256 royaltyAmount)\n    {\n        RoyaltyInfo memory royaltyInfo = tokenIdToRoyaltyInfo[_tokenId];\n        uint256 _royalties = (_salePrice * royaltyInfo.royaltiesPercentage) / INVERSE_BASIS_POINT;\n        return (royaltyInfo.recipient, _royalties);\n    }\n\n    function _setRoyalty(\n        uint256 _tokenId,\n        address _recipient,\n        uint256 _royaltiesPercentage\n    ) internal {\n        RoyaltyInfo storage royaltyInfo = tokenIdToRoyaltyInfo[_tokenId];\n        royaltyInfo.recipient = _recipient;\n        royaltyInfo.royaltiesPercentage = _royaltiesPercentage;\n    }\n}\n\ncontract VWBL is VWBLProtocol, Ownable {\n    string public baseURI;\n    address public gatewayContract;\n\n    event gatewayContractChanged(address oldGatewayContract, address newGatewayContract);\n\n    constructor(string memory _baseURI, address _gatewayContract) ERC721(\"VWBL\", \"VWBL\") {\n        baseURI = _baseURI;\n        gatewayContract = _gatewayContract;\n    }\n\n    function _baseURI() internal view override returns (string memory) {\n        return baseURI;\n    }\n\n    function setBaseURI(string memory _baseURI) public onlyOwner {\n        baseURI = _baseURI;\n    }\n\n    function setGatewayContract(address newGatewayContract) public onlyOwner {\n        require(newGatewayContract != gatewayContract);\n        address oldGatewayContract = gatewayContract;\n        gatewayContract = newGatewayContract;\n\n        emit gatewayContractChanged(oldGatewayContract, newGatewayContract);\n    }\n\n    function getFee() public view returns (uint256) {\n        return IVWBLGateway(gatewayContract).feeWei();\n    }\n\n    function mint(string memory _getKeyURl, uint256 _royaltiesPercentage, bytes32 documentId) public payable returns (uint256) {\n        uint256 tokenId = super.mint(_getKeyURl, _royaltiesPercentage);\n\n        IVWBLGateway(gatewayContract).grantAccessControl{value: msg.value}(documentId, address(this), tokenId);\n\n        return tokenId;\n    }\n}\n",
  "sourcePath": "/home/yuki/git/VWBL/contract/contracts/ERC721/VWBL.sol",
  "compiler": {
    "name": "solc",
    "version": "0.8.11+commit.d7f03943.Emscripten.clang"
  },
  "schemaVersion": "3.4.4",
  "updatedAt": "2022-03-31T08:57:00.143Z",
  "devdoc": {
    "kind": "dev",
    "methods": {
      "approve(address,uint256)": {
        "details": "See {IERC721-approve}."
      },
      "balanceOf(address)": {
        "details": "See {IERC721-balanceOf}."
      },
      "getApproved(uint256)": {
        "details": "See {IERC721-getApproved}."
      },
      "isApprovedForAll(address,address)": {
        "details": "See {IERC721-isApprovedForAll}."
      },
      "name()": {
        "details": "See {IERC721Metadata-name}."
      },
      "owner()": {
        "details": "Returns the address of the current owner."
      },
      "ownerOf(uint256)": {
        "details": "See {IERC721-ownerOf}."
      },
      "renounceOwnership()": {
        "details": "Leaves the contract without owner. It will not be possible to call `onlyOwner` functions anymore. Can only be called by the current owner. NOTE: Renouncing ownership will leave the contract without an owner, thereby removing any functionality that is only available to the owner."
      },
      "safeTransferFrom(address,address,uint256)": {
        "details": "See {IERC721-safeTransferFrom}."
      },
      "safeTransferFrom(address,address,uint256,bytes)": {
        "details": "See {IERC721-safeTransferFrom}."
      },
      "setApprovalForAll(address,bool)": {
        "details": "See {IERC721-setApprovalForAll}."
      },
      "symbol()": {
        "details": "See {IERC721Metadata-symbol}."
      },
      "tokenByIndex(uint256)": {
        "details": "See {IERC721Enumerable-tokenByIndex}."
      },
      "tokenOfOwnerByIndex(address,uint256)": {
        "details": "See {IERC721Enumerable-tokenOfOwnerByIndex}."
      },
      "tokenURI(uint256)": {
        "details": "See {IERC721Metadata-tokenURI}."
      },
      "totalSupply()": {
        "details": "See {IERC721Enumerable-totalSupply}."
      },
      "transferFrom(address,address,uint256)": {
        "details": "See {IERC721-transferFrom}."
      },
      "transferOwnership(address)": {
        "details": "Transfers ownership of the contract to a new account (`newOwner`). Can only be called by the current owner."
      }
    },
    "version": 1
  },
  "userdoc": {
    "kind": "user",
    "methods": {},
    "version": 1
  }
}