{
  "contractName": "VWBL",
  "abi": [
    {
      "inputs": [
        {
          "internalType": "string",
          "name": "_baseURI",
          "type": "string"
        },
        {
          "internalType": "address",
          "name": "_gatewayContract",
          "type": "address"
        }
      ],
      "stateMutability": "nonpayable",
      "type": "constructor"
    },
    {
      "anonymous": false,
      "inputs": [
        {
          "indexed": true,
          "internalType": "address",
          "name": "owner",
          "type": "address"
        },
        {
          "indexed": true,
          "internalType": "address",
          "name": "approved",
          "type": "address"
        },
        {
          "indexed": true,
          "internalType": "uint256",
          "name": "tokenId",
          "type": "uint256"
        }
      ],
      "name": "Approval",
      "type": "event"
    },
    {
      "anonymous": false,
      "inputs": [
        {
          "indexed": true,
          "internalType": "address",
          "name": "owner",
          "type": "address"
        },
        {
          "indexed": true,
          "internalType": "address",
          "name": "operator",
          "type": "address"
        },
        {
          "indexed": false,
          "internalType": "bool",
          "name": "approved",
          "type": "bool"
        }
      ],
      "name": "ApprovalForAll",
      "type": "event"
    },
    {
      "anonymous": false,
      "inputs": [
        {
          "indexed": true,
          "internalType": "address",
          "name": "previousOwner",
          "type": "address"
        },
        {
          "indexed": true,
          "internalType": "address",
          "name": "newOwner",
          "type": "address"
        }
      ],
      "name": "OwnershipTransferred",
      "type": "event"
    },
    {
      "anonymous": false,
      "inputs": [
        {
          "indexed": true,
          "internalType": "address",
          "name": "from",
          "type": "address"
        },
        {
          "indexed": true,
          "internalType": "address",
          "name": "to",
          "type": "address"
        },
        {
          "indexed": true,
          "internalType": "uint256",
          "name": "tokenId",
          "type": "uint256"
        }
      ],
      "name": "Transfer",
      "type": "event"
    },
    {
      "anonymous": false,
      "inputs": [
        {
          "indexed": false,
          "internalType": "address",
          "name": "oldGatewayContract",
          "type": "address"
        },
        {
          "indexed": false,
          "internalType": "address",
          "name": "newGatewayContract",
          "type": "address"
        }
      ],
      "name": "gatewayContractChanged",
      "type": "event"
    },
    {
      "inputs": [],
      "name": "INVERSE_BASIS_POINT",
      "outputs": [
        {
          "internalType": "uint256",
          "name": "",
          "type": "uint256"
        }
      ],
      "stateMutability": "view",
      "type": "function"
    },
    {
      "inputs": [
        {
          "internalType": "address",
          "name": "to",
          "type": "address"
        },
        {
          "internalType": "uint256",
          "name": "tokenId",
          "type": "uint256"
        }
      ],
      "name": "approve",
      "outputs": [],
      "stateMutability": "nonpayable",
      "type": "function"
    },
    {
      "inputs": [
        {
          "internalType": "address",
          "name": "owner",
          "type": "address"
        }
      ],
      "name": "balanceOf",
      "outputs": [
        {
          "internalType": "uint256",
          "name": "",
          "type": "uint256"
        }
      ],
      "stateMutability": "view",
      "type": "function"
    },
    {
      "inputs": [],
      "name": "baseURI",
      "outputs": [
        {
          "internalType": "string",
          "name": "",
          "type": "string"
        }
      ],
      "stateMutability": "view",
      "type": "function"
    },
    {
      "inputs": [],
      "name": "counter",
      "outputs": [
        {
          "internalType": "uint256",
          "name": "",
          "type": "uint256"
        }
      ],
      "stateMutability": "view",
      "type": "function"
    },
    {
      "inputs": [],
      "name": "gatewayContract",
      "outputs": [
        {
          "internalType": "address",
          "name": "",
          "type": "address"
        }
      ],
      "stateMutability": "view",
      "type": "function"
    },
    {
      "inputs": [
        {
          "internalType": "uint256",
          "name": "tokenId",
          "type": "uint256"
        }
      ],
      "name": "getApproved",
      "outputs": [
        {
          "internalType": "address",
          "name": "",
          "type": "address"
        }
      ],
      "stateMutability": "view",
      "type": "function"
    },
    {
      "inputs": [
        {
          "internalType": "address",
          "name": "minter",
          "type": "address"
        }
      ],
      "name": "getTokenByMinter",
      "outputs": [
        {
          "internalType": "uint256[]",
          "name": "",
          "type": "uint256[]"
        }
      ],
      "stateMutability": "view",
      "type": "function"
    },
    {
      "inputs": [
        {
          "internalType": "address",
          "name": "owner",
          "type": "address"
        },
        {
          "internalType": "address",
          "name": "operator",
          "type": "address"
        }
      ],
      "name": "isApprovedForAll",
      "outputs": [
        {
          "internalType": "bool",
          "name": "",
          "type": "bool"
        }
      ],
      "stateMutability": "view",
      "type": "function"
    },
    {
      "inputs": [],
      "name": "name",
      "outputs": [
        {
          "internalType": "string",
          "name": "",
          "type": "string"
        }
      ],
      "stateMutability": "view",
      "type": "function"
    },
    {
      "inputs": [],
      "name": "owner",
      "outputs": [
        {
          "internalType": "address",
          "name": "",
          "type": "address"
        }
      ],
      "stateMutability": "view",
      "type": "function"
    },
    {
      "inputs": [
        {
          "internalType": "uint256",
          "name": "tokenId",
          "type": "uint256"
        }
      ],
      "name": "ownerOf",
      "outputs": [
        {
          "internalType": "address",
          "name": "",
          "type": "address"
        }
      ],
      "stateMutability": "view",
      "type": "function"
    },
    {
      "inputs": [],
      "name": "renounceOwnership",
      "outputs": [],
      "stateMutability": "nonpayable",
      "type": "function"
    },
    {
      "inputs": [
        {
          "internalType": "uint256",
          "name": "_tokenId",
          "type": "uint256"
        },
        {
          "internalType": "uint256",
          "name": "_salePrice",
          "type": "uint256"
        }
      ],
      "name": "royaltyInfo",
      "outputs": [
        {
          "internalType": "address",
          "name": "receiver",
          "type": "address"
        },
        {
          "internalType": "uint256",
          "name": "royaltyAmount",
          "type": "uint256"
        }
      ],
      "stateMutability": "view",
      "type": "function"
    },
    {
      "inputs": [
        {
          "internalType": "address",
          "name": "from",
          "type": "address"
        },
        {
          "internalType": "address",
          "name": "to",
          "type": "address"
        },
        {
          "internalType": "uint256",
          "name": "tokenId",
          "type": "uint256"
        }
      ],
      "name": "safeTransferFrom",
      "outputs": [],
      "stateMutability": "nonpayable",
      "type": "function"
    },
    {
      "inputs": [
        {
          "internalType": "address",
          "name": "from",
          "type": "address"
        },
        {
          "internalType": "address",
          "name": "to",
          "type": "address"
        },
        {
          "internalType": "uint256",
          "name": "tokenId",
          "type": "uint256"
        },
        {
          "internalType": "bytes",
          "name": "_data",
          "type": "bytes"
        }
      ],
      "name": "safeTransferFrom",
      "outputs": [],
      "stateMutability": "nonpayable",
      "type": "function"
    },
    {
      "inputs": [
        {
          "internalType": "address",
          "name": "operator",
          "type": "address"
        },
        {
          "internalType": "bool",
          "name": "approved",
          "type": "bool"
        }
      ],
      "name": "setApprovalForAll",
      "outputs": [],
      "stateMutability": "nonpayable",
      "type": "function"
    },
    {
      "inputs": [
        {
          "internalType": "bytes4",
          "name": "interfaceId",
          "type": "bytes4"
        }
      ],
      "name": "supportsInterface",
      "outputs": [
        {
          "internalType": "bool",
          "name": "",
          "type": "bool"
        }
      ],
      "stateMutability": "view",
      "type": "function"
    },
    {
      "inputs": [],
      "name": "symbol",
      "outputs": [
        {
          "internalType": "string",
          "name": "",
          "type": "string"
        }
      ],
      "stateMutability": "view",
      "type": "function"
    },
    {
      "inputs": [
        {
          "internalType": "uint256",
          "name": "index",
          "type": "uint256"
        }
      ],
      "name": "tokenByIndex",
      "outputs": [
        {
          "internalType": "uint256",
          "name": "",
          "type": "uint256"
        }
      ],
      "stateMutability": "view",
      "type": "function"
    },
    {
      "inputs": [
        {
          "internalType": "uint256",
          "name": "",
          "type": "uint256"
        }
      ],
      "name": "tokenIdToDocumentId",
      "outputs": [
        {
          "internalType": "bytes32",
          "name": "",
          "type": "bytes32"
        }
      ],
      "stateMutability": "view",
      "type": "function"
    },
    {
      "inputs": [
        {
          "internalType": "uint256",
          "name": "",
          "type": "uint256"
        }
      ],
      "name": "tokenIdToRoyaltyInfo",
      "outputs": [
        {
          "internalType": "address",
          "name": "recipient",
          "type": "address"
        },
        {
          "internalType": "uint256",
          "name": "royaltiesPercentage",
          "type": "uint256"
        }
      ],
      "stateMutability": "view",
      "type": "function"
    },
    {
      "inputs": [
        {
          "internalType": "uint256",
          "name": "",
          "type": "uint256"
        }
      ],
      "name": "tokenIdToTokenInfo",
      "outputs": [
        {
          "internalType": "bytes32",
          "name": "documentId",
          "type": "bytes32"
        },
        {
          "internalType": "address",
          "name": "minterAddress",
          "type": "address"
        },
        {
          "internalType": "string",
          "name": "getKeyURl",
          "type": "string"
        }
      ],
      "stateMutability": "view",
      "type": "function"
    },
    {
      "inputs": [
        {
          "internalType": "address",
          "name": "owner",
          "type": "address"
        },
        {
          "internalType": "uint256",
          "name": "index",
          "type": "uint256"
        }
      ],
      "name": "tokenOfOwnerByIndex",
      "outputs": [
        {
          "internalType": "uint256",
          "name": "",
          "type": "uint256"
        }
      ],
      "stateMutability": "view",
      "type": "function"
    },
    {
      "inputs": [
        {
          "internalType": "uint256",
          "name": "tokenId",
          "type": "uint256"
        }
      ],
      "name": "tokenURI",
      "outputs": [
        {
          "internalType": "string",
          "name": "",
          "type": "string"
        }
      ],
      "stateMutability": "view",
      "type": "function"
    },
    {
      "inputs": [],
      "name": "totalSupply",
      "outputs": [
        {
          "internalType": "uint256",
          "name": "",
          "type": "uint256"
        }
      ],
      "stateMutability": "view",
      "type": "function"
    },
    {
      "inputs": [
        {
          "internalType": "address",
          "name": "from",
          "type": "address"
        },
        {
          "internalType": "address",
          "name": "to",
          "type": "address"
        },
        {
          "internalType": "uint256",
          "name": "tokenId",
          "type": "uint256"
        }
      ],
      "name": "transferFrom",
      "outputs": [],
      "stateMutability": "nonpayable",
      "type": "function"
    },
    {
      "inputs": [
        {
          "internalType": "address",
          "name": "newOwner",
          "type": "address"
        }
      ],
      "name": "transferOwnership",
      "outputs": [],
      "stateMutability": "nonpayable",
      "type": "function"
    },
    {
      "inputs": [
        {
          "internalType": "string",
          "name": "_baseURI",
          "type": "string"
        }
      ],
      "name": "setBaseURI",
      "outputs": [],
      "stateMutability": "nonpayable",
      "type": "function"
    },
    {
      "inputs": [
        {
          "internalType": "address",
          "name": "newGatewayContract",
          "type": "address"
        }
      ],
      "name": "setGatewayContract",
      "outputs": [],
      "stateMutability": "nonpayable",
      "type": "function"
    },
    {
      "inputs": [],
      "name": "getFee",
      "outputs": [
        {
          "internalType": "uint256",
          "name": "",
          "type": "uint256"
        }
      ],
      "stateMutability": "view",
      "type": "function"
    },
    {
      "inputs": [
        {
          "internalType": "string",
          "name": "_getKeyURl",
          "type": "string"
        },
        {
          "internalType": "uint256",
          "name": "_royaltiesPercentage",
          "type": "uint256"
        },
        {
          "internalType": "bytes32",
          "name": "_documentId",
          "type": "bytes32"
        }
      ],
      "name": "mint",
      "outputs": [
        {
          "internalType": "uint256",
          "name": "",
          "type": "uint256"
        }
      ],
      "stateMutability": "payable",
      "type": "function"
    },
    {
      "inputs": [
        {
          "internalType": "uint256",
          "name": "tokenId",
          "type": "uint256"
        }
      ],
      "name": "getMinter",
      "outputs": [
        {
          "internalType": "address",
          "name": "",
          "type": "address"
        }
      ],
      "stateMutability": "view",
      "type": "function"
    }
  ],
  "bytecode": "0x60806040526000600a553480156200001657600080fd5b506040516200282538038062002825833981016040819052620000399162000217565b6040805180820182526004808252631595d09360e21b60208084018281528551808701909652928552840152815191929162000078916000916200013e565b5080516200008e9060019060208401906200013e565b505050620000ab620000a5620000e860201b60201c565b620000ec565b8151620000c090600f9060208501906200013e565b50601080546001600160a01b0319166001600160a01b03929092169190911790555062000345565b3390565b600e80546001600160a01b038381166001600160a01b0319831681179093556040519116919082907f8be0079c531659141344cd1fd0a4f28419497f9722a3daafe3b4186f6b6457e090600090a35050565b8280546200014c9062000308565b90600052602060002090601f016020900481019282620001705760008555620001bb565b82601f106200018b57805160ff1916838001178555620001bb565b82800160010185558215620001bb579182015b82811115620001bb5782518255916020019190600101906200019e565b50620001c9929150620001cd565b5090565b5b80821115620001c95760008155600101620001ce565b634e487b7160e01b600052604160045260246000fd5b80516001600160a01b03811681146200021257600080fd5b919050565b600080604083850312156200022b57600080fd5b82516001600160401b03808211156200024357600080fd5b818501915085601f8301126200025857600080fd5b8151818111156200026d576200026d620001e4565b604051601f8201601f19908116603f01168101908382118183101715620002985762000298620001e4565b81604052828152602093508884848701011115620002b557600080fd5b600091505b82821015620002d95784820184015181830185015290830190620002ba565b82821115620002eb5760008484830101525b9550620002fd915050858201620001fa565b925050509250929050565b600181811c908216806200031d57607f821691505b602082108114156200033f57634e487b7160e01b600052602260045260246000fd5b50919050565b6124d080620003556000396000f3fe6080604052600436106101ee5760003560e01c80636352211e1161010d578063b88d4fde116100a0578063ced72f871161006f578063ced72f87146105ed578063de5bb4b714610602578063e985e9c514610615578063eb0cde1d1461065e578063f2fde38b1461067e57600080fd5b8063b88d4fde1461056a578063c87b56dd1461058a578063cae6047f146105aa578063ce5af336146105c057600080fd5b8063761a49c8116100dc578063761a49c8146104ea5780638da5cb5b1461051757806395d89b4114610535578063a22cb4651461054a57600080fd5b80636352211e146104805780636c0360eb146104a057806370a08231146104b5578063715018a6146104d557600080fd5b80632f745c591161018557806355f804b31161015457806355f804b3146103e25780635b7121f8146104025780635fb8bcd51461043b57806361bc221a1461046a57600080fd5b80632f745c591461036257806342842e0e146103825780634f6ccce7146103a257806350932cb5146103c257600080fd5b806318160ddd116101c157806318160ddd146102a457806319daf1bf146102c357806323b872dd146103225780632a55205a1461034257600080fd5b806301ffc9a7146101f357806306fdde0314610228578063081812fc1461024a578063095ea7b314610282575b600080fd5b3480156101ff57600080fd5b5061021361020e366004611e0b565b61069e565b60405190151581526020015b60405180910390f35b34801561023457600080fd5b5061023d6106c9565b60405161021f9190611e80565b34801561025657600080fd5b5061026a610265366004611e93565b61075b565b6040516001600160a01b03909116815260200161021f565b34801561028e57600080fd5b506102a261029d366004611ec8565b6107f5565b005b3480156102b057600080fd5b506008545b60405190815260200161021f565b3480156102cf57600080fd5b506103036102de366004611e93565b600c60205260009081526040902080546001909101546001600160a01b039091169082565b604080516001600160a01b03909316835260208301919091520161021f565b34801561032e57600080fd5b506102a261033d366004611ef2565b61090b565b34801561034e57600080fd5b5061030361035d366004611f2e565b61093c565b34801561036e57600080fd5b506102b561037d366004611ec8565b610996565b34801561038e57600080fd5b506102a261039d366004611ef2565b610a2c565b3480156103ae57600080fd5b506102b56103bd366004611e93565b610a47565b3480156103ce57600080fd5b506102a26103dd366004611f50565b610ada565b3480156103ee57600080fd5b506102a26103fd366004612017565b610b80565b34801561040e57600080fd5b5061026a61041d366004611e93565b6000908152600b60205260409020600101546001600160a01b031690565b34801561044757600080fd5b5061045b610456366004611e93565b610bc1565b60405161021f9392919061204c565b34801561047657600080fd5b506102b5600a5481565b34801561048c57600080fd5b5061026a61049b366004611e93565b610c76565b3480156104ac57600080fd5b5061023d610ced565b3480156104c157600080fd5b506102b56104d0366004611f50565b610d7b565b3480156104e157600080fd5b506102a2610e02565b3480156104f657600080fd5b506102b5610505366004611e93565b600d6020526000908152604090205481565b34801561052357600080fd5b50600e546001600160a01b031661026a565b34801561054157600080fd5b5061023d610e38565b34801561055657600080fd5b506102a261056536600461207f565b610e47565b34801561057657600080fd5b506102a26105853660046120bb565b610e52565b34801561059657600080fd5b5061023d6105a5366004611e93565b610e8a565b3480156105b657600080fd5b506102b561271081565b3480156105cc57600080fd5b506105e06105db366004611f50565b610f65565b60405161021f9190612137565b3480156105f957600080fd5b506102b561107c565b6102b561061036600461217b565b6110ef565b34801561062157600080fd5b506102136106303660046121c9565b6001600160a01b03918216600090815260056020908152604080832093909416825291909152205460ff1690565b34801561066a57600080fd5b5060105461026a906001600160a01b031681565b34801561068a57600080fd5b506102a2610699366004611f50565b611184565b60006001600160e01b0319821663152a902d60e11b14806106c357506106c38261121f565b92915050565b6060600080546106d8906121fc565b80601f0160208091040260200160405190810160405280929190818152602001828054610704906121fc565b80156107515780601f1061072657610100808354040283529160200191610751565b820191906000526020600020905b81548152906001019060200180831161073457829003601f168201915b5050505050905090565b6000818152600260205260408120546001600160a01b03166107d95760405162461bcd60e51b815260206004820152602c60248201527f4552433732313a20617070726f76656420717565727920666f72206e6f6e657860448201526b34b9ba32b73a103a37b5b2b760a11b60648201526084015b60405180910390fd5b506000908152600460205260409020546001600160a01b031690565b600061080082610c76565b9050806001600160a01b0316836001600160a01b0316141561086e5760405162461bcd60e51b815260206004820152602160248201527f4552433732313a20617070726f76616c20746f2063757272656e74206f776e656044820152603960f91b60648201526084016107d0565b336001600160a01b038216148061088a575061088a8133610630565b6108fc5760405162461bcd60e51b815260206004820152603860248201527f4552433732313a20617070726f76652063616c6c6572206973206e6f74206f7760448201527f6e6572206e6f7220617070726f76656420666f7220616c6c000000000000000060648201526084016107d0565b6109068383611244565b505050565b61091533826112b2565b6109315760405162461bcd60e51b81526004016107d090612237565b6109068383836113a9565b6000828152600c60209081526040808320815180830190925280546001600160a01b0316825260010154918101829052829182906127109061097e908761229e565b61098891906122d3565b915196919550909350505050565b60006109a183610d7b565b8210610a035760405162461bcd60e51b815260206004820152602b60248201527f455243373231456e756d657261626c653a206f776e657220696e646578206f7560448201526a74206f6620626f756e647360a81b60648201526084016107d0565b506001600160a01b03919091166000908152600660209081526040808320938352929052205490565b61090683838360405180602001604052806000815250610e52565b6000610a5260085490565b8210610ab55760405162461bcd60e51b815260206004820152602c60248201527f455243373231456e756d657261626c653a20676c6f62616c20696e646578206f60448201526b7574206f6620626f756e647360a01b60648201526084016107d0565b60088281548110610ac857610ac86122e7565b90600052602060002001549050919050565b600e546001600160a01b03163314610b045760405162461bcd60e51b81526004016107d0906122fd565b6010546001600160a01b0382811691161415610b1f57600080fd5b601080546001600160a01b038381166001600160a01b031983168117909355604080519190921680825260208201939093527f9b015b8749c8a182300e9c8c7699c761729b84ff89651162dd89881ff1273f63910160405180910390a15050565b600e546001600160a01b03163314610baa5760405162461bcd60e51b81526004016107d0906122fd565b8051610bbd90600f906020840190611d5c565b5050565b600b6020526000908152604090208054600182015460028301805492936001600160a01b0390921692610bf3906121fc565b80601f0160208091040260200160405190810160405280929190818152602001828054610c1f906121fc565b8015610c6c5780601f10610c4157610100808354040283529160200191610c6c565b820191906000526020600020905b815481529060010190602001808311610c4f57829003601f168201915b5050505050905083565b6000818152600260205260408120546001600160a01b0316806106c35760405162461bcd60e51b815260206004820152602960248201527f4552433732313a206f776e657220717565727920666f72206e6f6e657869737460448201526832b73a103a37b5b2b760b91b60648201526084016107d0565b600f8054610cfa906121fc565b80601f0160208091040260200160405190810160405280929190818152602001828054610d26906121fc565b8015610d735780601f10610d4857610100808354040283529160200191610d73565b820191906000526020600020905b815481529060010190602001808311610d5657829003601f168201915b505050505081565b60006001600160a01b038216610de65760405162461bcd60e51b815260206004820152602a60248201527f4552433732313a2062616c616e636520717565727920666f7220746865207a65604482015269726f206164647265737360b01b60648201526084016107d0565b506001600160a01b031660009081526003602052604090205490565b600e546001600160a01b03163314610e2c5760405162461bcd60e51b81526004016107d0906122fd565b610e366000611550565b565b6060600180546106d8906121fc565b610bbd3383836115a2565b610e5c33836112b2565b610e785760405162461bcd60e51b81526004016107d090612237565b610e8484848484611671565b50505050565b6000818152600260205260409020546060906001600160a01b0316610f095760405162461bcd60e51b815260206004820152602f60248201527f4552433732314d657461646174613a2055524920717565727920666f72206e6f60448201526e3732bc34b9ba32b73a103a37b5b2b760891b60648201526084016107d0565b6000610f136116a4565b90506000815111610f335760405180602001604052806000815250610f5e565b80610f3d846116b3565b604051602001610f4e929190612332565b6040516020818303038152906040525b9392505050565b6060600060015b600a548111610fba576000818152600b60205260409020600101546001600160a01b0385811691161415610fa85781610fa481612361565b9250505b80610fb281612361565b915050610f6c565b5060008167ffffffffffffffff811115610fd657610fd6611f6b565b604051908082528060200260200182016040528015610fff578160200160208202803683370190505b509050600060015b600a548111611072576000818152600b60205260409020600101546001600160a01b03878116911614156110605780838361104181612361565b945081518110611053576110536122e7565b6020026020010181815250505b8061106a81612361565b915050611007565b5090949350505050565b6010546040805163428c090b60e01b815290516000926001600160a01b03169163428c090b9160048083019260209291908290030181865afa1580156110c6573d6000803e3d6000fd5b505050506040513d601f19601f820116820180604052508101906110ea919061237c565b905090565b6000806110fd8386866117b1565b60105460405163292571e360e11b815260048101869052306024820152604481018390529192506001600160a01b03169063524ae3c69034906064016000604051808303818588803b15801561115257600080fd5b505af1158015611166573d6000803e3d6000fd5b5050506000838152600d602052604090209490945550949350505050565b600e546001600160a01b031633146111ae5760405162461bcd60e51b81526004016107d0906122fd565b6001600160a01b0381166112135760405162461bcd60e51b815260206004820152602660248201527f4f776e61626c653a206e6577206f776e657220697320746865207a65726f206160448201526564647265737360d01b60648201526084016107d0565b61121c81611550565b50565b60006001600160e01b0319821663780e9d6360e01b14806106c357506106c382611878565b600081815260046020526040902080546001600160a01b0319166001600160a01b038416908117909155819061127982610c76565b6001600160a01b03167f8c5be1e5ebec7d5bd14f71427d1e84f3dd0314c0f7b2291e5b200ac8c7c3b92560405160405180910390a45050565b6000818152600260205260408120546001600160a01b031661132b5760405162461bcd60e51b815260206004820152602c60248201527f4552433732313a206f70657261746f7220717565727920666f72206e6f6e657860448201526b34b9ba32b73a103a37b5b2b760a11b60648201526084016107d0565b600061133683610c76565b9050806001600160a01b0316846001600160a01b0316148061137d57506001600160a01b0380821660009081526005602090815260408083209388168352929052205460ff165b806113a15750836001600160a01b03166113968461075b565b6001600160a01b0316145b949350505050565b826001600160a01b03166113bc82610c76565b6001600160a01b0316146114205760405162461bcd60e51b815260206004820152602560248201527f4552433732313a207472616e736665722066726f6d20696e636f72726563742060448201526437bbb732b960d91b60648201526084016107d0565b6001600160a01b0382166114825760405162461bcd60e51b8152602060048201526024808201527f4552433732313a207472616e7366657220746f20746865207a65726f206164646044820152637265737360e01b60648201526084016107d0565b61148d8383836118c8565b611498600082611244565b6001600160a01b03831660009081526003602052604081208054600192906114c1908490612395565b90915550506001600160a01b03821660009081526003602052604081208054600192906114ef9084906123ac565b909155505060008181526002602052604080822080546001600160a01b0319166001600160a01b0386811691821790925591518493918716917fddf252ad1be2c89b69c2b068fc378daa952ba7f163c4a11628f55a4df523b3ef91a4505050565b600e80546001600160a01b038381166001600160a01b0319831681179093556040519116919082907f8be0079c531659141344cd1fd0a4f28419497f9722a3daafe3b4186f6b6457e090600090a35050565b816001600160a01b0316836001600160a01b031614156116045760405162461bcd60e51b815260206004820152601960248201527f4552433732313a20617070726f766520746f2063616c6c65720000000000000060448201526064016107d0565b6001600160a01b03838116600081815260056020908152604080832094871680845294825291829020805460ff191686151590811790915591519182527f17307eab39ab6107e8899845ad3d59bd9653f200f220920489ca2b5937696c31910160405180910390a3505050565b61167c8484846113a9565b61168884848484611980565b610e845760405162461bcd60e51b81526004016107d0906123c4565b6060600f80546106d8906121fc565b6060816116d75750506040805180820190915260018152600360fc1b602082015290565b8160005b811561170157806116eb81612361565b91506116fa9050600a836122d3565b91506116db565b60008167ffffffffffffffff81111561171c5761171c611f6b565b6040519080825280601f01601f191660200182016040528015611746576020820181803683370190505b5090505b84156113a15761175b600183612395565b9150611768600a86612416565b6117739060306123ac565b60f81b818381518110611788576117886122e7565b60200101906001600160f81b031916908160001a9053506117aa600a866122d3565b945061174a565b600080600a600081546117c390612361565b9182905550604080516060810182528781523360208083019182528284018981526000868152600b8352949094208351815591516001830180546001600160a01b0319166001600160a01b0390921691909117905592518051949550919384939192611836926002850192910190611d5c565b509050506118443383611a7e565b831561186f576000828152600c6020526040902080546001600160a01b031916331781556001018490555b50949350505050565b60006001600160e01b031982166380ac58cd60e01b14806118a957506001600160e01b03198216635b5e139f60e01b145b806106c357506301ffc9a760e01b6001600160e01b03198316146106c3565b6001600160a01b0383166119235761191e81600880546000838152600960205260408120829055600182018355919091527ff3f7a9fe364faab93b216da50a3214154f22a0a2b415b23a84c8169e8b636ee30155565b611946565b816001600160a01b0316836001600160a01b031614611946576119468382611bcc565b6001600160a01b03821661195d5761090681611c69565b826001600160a01b0316826001600160a01b031614610906576109068282611d18565b60006001600160a01b0384163b15611a7357604051630a85bd0160e11b81526001600160a01b0385169063150b7a02906119c490339089908890889060040161242a565b6020604051808303816000875af19250505080156119ff575060408051601f3d908101601f191682019092526119fc91810190612467565b60015b611a59573d808015611a2d576040519150601f19603f3d011682016040523d82523d6000602084013e611a32565b606091505b508051611a515760405162461bcd60e51b81526004016107d0906123c4565b805181602001fd5b6001600160e01b031916630a85bd0160e11b1490506113a1565b506001949350505050565b6001600160a01b038216611ad45760405162461bcd60e51b815260206004820181905260248201527f4552433732313a206d696e7420746f20746865207a65726f206164647265737360448201526064016107d0565b6000818152600260205260409020546001600160a01b031615611b395760405162461bcd60e51b815260206004820152601c60248201527f4552433732313a20746f6b656e20616c7265616479206d696e7465640000000060448201526064016107d0565b611b45600083836118c8565b6001600160a01b0382166000908152600360205260408120805460019290611b6e9084906123ac565b909155505060008181526002602052604080822080546001600160a01b0319166001600160a01b03861690811790915590518392907fddf252ad1be2c89b69c2b068fc378daa952ba7f163c4a11628f55a4df523b3ef908290a45050565b60006001611bd984610d7b565b611be39190612395565b600083815260076020526040902054909150808214611c36576001600160a01b03841660009081526006602090815260408083208584528252808320548484528184208190558352600790915290208190555b5060009182526007602090815260408084208490556001600160a01b039094168352600681528383209183525290812055565b600854600090611c7b90600190612395565b60008381526009602052604081205460088054939450909284908110611ca357611ca36122e7565b906000526020600020015490508060088381548110611cc457611cc46122e7565b6000918252602080832090910192909255828152600990915260408082208490558582528120556008805480611cfc57611cfc612484565b6001900381819060005260206000200160009055905550505050565b6000611d2383610d7b565b6001600160a01b039093166000908152600660209081526040808320868452825280832085905593825260079052919091209190915550565b828054611d68906121fc565b90600052602060002090601f016020900481019282611d8a5760008555611dd0565b82601f10611da357805160ff1916838001178555611dd0565b82800160010185558215611dd0579182015b82811115611dd0578251825591602001919060010190611db5565b50611ddc929150611de0565b5090565b5b80821115611ddc5760008155600101611de1565b6001600160e01b03198116811461121c57600080fd5b600060208284031215611e1d57600080fd5b8135610f5e81611df5565b60005b83811015611e43578181015183820152602001611e2b565b83811115610e845750506000910152565b60008151808452611e6c816020860160208601611e28565b601f01601f19169290920160200192915050565b602081526000610f5e6020830184611e54565b600060208284031215611ea557600080fd5b5035919050565b80356001600160a01b0381168114611ec357600080fd5b919050565b60008060408385031215611edb57600080fd5b611ee483611eac565b946020939093013593505050565b600080600060608486031215611f0757600080fd5b611f1084611eac565b9250611f1e60208501611eac565b9150604084013590509250925092565b60008060408385031215611f4157600080fd5b50508035926020909101359150565b600060208284031215611f6257600080fd5b610f5e82611eac565b634e487b7160e01b600052604160045260246000fd5b600067ffffffffffffffff80841115611f9c57611f9c611f6b565b604051601f8501601f19908116603f01168101908282118183101715611fc457611fc4611f6b565b81604052809350858152868686011115611fdd57600080fd5b858560208301376000602087830101525050509392505050565b600082601f83011261200857600080fd5b610f5e83833560208501611f81565b60006020828403121561202957600080fd5b813567ffffffffffffffff81111561204057600080fd5b6113a184828501611ff7565b8381526001600160a01b038316602082015260606040820181905260009061207690830184611e54565b95945050505050565b6000806040838503121561209257600080fd5b61209b83611eac565b9150602083013580151581146120b057600080fd5b809150509250929050565b600080600080608085870312156120d157600080fd5b6120da85611eac565b93506120e860208601611eac565b925060408501359150606085013567ffffffffffffffff81111561210b57600080fd5b8501601f8101871361211c57600080fd5b61212b87823560208401611f81565b91505092959194509250565b6020808252825182820181905260009190848201906040850190845b8181101561216f57835183529284019291840191600101612153565b50909695505050505050565b60008060006060848603121561219057600080fd5b833567ffffffffffffffff8111156121a757600080fd5b6121b386828701611ff7565b9660208601359650604090950135949350505050565b600080604083850312156121dc57600080fd5b6121e583611eac565b91506121f360208401611eac565b90509250929050565b600181811c9082168061221057607f821691505b6020821081141561223157634e487b7160e01b600052602260045260246000fd5b50919050565b60208082526031908201527f4552433732313a207472616e736665722063616c6c6572206973206e6f74206f6040820152701ddb995c881b9bdc88185c1c1c9bdd9959607a1b606082015260800190565b634e487b7160e01b600052601160045260246000fd5b60008160001904831182151516156122b8576122b8612288565b500290565b634e487b7160e01b600052601260045260246000fd5b6000826122e2576122e26122bd565b500490565b634e487b7160e01b600052603260045260246000fd5b6020808252818101527f4f776e61626c653a2063616c6c6572206973206e6f7420746865206f776e6572604082015260600190565b60008351612344818460208801611e28565b835190830190612358818360208801611e28565b01949350505050565b600060001982141561237557612375612288565b5060010190565b60006020828403121561238e57600080fd5b5051919050565b6000828210156123a7576123a7612288565b500390565b600082198211156123bf576123bf612288565b500190565b60208082526032908201527f4552433732313a207472616e7366657220746f206e6f6e20455243373231526560408201527131b2b4bb32b91034b6b83632b6b2b73a32b960711b606082015260800190565b600082612425576124256122bd565b500690565b6001600160a01b038581168252841660208201526040810183905260806060820181905260009061245d90830184611e54565b9695505050505050565b60006020828403121561247957600080fd5b8151610f5e81611df5565b634e487b7160e01b600052603160045260246000fdfea2646970667358221220c1b1dd3ed429a4c6e9cdd482389bfa0b2089b53514acff11464f74abe8d714fe64736f6c634300080b0033",
  "immutableReferences": {},
  "source": "pragma solidity ^0.8.0;\n\nimport \"@openzeppelin/contracts/token/ERC721/ERC721.sol\";\nimport \"@openzeppelin/contracts/token/ERC721/extensions/ERC721Enumerable.sol\";\nimport \"@openzeppelin/contracts/access/Ownable.sol\";\nimport \"@openzeppelin/contracts/interfaces/IERC2981.sol\";\nimport \"@openzeppelin/contracts/utils/introspection/IERC165.sol\";\n\nimport \"./IVWBL.sol\";\nimport \"./gateway/IVWBLGateway.sol\";\n\nabstract contract VWBLProtocol is ERC721Enumerable, IERC2981 {\n    uint256 public counter = 0;\n    struct TokenInfo {\n        bytes32 documentId;\n        address minterAddress;\n        string getKeyURl;\n    }\n\n    struct RoyaltyInfo {\n        address recipient;\n        uint256 royaltiesPercentage; // if percentage is 3.5, royaltiesPercentage=3.5*10^2 (decimal is 2)\n    }\n\n    mapping(uint256 => TokenInfo) public tokenIdToTokenInfo;\n    mapping(uint256 => RoyaltyInfo) public tokenIdToRoyaltyInfo;\n    mapping(uint256 => bytes32) public tokenIdToDocumentId;\n\n    uint256 public constant INVERSE_BASIS_POINT = 10000;\n\n    function _mint(bytes32 _documentId, string memory _getKeyURl, uint256 _royaltiesPercentage) internal returns (uint256) {\n        uint256 tokenId = ++counter;\n        TokenInfo memory tokenInfo = TokenInfo(_documentId, msg.sender, _getKeyURl);\n        tokenIdToTokenInfo[tokenId] = tokenInfo;\n        _mint(msg.sender, tokenId);\n        if (_royaltiesPercentage > 0) {\n            _setRoyalty(tokenId, msg.sender, _royaltiesPercentage);\n        }\n        return tokenId;\n    }\n\n    function getTokenByMinter(address minter)\n        public\n        view\n        returns (uint256[] memory)\n    {\n        uint256 resultCount = 0;\n        for (uint256 i = 1; i <= counter; i++) {\n            if (tokenIdToTokenInfo[i].minterAddress == minter) {\n                resultCount++;\n            }\n        }\n        uint256[] memory tokens = new uint256[](resultCount);\n        uint256 currentCounter = 0;\n        for (uint256 i = 1; i <= counter; i++) {\n            if (tokenIdToTokenInfo[i].minterAddress == minter) {\n                tokens[currentCounter++] = i;\n            }\n        }\n        return tokens;\n    }\n\n    function supportsInterface(bytes4 interfaceId)\n        public\n        view\n        virtual\n        override(IERC165, ERC721Enumerable)\n        returns (bool)\n    {\n        return interfaceId == type(IERC2981).interfaceId || super.supportsInterface(interfaceId);\n    }\n\n    function royaltyInfo(uint256 _tokenId, uint256 _salePrice)\n        external\n        view\n        override\n        returns (address receiver, uint256 royaltyAmount)\n    {\n        RoyaltyInfo memory royaltyInfo = tokenIdToRoyaltyInfo[_tokenId];\n        uint256 _royalties = (_salePrice * royaltyInfo.royaltiesPercentage) / INVERSE_BASIS_POINT;\n        return (royaltyInfo.recipient, _royalties);\n    }\n\n    function _setRoyalty(\n        uint256 _tokenId,\n        address _recipient,\n        uint256 _royaltiesPercentage\n    ) internal {\n        RoyaltyInfo storage royaltyInfo = tokenIdToRoyaltyInfo[_tokenId];\n        royaltyInfo.recipient = _recipient;\n        royaltyInfo.royaltiesPercentage = _royaltiesPercentage;\n    }\n}\n\ncontract VWBL is VWBLProtocol, Ownable, IVWBL {\n    string public baseURI;\n    address public gatewayContract;\n\n    event gatewayContractChanged(address oldGatewayContract, address newGatewayContract);\n\n    constructor(string memory _baseURI, address _gatewayContract) ERC721(\"VWBL\", \"VWBL\") {\n        baseURI = _baseURI;\n        gatewayContract = _gatewayContract;\n    }\n\n    function _baseURI() internal view override returns (string memory) {\n        return baseURI;\n    }\n\n    function setBaseURI(string memory _baseURI) public onlyOwner {\n        baseURI = _baseURI;\n    }\n\n    function setGatewayContract(address newGatewayContract) public onlyOwner {\n        require(newGatewayContract != gatewayContract);\n        address oldGatewayContract = gatewayContract;\n        gatewayContract = newGatewayContract;\n\n        emit gatewayContractChanged(oldGatewayContract, newGatewayContract);\n    }\n\n    function getFee() public view returns (uint256) {\n        return IVWBLGateway(gatewayContract).feeWei();\n    }\n\n    function mint(string memory _getKeyURl, uint256 _royaltiesPercentage, bytes32 _documentId) public payable returns (uint256) {\n        uint256 tokenId = super._mint(_documentId, _getKeyURl, _royaltiesPercentage);\n\n        IVWBLGateway(gatewayContract).grantAccessControl{value: msg.value}(_documentId, address(this), tokenId);\n        tokenIdToDocumentId[tokenId] = _documentId;\n\n        return tokenId;\n    }\n\n    function getMinter(uint256 tokenId) public view returns (address) {\n        return tokenIdToTokenInfo[tokenId].minterAddress;\n    }\n}\n",
  "sourcePath": "/Users/shunsukenagashima/ango-ya/vwbl/VWBL-protocol/contracts/ERC721/VWBL.sol",
  "compiler": {
    "name": "solc",
    "version": "0.8.11+commit.d7f03943.Emscripten.clang"
  },
  "schemaVersion": "3.4.3",
  "updatedAt": "2022-06-16T02:26:13.446Z",
  "devdoc": {
    "kind": "dev",
    "methods": {
      "approve(address,uint256)": {
        "details": "See {IERC721-approve}."
      },
      "balanceOf(address)": {
        "details": "See {IERC721-balanceOf}."
      },
      "getApproved(uint256)": {
        "details": "See {IERC721-getApproved}."
      },
      "isApprovedForAll(address,address)": {
        "details": "See {IERC721-isApprovedForAll}."
      },
      "name()": {
        "details": "See {IERC721Metadata-name}."
      },
      "owner()": {
        "details": "Returns the address of the current owner."
      },
      "ownerOf(uint256)": {
        "details": "See {IERC721-ownerOf}."
      },
      "renounceOwnership()": {
        "details": "Leaves the contract without owner. It will not be possible to call `onlyOwner` functions anymore. Can only be called by the current owner. NOTE: Renouncing ownership will leave the contract without an owner, thereby removing any functionality that is only available to the owner."
      },
      "safeTransferFrom(address,address,uint256)": {
        "details": "See {IERC721-safeTransferFrom}."
      },
      "safeTransferFrom(address,address,uint256,bytes)": {
        "details": "See {IERC721-safeTransferFrom}."
      },
      "setApprovalForAll(address,bool)": {
        "details": "See {IERC721-setApprovalForAll}."
      },
      "symbol()": {
        "details": "See {IERC721Metadata-symbol}."
      },
      "tokenByIndex(uint256)": {
        "details": "See {IERC721Enumerable-tokenByIndex}."
      },
      "tokenOfOwnerByIndex(address,uint256)": {
        "details": "See {IERC721Enumerable-tokenOfOwnerByIndex}."
      },
      "tokenURI(uint256)": {
        "details": "See {IERC721Metadata-tokenURI}."
      },
      "totalSupply()": {
        "details": "See {IERC721Enumerable-totalSupply}."
      },
      "transferFrom(address,address,uint256)": {
        "details": "See {IERC721-transferFrom}."
      },
      "transferOwnership(address)": {
        "details": "Transfers ownership of the contract to a new account (`newOwner`). Can only be called by the current owner."
      }
    },
    "version": 1
  },
  "userdoc": {
    "kind": "user",
    "methods": {},
    "version": 1
  }
}