{
  "_format": "hh-sol-artifact-1",
  "contractName": "VWBLDataCollector",
  "sourceName": "contracts/VWBLDataCollector.sol",
  "abi": [
    {
      "inputs": [
        {
          "internalType": "address",
          "name": "_gatewayProxy",
          "type": "address"
        },
        {
          "internalType": "address",
          "name": "_prevAccessChecker",
          "type": "address"
        }
      ],
      "stateMutability": "nonpayable",
      "type": "constructor"
    },
    {
      "inputs": [],
      "name": "gatewayProxy",
      "outputs": [
        {
          "internalType": "address",
          "name": "",
          "type": "address"
        }
      ],
      "stateMutability": "view",
      "type": "function"
    },
    {
      "inputs": [
        {
          "internalType": "address",
          "name": "addr",
          "type": "address"
        }
      ],
      "name": "getAccessCheckerType",
      "outputs": [
        {
          "internalType": "uint256",
          "name": "",
          "type": "uint256"
        }
      ],
      "stateMutability": "view",
      "type": "function"
    },
    {
      "inputs": [],
      "name": "getAllAccessConditionContracts",
      "outputs": [
        {
          "internalType": "address[]",
          "name": "",
          "type": "address[]"
        }
      ],
      "stateMutability": "view",
      "type": "function"
    },
    {
      "inputs": [],
      "name": "getAllERC1155Contracts",
      "outputs": [
        {
          "internalType": "address[]",
          "name": "",
          "type": "address[]"
        }
      ],
      "stateMutability": "view",
      "type": "function"
    },
    {
      "inputs": [],
      "name": "getAllMintCount",
      "outputs": [
        {
          "internalType": "uint256",
          "name": "",
          "type": "uint256"
        }
      ],
      "stateMutability": "view",
      "type": "function"
    },
    {
      "inputs": [
        {
          "internalType": "address",
          "name": "user",
          "type": "address"
        }
      ],
      "name": "getAllMintedDocumentIds",
      "outputs": [
        {
          "internalType": "bytes32[]",
          "name": "",
          "type": "bytes32[]"
        }
      ],
      "stateMutability": "view",
      "type": "function"
    },
    {
      "inputs": [
        {
          "internalType": "address",
          "name": "user",
          "type": "address"
        }
      ],
      "name": "getAllMintedTokens",
      "outputs": [
        {
          "components": [
            {
              "internalType": "address",
              "name": "contractAddress",
              "type": "address"
            },
            {
              "internalType": "uint256",
              "name": "tokenId",
              "type": "uint256"
            },
            {
              "internalType": "string",
              "name": "tokenURI",
              "type": "string"
            }
          ],
          "internalType": "struct VWBLDataCollector.TokenInfo[]",
          "name": "",
          "type": "tuple[]"
        }
      ],
      "stateMutability": "view",
      "type": "function"
    },
    {
      "inputs": [
        {
          "internalType": "address",
          "name": "user",
          "type": "address"
        }
      ],
      "name": "getAllMintedTokensOfERC1155",
      "outputs": [
        {
          "components": [
            {
              "internalType": "address",
              "name": "contractAddress",
              "type": "address"
            },
            {
              "internalType": "uint256",
              "name": "tokenId",
              "type": "uint256"
            },
            {
              "internalType": "string",
              "name": "tokenURI",
              "type": "string"
            }
          ],
          "internalType": "struct VWBLDataCollector.TokenInfo[]",
          "name": "",
          "type": "tuple[]"
        }
      ],
      "stateMutability": "view",
      "type": "function"
    },
    {
      "inputs": [
        {
          "internalType": "address",
          "name": "user",
          "type": "address"
        }
      ],
      "name": "getAllMintedTokensOfNFT",
      "outputs": [
        {
          "components": [
            {
              "internalType": "address",
              "name": "contractAddress",
              "type": "address"
            },
            {
              "internalType": "uint256",
              "name": "tokenId",
              "type": "uint256"
            },
            {
              "internalType": "string",
              "name": "tokenURI",
              "type": "string"
            }
          ],
          "internalType": "struct VWBLDataCollector.TokenInfo[]",
          "name": "",
          "type": "tuple[]"
        }
      ],
      "stateMutability": "view",
      "type": "function"
    },
    {
      "inputs": [],
      "name": "getAllNFTContracts",
      "outputs": [
        {
          "internalType": "address[]",
          "name": "",
          "type": "address[]"
        }
      ],
      "stateMutability": "view",
      "type": "function"
    },
    {
      "inputs": [
        {
          "internalType": "address",
          "name": "user",
          "type": "address"
        }
      ],
      "name": "getAllOwnedDocumentIds",
      "outputs": [
        {
          "internalType": "bytes32[]",
          "name": "",
          "type": "bytes32[]"
        }
      ],
      "stateMutability": "view",
      "type": "function"
    },
    {
      "inputs": [
        {
          "internalType": "address",
          "name": "user",
          "type": "address"
        }
      ],
      "name": "getAllOwnedTokens",
      "outputs": [
        {
          "components": [
            {
              "internalType": "address",
              "name": "contractAddress",
              "type": "address"
            },
            {
              "internalType": "uint256",
              "name": "tokenId",
              "type": "uint256"
            },
            {
              "internalType": "string",
              "name": "tokenURI",
              "type": "string"
            }
          ],
          "internalType": "struct VWBLDataCollector.TokenInfo[]",
          "name": "",
          "type": "tuple[]"
        }
      ],
      "stateMutability": "view",
      "type": "function"
    },
    {
      "inputs": [
        {
          "internalType": "address",
          "name": "contractAddress",
          "type": "address"
        }
      ],
      "name": "getAllTokensFromOptionalContract",
      "outputs": [
        {
          "components": [
            {
              "internalType": "address",
              "name": "contractAddress",
              "type": "address"
            },
            {
              "internalType": "uint256",
              "name": "tokenId",
              "type": "uint256"
            },
            {
              "internalType": "string",
              "name": "tokenURI",
              "type": "string"
            }
          ],
          "internalType": "struct VWBLDataCollector.TokenInfo[]",
          "name": "",
          "type": "tuple[]"
        }
      ],
      "stateMutability": "view",
      "type": "function"
    },
    {
      "inputs": [],
      "name": "getAllVWBLContracts",
      "outputs": [
        {
          "internalType": "address[]",
          "name": "",
          "type": "address[]"
        }
      ],
      "stateMutability": "view",
      "type": "function"
    },
    {
      "inputs": [
        {
          "internalType": "address",
          "name": "contractAddress",
          "type": "address"
        },
        {
          "internalType": "uint256",
          "name": "tokenId",
          "type": "uint256"
        }
      ],
      "name": "getDocumentId",
      "outputs": [
        {
          "internalType": "bytes32",
          "name": "",
          "type": "bytes32"
        }
      ],
      "stateMutability": "view",
      "type": "function"
    },
    {
      "inputs": [],
      "name": "getERC1155AccessConditionContracts",
      "outputs": [
        {
          "internalType": "address[]",
          "name": "",
          "type": "address[]"
        }
      ],
      "stateMutability": "view",
      "type": "function"
    },
    {
      "inputs": [],
      "name": "getGatewayAddress",
      "outputs": [
        {
          "internalType": "address",
          "name": "",
          "type": "address"
        }
      ],
      "stateMutability": "view",
      "type": "function"
    },
    {
      "inputs": [
        {
          "internalType": "address",
          "name": "addr",
          "type": "address"
        }
      ],
      "name": "getMintCount",
      "outputs": [
        {
          "internalType": "uint256",
          "name": "",
          "type": "uint256"
        }
      ],
      "stateMutability": "view",
      "type": "function"
    },
    {
      "inputs": [],
      "name": "getNFTAccessConditionContracts",
      "outputs": [
        {
          "internalType": "address[]",
          "name": "",
          "type": "address[]"
        }
      ],
      "stateMutability": "view",
      "type": "function"
    },
    {
      "inputs": [
        {
          "internalType": "address",
          "name": "user",
          "type": "address"
        }
      ],
      "name": "getOwnedDocumentIdsOfERC1155",
      "outputs": [
        {
          "internalType": "bytes32[]",
          "name": "",
          "type": "bytes32[]"
        }
      ],
      "stateMutability": "view",
      "type": "function"
    },
    {
      "inputs": [
        {
          "internalType": "address",
          "name": "user",
          "type": "address"
        }
      ],
      "name": "getOwnedDocumentIdsOfNFT",
      "outputs": [
        {
          "internalType": "bytes32[]",
          "name": "",
          "type": "bytes32[]"
        }
      ],
      "stateMutability": "view",
      "type": "function"
    },
    {
      "inputs": [
        {
          "internalType": "address",
          "name": "user",
          "type": "address"
        }
      ],
      "name": "getOwnedERC1155s",
      "outputs": [
        {
          "components": [
            {
              "internalType": "address",
              "name": "contractAddress",
              "type": "address"
            },
            {
              "internalType": "uint256",
              "name": "tokenId",
              "type": "uint256"
            },
            {
              "internalType": "string",
              "name": "tokenURI",
              "type": "string"
            }
          ],
          "internalType": "struct VWBLDataCollector.TokenInfo[]",
          "name": "",
          "type": "tuple[]"
        }
      ],
      "stateMutability": "view",
      "type": "function"
    },
    {
      "inputs": [
        {
          "internalType": "address",
          "name": "user",
          "type": "address"
        }
      ],
      "name": "getOwnedNFTs",
      "outputs": [
        {
          "components": [
            {
              "internalType": "address",
              "name": "contractAddress",
              "type": "address"
            },
            {
              "internalType": "uint256",
              "name": "tokenId",
              "type": "uint256"
            },
            {
              "internalType": "string",
              "name": "tokenURI",
              "type": "string"
            }
          ],
          "internalType": "struct VWBLDataCollector.TokenInfo[]",
          "name": "",
          "type": "tuple[]"
        }
      ],
      "stateMutability": "view",
      "type": "function"
    },
    {
      "inputs": [
        {
          "internalType": "address",
          "name": "contractAddress",
          "type": "address"
        },
        {
          "internalType": "uint256",
          "name": "tokenId",
          "type": "uint256"
        }
      ],
      "name": "getTokenURI",
      "outputs": [
        {
          "internalType": "string",
          "name": "",
          "type": "string"
        }
      ],
      "stateMutability": "view",
      "type": "function"
    },
    {
      "inputs": [
        {
          "internalType": "address",
          "name": "addr",
          "type": "address"
        }
      ],
      "name": "getVWBLContractsFromOptionalChecker",
      "outputs": [
        {
          "internalType": "address[]",
          "name": "",
          "type": "address[]"
        }
      ],
      "stateMutability": "view",
      "type": "function"
    },
    {
      "inputs": [
        {
          "internalType": "address",
          "name": "addr",
          "type": "address"
        }
      ],
      "name": "getVWBLTokenType",
      "outputs": [
        {
          "internalType": "uint256",
          "name": "",
          "type": "uint256"
        }
      ],
      "stateMutability": "view",
      "type": "function"
    },
    {
      "inputs": [],
      "name": "prevAccessChecker",
      "outputs": [
        {
          "internalType": "address",
          "name": "",
          "type": "address"
        }
      ],
      "stateMutability": "view",
      "type": "function"
    }
  ],
  "bytecode": "0x60806040523480156200001157600080fd5b50604051620049fd380380620049fd833981016040819052620000349162000083565b600080546001600160a01b039384166001600160a01b03199182161790915560018054929093169116179055620000bb565b80516001600160a01b03811681146200007e57600080fd5b919050565b600080604083850312156200009757600080fd5b620000a28362000066565b9150620000b26020840162000066565b90509250929050565b61493280620000cb6000396000f3fe608060405234801561001057600080fd5b50600436106101a95760003560e01c8063729963eb116100f9578063b88a921111610097578063c6444be411610071578063c6444be41461036e578063ca5a095814610381578063cc6b69a614610394578063edc852a3146103a757600080fd5b8063b88a921114610340578063baaac99914610348578063bef145641461035b57600080fd5b80639050f74d116100d35780639050f74d1461030a578063a2801f5714610312578063aac6baea14610325578063b41bde131461032d57600080fd5b8063729963eb146102e757806375d5848e146102ef5780637dd4899e146102f757600080fd5b80632844ddf21161016657806335711346116101405780633571134614610299578063375175df146102b957806359ee0a8b146102cc578063693e50aa146102df57600080fd5b80632844ddf2146102515780632b0fe359146102715780632e5ba2481461028457600080fd5b806303ed4264146101ae5780630b63fd62146101d75780630f915c64146101f757806318148f1b1461020a5780631993db7c1461021d5780631b5fad471461023e575b600080fd5b6101c16101bc366004614311565b6103ba565b6040516101ce9190614385565b60405180910390f35b6101ea6101e536600461440d565b6107bb565b6040516101ce9190614439565b6101c1610205366004614311565b6108ee565b6101c1610218366004614311565b610caa565b61023061022b36600461440d565b610f39565b6040519081526020016101ce565b61023061024c366004614311565b611061565b61026461025f366004614311565b61117f565b6040516101ce919061444c565b61023061027f366004614311565b6113ea565b61028c611511565b6040516101ce9190614490565b6102a16117ec565b6040516001600160a01b0390911681526020016101ce565b6101c16102c7366004614311565b611869565b6102646102da366004614311565b611c25565b61028c611ef6565b61028c612131565b6102306123ab565b6101c1610305366004614311565b612422565b61028c612771565b610230610320366004614311565b612a07565b61028c612a6b565b6000546102a1906001600160a01b031681565b61028c612c8f565b610264610356366004614311565b612eb3565b6001546102a1906001600160a01b031681565b6101c161037c366004614311565b61318a565b61026461038f366004614311565b613419565b61028c6103a2366004614311565b6137b1565b6101c16103b5366004614311565b613ea5565b606060006103c7836113ea565b9050806001036105aa576000836001600160a01b03166361bc221a6040518163ffffffff1660e01b8152600401602060405180830381865afa158015610411573d6000803e3d6000fd5b505050506040513d601f19601f8201168201806040525081019061043591906144d1565b90506000816001600160401b03811115610451576104516144ea565b60405190808252806020026020018201604052801561048a57816020015b6104776142d2565b81526020019060019003908161046f5790505b50905060005b828110156105a15760006104a5826001614516565b9050868383815181106104ba576104ba614529565b6020026020010151600001906001600160a01b031690816001600160a01b031681525050808383815181106104f1576104f1614529565b602090810291909101810151015260405163c87b56dd60e01b8152600481018290526001600160a01b0388169063c87b56dd90602401600060405180830381865afa158015610544573d6000803e3d6000fd5b505050506040513d6000823e601f3d908101601f1916820160405261056c91908101906145da565b83838151811061057e5761057e614529565b6020026020010151604001819052505080806105999061460e565b915050610490565b50949350505050565b80600203610782576000836001600160a01b03166361bc221a6040518163ffffffff1660e01b8152600401602060405180830381865afa1580156105f2573d6000803e3d6000fd5b505050506040513d601f19601f8201168201806040525081019061061691906144d1565b90506000816001600160401b03811115610632576106326144ea565b60405190808252806020026020018201604052801561066b57816020015b6106586142d2565b8152602001906001900390816106505790505b50905060005b828110156105a1576000610686826001614516565b90508683838151811061069b5761069b614529565b6020026020010151600001906001600160a01b031690816001600160a01b031681525050808383815181106106d2576106d2614529565b60209081029190910181015101526040516303a24d0760e21b8152600481018290526001600160a01b03881690630e89341c90602401600060405180830381865afa158015610725573d6000803e3d6000fd5b505050506040513d6000823e601f3d908101601f1916820160405261074d91908101906145da565b83838151811061075f5761075f614529565b60200260200101516040018190525050808061077a9061460e565b915050610671565b60408051600080825260208201909252906107b3565b6107a06142d2565b8152602001906001900390816107985790505b509392505050565b60405163c87b56dd60e01b8152600481018290526060906001600160a01b0384169063c87b56dd90602401600060405180830381865afa92505050801561082457506040513d6000823e601f3d908101601f1916820160405261082191908101906145da565b60015b6108e5576040516303a24d0760e21b8152600481018390526001600160a01b03841690630e89341c90602401600060405180830381865afa92505050801561088e57506040513d6000823e601f3d908101601f1916820160405261088b91908101906145da565b60015b6108e5576108d06040518060400160405280601a81526020017f696e76616c69642061646472657373206f7220746f6b656e49640000000000008152506141f4565b506040805160208101909152600081526108e8565b90505b92915050565b606060006108fb83613419565b9050600081516001600160401b03811115610918576109186144ea565b60405190808252806020026020018201604052801561095157816020015b61093e6142d2565b8152602001906001900390816109365790505b50905060005b82518110156107b357600061096a6117ec565b6001600160a01b031663c1e6303185848151811061098a5761098a614529565b60200260200101516040518263ffffffff1660e01b81526004016109b091815260200190565b602060405180830381865afa1580156109cd573d6000803e3d6000fd5b505050506040513d601f19601f820116820180604052508101906109f19190614627565b9050600080826001600160a01b031663eecbc309878681518110610a1757610a17614529565b60200260200101516040518263ffffffff1660e01b8152600401610a3d91815260200190565b6040805180830381865afa158015610a59573d6000803e3d6000fd5b505050506040513d601f19601f82011682018060405250810190610a7d9190614644565b60405163c87b56dd60e01b81526004810182905291935091506001600160a01b0383169063c87b56dd90602401600060405180830381865afa925050508015610ae857506040513d6000823e601f3d908101601f19168201604052610ae591908101906145da565b60015b610c16576040516303a24d0760e21b8152600481018290526001600160a01b03831690630e89341c90602401600060405180830381865afa925050508015610b5257506040513d6000823e601f3d908101601f19168201604052610b4f91908101906145da565b60015b610b9457610b8f604051806040016040528060188152602001771d5b995e1c1958dd195908195c9c9bdc881bd8d8dd5c995960421b8152506141f4565b610c94565b82868681518110610ba757610ba7614529565b6020026020010151600001906001600160a01b031690816001600160a01b03168152505081868681518110610bde57610bde614529565b6020026020010151602001818152505080868681518110610c0157610c01614529565b60200260200101516040018190525050610c94565b82868681518110610c2957610c29614529565b6020026020010151600001906001600160a01b031690816001600160a01b03168152505081868681518110610c6057610c60614529565b6020026020010151602001818152505080868681518110610c8357610c83614529565b602002602001015160400181905250505b5050508080610ca29061460e565b915050610957565b60606000610cb783612eb3565b9050600081516001600160401b03811115610cd457610cd46144ea565b604051908082528060200260200182016040528015610d0d57816020015b610cfa6142d2565b815260200190600190039081610cf25790505b50905060005b82518110156107b3576000610d266117ec565b6001600160a01b031663c1e63031858481518110610d4657610d46614529565b60200260200101516040518263ffffffff1660e01b8152600401610d6c91815260200190565b602060405180830381865afa158015610d89573d6000803e3d6000fd5b505050506040513d601f19601f82011682018060405250810190610dad9190614627565b9050600080826001600160a01b031663eecbc309878681518110610dd357610dd3614529565b60200260200101516040518263ffffffff1660e01b8152600401610df991815260200190565b6040805180830381865afa158015610e15573d6000803e3d6000fd5b505050506040513d601f19601f82011682018060405250810190610e399190614644565b9150915081858581518110610e5057610e50614529565b6020026020010151600001906001600160a01b031690816001600160a01b03168152505080858581518110610e8757610e87614529565b602090810291909101810151015260405163c87b56dd60e01b8152600481018290526001600160a01b0383169063c87b56dd90602401600060405180830381865afa158015610eda573d6000803e3d6000fd5b505050506040513d6000823e601f3d908101601f19168201604052610f0291908101906145da565b858581518110610f1457610f14614529565b6020026020010151604001819052505050508080610f319061460e565b915050610d13565b604051635fb8bcd560e01b8152600481018290526000906001600160a01b03841690635fb8bcd590602401600060405180830381865afa925050508015610fa257506040513d6000823e601f3d908101601f19168201604052610f9f9190810190614672565b60015b61105657604051635fb8bcd560e01b8152600481018390526001600160a01b03841690635fb8bcd590602401600060405180830381865afa92505050801561100c57506040513d6000823e601f3d908101601f191682016040526110099190810190614672565b60015b6110565761104e6040518060400160405280601a81526020017f696e76616c69642061646472657373206f7220746f6b656e49640000000000008152506141f4565b5060006108e8565b8293505050506108e8565b600080826001600160a01b0316637e8d065c6040518163ffffffff1660e01b8152600401600060405180830381865afa9250505080156110c357506040513d6000823e601f3d908101601f191682016040526110c091908101906147f5565b60015b61117457826001600160a01b03166380ebb8c66040518163ffffffff1660e01b8152600401600060405180830381865afa92505050801561112657506040513d6000823e601f3d908101601f1916820160405261112391908101906147f5565b60015b611169576111646040518060400160405280601981526020017834b73b30b634b21030b2323932b9b9903bb0b99033b4bb32b760391b8152506141f4565b6108e8565b6002925050506108e8565b506001949350505050565b6060600061118b6117ec565b6001600160a01b031663478f7a396040518163ffffffff1660e01b8152600401600060405180830381865afa1580156111c8573d6000803e3d6000fd5b505050506040513d6000823e601f3d908101601f191682016040526111f0919081019061486c565b9050600081516001600160401b0381111561120d5761120d6144ea565b604051908082528060200260200182016040528015611236578160200160208202803683370190505b5090506000805b835181101561134457856001600160a01b03166112586117ec565b6001600160a01b031663c6fd95ae86848151811061127857611278614529565b60200260200101516040518263ffffffff1660e01b815260040161129e91815260200190565b602060405180830381865afa1580156112bb573d6000803e3d6000fd5b505050506040513d601f19601f820116820180604052508101906112df9190614627565b6001600160a01b031603611332578381815181106112ff576112ff614529565b602002602001015183838151811061131957611319614529565b60209081029190910101528161132e8161460e565b9250505b8061133c8161460e565b91505061123d565b6000826001600160401b0381111561135e5761135e6144ea565b604051908082528060200260200182016040528015611387578160200160208202803683370190505b509050600091505b828210156113e0578382815181106113a9576113a9614529565b60200260200101518183815181106113c3576113c3614529565b6020908102919091010152816113d88161460e565b92505061138f565b9695505050505050565b60405163c87b56dd60e01b81526001600482015260009081906001600160a01b0384169063c87b56dd90602401600060405180830381865afa92505050801561145557506040513d6000823e601f3d908101601f1916820160405261145291908101906145da565b60015b611507576040516303a24d0760e21b8152600160048201526001600160a01b03841690630e89341c90602401600060405180830381865afa9250505080156114bf57506040513d6000823e601f3d908101601f191682016040526114bc91908101906145da565b60015b6114fd576111646040518060400160405280601981526020017834b73b30b634b21030b2323932b9b9903bb0b99033b4bb32b760391b8152506141f4565b60029150506108e8565b5060019392505050565b6060600061151d6117ec565b6001600160a01b031663478f7a396040518163ffffffff1660e01b8152600401600060405180830381865afa15801561155a573d6000803e3d6000fd5b505050506040513d6000823e601f3d908101601f19168201604052611582919081019061486c565b9050600081516001600160401b0381111561159f5761159f6144ea565b6040519080825280602002602001820160405280156115c8578160200160208202803683370190505b5090506000805b83518210156116f55760006115e26117ec565b6001600160a01b031663c1e6303186858151811061160257611602614529565b60200260200101516040518263ffffffff1660e01b815260040161162891815260200190565b602060405180830381865afa158015611645573d6000803e3d6000fd5b505050506040513d601f19601f820116820180604052508101906116699190614627565b9050600061167682611061565b905080600114801561168f575061168d858361423a565b155b156116e0578261169e8161460e565b9350829050856116af6001866148a0565b815181106116bf576116bf614529565b60200260200101906001600160a01b031690816001600160a01b0316815250505b505081806116ed9061460e565b9250506115cf565b6000611702826001614516565b6001600160401b03811115611719576117196144ea565b604051908082528060200260200182016040528015611742578160200160208202803683370190505b509050600092505b818310156117a85783838151811061176457611764614529565b602002602001015181848151811061177e5761177e614529565b6001600160a01b0390921660209283029190910190910152826117a08161460e565b93505061174a565b60015481516001600160a01b03909116908290849081106117cb576117cb614529565b6001600160a01b039092166020928302919091019091015295945050505050565b60008060009054906101000a90046001600160a01b03166001600160a01b031663357113466040518163ffffffff1660e01b8152600401602060405180830381865afa158015611840573d6000803e3d6000fd5b505050506040513d601f19601f820116820180604052508101906118649190614627565b905090565b606060006118768361117f565b9050600081516001600160401b03811115611893576118936144ea565b6040519080825280602002602001820160405280156118cc57816020015b6118b96142d2565b8152602001906001900390816118b15790505b50905060005b82518110156107b35760006118e56117ec565b6001600160a01b031663c1e6303185848151811061190557611905614529565b60200260200101516040518263ffffffff1660e01b815260040161192b91815260200190565b602060405180830381865afa158015611948573d6000803e3d6000fd5b505050506040513d601f19601f8201168201806040525081019061196c9190614627565b9050600080826001600160a01b031663eecbc30987868151811061199257611992614529565b60200260200101516040518263ffffffff1660e01b81526004016119b891815260200190565b6040805180830381865afa1580156119d4573d6000803e3d6000fd5b505050506040513d601f19601f820116820180604052508101906119f89190614644565b60405163c87b56dd60e01b81526004810182905291935091506001600160a01b0383169063c87b56dd90602401600060405180830381865afa925050508015611a6357506040513d6000823e601f3d908101601f19168201604052611a6091908101906145da565b60015b611b91576040516303a24d0760e21b8152600481018290526001600160a01b03831690630e89341c90602401600060405180830381865afa925050508015611acd57506040513d6000823e601f3d908101601f19168201604052611aca91908101906145da565b60015b611b0f57611b0a604051806040016040528060188152602001771d5b995e1c1958dd195908195c9c9bdc881bd8d8dd5c995960421b8152506141f4565b611c0f565b82868681518110611b2257611b22614529565b6020026020010151600001906001600160a01b031690816001600160a01b03168152505081868681518110611b5957611b59614529565b6020026020010151602001818152505080868681518110611b7c57611b7c614529565b60200260200101516040018190525050611c0f565b82868681518110611ba457611ba4614529565b6020026020010151600001906001600160a01b031690816001600160a01b03168152505081868681518110611bdb57611bdb614529565b6020026020010151602001818152505080868681518110611bfe57611bfe614529565b602002602001015160400181905250505b5050508080611c1d9061460e565b9150506118d2565b60606000611c316117ec565b6001600160a01b031663478f7a396040518163ffffffff1660e01b8152600401600060405180830381865afa158015611c6e573d6000803e3d6000fd5b505050506040513d6000823e601f3d908101601f19168201604052611c96919081019061486c565b9050600081516001600160401b03811115611cb357611cb36144ea565b604051908082528060200260200182016040528015611cdc578160200160208202803683370190505b5090506000805b8351821015611e5a576000848381518110611d0057611d00614529565b602002602001015190506000611d146117ec565b6001600160a01b031663c1e63031836040518263ffffffff1660e01b8152600401611d4191815260200190565b602060405180830381865afa158015611d5e573d6000803e3d6000fd5b505050506040513d601f19601f82011682018060405250810190611d829190614627565b9050611d8d81611061565b6002148015611e085750604051635e14fa1560e11b81526001600160a01b0389811660048301526024820184905282169063bc29f42a90604401602060405180830381865afa158015611de4573d6000803e3d6000fd5b505050506040513d601f19601f82011682018060405250810190611e0891906148b3565b15611e455782611e178161460e565b935082905085611e286001866148a0565b81518110611e3857611e38614529565b6020026020010181815250505b50508180611e529061460e565b925050611ce3565b6000816001600160401b03811115611e7457611e746144ea565b604051908082528060200260200182016040528015611e9d578160200160208202803683370190505b509050600092505b818310156113e057838381518110611ebf57611ebf614529565b6020026020010151818481518110611ed957611ed9614529565b602090810291909101015282611eee8161460e565b935050611ea5565b60606000611f02612131565b90506000611f0e6117ec565b6001600160a01b031663478f7a396040518163ffffffff1660e01b8152600401600060405180830381865afa158015611f4b573d6000803e3d6000fd5b505050506040513d6000823e601f3d908101601f19168201604052611f73919081019061486c565b9050600081516001600160401b03811115611f9057611f906144ea565b604051908082528060200260200182016040528015611fb9578160200160208202803683370190505b5090506000805b845181101561207f576000611fed868381518110611fe057611fe0614529565b60200260200101516137b1565b905060005b815181101561206a57836120058161460e565b94505081818151811061201a5761201a614529565b60200260200101518560018661203091906148a0565b8151811061204057612040614529565b6001600160a01b0390921660209283029190910190910152806120628161460e565b915050611ff2565b505080806120779061460e565b915050611fc0565b506000816001600160401b0381111561209a5761209a6144ea565b6040519080825280602002602001820160405280156120c3578160200160208202803683370190505b50905060005b82811015612127578381815181106120e3576120e3614529565b60200260200101518282815181106120fd576120fd614529565b6001600160a01b03909216602092830291909101909101528061211f8161460e565b9150506120c9565b5095945050505050565b6060600061213d6117ec565b6001600160a01b031663478f7a396040518163ffffffff1660e01b8152600401600060405180830381865afa15801561217a573d6000803e3d6000fd5b505050506040513d6000823e601f3d908101601f191682016040526121a2919081019061486c565b9050600081516001600160401b038111156121bf576121bf6144ea565b6040519080825280602002602001820160405280156121e8578160200160208202803683370190505b5090506000805b83518210156122f85760006122026117ec565b6001600160a01b031663c1e6303186858151811061222257612222614529565b60200260200101516040518263ffffffff1660e01b815260040161224891815260200190565b602060405180830381865afa158015612265573d6000803e3d6000fd5b505050506040513d601f19601f820116820180604052508101906122899190614627565b9050612295848261423a565b6122e557816122a38161460e565b9250819050846122b46001856148a0565b815181106122c4576122c4614529565b60200260200101906001600160a01b031690816001600160a01b0316815250505b50816122f08161460e565b9250506121ef565b6000612305826001614516565b6001600160401b0381111561231c5761231c6144ea565b604051908082528060200260200182016040528015612345578160200160208202803683370190505b509050600092505b818310156117a85783838151811061236757612367614529565b602002602001015181848151811061238157612381614529565b6001600160a01b0390921660209283029190910190910152826123a38161460e565b93505061234d565b6000806123b66117ec565b6001600160a01b031663478f7a396040518163ffffffff1660e01b8152600401600060405180830381865afa1580156123f3573d6000803e3d6000fd5b505050506040513d6000823e601f3d908101601f1916820160405261241b919081019061486c565b5192915050565b6060600061242f8361117f565b9050600081516001600160401b0381111561244c5761244c6144ea565b60405190808252806020026020018201604052801561248557816020015b6124726142d2565b81526020019060019003908161246a5790505b5090506000805b83518110156126c457600061249f6117ec565b6001600160a01b031663c1e630318684815181106124bf576124bf614529565b60200260200101516040518263ffffffff1660e01b81526004016124e591815260200190565b602060405180830381865afa158015612502573d6000803e3d6000fd5b505050506040513d601f19601f820116820180604052508101906125269190614627565b9050600080826001600160a01b031663eecbc30988868151811061254c5761254c614529565b60200260200101516040518263ffffffff1660e01b815260040161257291815260200190565b6040805180830381865afa15801561258e573d6000803e3d6000fd5b505050506040513d601f19601f820116820180604052508101906125b29190614644565b60405163c87b56dd60e01b81526004810182905291935091506001600160a01b0383169063c87b56dd90602401600060405180830381865afa92505050801561261d57506040513d6000823e601f3d908101601f1916820160405261261a91908101906145da565b60015b156126ae578287878151811061263557612635614529565b6020026020010151600001906001600160a01b031690816001600160a01b0316815250508187878151811061266c5761266c614529565b602002602001015160200181815250508087878151811061268f5761268f614529565b60200260200101516040018190525085806126a99061460e565b965050505b50505080806126bc9061460e565b91505061248c565b6000826001600160401b038111156126de576126de6144ea565b60405190808252806020026020018201604052801561271757816020015b6127046142d2565b8152602001906001900390816126fc5790505b509050600091505b828210156113e05783828151811061273957612739614529565b602002602001015181838151811061275357612753614529565b602002602001018190525081806127699061460e565b92505061271f565b6060600061277d6117ec565b6001600160a01b031663478f7a396040518163ffffffff1660e01b8152600401600060405180830381865afa1580156127ba573d6000803e3d6000fd5b505050506040513d6000823e601f3d908101601f191682016040526127e2919081019061486c565b9050600081516001600160401b038111156127ff576127ff6144ea565b604051908082528060200260200182016040528015612828578160200160208202803683370190505b5090506000805b83518210156129555760006128426117ec565b6001600160a01b031663c1e6303186858151811061286257612862614529565b60200260200101516040518263ffffffff1660e01b815260040161288891815260200190565b602060405180830381865afa1580156128a5573d6000803e3d6000fd5b505050506040513d601f19601f820116820180604052508101906128c99190614627565b905060006128d682611061565b90508060021480156128ef57506128ed858361423a565b155b1561294057826128fe8161460e565b93508290508561290f6001866148a0565b8151811061291f5761291f614529565b60200260200101906001600160a01b031690816001600160a01b0316815250505b5050818061294d9061460e565b92505061282f565b6000816001600160401b0381111561296f5761296f6144ea565b604051908082528060200260200182016040528015612998578160200160208202803683370190505b509050600092505b818310156129fe578383815181106129ba576129ba614529565b60200260200101518184815181106129d4576129d4614529565b6001600160a01b0390921660209283029190910190910152826129f68161460e565b9350506129a0565b95945050505050565b6000816001600160a01b03166361bc221a6040518163ffffffff1660e01b8152600401602060405180830381865afa158015612a47573d6000803e3d6000fd5b505050506040513d601f19601f820116820180604052508101906108e891906144d1565b60606000612a77612771565b90506000612a836117ec565b6001600160a01b031663478f7a396040518163ffffffff1660e01b8152600401600060405180830381865afa158015612ac0573d6000803e3d6000fd5b505050506040513d6000823e601f3d908101601f19168201604052612ae8919081019061486c565b9050600081516001600160401b03811115612b0557612b056144ea565b604051908082528060200260200182016040528015612b2e578160200160208202803683370190505b5090506000805b8451811015612be7576000612b55868381518110611fe057611fe0614529565b905060005b8151811015612bd25783612b6d8161460e565b945050818181518110612b8257612b82614529565b602002602001015185600186612b9891906148a0565b81518110612ba857612ba8614529565b6001600160a01b039092166020928302919091019091015280612bca8161460e565b915050612b5a565b50508080612bdf9061460e565b915050612b35565b506000816001600160401b03811115612c0257612c026144ea565b604051908082528060200260200182016040528015612c2b578160200160208202803683370190505b50905060005b8281101561212757838181518110612c4b57612c4b614529565b6020026020010151828281518110612c6557612c65614529565b6001600160a01b039092166020928302919091019091015280612c878161460e565b915050612c31565b60606000612c9b611511565b90506000612ca76117ec565b6001600160a01b031663478f7a396040518163ffffffff1660e01b8152600401600060405180830381865afa158015612ce4573d6000803e3d6000fd5b505050506040513d6000823e601f3d908101601f19168201604052612d0c919081019061486c565b9050600081516001600160401b03811115612d2957612d296144ea565b604051908082528060200260200182016040528015612d52578160200160208202803683370190505b5090506000805b8451811015612e0b576000612d79868381518110611fe057611fe0614529565b905060005b8151811015612df65783612d918161460e565b945050818181518110612da657612da6614529565b602002602001015185600186612dbc91906148a0565b81518110612dcc57612dcc614529565b6001600160a01b039092166020928302919091019091015280612dee8161460e565b915050612d7e565b50508080612e039061460e565b915050612d59565b506000816001600160401b03811115612e2657612e266144ea565b604051908082528060200260200182016040528015612e4f578160200160208202803683370190505b50905060005b8281101561212757838181518110612e6f57612e6f614529565b6020026020010151828281518110612e8957612e89614529565b6001600160a01b039092166020928302919091019091015280612eab8161460e565b915050612e55565b60606000612ebf6117ec565b6001600160a01b031663478f7a396040518163ffffffff1660e01b8152600401600060405180830381865afa158015612efc573d6000803e3d6000fd5b505050506040513d6000823e601f3d908101601f19168201604052612f24919081019061486c565b9050600081516001600160401b03811115612f4157612f416144ea565b604051908082528060200260200182016040528015612f6a578160200160208202803683370190505b5090506000805b83518210156130ee576000848381518110612f8e57612f8e614529565b602002602001015190506000612fa26117ec565b6001600160a01b031663c1e63031836040518263ffffffff1660e01b8152600401612fcf91815260200190565b602060405180830381865afa158015612fec573d6000803e3d6000fd5b505050506040513d601f19601f820116820180604052508101906130109190614627565b905061301b81611061565b600114801561309c5750604051626a1f6360e11b8152600481018390526001600160a01b03808a16919083169062d43ec690602401602060405180830381865afa15801561306d573d6000803e3d6000fd5b505050506040513d601f19601f820116820180604052508101906130919190614627565b6001600160a01b0316145b156130d957826130ab8161460e565b9350829050856130bc6001866148a0565b815181106130cc576130cc614529565b6020026020010181815250505b505081806130e69061460e565b925050612f71565b6000816001600160401b03811115613108576131086144ea565b604051908082528060200260200182016040528015613131578160200160208202803683370190505b509050600092505b818310156113e05783838151811061315357613153614529565b602002602001015181848151811061316d5761316d614529565b6020908102919091010152826131828161460e565b935050613139565b6060600061319783611c25565b9050600081516001600160401b038111156131b4576131b46144ea565b6040519080825280602002602001820160405280156131ed57816020015b6131da6142d2565b8152602001906001900390816131d25790505b50905060005b82518110156107b35760006132066117ec565b6001600160a01b031663c1e6303185848151811061322657613226614529565b60200260200101516040518263ffffffff1660e01b815260040161324c91815260200190565b602060405180830381865afa158015613269573d6000803e3d6000fd5b505050506040513d601f19601f8201168201806040525081019061328d9190614627565b9050600080826001600160a01b031663eecbc3098786815181106132b3576132b3614529565b60200260200101516040518263ffffffff1660e01b81526004016132d991815260200190565b6040805180830381865afa1580156132f5573d6000803e3d6000fd5b505050506040513d601f19601f820116820180604052508101906133199190614644565b915091508185858151811061333057613330614529565b6020026020010151600001906001600160a01b031690816001600160a01b0316815250508085858151811061336757613367614529565b60209081029190910181015101526040516303a24d0760e21b8152600481018290526001600160a01b03831690630e89341c90602401600060405180830381865afa1580156133ba573d6000803e3d6000fd5b505050506040513d6000823e601f3d908101601f191682016040526133e291908101906145da565b8585815181106133f4576133f4614529565b60200260200101516040018190525050505080806134119061460e565b9150506131f3565b606060006134256117ec565b6001600160a01b031663478f7a396040518163ffffffff1660e01b8152600401600060405180830381865afa158015613462573d6000803e3d6000fd5b505050506040513d6000823e601f3d908101601f1916820160405261348a919081019061486c565b9050600081516001600160401b038111156134a7576134a76144ea565b6040519080825280602002602001820160405280156134d0578160200160208202803683370190505b5090506000805b83518210156137155760008483815181106134f4576134f4614529565b6020026020010151905060006135086117ec565b6001600160a01b031663c1e63031836040518263ffffffff1660e01b815260040161353591815260200190565b602060405180830381865afa158015613552573d6000803e3d6000fd5b505050506040513d601f19601f820116820180604052508101906135769190614627565b905061358181611061565b60011480156136025750604051626a1f6360e11b8152600481018390526001600160a01b03808a16919083169062d43ec690602401602060405180830381865afa1580156135d3573d6000803e3d6000fd5b505050506040513d601f19601f820116820180604052508101906135f79190614627565b6001600160a01b0316145b1561363f57826136118161460e565b9350829050856136226001866148a0565b8151811061363257613632614529565b6020026020010181815250505b61364881611061565b60021480156136c35750604051635e14fa1560e11b81526001600160a01b0389811660048301526024820184905282169063bc29f42a90604401602060405180830381865afa15801561369f573d6000803e3d6000fd5b505050506040513d601f19601f820116820180604052508101906136c391906148b3565b1561370057826136d28161460e565b9350829050856136e36001866148a0565b815181106136f3576136f3614529565b6020026020010181815250505b5050818061370d9061460e565b9250506134d7565b6000816001600160401b0381111561372f5761372f6144ea565b604051908082528060200260200182016040528015613758578160200160208202803683370190505b509050600092505b818310156113e05783838151811061377a5761377a614529565b602002602001015181848151811061379457613794614529565b6020908102919091010152826137a98161460e565b935050613760565b60015460609060009081906001600160a01b0390811690851603613a315760006137d96117ec565b6001600160a01b031663478f7a396040518163ffffffff1660e01b8152600401600060405180830381865afa158015613816573d6000803e3d6000fd5b505050506040513d6000823e601f3d908101601f1916820160405261383e919081019061486c565b9050600081516001600160401b0381111561385b5761385b6144ea565b604051908082528060200260200182016040528015613884578160200160208202803683370190505b509050600092505b815183101561398857856001600160a01b031663eecbc3098385815181106138b6576138b6614529565b60200260200101516040518263ffffffff1660e01b81526004016138dc91815260200190565b6040805180830381865afa925050508015613914575060408051601f3d908101601f1916820190925261391191810190614644565b60015b1561397657613923838361423a565b61397357856139318161460e565b9650829050836139426001896148a0565b8151811061395257613952614529565b60200260200101906001600160a01b031690816001600160a01b0316815250505b50505b826139808161460e565b93505061388c565b6000846001600160401b038111156139a2576139a26144ea565b6040519080825280602002602001820160405280156139cb578160200160208202803683370190505b509050600093505b848410156113e0578184815181106139ed576139ed614529565b6020026020010151818581518110613a0757613a07614529565b6001600160a01b039092166020928302919091019091015283613a298161460e565b9450506139d3565b836001600160a01b0316637e8d065c6040518163ffffffff1660e01b8152600401600060405180830381865afa925050508015613a9057506040513d6000823e601f3d908101601f19168201604052613a8d91908101906147f5565b60015b613d1157836001600160a01b03166380ebb8c66040518163ffffffff1660e01b8152600401600060405180830381865afa925050508015613af357506040513d6000823e601f3d908101601f19168201604052613af091908101906147f5565b60015b613b6157613b186040518060600160405280602781526020016148d6602791396141f4565b816001600160401b03811115613b3057613b306144ea565b6040519080825280602002602001820160405280156105a15781602001602082028036833701905050949350505050565b600081516001600160401b03811115613b7c57613b7c6144ea565b604051908082528060200260200182016040528015613ba5578160200160208202803683370190505b509050600093505b8151841015613c5d57613bdd81838681518110613bcc57613bcc614529565b60200260200101516000015161423a565b613c4b5784613beb8161460e565b955050818481518110613c0057613c00614529565b60200260200101516000015181600187613c1a91906148a0565b81518110613c2a57613c2a614529565b60200260200101906001600160a01b031690816001600160a01b0316815250505b83613c558161460e565b945050613bad565b6000856001600160401b03811115613c7757613c776144ea565b604051908082528060200260200182016040528015613ca0578160200160208202803683370190505b509050600094505b85851015613d0657818581518110613cc257613cc2614529565b6020026020010151818681518110613cdc57613cdc614529565b6001600160a01b039092166020928302919091019091015284613cfe8161460e565b955050613ca8565b979650505050505050565b600081516001600160401b03811115613d2c57613d2c6144ea565b604051908082528060200260200182016040528015613d55578160200160208202803683370190505b509050600093505b8151841015613dfc57613d7c81838681518110613bcc57613bcc614529565b613dea5784613d8a8161460e565b955050818481518110613d9f57613d9f614529565b60200260200101516000015181600187613db991906148a0565b81518110613dc957613dc9614529565b60200260200101906001600160a01b031690816001600160a01b0316815250505b83613df48161460e565b945050613d5d565b6000856001600160401b03811115613e1657613e166144ea565b604051908082528060200260200182016040528015613e3f578160200160208202803683370190505b509050600094505b85851015613d0657818581518110613e6157613e61614529565b6020026020010151818681518110613e7b57613e7b614529565b6001600160a01b039092166020928302919091019091015284613e9d8161460e565b955050613e47565b60606000613eb28361117f565b9050600081516001600160401b03811115613ecf57613ecf6144ea565b604051908082528060200260200182016040528015613f0857816020015b613ef56142d2565b815260200190600190039081613eed5790505b5090506000805b8351811015614147576000613f226117ec565b6001600160a01b031663c1e63031868481518110613f4257613f42614529565b60200260200101516040518263ffffffff1660e01b8152600401613f6891815260200190565b602060405180830381865afa158015613f85573d6000803e3d6000fd5b505050506040513d601f19601f82011682018060405250810190613fa99190614627565b9050600080826001600160a01b031663eecbc309888681518110613fcf57613fcf614529565b60200260200101516040518263ffffffff1660e01b8152600401613ff591815260200190565b6040805180830381865afa158015614011573d6000803e3d6000fd5b505050506040513d601f19601f820116820180604052508101906140359190614644565b6040516303a24d0760e21b81526004810182905291935091506001600160a01b03831690630e89341c90602401600060405180830381865afa9250505080156140a057506040513d6000823e601f3d908101601f1916820160405261409d91908101906145da565b60015b1561413157828787815181106140b8576140b8614529565b6020026020010151600001906001600160a01b031690816001600160a01b031681525050818787815181106140ef576140ef614529565b602002602001015160200181815250508087878151811061411257614112614529565b602002602001015160400181905250858061412c9061460e565b965050505b505050808061413f9061460e565b915050613f0f565b6000826001600160401b03811115614161576141616144ea565b60405190808252806020026020018201604052801561419a57816020015b6141876142d2565b81526020019060019003908161417f5790505b509050600091505b828210156113e0578382815181106141bc576141bc614529565b60200260200101518183815181106141d6576141d6614529565b602002602001018190525081806141ec9061460e565b9250506141a2565b614237816040516024016142089190614439565b60408051601f198184030181529190526020810180516001600160e01b031663104c13eb60e21b1790526142b1565b50565b6000825160000361424d575060006108e8565b60005b83518110156142a757826001600160a01b031684828151811061427557614275614529565b60200260200101516001600160a01b0316036142955760019150506108e8565b8061429f8161460e565b915050614250565b5060009392505050565b80516a636f6e736f6c652e6c6f67602083016000808483855afa5050505050565b604051806060016040528060006001600160a01b0316815260200160008152602001606081525090565b6001600160a01b038116811461423757600080fd5b60006020828403121561432357600080fd5b813561432e816142fc565b9392505050565b60005b83811015614350578181015183820152602001614338565b50506000910152565b60008151808452614371816020860160208601614335565b601f01601f19169290920160200192915050565b60006020808301818452808551808352604092508286019150828160051b87010184880160005b838110156143ff57888303603f19018552815180516001600160a01b03168452878101518885015286015160608785018190526143eb81860183614359565b9689019694505050908601906001016143ac565b509098975050505050505050565b6000806040838503121561442057600080fd5b823561442b816142fc565b946020939093013593505050565b60208152600061432e6020830184614359565b6020808252825182820181905260009190848201906040850190845b8181101561448457835183529284019291840191600101614468565b50909695505050505050565b6020808252825182820181905260009190848201906040850190845b818110156144845783516001600160a01b0316835292840192918401916001016144ac565b6000602082840312156144e357600080fd5b5051919050565b634e487b7160e01b600052604160045260246000fd5b634e487b7160e01b600052601160045260246000fd5b808201808211156108e8576108e8614500565b634e487b7160e01b600052603260045260246000fd5b604051601f8201601f191681016001600160401b0381118282101715614567576145676144ea565b604052919050565b600082601f83011261458057600080fd5b81516001600160401b03811115614599576145996144ea565b6145ac601f8201601f191660200161453f565b8181528460208386010111156145c157600080fd5b6145d2826020830160208701614335565b949350505050565b6000602082840312156145ec57600080fd5b81516001600160401b0381111561460257600080fd5b6145d28482850161456f565b60006001820161462057614620614500565b5060010190565b60006020828403121561463957600080fd5b815161432e816142fc565b6000806040838503121561465757600080fd5b8251614662816142fc565b6020939093015192949293505050565b60008060006060848603121561468757600080fd5b835192506020840151614699816142fc565b60408501519092506001600160401b038111156146b557600080fd5b6146c18682870161456f565b9150509250925092565b60006001600160401b038211156146e4576146e46144ea565b5060051b60200190565b600082601f8301126146ff57600080fd5b8151602061471461470f836146cb565b61453f565b82815260059290921b8401810191818101908684111561473357600080fd5b8286015b8481101561474e5780518352918301918301614737565b509695505050505050565b600061476761470f846146cb565b8381529050602080820190600685901b84018681111561478657600080fd5b845b818110156147ea57604080828a0312156147a25760008081fd5b80518181018181106001600160401b03821117156147c2576147c26144ea565b9091528151906147d1826142fc565b9081528184015184820152845292820192604001614788565b505050509392505050565b6000806040838503121561480857600080fd5b82516001600160401b038082111561481f57600080fd5b61482b868387016146ee565b9350602085015191508082111561484157600080fd5b508301601f8101851361485357600080fd5b61486285825160208401614759565b9150509250929050565b60006020828403121561487e57600080fd5b81516001600160401b0381111561489457600080fd5b6145d2848285016146ee565b818103818111156108e8576108e8614500565b6000602082840312156148c557600080fd5b8151801515811461432e57600080fdfe7468652061646472657373206973206e6f74206e66742f6572633131353520636865636b65722ea2646970667358221220f52a8d62427735aa0dd99dc01e8c52479e75776e2e9dec4ebf296b994111865d64736f6c63430008110033",
  "linkReferences": {},
  "deployedLinkReferences": {}
}