{
  "_format": "hh-sol-artifact-1",
  "contractName": "VWBLERC1155ERC2981",
  "sourceName": "contracts/access-condition/ERC1155/VWBLERC1155ERC2981.sol",
  "abi": [
    {
      "inputs": [
        {
          "internalType": "string",
          "name": "_baseURI",
          "type": "string"
        },
        {
          "internalType": "address",
          "name": "_gatewayProxy",
          "type": "address"
        },
        {
          "internalType": "address",
          "name": "_accessCheckerContract",
          "type": "address"
        },
        {
          "internalType": "string",
          "name": "_signMessage",
          "type": "string"
        }
      ],
      "stateMutability": "nonpayable",
      "type": "constructor"
    },
    {
      "anonymous": false,
      "inputs": [
        {
          "indexed": true,
          "internalType": "address",
          "name": "account",
          "type": "address"
        },
        {
          "indexed": true,
          "internalType": "address",
          "name": "operator",
          "type": "address"
        },
        {
          "indexed": false,
          "internalType": "bool",
          "name": "approved",
          "type": "bool"
        }
      ],
      "name": "ApprovalForAll",
      "type": "event"
    },
    {
      "anonymous": false,
      "inputs": [
        {
          "indexed": true,
          "internalType": "address",
          "name": "previousOwner",
          "type": "address"
        },
        {
          "indexed": true,
          "internalType": "address",
          "name": "newOwner",
          "type": "address"
        }
      ],
      "name": "OwnershipTransferred",
      "type": "event"
    },
    {
      "anonymous": false,
      "inputs": [
        {
          "indexed": true,
          "internalType": "address",
          "name": "operator",
          "type": "address"
        },
        {
          "indexed": true,
          "internalType": "address",
          "name": "from",
          "type": "address"
        },
        {
          "indexed": true,
          "internalType": "address",
          "name": "to",
          "type": "address"
        },
        {
          "indexed": false,
          "internalType": "uint256[]",
          "name": "ids",
          "type": "uint256[]"
        },
        {
          "indexed": false,
          "internalType": "uint256[]",
          "name": "values",
          "type": "uint256[]"
        }
      ],
      "name": "TransferBatch",
      "type": "event"
    },
    {
      "anonymous": false,
      "inputs": [
        {
          "indexed": true,
          "internalType": "address",
          "name": "operator",
          "type": "address"
        },
        {
          "indexed": true,
          "internalType": "address",
          "name": "from",
          "type": "address"
        },
        {
          "indexed": true,
          "internalType": "address",
          "name": "to",
          "type": "address"
        },
        {
          "indexed": false,
          "internalType": "uint256",
          "name": "id",
          "type": "uint256"
        },
        {
          "indexed": false,
          "internalType": "uint256",
          "name": "value",
          "type": "uint256"
        }
      ],
      "name": "TransferSingle",
      "type": "event"
    },
    {
      "anonymous": false,
      "inputs": [
        {
          "indexed": false,
          "internalType": "string",
          "name": "value",
          "type": "string"
        },
        {
          "indexed": true,
          "internalType": "uint256",
          "name": "id",
          "type": "uint256"
        }
      ],
      "name": "URI",
      "type": "event"
    },
    {
      "anonymous": false,
      "inputs": [
        {
          "indexed": false,
          "internalType": "address",
          "name": "oldAccessCheckerContract",
          "type": "address"
        },
        {
          "indexed": false,
          "internalType": "address",
          "name": "newAccessCheckerContract",
          "type": "address"
        }
      ],
      "name": "accessCheckerContractChanged",
      "type": "event"
    },
    {
      "inputs": [
        {
          "internalType": "uint256",
          "name": "",
          "type": "uint256"
        }
      ],
      "name": "_tokenIdToTokenBalance",
      "outputs": [
        {
          "internalType": "uint256",
          "name": "",
          "type": "uint256"
        }
      ],
      "stateMutability": "view",
      "type": "function"
    },
    {
      "inputs": [],
      "name": "accessCheckerContract",
      "outputs": [
        {
          "internalType": "address",
          "name": "",
          "type": "address"
        }
      ],
      "stateMutability": "view",
      "type": "function"
    },
    {
      "inputs": [
        {
          "internalType": "address",
          "name": "account",
          "type": "address"
        },
        {
          "internalType": "uint256",
          "name": "id",
          "type": "uint256"
        }
      ],
      "name": "balanceOf",
      "outputs": [
        {
          "internalType": "uint256",
          "name": "",
          "type": "uint256"
        }
      ],
      "stateMutability": "view",
      "type": "function"
    },
    {
      "inputs": [
        {
          "internalType": "address[]",
          "name": "accounts",
          "type": "address[]"
        },
        {
          "internalType": "uint256[]",
          "name": "ids",
          "type": "uint256[]"
        }
      ],
      "name": "balanceOfBatch",
      "outputs": [
        {
          "internalType": "uint256[]",
          "name": "",
          "type": "uint256[]"
        }
      ],
      "stateMutability": "view",
      "type": "function"
    },
    {
      "inputs": [],
      "name": "baseURI",
      "outputs": [
        {
          "internalType": "string",
          "name": "",
          "type": "string"
        }
      ],
      "stateMutability": "view",
      "type": "function"
    },
    {
      "inputs": [
        {
          "internalType": "address",
          "name": "account",
          "type": "address"
        },
        {
          "internalType": "uint256",
          "name": "id",
          "type": "uint256"
        },
        {
          "internalType": "uint256",
          "name": "value",
          "type": "uint256"
        }
      ],
      "name": "burn",
      "outputs": [],
      "stateMutability": "nonpayable",
      "type": "function"
    },
    {
      "inputs": [
        {
          "internalType": "address",
          "name": "account",
          "type": "address"
        },
        {
          "internalType": "uint256[]",
          "name": "ids",
          "type": "uint256[]"
        },
        {
          "internalType": "uint256[]",
          "name": "values",
          "type": "uint256[]"
        }
      ],
      "name": "burnBatch",
      "outputs": [],
      "stateMutability": "nonpayable",
      "type": "function"
    },
    {
      "inputs": [],
      "name": "counter",
      "outputs": [
        {
          "internalType": "uint256",
          "name": "",
          "type": "uint256"
        }
      ],
      "stateMutability": "view",
      "type": "function"
    },
    {
      "inputs": [],
      "name": "gatewayProxy",
      "outputs": [
        {
          "internalType": "address",
          "name": "",
          "type": "address"
        }
      ],
      "stateMutability": "view",
      "type": "function"
    },
    {
      "inputs": [],
      "name": "getAllowOrigins",
      "outputs": [
        {
          "internalType": "string",
          "name": "",
          "type": "string"
        }
      ],
      "stateMutability": "view",
      "type": "function"
    },
    {
      "inputs": [],
      "name": "getFee",
      "outputs": [
        {
          "internalType": "uint256",
          "name": "",
          "type": "uint256"
        }
      ],
      "stateMutability": "view",
      "type": "function"
    },
    {
      "inputs": [],
      "name": "getGatewayAddress",
      "outputs": [
        {
          "internalType": "address",
          "name": "",
          "type": "address"
        }
      ],
      "stateMutability": "view",
      "type": "function"
    },
    {
      "inputs": [
        {
          "internalType": "uint256",
          "name": "tokenId",
          "type": "uint256"
        }
      ],
      "name": "getMinter",
      "outputs": [
        {
          "internalType": "address",
          "name": "",
          "type": "address"
        }
      ],
      "stateMutability": "view",
      "type": "function"
    },
    {
      "inputs": [],
      "name": "getSignMessage",
      "outputs": [
        {
          "internalType": "string",
          "name": "",
          "type": "string"
        }
      ],
      "stateMutability": "view",
      "type": "function"
    },
    {
      "inputs": [
        {
          "internalType": "address",
          "name": "minter",
          "type": "address"
        }
      ],
      "name": "getTokenByMinter",
      "outputs": [
        {
          "internalType": "uint256[]",
          "name": "",
          "type": "uint256[]"
        }
      ],
      "stateMutability": "view",
      "type": "function"
    },
    {
      "inputs": [
        {
          "internalType": "address",
          "name": "account",
          "type": "address"
        },
        {
          "internalType": "address",
          "name": "operator",
          "type": "address"
        }
      ],
      "name": "isApprovedForAll",
      "outputs": [
        {
          "internalType": "bool",
          "name": "",
          "type": "bool"
        }
      ],
      "stateMutability": "view",
      "type": "function"
    },
    {
      "inputs": [
        {
          "internalType": "string",
          "name": "_getKeyURl",
          "type": "string"
        },
        {
          "internalType": "uint256",
          "name": "_amount",
          "type": "uint256"
        },
        {
          "internalType": "uint96",
          "name": "_feeNumerator",
          "type": "uint96"
        },
        {
          "internalType": "bytes32",
          "name": "_documentId",
          "type": "bytes32"
        }
      ],
      "name": "mint",
      "outputs": [
        {
          "internalType": "uint256",
          "name": "",
          "type": "uint256"
        }
      ],
      "stateMutability": "payable",
      "type": "function"
    },
    {
      "inputs": [
        {
          "internalType": "string",
          "name": "_getKeyURl",
          "type": "string"
        },
        {
          "internalType": "uint256[]",
          "name": "_amounts",
          "type": "uint256[]"
        },
        {
          "internalType": "uint96[]",
          "name": "_feeNumerators",
          "type": "uint96[]"
        },
        {
          "internalType": "bytes32[]",
          "name": "_documentIds",
          "type": "bytes32[]"
        }
      ],
      "name": "mintBatch",
      "outputs": [
        {
          "internalType": "uint256[]",
          "name": "",
          "type": "uint256[]"
        }
      ],
      "stateMutability": "payable",
      "type": "function"
    },
    {
      "inputs": [],
      "name": "owner",
      "outputs": [
        {
          "internalType": "address",
          "name": "",
          "type": "address"
        }
      ],
      "stateMutability": "view",
      "type": "function"
    },
    {
      "inputs": [],
      "name": "renounceOwnership",
      "outputs": [],
      "stateMutability": "nonpayable",
      "type": "function"
    },
    {
      "inputs": [
        {
          "internalType": "uint256",
          "name": "_tokenId",
          "type": "uint256"
        },
        {
          "internalType": "uint256",
          "name": "_salePrice",
          "type": "uint256"
        }
      ],
      "name": "royaltyInfo",
      "outputs": [
        {
          "internalType": "address",
          "name": "",
          "type": "address"
        },
        {
          "internalType": "uint256",
          "name": "",
          "type": "uint256"
        }
      ],
      "stateMutability": "view",
      "type": "function"
    },
    {
      "inputs": [
        {
          "internalType": "address",
          "name": "from",
          "type": "address"
        },
        {
          "internalType": "address",
          "name": "to",
          "type": "address"
        },
        {
          "internalType": "uint256[]",
          "name": "ids",
          "type": "uint256[]"
        },
        {
          "internalType": "uint256[]",
          "name": "amounts",
          "type": "uint256[]"
        },
        {
          "internalType": "bytes",
          "name": "data",
          "type": "bytes"
        }
      ],
      "name": "safeBatchTransferAndPayFee",
      "outputs": [],
      "stateMutability": "payable",
      "type": "function"
    },
    {
      "inputs": [
        {
          "internalType": "address",
          "name": "from",
          "type": "address"
        },
        {
          "internalType": "address",
          "name": "to",
          "type": "address"
        },
        {
          "internalType": "uint256[]",
          "name": "ids",
          "type": "uint256[]"
        },
        {
          "internalType": "uint256[]",
          "name": "amounts",
          "type": "uint256[]"
        },
        {
          "internalType": "bytes",
          "name": "data",
          "type": "bytes"
        }
      ],
      "name": "safeBatchTransferFrom",
      "outputs": [],
      "stateMutability": "nonpayable",
      "type": "function"
    },
    {
      "inputs": [
        {
          "internalType": "address",
          "name": "from",
          "type": "address"
        },
        {
          "internalType": "address",
          "name": "to",
          "type": "address"
        },
        {
          "internalType": "uint256",
          "name": "id",
          "type": "uint256"
        },
        {
          "internalType": "uint256",
          "name": "amount",
          "type": "uint256"
        },
        {
          "internalType": "bytes",
          "name": "data",
          "type": "bytes"
        }
      ],
      "name": "safeTransferAndPayFee",
      "outputs": [],
      "stateMutability": "payable",
      "type": "function"
    },
    {
      "inputs": [
        {
          "internalType": "address",
          "name": "from",
          "type": "address"
        },
        {
          "internalType": "address",
          "name": "to",
          "type": "address"
        },
        {
          "internalType": "uint256",
          "name": "id",
          "type": "uint256"
        },
        {
          "internalType": "uint256",
          "name": "amount",
          "type": "uint256"
        },
        {
          "internalType": "bytes",
          "name": "data",
          "type": "bytes"
        }
      ],
      "name": "safeTransferFrom",
      "outputs": [],
      "stateMutability": "nonpayable",
      "type": "function"
    },
    {
      "inputs": [
        {
          "internalType": "address",
          "name": "newAccessCheckerContract",
          "type": "address"
        }
      ],
      "name": "setAccessCheckerContract",
      "outputs": [],
      "stateMutability": "nonpayable",
      "type": "function"
    },
    {
      "inputs": [
        {
          "internalType": "string",
          "name": "_origins",
          "type": "string"
        }
      ],
      "name": "setAllowOrigins",
      "outputs": [],
      "stateMutability": "nonpayable",
      "type": "function"
    },
    {
      "inputs": [
        {
          "internalType": "address",
          "name": "operator",
          "type": "address"
        },
        {
          "internalType": "bool",
          "name": "approved",
          "type": "bool"
        }
      ],
      "name": "setApprovalForAll",
      "outputs": [],
      "stateMutability": "nonpayable",
      "type": "function"
    },
    {
      "inputs": [
        {
          "internalType": "string",
          "name": "_baseURI",
          "type": "string"
        }
      ],
      "name": "setBaseURI",
      "outputs": [],
      "stateMutability": "nonpayable",
      "type": "function"
    },
    {
      "inputs": [
        {
          "internalType": "string",
          "name": "_signMessage",
          "type": "string"
        }
      ],
      "name": "setSignMessage",
      "outputs": [],
      "stateMutability": "nonpayable",
      "type": "function"
    },
    {
      "inputs": [
        {
          "internalType": "bytes4",
          "name": "interfaceId",
          "type": "bytes4"
        }
      ],
      "name": "supportsInterface",
      "outputs": [
        {
          "internalType": "bool",
          "name": "",
          "type": "bool"
        }
      ],
      "stateMutability": "view",
      "type": "function"
    },
    {
      "inputs": [
        {
          "internalType": "uint256",
          "name": "index",
          "type": "uint256"
        }
      ],
      "name": "tokenByIndex",
      "outputs": [
        {
          "internalType": "uint256",
          "name": "",
          "type": "uint256"
        }
      ],
      "stateMutability": "view",
      "type": "function"
    },
    {
      "inputs": [
        {
          "internalType": "address",
          "name": "owner",
          "type": "address"
        }
      ],
      "name": "tokenCountOfOwner",
      "outputs": [
        {
          "internalType": "uint256",
          "name": "",
          "type": "uint256"
        }
      ],
      "stateMutability": "view",
      "type": "function"
    },
    {
      "inputs": [
        {
          "internalType": "uint256",
          "name": "",
          "type": "uint256"
        }
      ],
      "name": "tokenIdToTokenInfo",
      "outputs": [
        {
          "internalType": "bytes32",
          "name": "documentId",
          "type": "bytes32"
        },
        {
          "internalType": "address",
          "name": "minterAddress",
          "type": "address"
        },
        {
          "internalType": "string",
          "name": "getKeyURl",
          "type": "string"
        }
      ],
      "stateMutability": "view",
      "type": "function"
    },
    {
      "inputs": [
        {
          "internalType": "address",
          "name": "owner",
          "type": "address"
        },
        {
          "internalType": "uint256",
          "name": "index",
          "type": "uint256"
        }
      ],
      "name": "tokenOfOwnerByIndex",
      "outputs": [
        {
          "internalType": "uint256",
          "name": "",
          "type": "uint256"
        }
      ],
      "stateMutability": "view",
      "type": "function"
    },
    {
      "inputs": [],
      "name": "totalSupply",
      "outputs": [
        {
          "internalType": "uint256",
          "name": "",
          "type": "uint256"
        }
      ],
      "stateMutability": "view",
      "type": "function"
    },
    {
      "inputs": [
        {
          "internalType": "address",
          "name": "newOwner",
          "type": "address"
        }
      ],
      "name": "transferOwnership",
      "outputs": [],
      "stateMutability": "nonpayable",
      "type": "function"
    },
    {
      "inputs": [
        {
          "internalType": "uint256",
          "name": "tokenId",
          "type": "uint256"
        }
      ],
      "name": "uri",
      "outputs": [
        {
          "internalType": "string",
          "name": "",
          "type": "string"
        }
      ],
      "stateMutability": "view",
      "type": "function"
    }
  ],
  "bytecode": "0x60806040526000600f553480156200001657600080fd5b5060405162003e1338038062003e13833981016040819052620000399162000207565b83838383828282866200004c81620000c1565b506200005833620000d3565b600a80546001600160a01b0319166001600160a01b038516179055600b62000081828262000325565b5050600d80546001600160a01b0319166001600160a01b039290921691909117905550600e620000b2858262000325565b505050505050505050620003f1565b6002620000cf828262000325565b5050565b600380546001600160a01b038381166001600160a01b0319831681179093556040519116919082907f8be0079c531659141344cd1fd0a4f28419497f9722a3daafe3b4186f6b6457e090600090a35050565b634e487b7160e01b600052604160045260246000fd5b600082601f8301126200014d57600080fd5b81516001600160401b03808211156200016a576200016a62000125565b604051601f8301601f19908116603f0116810190828211818310171562000195576200019562000125565b81604052838152602092508683858801011115620001b257600080fd5b600091505b83821015620001d65785820183015181830184015290820190620001b7565b600093810190920192909252949350505050565b80516001600160a01b03811681146200020257600080fd5b919050565b600080600080608085870312156200021e57600080fd5b84516001600160401b03808211156200023657600080fd5b62000244888389016200013b565b95506200025460208801620001ea565b94506200026460408801620001ea565b935060608701519150808211156200027b57600080fd5b506200028a878288016200013b565b91505092959194509250565b600181811c90821680620002ab57607f821691505b602082108103620002cc57634e487b7160e01b600052602260045260246000fd5b50919050565b601f8211156200032057600081815260208120601f850160051c81016020861015620002fb5750805b601f850160051c820191505b818110156200031c5782815560010162000307565b5050505b505050565b81516001600160401b0381111562000341576200034162000125565b620003598162000352845462000296565b84620002d2565b602080601f831160018114620003915760008415620003785750858301515b600019600386901b1c1916600185901b1785556200031c565b600085815260208120601f198616915b82811015620003c257888601518255948401946001909101908401620003a1565b5085821015620003e15787850151600019600388901b60f8161c191681555b5050505050600190811b01905550565b613a1280620004016000396000f3fe6080604052600436106102245760003560e01c80636ab29c0811610123578063a22cb465116100ab578063d69fab3b1161006f578063d69fab3b14610674578063e985e9c514610687578063f242432a146106d0578063f2fde38b146106f0578063f5298aca1461071057600080fd5b8063a22cb465146105ea578063b41bde131461060a578063ce5af3361461062a578063ced72f871461064a578063d185f5201461065f57600080fd5b80637db551b0116100f25780637db551b01461054a5780638840fc9d1461055f5780638da5cb5b1461058c57806393fab57b146105aa5780639ab5e975146105ca57600080fd5b80636ab29c08146104ed5780636b20c454146105005780636c0360eb14610520578063715018a61461053557600080fd5b80634e1273f4116101b15780635c330f83116101755780635c330f83146104625780635f6f55af146104755780635fb8bcd51461048857806361bc221a146104b757806368e586e8146104cd57600080fd5b80634e1273f41461039c5780634f6ccce7146103c957806355f804b3146103e95780635a920f06146104095780635b7121f81461042957600080fd5b80632812a3d2116101f85780632812a3d2146102ce5780632a55205a146102f05780632eb2c2d61461032f5780632f745c591461034f578063357113461461036f57600080fd5b8062fdd58e1461022957806301ffc9a71461025c5780630e89341c1461028c57806318160ddd146102b9575b600080fd5b34801561023557600080fd5b50610249610244366004612a55565b610730565b6040519081526020015b60405180910390f35b34801561026857600080fd5b5061027c610277366004612a97565b6107c9565b6040519015158152602001610253565b34801561029857600080fd5b506102ac6102a7366004612abb565b6107d4565b6040516102539190612b24565b3480156102c557600080fd5b50600854610249565b3480156102da57600080fd5b506102ee6102e9366004612b37565b610832565b005b3480156102fc57600080fd5b5061031061030b366004612b54565b6108b6565b604080516001600160a01b039093168352602083019190915201610253565b34801561033b57600080fd5b506102ee61034a366004612cbf565b610964565b34801561035b57600080fd5b5061024961036a366004612a55565b6109b0565b34801561037b57600080fd5b50610384610a47565b6040516001600160a01b039091168152602001610253565b3480156103a857600080fd5b506103bc6103b7366004612d6c565b610aba565b6040516102539190612e73565b3480156103d557600080fd5b506102496103e4366004612abb565b610be3565b3480156103f557600080fd5b506102ee610404366004612e86565b610c77565b34801561041557600080fd5b506102ee610424366004612e86565b610c8f565b34801561043557600080fd5b50610384610444366004612abb565b6000908152601060205260409020600101546001600160a01b031690565b6102ee610470366004612cbf565b610ca3565b6103bc610483366004612ede565b610da9565b34801561049457600080fd5b506104a86104a3366004612abb565b6110d7565b60405161025393929190612fef565b3480156104c357600080fd5b50610249600f5481565b3480156104d957600080fd5b506102496104e8366004612b37565b61118c565b6102ee6104fb366004613022565b611214565b34801561050c57600080fd5b506102ee61051b36600461308a565b6112a7565b34801561052c57600080fd5b506102ac6112ef565b34801561054157600080fd5b506102ee61137d565b34801561055657600080fd5b506102ac611391565b34801561056b57600080fd5b5061024961057a366004612abb565b60076020526000908152604090205481565b34801561059857600080fd5b506003546001600160a01b0316610384565b3480156105b657600080fd5b50600d54610384906001600160a01b031681565b3480156105d657600080fd5b506102ee6105e53660046130ff565b611423565b3480156105f657600080fd5b506102ee610605366004613170565b611438565b34801561061657600080fd5b50600a54610384906001600160a01b031681565b34801561063657600080fd5b506103bc610645366004612b37565b611443565b34801561065657600080fd5b50610249611557565b34801561066b57600080fd5b506102ac6115c2565b6102496106823660046131ae565b6115d1565b34801561069357600080fd5b5061027c6106a236600461320c565b6001600160a01b03918216600090815260016020908152604080832093909416825291909152205460ff1690565b3480156106dc57600080fd5b506102ee6106eb366004613022565b6116ca565b3480156106fc57600080fd5b506102ee61070b366004612b37565b61170f565b34801561071c57600080fd5b506102ee61072b36600461323a565b611788565b60006001600160a01b0383166107a05760405162461bcd60e51b815260206004820152602a60248201527f455243313135353a2061646472657373207a65726f206973206e6f742061207660448201526930b634b21037bbb732b960b11b60648201526084015b60405180910390fd5b506000818152602081815260408083206001600160a01b03861684529091529020545b92915050565b60006107c3826117cb565b60606000600e80546107e59061326f565b90501161080157604051806020016040528060008152506107c3565b600e61080c836117f0565b60405160200161081d9291906132a9565b60405160208183030381529060405292915050565b61083a611882565b600d546001600160a01b039081169082160361085557600080fd5b600d80546001600160a01b038381166001600160a01b031983168117909355604080519190921680825260208201939093527f9aaef5934caac7bf8ee7de13d1a1e98122180cb78e64abeae728ad559df64a66910160405180910390a15050565b60008281526012602090815260408083208151808301909252546001600160a01b038116808352600160a01b9091046001600160601b031692820192909252829161092b5750604080518082019091526011546001600160a01b0381168252600160a01b90046001600160601b031660208201525b60208101516000906127109061094a906001600160601b031687613346565b6109549190613373565b91519350909150505b9250929050565b6001600160a01b038516331480610980575061098085336106a2565b61099c5760405162461bcd60e51b815260040161079790613395565b6109a985858585856118dc565b5050505050565b60006109bb8361118c565b8210610a1e5760405162461bcd60e51b815260206004820152602c60248201527f45524331313535456e756d657261626c653a206f776e657220696e646578206f60448201526b7574206f6620626f756e647360a01b6064820152608401610797565b506001600160a01b03919091166000908152600560209081526040808320938352929052205490565b600a5460408051631ab889a360e11b815290516000926001600160a01b03169163357113469160048083019260209291908290030181865afa158015610a91573d6000803e3d6000fd5b505050506040513d601f19601f82011682018060405250810190610ab591906133e3565b905090565b60608151835114610b1f5760405162461bcd60e51b815260206004820152602960248201527f455243313135353a206163636f756e747320616e6420696473206c656e677468604482015268040dad2e6dac2e8c6d60bb1b6064820152608401610797565b600083516001600160401b03811115610b3a57610b3a612b76565b604051908082528060200260200182016040528015610b63578160200160208202803683370190505b50905060005b8451811015610bdb57610bae858281518110610b8757610b87613400565b6020026020010151858381518110610ba157610ba1613400565b6020026020010151610730565b828281518110610bc057610bc0613400565b6020908102919091010152610bd481613416565b9050610b69565b509392505050565b6000610bee60085490565b8210610c525760405162461bcd60e51b815260206004820152602d60248201527f45524331313535456e756d657261626c653a20676c6f62616c20696e6465782060448201526c6f7574206f6620626f756e647360981b6064820152608401610797565b60088281548110610c6557610c65613400565b90600052602060002001549050919050565b610c7f611882565b600e610c8b8282613475565b5050565b610c97611882565b600c610c8b8282613475565b610cb08585858585610964565b600080610cc7855134611a8690919063ffffffff16565b9150915060005b85518163ffffffff161015610d9f57610ce5610a47565b6001600160a01b031663febaa13483601060008a8663ffffffff1681518110610d1057610d10613400565b60200260200101518152602001908152602001600020600001548a6040518463ffffffff1660e01b8152600401610d5a9291909182526001600160a01b0316602082015260400190565b6000604051808303818588803b158015610d7357600080fd5b505af1158015610d87573d6000803e3d6000fd5b50505050508080610d9790613534565b915050610cce565b5050505050505050565b606082518451148015610dbd575081518351145b610e005760405162461bcd60e51b8152602060048201526014602482015273092dcecc2d8d2c840c2e4e4c2f240d8cadccee8d60631b6044820152606401610797565b600084516001600160401b03811115610e1b57610e1b612b76565b604051908082528060200260200182016040528015610e44578160200160208202803683370190505b50905060005b85518163ffffffff161015610f5d576000600f60008154610e6a90613416565b919050819055905080838363ffffffff1681518110610e8b57610e8b613400565b602002602001018181525050848263ffffffff1681518110610eaf57610eaf613400565b6020908102919091018101516000838152601090925260409091209081556001810180546001600160a01b03191633179055600201610eee8982613475565b506000868363ffffffff1681518110610f0957610f09613400565b60200260200101516001600160601b03161115610f4a57610f4a8133888563ffffffff1681518110610f3d57610f3d613400565b6020026020010151611ab9565b5080610f5581613534565b915050610e4a565b50610f7933828760405180602001604052806000815250611bc7565b600080610f90875134611a8690919063ffffffff16565b9150915081610fe15760405162461bcd60e51b815260206004820152601860248201527f43616c63756c6174696f6e206572726f72206f662064697600000000000000006044820152606401610797565b60005b87518163ffffffff1610156110ca57600d5486516001600160a01b0390911690637b987bea908490899063ffffffff861690811061102457611024613400565b602002602001015130888663ffffffff168151811061104557611045613400565b60200260200101516040518563ffffffff1660e01b8152600401611085939291909283526001600160a01b03919091166020830152604082015260600190565b6000604051808303818588803b15801561109e57600080fd5b505af11580156110b2573d6000803e3d6000fd5b505050505080806110c290613534565b915050610fe4565b5091979650505050505050565b60106020526000908152604090208054600182015460028301805492936001600160a01b03909216926111099061326f565b80601f01602080910402602001604051908101604052809291908181526020018280546111359061326f565b80156111825780601f1061115757610100808354040283529160200191611182565b820191906000526020600020905b81548152906001019060200180831161116557829003601f168201915b5050505050905083565b60006001600160a01b0382166111f85760405162461bcd60e51b815260206004820152602b60248201527f455243313135353a2062616c616e636520717565727920666f7220746865207a60448201526a65726f206164647265737360a81b6064820152608401610797565b506001600160a01b031660009081526004602052604090205490565b61122185858585856116ca565b611229610a47565b60008481526010602052604090819020549051633faea84d60e21b815260048101919091526001600160a01b038681166024830152919091169063febaa1349034906044016000604051808303818588803b15801561128757600080fd5b505af115801561129b573d6000803e3d6000fd5b50505050505050505050565b6001600160a01b0383163314806112c357506112c383336106a2565b6112df5760405162461bcd60e51b815260040161079790613395565b6112ea838383611d21565b505050565b600e80546112fc9061326f565b80601f01602080910402602001604051908101604052809291908181526020018280546113289061326f565b80156113755780601f1061134a57610100808354040283529160200191611375565b820191906000526020600020905b81548152906001019060200180831161135857829003601f168201915b505050505081565b611385611882565b61138f6000611ebe565b565b6060600b80546113a09061326f565b80601f01602080910402602001604051908101604052809291908181526020018280546113cc9061326f565b80156114195780601f106113ee57610100808354040283529160200191611419565b820191906000526020600020905b8154815290600101906020018083116113fc57829003601f168201915b5050505050905090565b61142b611882565b600b6112ea828483613557565b610c8b338383611f10565b6060600060015b600f548111611497576000818152601060205260409020600101546001600160a01b03808616911603611485578161148181613416565b9250505b8061148f81613416565b91505061144a565b506000816001600160401b038111156114b2576114b2612b76565b6040519080825280602002602001820160405280156114db578160200160208202803683370190505b509050600060015b600f54811161154d576000818152601060205260409020600101546001600160a01b0380881691160361153b5780838361151c81613416565b94508151811061152e5761152e613400565b6020026020010181815250505b8061154581613416565b9150506114e3565b5090949350505050565b6000611561610a47565b6001600160a01b031663428c090b6040518163ffffffff1660e01b8152600401602060405180830381865afa15801561159e573d6000803e3d6000fd5b505050506040513d601f19601f82011682018060405250810190610ab59190613616565b6060600c80546113a09061326f565b600080600f600081546115e390613416565b918290555060008181526010602052604090208481556001810180546001600160a01b0319163317905590915060020161161d8782613475565b5061163933828760405180602001604052806000815250611ff0565b6001600160601b0384161561165357611653813386611ab9565b600d54604051633dcc3df560e11b815260048101859052306024820152604481018390526001600160a01b0390911690637b987bea9034906064016000604051808303818588803b1580156116a757600080fd5b505af11580156116bb573d6000803e3d6000fd5b50939998505050505050505050565b6001600160a01b0385163314806116e657506116e685336106a2565b6117025760405162461bcd60e51b815260040161079790613395565b6109a985858585856120d9565b611717611882565b6001600160a01b03811661177c5760405162461bcd60e51b815260206004820152602660248201527f4f776e61626c653a206e6577206f776e657220697320746865207a65726f206160448201526564647265737360d01b6064820152608401610797565b61178581611ebe565b50565b6001600160a01b0383163314806117a457506117a483336106a2565b6117c05760405162461bcd60e51b815260040161079790613395565b6112ea838383612211565b60006001600160e01b0319821663152a902d60e11b14806107c357506107c382612329565b606060006117fd83612379565b60010190506000816001600160401b0381111561181c5761181c612b76565b6040519080825280601f01601f191660200182016040528015611846576020820181803683370190505b5090508181016020015b600019016f181899199a1a9b1b9c1cb0b131b232b360811b600a86061a8153600a850494508461185057509392505050565b6003546001600160a01b0316331461138f5760405162461bcd60e51b815260206004820181905260248201527f4f776e61626c653a2063616c6c6572206973206e6f7420746865206f776e65726044820152606401610797565b81518351146118fd5760405162461bcd60e51b81526004016107979061362f565b6001600160a01b0384166119235760405162461bcd60e51b815260040161079790613677565b33611932818787878787612451565b60005b8451811015611a1857600085828151811061195257611952613400565b60200260200101519050600085838151811061197057611970613400565b602090810291909101810151600084815280835260408082206001600160a01b038e1683529093529190912054909150818110156119c05760405162461bcd60e51b8152600401610797906136bc565b6000838152602081815260408083206001600160a01b038e8116855292528083208585039055908b168252812080548492906119fd908490613706565b9250508190555050505080611a1190613416565b9050611935565b50846001600160a01b0316866001600160a01b0316826001600160a01b03167f4a39dc06d4c0dbc64b70af90fd698a233a518aa5d07e595d983b8c0526c8f7fb8787604051611a68929190613719565b60405180910390a4611a7e81878787878761245f565b505050505050565b60008082600003611a9c5750600090508061095d565b6001838581611aad57611aad61335d565b04915091509250929050565b6127106001600160601b0382161115611b275760405162461bcd60e51b815260206004820152602a60248201527f455243323938313a20726f79616c7479206665652077696c6c206578636565646044820152692073616c65507269636560b01b6064820152608401610797565b6001600160a01b038216611b7d5760405162461bcd60e51b815260206004820152601b60248201527f455243323938313a20496e76616c696420706172616d657465727300000000006044820152606401610797565b6040805180820182526001600160a01b0393841681526001600160601b0392831660208083019182526000968752601290529190942093519051909116600160a01b029116179055565b6001600160a01b038416611bed5760405162461bcd60e51b81526004016107979061373e565b8151835114611c0e5760405162461bcd60e51b81526004016107979061362f565b33611c1e81600087878787612451565b60005b8451811015611cb957838181518110611c3c57611c3c613400565b6020026020010151600080878481518110611c5957611c59613400565b602002602001015181526020019081526020016000206000886001600160a01b03166001600160a01b031681526020019081526020016000206000828254611ca19190613706565b90915550819050611cb181613416565b915050611c21565b50846001600160a01b031660006001600160a01b0316826001600160a01b03167f4a39dc06d4c0dbc64b70af90fd698a233a518aa5d07e595d983b8c0526c8f7fb8787604051611d0a929190613719565b60405180910390a46109a98160008787878761245f565b6001600160a01b038316611d475760405162461bcd60e51b81526004016107979061377f565b8051825114611d685760405162461bcd60e51b81526004016107979061362f565b6000339050611d8b81856000868660405180602001604052806000815250612451565b60005b8351811015611e50576000848281518110611dab57611dab613400565b602002602001015190506000848381518110611dc957611dc9613400565b602090810291909101810151600084815280835260408082206001600160a01b038c168352909352919091205490915081811015611e195760405162461bcd60e51b8152600401610797906137c2565b6000928352602083815260408085206001600160a01b038b1686529091529092209103905580611e4881613416565b915050611d8e565b5060006001600160a01b0316846001600160a01b0316826001600160a01b03167f4a39dc06d4c0dbc64b70af90fd698a233a518aa5d07e595d983b8c0526c8f7fb8686604051611ea1929190613719565b60405180910390a460408051602081019091526000905250505050565b600380546001600160a01b038381166001600160a01b0319831681179093556040519116919082907f8be0079c531659141344cd1fd0a4f28419497f9722a3daafe3b4186f6b6457e090600090a35050565b816001600160a01b0316836001600160a01b031603611f835760405162461bcd60e51b815260206004820152602960248201527f455243313135353a2073657474696e6720617070726f76616c20737461747573604482015268103337b91039b2b63360b91b6064820152608401610797565b6001600160a01b03838116600081815260016020908152604080832094871680845294825291829020805460ff191686151590811790915591519182527f17307eab39ab6107e8899845ad3d59bd9653f200f220920489ca2b5937696c31910160405180910390a3505050565b6001600160a01b0384166120165760405162461bcd60e51b81526004016107979061373e565b336000612022856125ba565b9050600061202f856125ba565b905061204083600089858589612451565b6000868152602081815260408083206001600160a01b038b16845290915281208054879290612070908490613706565b909155505060408051878152602081018790526001600160a01b03808a1692600092918716917fc3d58168c5ae7397731d063d5bbf3d657854427343f4c083240f7aacaa2d0f62910160405180910390a46120d083600089898989612605565b50505050505050565b6001600160a01b0384166120ff5760405162461bcd60e51b815260040161079790613677565b33600061210b856125ba565b90506000612118856125ba565b9050612128838989858589612451565b6000868152602081815260408083206001600160a01b038c168452909152902054858110156121695760405162461bcd60e51b8152600401610797906136bc565b6000878152602081815260408083206001600160a01b038d8116855292528083208985039055908a168252812080548892906121a6908490613706565b909155505060408051888152602081018890526001600160a01b03808b16928c821692918816917fc3d58168c5ae7397731d063d5bbf3d657854427343f4c083240f7aacaa2d0f62910160405180910390a4612206848a8a8a8a8a612605565b505050505050505050565b6001600160a01b0383166122375760405162461bcd60e51b81526004016107979061377f565b336000612243846125ba565b90506000612250846125ba565b905061227083876000858560405180602001604052806000815250612451565b6000858152602081815260408083206001600160a01b038a168452909152902054848110156122b15760405162461bcd60e51b8152600401610797906137c2565b6000868152602081815260408083206001600160a01b038b81168086529184528285208a8703905582518b81529384018a90529092908816917fc3d58168c5ae7397731d063d5bbf3d657854427343f4c083240f7aacaa2d0f62910160405180910390a46040805160208101909152600090526120d0565b60006001600160e01b03198216636cdb3d1360e11b148061235a57506001600160e01b031982166303a24d0760e21b145b806107c357506301ffc9a760e01b6001600160e01b03198316146107c3565b60008072184f03e93ff9f4daa797ed6e38ed64bf6a1f0160401b83106123b85772184f03e93ff9f4daa797ed6e38ed64bf6a1f0160401b830492506040015b6d04ee2d6d415b85acef810000000083106123e4576d04ee2d6d415b85acef8100000000830492506020015b662386f26fc10000831061240257662386f26fc10000830492506010015b6305f5e100831061241a576305f5e100830492506008015b612710831061242e57612710830492506004015b60648310612440576064830492506002015b600a83106107c35760010192915050565b611a7e8686868686866126c0565b6001600160a01b0384163b15611a7e5760405163bc197c8160e01b81526001600160a01b0385169063bc197c81906124a39089908990889088908890600401613806565b6020604051808303816000875af19250505080156124de575060408051601f3d908101601f191682019092526124db91810190613864565b60015b61258a576124ea613881565b806308c379a00361252357506124fe61389d565b806125095750612525565b8060405162461bcd60e51b81526004016107979190612b24565b505b60405162461bcd60e51b815260206004820152603460248201527f455243313135353a207472616e7366657220746f206e6f6e2d455243313135356044820152732932b1b2b4bb32b91034b6b83632b6b2b73a32b960611b6064820152608401610797565b6001600160e01b0319811663bc197c8160e01b146120d05760405162461bcd60e51b815260040161079790613926565b604080516001808252818301909252606091600091906020808301908036833701905050905082816000815181106125f4576125f4613400565b602090810291909101015292915050565b6001600160a01b0384163b15611a7e5760405163f23a6e6160e01b81526001600160a01b0385169063f23a6e6190612649908990899088908890889060040161396e565b6020604051808303816000875af1925050508015612684575060408051601f3d908101601f1916820190925261268191810190613864565b60015b612690576124ea613881565b6001600160e01b0319811663f23a6e6160e01b146120d05760405162461bcd60e51b815260040161079790613926565b60005b83518163ffffffff1610156120d0576000848263ffffffff16815181106126ec576126ec613400565b602002602001015190506000848363ffffffff168151811061271057612710613400565b6020026020010151905060006001600160a01b0316886001600160a01b0316036127815761277c82600880546000838152600960205260408120829055600182018355919091527ff3f7a9fe364faab93b216da50a3214154f22a0a2b415b23a84c8169e8b636ee30155565b6127e9565b866001600160a01b0316886001600160a01b0316141580156127ab5750806127a98984610730565b145b156127e9576127ba88836128b0565b6001600160a01b03881660009081526004602052604081208054600192906127e39084906139b3565b90915550505b876001600160a01b0316876001600160a01b03161415801561281357506001600160a01b03871615155b801561282657506128248783610730565b155b1561286957612835878361294d565b6001600160a01b038716600090815260046020526040812080546001929061285e908490613706565b9091555061289b9050565b6001600160a01b03871615801561288d575060008281526007602052604090205481145b1561289b5761289b82612991565b505080806128a890613534565b9150506126c3565b600060016128bd8461118c565b6128c791906139b3565b60008381526006602052604090205490915080821461291a576001600160a01b03841660009081526005602090815260408083208584528252808320548484528184208190558352600690915290208190555b5060009182526006602090815260408084208490556001600160a01b039094168352600581528383209183525290812055565b60006129588361118c565b6001600160a01b039093166000908152600560209081526040808320868452825280832085905593825260069052919091209190915550565b6008546000906129a3906001906139b3565b600083815260096020526040812054600880549394509092849081106129cb576129cb613400565b9060005260206000200154905080600883815481106129ec576129ec613400565b6000918252602080832090910192909255828152600990915260408082208490558582528120556008805480612a2457612a246139c6565b6001900381819060005260206000200160009055905550505050565b6001600160a01b038116811461178557600080fd5b60008060408385031215612a6857600080fd5b8235612a7381612a40565b946020939093013593505050565b6001600160e01b03198116811461178557600080fd5b600060208284031215612aa957600080fd5b8135612ab481612a81565b9392505050565b600060208284031215612acd57600080fd5b5035919050565b60005b83811015612aef578181015183820152602001612ad7565b50506000910152565b60008151808452612b10816020860160208601612ad4565b601f01601f19169290920160200192915050565b602081526000612ab46020830184612af8565b600060208284031215612b4957600080fd5b8135612ab481612a40565b60008060408385031215612b6757600080fd5b50508035926020909101359150565b634e487b7160e01b600052604160045260246000fd5b601f8201601f191681016001600160401b0381118282101715612bb157612bb1612b76565b6040525050565b60006001600160401b03821115612bd157612bd1612b76565b5060051b60200190565b600082601f830112612bec57600080fd5b81356020612bf982612bb8565b604051612c068282612b8c565b83815260059390931b8501820192828101915086841115612c2657600080fd5b8286015b84811015612c415780358352918301918301612c2a565b509695505050505050565b600082601f830112612c5d57600080fd5b81356001600160401b03811115612c7657612c76612b76565b604051612c8d601f8301601f191660200182612b8c565b818152846020838601011115612ca257600080fd5b816020850160208301376000918101602001919091529392505050565b600080600080600060a08688031215612cd757600080fd5b8535612ce281612a40565b94506020860135612cf281612a40565b935060408601356001600160401b0380821115612d0e57600080fd5b612d1a89838a01612bdb565b94506060880135915080821115612d3057600080fd5b612d3c89838a01612bdb565b93506080880135915080821115612d5257600080fd5b50612d5f88828901612c4c565b9150509295509295909350565b60008060408385031215612d7f57600080fd5b82356001600160401b0380821115612d9657600080fd5b818501915085601f830112612daa57600080fd5b81356020612db782612bb8565b604051612dc48282612b8c565b83815260059390931b8501820192828101915089841115612de457600080fd5b948201945b83861015612e0b578535612dfc81612a40565b82529482019490820190612de9565b96505086013592505080821115612e2157600080fd5b50612e2e85828601612bdb565b9150509250929050565b600081518084526020808501945080840160005b83811015612e6857815187529582019590820190600101612e4c565b509495945050505050565b602081526000612ab46020830184612e38565b600060208284031215612e9857600080fd5b81356001600160401b03811115612eae57600080fd5b612eba84828501612c4c565b949350505050565b80356001600160601b0381168114612ed957600080fd5b919050565b60008060008060808587031215612ef457600080fd5b84356001600160401b0380821115612f0b57600080fd5b612f1788838901612c4c565b9550602091508187013581811115612f2e57600080fd5b612f3a89828a01612bdb565b955050604087013581811115612f4f57600080fd5b8701601f81018913612f6057600080fd5b8035612f6b81612bb8565b604051612f788282612b8c565b82815260059290921b830185019185810191508b831115612f9857600080fd5b928501925b82841015612fbd57612fae84612ec2565b82529285019290850190612f9d565b96505050506060870135915080821115612fd657600080fd5b50612fe387828801612bdb565b91505092959194509250565b8381526001600160a01b038316602082015260606040820181905260009061301990830184612af8565b95945050505050565b600080600080600060a0868803121561303a57600080fd5b853561304581612a40565b9450602086013561305581612a40565b9350604086013592506060860135915060808601356001600160401b0381111561307e57600080fd5b612d5f88828901612c4c565b60008060006060848603121561309f57600080fd5b83356130aa81612a40565b925060208401356001600160401b03808211156130c657600080fd5b6130d287838801612bdb565b935060408601359150808211156130e857600080fd5b506130f586828701612bdb565b9150509250925092565b6000806020838503121561311257600080fd5b82356001600160401b038082111561312957600080fd5b818501915085601f83011261313d57600080fd5b81358181111561314c57600080fd5b86602082850101111561315e57600080fd5b60209290920196919550909350505050565b6000806040838503121561318357600080fd5b823561318e81612a40565b9150602083013580151581146131a357600080fd5b809150509250929050565b600080600080608085870312156131c457600080fd5b84356001600160401b038111156131da57600080fd5b6131e687828801612c4c565b945050602085013592506131fc60408601612ec2565b9396929550929360600135925050565b6000806040838503121561321f57600080fd5b823561322a81612a40565b915060208301356131a381612a40565b60008060006060848603121561324f57600080fd5b833561325a81612a40565b95602085013595506040909401359392505050565b600181811c9082168061328357607f821691505b6020821081036132a357634e487b7160e01b600052602260045260246000fd5b50919050565b60008084546132b78161326f565b600182811680156132cf57600181146132e457613313565b60ff1984168752821515830287019450613313565b8860005260208060002060005b8581101561330a5781548a8201529084019082016132f1565b50505082870194505b505050508351613327818360208801612ad4565b01949350505050565b634e487b7160e01b600052601160045260246000fd5b80820281158282048414176107c3576107c3613330565b634e487b7160e01b600052601260045260246000fd5b60008261339057634e487b7160e01b600052601260045260246000fd5b500490565b6020808252602e908201527f455243313135353a2063616c6c6572206973206e6f7420746f6b656e206f776e60408201526d195c881bdc88185c1c1c9bdd995960921b606082015260800190565b6000602082840312156133f557600080fd5b8151612ab481612a40565b634e487b7160e01b600052603260045260246000fd5b60006001820161342857613428613330565b5060010190565b601f8211156112ea57600081815260208120601f850160051c810160208610156134565750805b601f850160051c820191505b81811015611a7e57828155600101613462565b81516001600160401b0381111561348e5761348e612b76565b6134a28161349c845461326f565b8461342f565b602080601f8311600181146134d757600084156134bf5750858301515b600019600386901b1c1916600185901b178555611a7e565b600085815260208120601f198616915b82811015613506578886015182559484019460019091019084016134e7565b50858210156135245787850151600019600388901b60f8161c191681555b5050505050600190811b01905550565b600063ffffffff80831681810361354d5761354d613330565b6001019392505050565b6001600160401b0383111561356e5761356e612b76565b6135828361357c835461326f565b8361342f565b6000601f8411600181146135b6576000851561359e5750838201355b600019600387901b1c1916600186901b1783556109a9565b600083815260209020601f19861690835b828110156135e757868501358255602094850194600190920191016135c7565b50868210156136045760001960f88860031b161c19848701351681555b505060018560011b0183555050505050565b60006020828403121561362857600080fd5b5051919050565b60208082526028908201527f455243313135353a2069647320616e6420616d6f756e7473206c656e677468206040820152670dad2e6dac2e8c6d60c31b606082015260800190565b60208082526025908201527f455243313135353a207472616e7366657220746f20746865207a65726f206164604082015264647265737360d81b606082015260800190565b6020808252602a908201527f455243313135353a20696e73756666696369656e742062616c616e636520666f60408201526939103a3930b739b332b960b11b606082015260800190565b808201808211156107c3576107c3613330565b60408152600061372c6040830185612e38565b82810360208401526130198185612e38565b60208082526021908201527f455243313135353a206d696e7420746f20746865207a65726f206164647265736040820152607360f81b606082015260800190565b60208082526023908201527f455243313135353a206275726e2066726f6d20746865207a65726f206164647260408201526265737360e81b606082015260800190565b60208082526024908201527f455243313135353a206275726e20616d6f756e7420657863656564732062616c604082015263616e636560e01b606082015260800190565b6001600160a01b0386811682528516602082015260a06040820181905260009061383290830186612e38565b82810360608401526138448186612e38565b905082810360808401526138588185612af8565b98975050505050505050565b60006020828403121561387657600080fd5b8151612ab481612a81565b600060033d111561389a5760046000803e5060005160e01c5b90565b600060443d10156138ab5790565b6040516003193d81016004833e81513d6001600160401b0381602484011181841117156138da57505050505090565b82850191508151818111156138f25750505050505090565b843d870101602082850101111561390c5750505050505090565b61391b60208286010187612b8c565b509095945050505050565b60208082526028908201527f455243313135353a204552433131353552656365697665722072656a656374656040820152676420746f6b656e7360c01b606082015260800190565b6001600160a01b03868116825285166020820152604081018490526060810183905260a0608082018190526000906139a890830184612af8565b979650505050505050565b818103818111156107c3576107c3613330565b634e487b7160e01b600052603160045260246000fdfea264697066735822122000340601c26531296f74bdccc0aa8e4da79c618ab9c1c53482647c01d9fb4fa264736f6c63430008110033",
  "linkReferences": {},
  "deployedLinkReferences": {}
}