{
  "_format": "hh-sol-artifact-1",
  "contractName": "VWBLERC1155",
  "abi": [
    {
      "inputs": [
        {
          "internalType": "string",
          "name": "_baseURI",
          "type": "string"
        },
        {
          "internalType": "address",
          "name": "_gatewayProxy",
          "type": "address"
        },
        {
          "internalType": "address",
          "name": "_accessCheckerContract",
          "type": "address"
        }
      ],
      "stateMutability": "nonpayable",
      "type": "constructor"
    },
    {
      "anonymous": false,
      "inputs": [
        {
          "indexed": true,
          "internalType": "address",
          "name": "account",
          "type": "address"
        },
        {
          "indexed": true,
          "internalType": "address",
          "name": "operator",
          "type": "address"
        },
        {
          "indexed": false,
          "internalType": "bool",
          "name": "approved",
          "type": "bool"
        }
      ],
      "name": "ApprovalForAll",
      "type": "event"
    },
    {
      "anonymous": false,
      "inputs": [
        {
          "indexed": true,
          "internalType": "address",
          "name": "previousOwner",
          "type": "address"
        },
        {
          "indexed": true,
          "internalType": "address",
          "name": "newOwner",
          "type": "address"
        }
      ],
      "name": "OwnershipTransferred",
      "type": "event"
    },
    {
      "anonymous": false,
      "inputs": [
        {
          "indexed": true,
          "internalType": "address",
          "name": "operator",
          "type": "address"
        },
        {
          "indexed": true,
          "internalType": "address",
          "name": "from",
          "type": "address"
        },
        {
          "indexed": true,
          "internalType": "address",
          "name": "to",
          "type": "address"
        },
        {
          "indexed": false,
          "internalType": "uint256[]",
          "name": "ids",
          "type": "uint256[]"
        },
        {
          "indexed": false,
          "internalType": "uint256[]",
          "name": "values",
          "type": "uint256[]"
        }
      ],
      "name": "TransferBatch",
      "type": "event"
    },
    {
      "anonymous": false,
      "inputs": [
        {
          "indexed": true,
          "internalType": "address",
          "name": "operator",
          "type": "address"
        },
        {
          "indexed": true,
          "internalType": "address",
          "name": "from",
          "type": "address"
        },
        {
          "indexed": true,
          "internalType": "address",
          "name": "to",
          "type": "address"
        },
        {
          "indexed": false,
          "internalType": "uint256",
          "name": "id",
          "type": "uint256"
        },
        {
          "indexed": false,
          "internalType": "uint256",
          "name": "value",
          "type": "uint256"
        }
      ],
      "name": "TransferSingle",
      "type": "event"
    },
    {
      "anonymous": false,
      "inputs": [
        {
          "indexed": false,
          "internalType": "string",
          "name": "value",
          "type": "string"
        },
        {
          "indexed": true,
          "internalType": "uint256",
          "name": "id",
          "type": "uint256"
        }
      ],
      "name": "URI",
      "type": "event"
    },
    {
      "anonymous": false,
      "inputs": [
        {
          "indexed": false,
          "internalType": "address",
          "name": "oldAccessCheckerContract",
          "type": "address"
        },
        {
          "indexed": false,
          "internalType": "address",
          "name": "newAccessCheckerContract",
          "type": "address"
        }
      ],
      "name": "accessCheckerContractChanged",
      "type": "event"
    },
    {
      "inputs": [],
      "name": "INVERSE_BASIS_POINT",
      "outputs": [
        {
          "internalType": "uint256",
          "name": "",
          "type": "uint256"
        }
      ],
      "stateMutability": "view",
      "type": "function"
    },
    {
      "inputs": [
        {
          "internalType": "uint256",
          "name": "",
          "type": "uint256"
        }
      ],
      "name": "_tokenIdToTokenBalance",
      "outputs": [
        {
          "internalType": "uint256",
          "name": "",
          "type": "uint256"
        }
      ],
      "stateMutability": "view",
      "type": "function"
    },
    {
      "inputs": [],
      "name": "accessCheckerContract",
      "outputs": [
        {
          "internalType": "address",
          "name": "",
          "type": "address"
        }
      ],
      "stateMutability": "view",
      "type": "function"
    },
    {
      "inputs": [
        {
          "internalType": "address",
          "name": "account",
          "type": "address"
        },
        {
          "internalType": "uint256",
          "name": "id",
          "type": "uint256"
        }
      ],
      "name": "balanceOf",
      "outputs": [
        {
          "internalType": "uint256",
          "name": "",
          "type": "uint256"
        }
      ],
      "stateMutability": "view",
      "type": "function"
    },
    {
      "inputs": [
        {
          "internalType": "address[]",
          "name": "accounts",
          "type": "address[]"
        },
        {
          "internalType": "uint256[]",
          "name": "ids",
          "type": "uint256[]"
        }
      ],
      "name": "balanceOfBatch",
      "outputs": [
        {
          "internalType": "uint256[]",
          "name": "",
          "type": "uint256[]"
        }
      ],
      "stateMutability": "view",
      "type": "function"
    },
    {
      "inputs": [
        {
          "internalType": "address",
          "name": "account",
          "type": "address"
        },
        {
          "internalType": "uint256",
          "name": "id",
          "type": "uint256"
        },
        {
          "internalType": "uint256",
          "name": "value",
          "type": "uint256"
        }
      ],
      "name": "burn",
      "outputs": [],
      "stateMutability": "nonpayable",
      "type": "function"
    },
    {
      "inputs": [
        {
          "internalType": "address",
          "name": "account",
          "type": "address"
        },
        {
          "internalType": "uint256[]",
          "name": "ids",
          "type": "uint256[]"
        },
        {
          "internalType": "uint256[]",
          "name": "values",
          "type": "uint256[]"
        }
      ],
      "name": "burnBatch",
      "outputs": [],
      "stateMutability": "nonpayable",
      "type": "function"
    },
    {
      "inputs": [],
      "name": "counter",
      "outputs": [
        {
          "internalType": "uint256",
          "name": "",
          "type": "uint256"
        }
      ],
      "stateMutability": "view",
      "type": "function"
    },
    {
      "inputs": [],
      "name": "gatewayProxy",
      "outputs": [
        {
          "internalType": "address",
          "name": "",
          "type": "address"
        }
      ],
      "stateMutability": "view",
      "type": "function"
    },
    {
      "inputs": [],
      "name": "getFee",
      "outputs": [
        {
          "internalType": "uint256",
          "name": "",
          "type": "uint256"
        }
      ],
      "stateMutability": "view",
      "type": "function"
    },
    {
      "inputs": [],
      "name": "getGatewayAddress",
      "outputs": [
        {
          "internalType": "address",
          "name": "",
          "type": "address"
        }
      ],
      "stateMutability": "view",
      "type": "function"
    },
    {
      "inputs": [
        {
          "internalType": "uint256",
          "name": "tokenId",
          "type": "uint256"
        }
      ],
      "name": "getMinter",
      "outputs": [
        {
          "internalType": "address",
          "name": "",
          "type": "address"
        }
      ],
      "stateMutability": "view",
      "type": "function"
    },
    {
      "inputs": [
        {
          "internalType": "address",
          "name": "minter",
          "type": "address"
        }
      ],
      "name": "getTokenByMinter",
      "outputs": [
        {
          "internalType": "uint256[]",
          "name": "",
          "type": "uint256[]"
        }
      ],
      "stateMutability": "view",
      "type": "function"
    },
    {
      "inputs": [
        {
          "internalType": "address",
          "name": "account",
          "type": "address"
        },
        {
          "internalType": "address",
          "name": "operator",
          "type": "address"
        }
      ],
      "name": "isApprovedForAll",
      "outputs": [
        {
          "internalType": "bool",
          "name": "",
          "type": "bool"
        }
      ],
      "stateMutability": "view",
      "type": "function"
    },
    {
      "inputs": [
        {
          "internalType": "string",
          "name": "_getKeyURl",
          "type": "string"
        },
        {
          "internalType": "uint256",
          "name": "_amount",
          "type": "uint256"
        },
        {
          "internalType": "uint256",
          "name": "_royaltiesPercentage",
          "type": "uint256"
        },
        {
          "internalType": "bytes32",
          "name": "_documentId",
          "type": "bytes32"
        }
      ],
      "name": "mint",
      "outputs": [
        {
          "internalType": "uint256",
          "name": "",
          "type": "uint256"
        }
      ],
      "stateMutability": "payable",
      "type": "function"
    },
    {
      "inputs": [
        {
          "internalType": "string",
          "name": "_getKeyURl",
          "type": "string"
        },
        {
          "internalType": "uint256[]",
          "name": "_amounts",
          "type": "uint256[]"
        },
        {
          "internalType": "uint256[]",
          "name": "_royaltiesPercentages",
          "type": "uint256[]"
        },
        {
          "internalType": "bytes32[]",
          "name": "_documentIds",
          "type": "bytes32[]"
        }
      ],
      "name": "mintBatch",
      "outputs": [
        {
          "internalType": "uint256[]",
          "name": "",
          "type": "uint256[]"
        }
      ],
      "stateMutability": "payable",
      "type": "function"
    },
    {
      "inputs": [],
      "name": "owner",
      "outputs": [
        {
          "internalType": "address",
          "name": "",
          "type": "address"
        }
      ],
      "stateMutability": "view",
      "type": "function"
    },
    {
      "inputs": [],
      "name": "renounceOwnership",
      "outputs": [],
      "stateMutability": "nonpayable",
      "type": "function"
    },
    {
      "inputs": [
        {
          "internalType": "uint256",
          "name": "_tokenId",
          "type": "uint256"
        },
        {
          "internalType": "uint256",
          "name": "_salePrice",
          "type": "uint256"
        }
      ],
      "name": "royaltyInfo",
      "outputs": [
        {
          "internalType": "address",
          "name": "receiver",
          "type": "address"
        },
        {
          "internalType": "uint256",
          "name": "royaltyAmount",
          "type": "uint256"
        }
      ],
      "stateMutability": "view",
      "type": "function"
    },
    {
      "inputs": [
        {
          "internalType": "address",
          "name": "from",
          "type": "address"
        },
        {
          "internalType": "address",
          "name": "to",
          "type": "address"
        },
        {
          "internalType": "uint256[]",
          "name": "ids",
          "type": "uint256[]"
        },
        {
          "internalType": "uint256[]",
          "name": "amounts",
          "type": "uint256[]"
        },
        {
          "internalType": "bytes",
          "name": "data",
          "type": "bytes"
        }
      ],
      "name": "safeBatchTransferAndPayFee",
      "outputs": [],
      "stateMutability": "payable",
      "type": "function"
    },
    {
      "inputs": [
        {
          "internalType": "address",
          "name": "from",
          "type": "address"
        },
        {
          "internalType": "address",
          "name": "to",
          "type": "address"
        },
        {
          "internalType": "uint256[]",
          "name": "ids",
          "type": "uint256[]"
        },
        {
          "internalType": "uint256[]",
          "name": "amounts",
          "type": "uint256[]"
        },
        {
          "internalType": "bytes",
          "name": "data",
          "type": "bytes"
        }
      ],
      "name": "safeBatchTransferFrom",
      "outputs": [],
      "stateMutability": "nonpayable",
      "type": "function"
    },
    {
      "inputs": [
        {
          "internalType": "address",
          "name": "from",
          "type": "address"
        },
        {
          "internalType": "address",
          "name": "to",
          "type": "address"
        },
        {
          "internalType": "uint256",
          "name": "id",
          "type": "uint256"
        },
        {
          "internalType": "uint256",
          "name": "amount",
          "type": "uint256"
        },
        {
          "internalType": "bytes",
          "name": "data",
          "type": "bytes"
        }
      ],
      "name": "safeTransferAndPayFee",
      "outputs": [],
      "stateMutability": "payable",
      "type": "function"
    },
    {
      "inputs": [
        {
          "internalType": "address",
          "name": "from",
          "type": "address"
        },
        {
          "internalType": "address",
          "name": "to",
          "type": "address"
        },
        {
          "internalType": "uint256",
          "name": "id",
          "type": "uint256"
        },
        {
          "internalType": "uint256",
          "name": "amount",
          "type": "uint256"
        },
        {
          "internalType": "bytes",
          "name": "data",
          "type": "bytes"
        }
      ],
      "name": "safeTransferFrom",
      "outputs": [],
      "stateMutability": "nonpayable",
      "type": "function"
    },
    {
      "inputs": [
        {
          "internalType": "address",
          "name": "newAccessCheckerContract",
          "type": "address"
        }
      ],
      "name": "setAccessCheckerContract",
      "outputs": [],
      "stateMutability": "nonpayable",
      "type": "function"
    },
    {
      "inputs": [
        {
          "internalType": "address",
          "name": "operator",
          "type": "address"
        },
        {
          "internalType": "bool",
          "name": "approved",
          "type": "bool"
        }
      ],
      "name": "setApprovalForAll",
      "outputs": [],
      "stateMutability": "nonpayable",
      "type": "function"
    },
    {
      "inputs": [
        {
          "internalType": "string",
          "name": "_baseURI",
          "type": "string"
        }
      ],
      "name": "setBaseURI",
      "outputs": [],
      "stateMutability": "nonpayable",
      "type": "function"
    },
    {
      "inputs": [
        {
          "internalType": "bytes4",
          "name": "interfaceId",
          "type": "bytes4"
        }
      ],
      "name": "supportsInterface",
      "outputs": [
        {
          "internalType": "bool",
          "name": "",
          "type": "bool"
        }
      ],
      "stateMutability": "view",
      "type": "function"
    },
    {
      "inputs": [
        {
          "internalType": "uint256",
          "name": "index",
          "type": "uint256"
        }
      ],
      "name": "tokenByIndex",
      "outputs": [
        {
          "internalType": "uint256",
          "name": "",
          "type": "uint256"
        }
      ],
      "stateMutability": "view",
      "type": "function"
    },
    {
      "inputs": [
        {
          "internalType": "address",
          "name": "owner",
          "type": "address"
        }
      ],
      "name": "tokenCountOfOwner",
      "outputs": [
        {
          "internalType": "uint256",
          "name": "",
          "type": "uint256"
        }
      ],
      "stateMutability": "view",
      "type": "function"
    },
    {
      "inputs": [
        {
          "internalType": "uint256",
          "name": "",
          "type": "uint256"
        }
      ],
      "name": "tokenIdToRoyaltyInfo",
      "outputs": [
        {
          "internalType": "address",
          "name": "recipient",
          "type": "address"
        },
        {
          "internalType": "uint256",
          "name": "royaltiesPercentage",
          "type": "uint256"
        }
      ],
      "stateMutability": "view",
      "type": "function"
    },
    {
      "inputs": [
        {
          "internalType": "uint256",
          "name": "",
          "type": "uint256"
        }
      ],
      "name": "tokenIdToTokenInfo",
      "outputs": [
        {
          "internalType": "address",
          "name": "minterAddress",
          "type": "address"
        },
        {
          "internalType": "bytes32",
          "name": "documentId",
          "type": "bytes32"
        },
        {
          "internalType": "string",
          "name": "getKeyURl",
          "type": "string"
        }
      ],
      "stateMutability": "view",
      "type": "function"
    },
    {
      "inputs": [
        {
          "internalType": "address",
          "name": "owner",
          "type": "address"
        },
        {
          "internalType": "uint256",
          "name": "index",
          "type": "uint256"
        }
      ],
      "name": "tokenOfOwnerByIndex",
      "outputs": [
        {
          "internalType": "uint256",
          "name": "",
          "type": "uint256"
        }
      ],
      "stateMutability": "view",
      "type": "function"
    },
    {
      "inputs": [],
      "name": "totalSupply",
      "outputs": [
        {
          "internalType": "uint256",
          "name": "",
          "type": "uint256"
        }
      ],
      "stateMutability": "view",
      "type": "function"
    },
    {
      "inputs": [
        {
          "internalType": "address",
          "name": "newOwner",
          "type": "address"
        }
      ],
      "name": "transferOwnership",
      "outputs": [],
      "stateMutability": "nonpayable",
      "type": "function"
    },
    {
      "inputs": [
        {
          "internalType": "uint256",
          "name": "",
          "type": "uint256"
        }
      ],
      "name": "uri",
      "outputs": [
        {
          "internalType": "string",
          "name": "",
          "type": "string"
        }
      ],
      "stateMutability": "view",
      "type": "function"
    }
  ],
  "bytecode": "0x60806040526000600c553480156200001657600080fd5b506040516200388b3803806200388b833981016040819052620000399162000119565b82620000453362000084565b6200005081620000d4565b50600a80546001600160a01b039384166001600160a01b031991821617909155600b8054929093169116179055506200036e565b600080546001600160a01b038381166001600160a01b0319831681178455604051919092169283917f8be0079c531659141344cd1fd0a4f28419497f9722a3daafe3b4186f6b6457e09190a35050565b6004620000e28282620002a2565b5050565b634e487b7160e01b600052604160045260246000fd5b80516001600160a01b03811681146200011457600080fd5b919050565b6000806000606084860312156200012f57600080fd5b83516001600160401b03808211156200014757600080fd5b818601915086601f8301126200015c57600080fd5b815181811115620001715762000171620000e6565b604051601f8201601f19908116603f011681019083821181831017156200019c576200019c620000e6565b81604052828152602093508984848701011115620001b957600080fd5b600091505b82821015620001dd5784820184015181830185015290830190620001be565b6000848483010152809750505050620001f8818701620000fc565b935050506200020a60408501620000fc565b90509250925092565b600181811c908216806200022857607f821691505b6020821081036200024957634e487b7160e01b600052602260045260246000fd5b50919050565b601f8211156200029d57600081815260208120601f850160051c81016020861015620002785750805b601f850160051c820191505b81811015620002995782815560010162000284565b5050505b505050565b81516001600160401b03811115620002be57620002be620000e6565b620002d681620002cf845462000213565b846200024f565b602080601f8311600181146200030e5760008415620002f55750858301515b600019600386901b1c1916600185901b17855562000299565b600085815260208120601f198616915b828110156200033f578886015182559484019460019091019084016200031e565b50858210156200035e5787850151600019600388901b60f8161c191681555b5050505050600190811b01905550565b61350d806200037e6000396000f3fe6080604052600436106102035760003560e01c806365b8fe2e11610118578063b41bde13116100a0578063e597e9981161006f578063e597e99814610627578063e985e9c51461063a578063f242432a14610683578063f2fde38b146106a3578063f5298aca146106c357600080fd5b8063b41bde13146105bc578063cae6047f146105dc578063ce5af336146105f2578063ced72f871461061257600080fd5b8063715018a6116100e7578063715018a61461051c5780638840fc9d146105315780638da5cb5b1461055e57806393fab57b1461057c578063a22cb4651461059c57600080fd5b806365b8fe2e146104b657806368e586e8146104c95780636ab29c08146104e95780636b20c454146104fc57600080fd5b80632f745c591161019b57806355f804b31161016a57806355f804b3146104085780635b7121f8146104285780635c330f831461045e5780635fb8bcd51461047157806361bc221a146104a057600080fd5b80632f745c591461036e578063357113461461038e5780634e1273f4146103bb5780634f6ccce7146103e857600080fd5b806319daf1bf116101d757806319daf1bf146102ad5780632812a3d21461030c5780632a55205a1461032e5780632eb2c2d61461034e57600080fd5b8062fdd58e1461020857806301ffc9a71461023b5780630e89341c1461026b57806318160ddd14610298575b600080fd5b34801561021457600080fd5b506102286102233660046126c2565b6106e3565b6040519081526020015b60405180910390f35b34801561024757600080fd5b5061025b610256366004612704565b61073f565b6040519015158152602001610232565b34801561027757600080fd5b5061028b610286366004612728565b610764565b6040516102329190612787565b3480156102a457600080fd5b50600854610228565b3480156102b957600080fd5b506102ed6102c8366004612728565b600e60205260009081526040902080546001909101546001600160a01b039091169082565b604080516001600160a01b039093168352602083019190915201610232565b34801561031857600080fd5b5061032c61032736600461279a565b6107f8565b005b34801561033a57600080fd5b506102ed6103493660046127b7565b61089e565b34801561035a57600080fd5b5061032c610369366004612922565b6108fa565b34801561037a57600080fd5b506102286103893660046126c2565b610991565b34801561039a57600080fd5b506103a3610a28565b6040516001600160a01b039091168152602001610232565b3480156103c757600080fd5b506103db6103d63660046129cf565b610a9b565b6040516102329190612ad6565b3480156103f457600080fd5b50610228610403366004612728565b610bc4565b34801561041457600080fd5b5061032c610423366004612ae9565b610c58565b34801561043457600080fd5b506103a3610443366004612728565b6000908152600d60205260409020546001600160a01b031690565b61032c61046c366004612922565b610c8e565b34801561047d57600080fd5b5061049161048c366004612728565b610d94565b60405161023293929190612b25565b3480156104ac57600080fd5b50610228600c5481565b6102286104c4366004612b55565b610e49565b3480156104d557600080fd5b506102286104e436600461279a565b610f39565b61032c6104f7366004612ba8565b610f7d565b34801561050857600080fd5b5061032c610517366004612c10565b611013565b34801561052857600080fd5b5061032c61105b565b34801561053d57600080fd5b5061022861054c366004612728565b60026020526000908152604090205481565b34801561056a57600080fd5b506000546001600160a01b03166103a3565b34801561058857600080fd5b50600b546103a3906001600160a01b031681565b3480156105a857600080fd5b5061032c6105b7366004612c85565b611091565b3480156105c857600080fd5b50600a546103a3906001600160a01b031681565b3480156105e857600080fd5b5061022861271081565b3480156105fe57600080fd5b506103db61060d36600461279a565b6110a0565b34801561061e57600080fd5b50610228611155565b6103db610635366004612cc3565b6111c0565b34801561064657600080fd5b5061025b610655366004612dcd565b6001600160a01b03918216600090815260036020908152604080832093909416825291909152205460ff1690565b34801561068f57600080fd5b5061032c61069e366004612ba8565b6114f9565b3480156106af57600080fd5b5061032c6106be36600461279a565b611580565b3480156106cf57600080fd5b5061032c6106de366004612dfb565b611618565b60006001600160a01b0383166107145760405162461bcd60e51b815260040161070b90612e30565b60405180910390fd5b5060008181526001602090815260408083206001600160a01b03861684529091529020545b92915050565b60006001600160e01b0319821663152a902d60e11b148061073957506107398261165b565b60606004805461077390612e7b565b80601f016020809104026020016040519081016040528092919081815260200182805461079f90612e7b565b80156107ec5780601f106107c1576101008083540402835291602001916107ec565b820191906000526020600020905b8154815290600101906020018083116107cf57829003601f168201915b50505050509050919050565b6000546001600160a01b031633146108225760405162461bcd60e51b815260040161070b90612eb5565b600b546001600160a01b039081169082160361083d57600080fd5b600b80546001600160a01b038381166001600160a01b031983168117909355604080519190921680825260208201939093527f9aaef5934caac7bf8ee7de13d1a1e98122180cb78e64abeae728ad559df64a66910160405180910390a15050565b6000828152600e60209081526040808320815180830190925280546001600160a01b031682526001015491810182905282918290612710906108e09087612f00565b6108ea9190612f2d565b91519350909150505b9250929050565b6001600160a01b03851633148061091657506109168533610655565b61097d5760405162461bcd60e51b815260206004820152603260248201527f455243313135353a207472616e736665722063616c6c6572206973206e6f74206044820152711bdddb995c881b9bdc88185c1c1c9bdd995960721b606482015260840161070b565b61098a85858585856116ab565b5050505050565b600061099c83610f39565b82106109ff5760405162461bcd60e51b815260206004820152602c60248201527f45524331313535456e756d657261626c653a206f776e657220696e646578206f60448201526b7574206f6620626f756e647360a01b606482015260840161070b565b506001600160a01b03919091166000908152600660209081526040808320938352929052205490565b600a5460408051631ab889a360e11b815290516000926001600160a01b03169163357113469160048083019260209291908290030181865afa158015610a72573d6000803e3d6000fd5b505050506040513d601f19601f82011682018060405250810190610a969190612f4f565b905090565b60608151835114610b005760405162461bcd60e51b815260206004820152602960248201527f455243313135353a206163636f756e747320616e6420696473206c656e677468604482015268040dad2e6dac2e8c6d60bb1b606482015260840161070b565b600083516001600160401b03811115610b1b57610b1b6127d9565b604051908082528060200260200182016040528015610b44578160200160208202803683370190505b50905060005b8451811015610bbc57610b8f858281518110610b6857610b68612f6c565b6020026020010151858381518110610b8257610b82612f6c565b60200260200101516106e3565b828281518110610ba157610ba1612f6c565b6020908102919091010152610bb581612f82565b9050610b4a565b509392505050565b6000610bcf60085490565b8210610c335760405162461bcd60e51b815260206004820152602d60248201527f45524331313535456e756d657261626c653a20676c6f62616c20696e6465782060448201526c6f7574206f6620626f756e647360981b606482015260840161070b565b60088281548110610c4657610c46612f6c565b90600052602060002001549050919050565b6000546001600160a01b03163314610c825760405162461bcd60e51b815260040161070b90612eb5565b610c8b81611858565b50565b610c9b85858585856108fa565b600080610cb285513461186490919063ffffffff16565b9150915060005b85518163ffffffff161015610d8a57610cd0610a28565b6001600160a01b031663febaa13483600d60008a8663ffffffff1681518110610cfb57610cfb612f6c565b60200260200101518152602001908152602001600020600101548a6040518463ffffffff1660e01b8152600401610d459291909182526001600160a01b0316602082015260400190565b6000604051808303818588803b158015610d5e57600080fd5b505af1158015610d72573d6000803e3d6000fd5b50505050508080610d8290612f9b565b915050610cb9565b5050505050505050565b600d602052600090815260409020805460018201546002830180546001600160a01b03909316939192610dc690612e7b565b80601f0160208091040260200160405190810160405280929190818152602001828054610df290612e7b565b8015610e3f5780601f10610e1457610100808354040283529160200191610e3f565b820191906000526020600020905b815481529060010190602001808311610e2257829003601f168201915b5050505050905083565b600080600c60008154610e5b90612f82565b91829055506000818152600d6020526040902080546001600160a01b0319163317815560018101859055909150600201610e958782613004565b50610eb133828760405180602001604052806000815250611897565b8315610ec257610ec2813386611993565b600b54604051633dcc3df560e11b815260048101859052306024820152604481018390526001600160a01b0390911690637b987bea9034906064016000604051808303818588803b158015610f1657600080fd5b505af1158015610f2a573d6000803e3d6000fd5b50939998505050505050505050565b60006001600160a01b038216610f615760405162461bcd60e51b815260040161070b90612e30565b506001600160a01b031660009081526005602052604090205490565b610f8a85858585856114f9565b610f92610a28565b6000848152600d602052604090819020600101549051633faea84d60e21b815260048101919091526001600160a01b038681166024830152919091169063febaa1349034906044016000604051808303818588803b158015610ff357600080fd5b505af1158015611007573d6000803e3d6000fd5b50505050505050505050565b6001600160a01b03831633148061102f575061102f8333610655565b61104b5760405162461bcd60e51b815260040161070b906130c3565b6110568383836119c6565b505050565b6000546001600160a01b031633146110855760405162461bcd60e51b815260040161070b90612eb5565b61108f6000611b8b565b565b61109c338383611bdb565b5050565b6060600080600c546001600160401b038111156110bf576110bf6127d9565b6040519080825280602002602001820160405280156110e8578160200160208202803683370190505b50905060015b600c548111610bbc576000818152600d60205260409020546001600160a01b038087169116036111435780828461112481612f82565b95508151811061113657611136612f6c565b6020026020010181815250505b8061114d81612f82565b9150506110ee565b600061115f610a28565b6001600160a01b031663428c090b6040518163ffffffff1660e01b8152600401602060405180830381865afa15801561119c573d6000803e3d6000fd5b505050506040513d601f19601f82011682018060405250810190610a969190613111565b6060825184511480156111d4575081518351145b6112175760405162461bcd60e51b8152602060048201526014602482015273092dcecc2d8d2c840c2e4e4c2f240d8cadccee8d60631b604482015260640161070b565b600084516001600160401b03811115611232576112326127d9565b60405190808252806020026020018201604052801561125b578160200160208202803683370190505b50905060005b85518163ffffffff16101561137f576000600c6000815461128190612f82565b919050819055905080838363ffffffff16815181106112a2576112a2612f6c565b6020908102919091018101919091526000828152600d9091526040902080546001600160a01b031916331790558451859063ffffffff84169081106112e9576112e9612f6c565b6020908102919091018101516000838152600d909252604090912060018101919091556002016113198982613004565b506000868363ffffffff168151811061133457611334612f6c565b6020026020010151111561136c5761136c8133888563ffffffff168151811061135f5761135f612f6c565b6020026020010151611993565b508061137781612f9b565b915050611261565b5061139b33828760405180602001604052806000815250611cbb565b6000806113b287513461186490919063ffffffff16565b91509150816114035760405162461bcd60e51b815260206004820152601860248201527f43616c63756c6174696f6e206572726f72206f66206469760000000000000000604482015260640161070b565b60005b87518163ffffffff1610156114ec57600b5486516001600160a01b0390911690637b987bea908490899063ffffffff861690811061144657611446612f6c565b602002602001015130888663ffffffff168151811061146757611467612f6c565b60200260200101516040518563ffffffff1660e01b81526004016114a7939291909283526001600160a01b03919091166020830152604082015260600190565b6000604051808303818588803b1580156114c057600080fd5b505af11580156114d4573d6000803e3d6000fd5b505050505080806114e490612f9b565b915050611406565b5091979650505050505050565b6001600160a01b03851633148061151557506115158533610655565b6115735760405162461bcd60e51b815260206004820152602960248201527f455243313135353a2063616c6c6572206973206e6f74206f776e6572206e6f7260448201526808185c1c1c9bdd995960ba1b606482015260840161070b565b61098a8585858585611e3a565b6000546001600160a01b031633146115aa5760405162461bcd60e51b815260040161070b90612eb5565b6001600160a01b03811661160f5760405162461bcd60e51b815260206004820152602660248201527f4f776e61626c653a206e6577206f776e657220697320746865207a65726f206160448201526564647265737360d01b606482015260840161070b565b610c8b81611b8b565b6001600160a01b03831633148061163457506116348333610655565b6116505760405162461bcd60e51b815260040161070b906130c3565b611056838383611f76565b60006001600160e01b03198216636cdb3d1360e11b148061168c57506001600160e01b031982166303a24d0760e21b145b8061073957506301ffc9a760e01b6001600160e01b0319831614610739565b81518351146116cc5760405162461bcd60e51b815260040161070b9061312a565b6001600160a01b0384166116f25760405162461bcd60e51b815260040161070b90613172565b336117018187878787876120be565b60005b84518110156117ea57600085828151811061172157611721612f6c565b60200260200101519050600085838151811061173f5761173f612f6c565b60209081029190910181015160008481526001835260408082206001600160a01b038e1683529093529190912054909150818110156117905760405162461bcd60e51b815260040161070b906131b7565b60008381526001602090815260408083206001600160a01b038e8116855292528083208585039055908b168252812080548492906117cf908490613201565b92505081905550505050806117e390612f82565b9050611704565b50846001600160a01b0316866001600160a01b0316826001600160a01b03167f4a39dc06d4c0dbc64b70af90fd698a233a518aa5d07e595d983b8c0526c8f7fb878760405161183a929190613214565b60405180910390a46118508187878787876120cc565b505050505050565b600461109c8282613004565b6000808260000361187a575060009050806108f3565b600183858161188b5761188b612f17565b04915091509250929050565b6001600160a01b0384166118bd5760405162461bcd60e51b815260040161070b90613239565b3360006118c985612227565b905060006118d685612227565b90506118e7836000898585896120be565b60008681526001602090815260408083206001600160a01b038b16845290915281208054879290611919908490613201565b909155505060408051878152602081018790526001600160a01b03808a1692600092918716917fc3d58168c5ae7397731d063d5bbf3d657854427343f4c083240f7aacaa2d0f62910160405180910390a4600086815260026020526040902085905561198a83600089898989612272565b50505050505050565b6000928352600e602052604090922080546001600160a01b0319166001600160a01b039290921691909117815560010155565b6001600160a01b0383166119ec5760405162461bcd60e51b815260040161070b9061327a565b8051825114611a0d5760405162461bcd60e51b815260040161070b9061312a565b6000339050611a30818560008686604051806020016040528060008152506120be565b60005b8351811015611b1d576000848281518110611a5057611a50612f6c565b602002602001015190506000848381518110611a6e57611a6e612f6c565b60209081029190910181015160008481526001835260408082206001600160a01b038c168352909352919091205490915081811015611abf5760405162461bcd60e51b815260040161070b906132bd565b60008381526001602090815260408083206001600160a01b038c16845282528083208585039055858352600290915281208054849290611b00908490613301565b925050819055505050508080611b1590612f82565b915050611a33565b5060006001600160a01b0316846001600160a01b0316826001600160a01b03167f4a39dc06d4c0dbc64b70af90fd698a233a518aa5d07e595d983b8c0526c8f7fb8686604051611b6e929190613214565b60405180910390a460408051602081019091526000905250505050565b600080546001600160a01b038381166001600160a01b0319831681178455604051919092169283917f8be0079c531659141344cd1fd0a4f28419497f9722a3daafe3b4186f6b6457e09190a35050565b816001600160a01b0316836001600160a01b031603611c4e5760405162461bcd60e51b815260206004820152602960248201527f455243313135353a2073657474696e6720617070726f76616c20737461747573604482015268103337b91039b2b63360b91b606482015260840161070b565b6001600160a01b03838116600081815260036020908152604080832094871680845294825291829020805460ff191686151590811790915591519182527f17307eab39ab6107e8899845ad3d59bd9653f200f220920489ca2b5937696c31910160405180910390a3505050565b6001600160a01b038416611ce15760405162461bcd60e51b815260040161070b90613239565b8151835114611d025760405162461bcd60e51b815260040161070b9061312a565b33611d12816000878787876120be565b60005b8451811015611dd2576000858281518110611d3257611d32612f6c565b60200260200101519050848281518110611d4e57611d4e612f6c565b60209081029190910181015160008381526001835260408082206001600160a01b038c168352909352918220805491929091611d8b908490613201565b92505081905550848281518110611da457611da4612f6c565b6020908102919091018101516000928352600290915260409091205580611dca81612f82565b915050611d15565b50846001600160a01b031660006001600160a01b0316826001600160a01b03167f4a39dc06d4c0dbc64b70af90fd698a233a518aa5d07e595d983b8c0526c8f7fb8787604051611e23929190613214565b60405180910390a461098a816000878787876120cc565b6001600160a01b038416611e605760405162461bcd60e51b815260040161070b90613172565b336000611e6c85612227565b90506000611e7985612227565b9050611e898389898585896120be565b60008681526001602090815260408083206001600160a01b038c16845290915290205485811015611ecc5760405162461bcd60e51b815260040161070b906131b7565b60008781526001602090815260408083206001600160a01b038d8116855292528083208985039055908a16825281208054889290611f0b908490613201565b909155505060408051888152602081018890526001600160a01b03808b16928c821692918816917fc3d58168c5ae7397731d063d5bbf3d657854427343f4c083240f7aacaa2d0f62910160405180910390a4611f6b848a8a8a8a8a612272565b505050505050505050565b6001600160a01b038316611f9c5760405162461bcd60e51b815260040161070b9061327a565b336000611fa884612227565b90506000611fb584612227565b9050611fd5838760008585604051806020016040528060008152506120be565b60008581526001602090815260408083206001600160a01b038a168452909152902054848110156120185760405162461bcd60e51b815260040161070b906132bd565b60008681526001602090815260408083206001600160a01b038b16845282528083208885039055888352600290915281208054879290612059908490613301565b909155505060408051878152602081018790526000916001600160a01b038a811692908816917fc3d58168c5ae7397731d063d5bbf3d657854427343f4c083240f7aacaa2d0f62910160405180910390a460408051602081019091526000905261198a565b61185086868686868661232d565b6001600160a01b0384163b156118505760405163bc197c8160e01b81526001600160a01b0385169063bc197c81906121109089908990889088908890600401613314565b6020604051808303816000875af192505050801561214b575060408051601f3d908101601f1916820190925261214891810190613372565b60015b6121f75761215761338f565b806308c379a003612190575061216b6133ab565b806121765750612192565b8060405162461bcd60e51b815260040161070b9190612787565b505b60405162461bcd60e51b815260206004820152603460248201527f455243313135353a207472616e7366657220746f206e6f6e20455243313135356044820152732932b1b2b4bb32b91034b6b83632b6b2b73a32b960611b606482015260840161070b565b6001600160e01b0319811663bc197c8160e01b1461198a5760405162461bcd60e51b815260040161070b90613434565b6040805160018082528183019092526060916000919060208083019080368337019050509050828160008151811061226157612261612f6c565b602090810291909101015292915050565b6001600160a01b0384163b156118505760405163f23a6e6160e01b81526001600160a01b0385169063f23a6e61906122b6908990899088908890889060040161347c565b6020604051808303816000875af19250505080156122f1575060408051601f3d908101601f191682019092526122ee91810190613372565b60015b6122fd5761215761338f565b6001600160e01b0319811663f23a6e6160e01b1461198a5760405162461bcd60e51b815260040161070b90613434565b60005b83518163ffffffff16101561198a576000848263ffffffff168151811061235957612359612f6c565b602002602001015190506000848363ffffffff168151811061237d5761237d612f6c565b6020026020010151905060006001600160a01b0316886001600160a01b0316036123ee576123e982600880546000838152600960205260408120829055600182018355919091527ff3f7a9fe364faab93b216da50a3214154f22a0a2b415b23a84c8169e8b636ee30155565b612456565b866001600160a01b0316886001600160a01b03161415801561241857508061241689846106e3565b145b1561245657612427888361251d565b6001600160a01b0388166000908152600560205260408120805460019290612450908490613301565b90915550505b876001600160a01b0316876001600160a01b03161415801561248057506001600160a01b03871615155b8015612493575061249187836106e3565b155b156124d6576124a287836125ba565b6001600160a01b03871660009081526005602052604081208054600192906124cb908490613201565b909155506125089050565b6001600160a01b0387161580156124fa575060008281526002602052604090205481145b1561250857612508826125fe565b5050808061251590612f9b565b915050612330565b6000600161252a84610f39565b6125349190613301565b600083815260076020526040902054909150808214612587576001600160a01b03841660009081526006602090815260408083208584528252808320548484528184208190558352600790915290208190555b5060009182526007602090815260408084208490556001600160a01b039094168352600681528383209183525290812055565b60006125c583610f39565b6001600160a01b039093166000908152600660209081526040808320868452825280832085905593825260079052919091209190915550565b60085460009061261090600190613301565b6000838152600960205260408120546008805493945090928490811061263857612638612f6c565b90600052602060002001549050806008838154811061265957612659612f6c565b6000918252602080832090910192909255828152600990915260408082208490558582528120556008805480612691576126916134c1565b6001900381819060005260206000200160009055905550505050565b6001600160a01b0381168114610c8b57600080fd5b600080604083850312156126d557600080fd5b82356126e0816126ad565b946020939093013593505050565b6001600160e01b031981168114610c8b57600080fd5b60006020828403121561271657600080fd5b8135612721816126ee565b9392505050565b60006020828403121561273a57600080fd5b5035919050565b6000815180845260005b818110156127675760208185018101518683018201520161274b565b506000602082860101526020601f19601f83011685010191505092915050565b6020815260006127216020830184612741565b6000602082840312156127ac57600080fd5b8135612721816126ad565b600080604083850312156127ca57600080fd5b50508035926020909101359150565b634e487b7160e01b600052604160045260246000fd5b601f8201601f191681016001600160401b0381118282101715612814576128146127d9565b6040525050565b60006001600160401b03821115612834576128346127d9565b5060051b60200190565b600082601f83011261284f57600080fd5b8135602061285c8261281b565b60405161286982826127ef565b83815260059390931b850182019282810191508684111561288957600080fd5b8286015b848110156128a4578035835291830191830161288d565b509695505050505050565b600082601f8301126128c057600080fd5b81356001600160401b038111156128d9576128d96127d9565b6040516128f0601f8301601f1916602001826127ef565b81815284602083860101111561290557600080fd5b816020850160208301376000918101602001919091529392505050565b600080600080600060a0868803121561293a57600080fd5b8535612945816126ad565b94506020860135612955816126ad565b935060408601356001600160401b038082111561297157600080fd5b61297d89838a0161283e565b9450606088013591508082111561299357600080fd5b61299f89838a0161283e565b935060808801359150808211156129b557600080fd5b506129c2888289016128af565b9150509295509295909350565b600080604083850312156129e257600080fd5b82356001600160401b03808211156129f957600080fd5b818501915085601f830112612a0d57600080fd5b81356020612a1a8261281b565b604051612a2782826127ef565b83815260059390931b8501820192828101915089841115612a4757600080fd5b948201945b83861015612a6e578535612a5f816126ad565b82529482019490820190612a4c565b96505086013592505080821115612a8457600080fd5b50612a918582860161283e565b9150509250929050565b600081518084526020808501945080840160005b83811015612acb57815187529582019590820190600101612aaf565b509495945050505050565b6020815260006127216020830184612a9b565b600060208284031215612afb57600080fd5b81356001600160401b03811115612b1157600080fd5b612b1d848285016128af565b949350505050565b60018060a01b0384168152826020820152606060408201526000612b4c6060830184612741565b95945050505050565b60008060008060808587031215612b6b57600080fd5b84356001600160401b03811115612b8157600080fd5b612b8d878288016128af565b97602087013597506040870135966060013595509350505050565b600080600080600060a08688031215612bc057600080fd5b8535612bcb816126ad565b94506020860135612bdb816126ad565b9350604086013592506060860135915060808601356001600160401b03811115612c0457600080fd5b6129c2888289016128af565b600080600060608486031215612c2557600080fd5b8335612c30816126ad565b925060208401356001600160401b0380821115612c4c57600080fd5b612c588783880161283e565b93506040860135915080821115612c6e57600080fd5b50612c7b8682870161283e565b9150509250925092565b60008060408385031215612c9857600080fd5b8235612ca3816126ad565b915060208301358015158114612cb857600080fd5b809150509250929050565b60008060008060808587031215612cd957600080fd5b84356001600160401b0380821115612cf057600080fd5b612cfc888389016128af565b9550602091508187013581811115612d1357600080fd5b612d1f89828a0161283e565b955050604087013581811115612d3457600080fd5b612d4089828a0161283e565b945050606087013581811115612d5557600080fd5b87019050601f81018813612d6857600080fd5b8035612d738161281b565b604051612d8082826127ef565b82815260059290921b830184019184810191508a831115612da057600080fd5b928401925b82841015612dbe57833582529284019290840190612da5565b979a9699509497505050505050565b60008060408385031215612de057600080fd5b8235612deb816126ad565b91506020830135612cb8816126ad565b600080600060608486031215612e1057600080fd5b8335612e1b816126ad565b95602085013595506040909401359392505050565b6020808252602b908201527f455243313135353a2062616c616e636520717565727920666f7220746865207a60408201526a65726f206164647265737360a81b606082015260800190565b600181811c90821680612e8f57607f821691505b602082108103612eaf57634e487b7160e01b600052602260045260246000fd5b50919050565b6020808252818101527f4f776e61626c653a2063616c6c6572206973206e6f7420746865206f776e6572604082015260600190565b634e487b7160e01b600052601160045260246000fd5b808202811582820484141761073957610739612eea565b634e487b7160e01b600052601260045260246000fd5b600082612f4a57634e487b7160e01b600052601260045260246000fd5b500490565b600060208284031215612f6157600080fd5b8151612721816126ad565b634e487b7160e01b600052603260045260246000fd5b600060018201612f9457612f94612eea565b5060010190565b600063ffffffff808316818103612fb457612fb4612eea565b6001019392505050565b601f82111561105657600081815260208120601f850160051c81016020861015612fe55750805b601f850160051c820191505b8181101561185057828155600101612ff1565b81516001600160401b0381111561301d5761301d6127d9565b6130318161302b8454612e7b565b84612fbe565b602080601f831160018114613066576000841561304e5750858301515b600019600386901b1c1916600185901b178555611850565b600085815260208120601f198616915b8281101561309557888601518255948401946001909101908401613076565b50858210156130b35787850151600019600388901b60f8161c191681555b5050505050600190811b01905550565b6020808252602e908201527f455243313135353a2063616c6c6572206973206e6f7420746f6b656e206f776e60408201526d195c881bdc88185c1c1c9bdd995960921b606082015260800190565b60006020828403121561312357600080fd5b5051919050565b60208082526028908201527f455243313135353a2069647320616e6420616d6f756e7473206c656e677468206040820152670dad2e6dac2e8c6d60c31b606082015260800190565b60208082526025908201527f455243313135353a207472616e7366657220746f20746865207a65726f206164604082015264647265737360d81b606082015260800190565b6020808252602a908201527f455243313135353a20696e73756666696369656e742062616c616e636520666f60408201526939103a3930b739b332b960b11b606082015260800190565b8082018082111561073957610739612eea565b6040815260006132276040830185612a9b565b8281036020840152612b4c8185612a9b565b60208082526021908201527f455243313135353a206d696e7420746f20746865207a65726f206164647265736040820152607360f81b606082015260800190565b60208082526023908201527f455243313135353a206275726e2066726f6d20746865207a65726f206164647260408201526265737360e81b606082015260800190565b60208082526024908201527f455243313135353a206275726e20616d6f756e7420657863656564732062616c604082015263616e636560e01b606082015260800190565b8181038181111561073957610739612eea565b6001600160a01b0386811682528516602082015260a06040820181905260009061334090830186612a9b565b82810360608401526133528186612a9b565b905082810360808401526133668185612741565b98975050505050505050565b60006020828403121561338457600080fd5b8151612721816126ee565b600060033d11156133a85760046000803e5060005160e01c5b90565b600060443d10156133b95790565b6040516003193d81016004833e81513d6001600160401b0381602484011181841117156133e857505050505090565b82850191508151818111156134005750505050505090565b843d870101602082850101111561341a5750505050505090565b613429602082860101876127ef565b509095945050505050565b60208082526028908201527f455243313135353a204552433131353552656365697665722072656a656374656040820152676420746f6b656e7360c01b606082015260800190565b6001600160a01b03868116825285166020820152604081018490526060810183905260a0608082018190526000906134b690830184612741565b979650505050505050565b634e487b7160e01b600052603160045260246000fdfea2646970667358221220f089d062a9ce7bdb6de38433b6dcc1ecc91e57a59c9f2d47414e80effc6738a264736f6c63430008110033",
  "linkReferences": {},
  "deployedLinkReferences": {}
}