{
  "_format": "hh-sol-artifact-1",
  "contractName": "VWBLDataCollector",
  "sourceName": "contracts/VWBLDataCollector.sol",
  "abi": [
    {
      "inputs": [
        {
          "internalType": "address",
          "name": "_gatewayProxy",
          "type": "address"
        },
        {
          "internalType": "address",
          "name": "_prevAccessChecker",
          "type": "address"
        }
      ],
      "stateMutability": "nonpayable",
      "type": "constructor"
    },
    {
      "inputs": [],
      "name": "gatewayProxy",
      "outputs": [
        {
          "internalType": "address",
          "name": "",
          "type": "address"
        }
      ],
      "stateMutability": "view",
      "type": "function"
    },
    {
      "inputs": [
        {
          "internalType": "address",
          "name": "addr",
          "type": "address"
        }
      ],
      "name": "getAccessCheckerType",
      "outputs": [
        {
          "internalType": "uint256",
          "name": "",
          "type": "uint256"
        }
      ],
      "stateMutability": "view",
      "type": "function"
    },
    {
      "inputs": [],
      "name": "getAllAccessConditionContracts",
      "outputs": [
        {
          "internalType": "address[]",
          "name": "",
          "type": "address[]"
        }
      ],
      "stateMutability": "view",
      "type": "function"
    },
    {
      "inputs": [],
      "name": "getAllERC1155Contracts",
      "outputs": [
        {
          "internalType": "address[]",
          "name": "",
          "type": "address[]"
        }
      ],
      "stateMutability": "view",
      "type": "function"
    },
    {
      "inputs": [],
      "name": "getAllMintCount",
      "outputs": [
        {
          "internalType": "uint256",
          "name": "",
          "type": "uint256"
        }
      ],
      "stateMutability": "view",
      "type": "function"
    },
    {
      "inputs": [
        {
          "internalType": "address",
          "name": "user",
          "type": "address"
        }
      ],
      "name": "getAllMintedDocumentIds",
      "outputs": [
        {
          "internalType": "bytes32[]",
          "name": "",
          "type": "bytes32[]"
        }
      ],
      "stateMutability": "view",
      "type": "function"
    },
    {
      "inputs": [
        {
          "internalType": "address",
          "name": "user",
          "type": "address"
        }
      ],
      "name": "getAllMintedTokens",
      "outputs": [
        {
          "components": [
            {
              "internalType": "address",
              "name": "contractAddress",
              "type": "address"
            },
            {
              "internalType": "uint256",
              "name": "tokenId",
              "type": "uint256"
            },
            {
              "internalType": "string",
              "name": "tokenURI",
              "type": "string"
            }
          ],
          "internalType": "struct VWBLDataCollector.TokenInfo[]",
          "name": "",
          "type": "tuple[]"
        }
      ],
      "stateMutability": "view",
      "type": "function"
    },
    {
      "inputs": [],
      "name": "getAllNFTContracts",
      "outputs": [
        {
          "internalType": "address[]",
          "name": "",
          "type": "address[]"
        }
      ],
      "stateMutability": "view",
      "type": "function"
    },
    {
      "inputs": [
        {
          "internalType": "address",
          "name": "user",
          "type": "address"
        }
      ],
      "name": "getAllOwnedDocumentIds",
      "outputs": [
        {
          "internalType": "bytes32[]",
          "name": "",
          "type": "bytes32[]"
        }
      ],
      "stateMutability": "view",
      "type": "function"
    },
    {
      "inputs": [
        {
          "internalType": "address",
          "name": "user",
          "type": "address"
        }
      ],
      "name": "getAllOwnedTokens",
      "outputs": [
        {
          "components": [
            {
              "internalType": "address",
              "name": "contractAddress",
              "type": "address"
            },
            {
              "internalType": "uint256",
              "name": "tokenId",
              "type": "uint256"
            },
            {
              "internalType": "string",
              "name": "tokenURI",
              "type": "string"
            }
          ],
          "internalType": "struct VWBLDataCollector.TokenInfo[]",
          "name": "",
          "type": "tuple[]"
        }
      ],
      "stateMutability": "view",
      "type": "function"
    },
    {
      "inputs": [
        {
          "internalType": "address",
          "name": "contractAddress",
          "type": "address"
        }
      ],
      "name": "getAllTokensFromOptionalContract",
      "outputs": [
        {
          "components": [
            {
              "internalType": "address",
              "name": "contractAddress",
              "type": "address"
            },
            {
              "internalType": "uint256",
              "name": "tokenId",
              "type": "uint256"
            },
            {
              "internalType": "string",
              "name": "tokenURI",
              "type": "string"
            }
          ],
          "internalType": "struct VWBLDataCollector.TokenInfo[]",
          "name": "",
          "type": "tuple[]"
        }
      ],
      "stateMutability": "view",
      "type": "function"
    },
    {
      "inputs": [],
      "name": "getAllVWBLContracts",
      "outputs": [
        {
          "internalType": "address[]",
          "name": "",
          "type": "address[]"
        }
      ],
      "stateMutability": "view",
      "type": "function"
    },
    {
      "inputs": [
        {
          "internalType": "address",
          "name": "contractAddress",
          "type": "address"
        },
        {
          "internalType": "uint256",
          "name": "tokenId",
          "type": "uint256"
        }
      ],
      "name": "getDocumentId",
      "outputs": [
        {
          "internalType": "bytes32",
          "name": "",
          "type": "bytes32"
        }
      ],
      "stateMutability": "view",
      "type": "function"
    },
    {
      "inputs": [],
      "name": "getERC1155AccessConditionContracts",
      "outputs": [
        {
          "internalType": "address[]",
          "name": "",
          "type": "address[]"
        }
      ],
      "stateMutability": "view",
      "type": "function"
    },
    {
      "inputs": [],
      "name": "getGatewayAddress",
      "outputs": [
        {
          "internalType": "address",
          "name": "",
          "type": "address"
        }
      ],
      "stateMutability": "view",
      "type": "function"
    },
    {
      "inputs": [
        {
          "internalType": "address",
          "name": "addr",
          "type": "address"
        }
      ],
      "name": "getMintCount",
      "outputs": [
        {
          "internalType": "uint256",
          "name": "",
          "type": "uint256"
        }
      ],
      "stateMutability": "view",
      "type": "function"
    },
    {
      "inputs": [
        {
          "internalType": "address",
          "name": "user",
          "type": "address"
        }
      ],
      "name": "getMintedERC1155s",
      "outputs": [
        {
          "components": [
            {
              "internalType": "address",
              "name": "contractAddress",
              "type": "address"
            },
            {
              "internalType": "uint256",
              "name": "tokenId",
              "type": "uint256"
            },
            {
              "internalType": "string",
              "name": "tokenURI",
              "type": "string"
            }
          ],
          "internalType": "struct VWBLDataCollector.TokenInfo[]",
          "name": "",
          "type": "tuple[]"
        }
      ],
      "stateMutability": "view",
      "type": "function"
    },
    {
      "inputs": [
        {
          "internalType": "address",
          "name": "user",
          "type": "address"
        }
      ],
      "name": "getMintedNFTs",
      "outputs": [
        {
          "components": [
            {
              "internalType": "address",
              "name": "contractAddress",
              "type": "address"
            },
            {
              "internalType": "uint256",
              "name": "tokenId",
              "type": "uint256"
            },
            {
              "internalType": "string",
              "name": "tokenURI",
              "type": "string"
            }
          ],
          "internalType": "struct VWBLDataCollector.TokenInfo[]",
          "name": "",
          "type": "tuple[]"
        }
      ],
      "stateMutability": "view",
      "type": "function"
    },
    {
      "inputs": [],
      "name": "getNFTAccessConditionContracts",
      "outputs": [
        {
          "internalType": "address[]",
          "name": "",
          "type": "address[]"
        }
      ],
      "stateMutability": "view",
      "type": "function"
    },
    {
      "inputs": [
        {
          "internalType": "address",
          "name": "contractAddress",
          "type": "address"
        },
        {
          "internalType": "uint256",
          "name": "tokenId",
          "type": "uint256"
        }
      ],
      "name": "getNFTOwner",
      "outputs": [
        {
          "internalType": "address",
          "name": "",
          "type": "address"
        }
      ],
      "stateMutability": "view",
      "type": "function"
    },
    {
      "inputs": [
        {
          "internalType": "address",
          "name": "user",
          "type": "address"
        }
      ],
      "name": "getOwnedDocumentIdsOfERC1155",
      "outputs": [
        {
          "internalType": "bytes32[]",
          "name": "",
          "type": "bytes32[]"
        }
      ],
      "stateMutability": "view",
      "type": "function"
    },
    {
      "inputs": [
        {
          "internalType": "address",
          "name": "user",
          "type": "address"
        }
      ],
      "name": "getOwnedDocumentIdsOfNFT",
      "outputs": [
        {
          "internalType": "bytes32[]",
          "name": "",
          "type": "bytes32[]"
        }
      ],
      "stateMutability": "view",
      "type": "function"
    },
    {
      "inputs": [
        {
          "internalType": "address",
          "name": "user",
          "type": "address"
        }
      ],
      "name": "getOwnedERC1155s",
      "outputs": [
        {
          "components": [
            {
              "internalType": "address",
              "name": "contractAddress",
              "type": "address"
            },
            {
              "internalType": "uint256",
              "name": "tokenId",
              "type": "uint256"
            },
            {
              "internalType": "string",
              "name": "tokenURI",
              "type": "string"
            }
          ],
          "internalType": "struct VWBLDataCollector.TokenInfo[]",
          "name": "",
          "type": "tuple[]"
        }
      ],
      "stateMutability": "view",
      "type": "function"
    },
    {
      "inputs": [
        {
          "internalType": "address",
          "name": "user",
          "type": "address"
        }
      ],
      "name": "getOwnedNFTs",
      "outputs": [
        {
          "components": [
            {
              "internalType": "address",
              "name": "contractAddress",
              "type": "address"
            },
            {
              "internalType": "uint256",
              "name": "tokenId",
              "type": "uint256"
            },
            {
              "internalType": "string",
              "name": "tokenURI",
              "type": "string"
            }
          ],
          "internalType": "struct VWBLDataCollector.TokenInfo[]",
          "name": "",
          "type": "tuple[]"
        }
      ],
      "stateMutability": "view",
      "type": "function"
    },
    {
      "inputs": [
        {
          "internalType": "address",
          "name": "contractAddress",
          "type": "address"
        },
        {
          "internalType": "uint256",
          "name": "tokenId",
          "type": "uint256"
        }
      ],
      "name": "getTokenURI",
      "outputs": [
        {
          "internalType": "string",
          "name": "",
          "type": "string"
        }
      ],
      "stateMutability": "view",
      "type": "function"
    },
    {
      "inputs": [
        {
          "internalType": "address",
          "name": "addr",
          "type": "address"
        }
      ],
      "name": "getVWBLContractsFromOptionalChecker",
      "outputs": [
        {
          "internalType": "address[]",
          "name": "",
          "type": "address[]"
        }
      ],
      "stateMutability": "view",
      "type": "function"
    },
    {
      "inputs": [
        {
          "internalType": "address",
          "name": "addr",
          "type": "address"
        }
      ],
      "name": "getVWBLTokenType",
      "outputs": [
        {
          "internalType": "uint256",
          "name": "",
          "type": "uint256"
        }
      ],
      "stateMutability": "view",
      "type": "function"
    },
    {
      "inputs": [],
      "name": "prevAccessChecker",
      "outputs": [
        {
          "internalType": "address",
          "name": "",
          "type": "address"
        }
      ],
      "stateMutability": "view",
      "type": "function"
    }
  ],
  "bytecode": "0x60806040523480156200001157600080fd5b5060405162004af138038062004af1833981016040819052620000349162000083565b600080546001600160a01b039384166001600160a01b03199182161790915560018054929093169116179055620000bb565b80516001600160a01b03811681146200007e57600080fd5b919050565b600080604083850312156200009757600080fd5b620000a28362000066565b9150620000b26020840162000066565b90509250929050565b614a2680620000cb6000396000f3fe608060405234801561001057600080fd5b50600436106101c45760003560e01c8063693e50aa116100f9578063b88a921111610097578063c6444be411610071578063c6444be41461039c578063ca5a0958146103af578063cc6b69a6146103c2578063fb46b97c146103d557600080fd5b8063b88a92111461036e578063baaac99914610376578063bef145641461038957600080fd5b80639050f74d116100d35780639050f74d14610338578063a2801f5714610340578063aac6baea14610353578063b41bde131461035b57600080fd5b8063693e50aa14610320578063729963eb1461032857806375d5848e1461033057600080fd5b80632b0fe35911610166578063375175df11610140578063375175df146102d457806359ee0a8b146102e757806362766dec146102fa578063637dfb0c1461030d57600080fd5b80632b0fe3591461028c5780632e5ba2481461029f57806335711346146102b457600080fd5b806318148f1b116101a257806318148f1b146102255780631993db7c146102385780631b5fad47146102595780632844ddf21461026c57600080fd5b806303ed4264146101c95780630b63fd62146101f25780630f915c6414610212575b600080fd5b6101dc6101d7366004614405565b6103e8565b6040516101e99190614479565b60405180910390f35b610205610200366004614501565b6107e9565b6040516101e9919061452d565b6101dc610220366004614405565b61091c565b6101dc610233366004614405565b610cd8565b61024b610246366004614501565b610f67565b6040519081526020016101e9565b61024b610267366004614405565b61108f565b61027f61027a366004614405565b6111cc565b6040516101e99190614540565b61024b61029a366004614405565b611437565b6102a761155a565b6040516101e99190614584565b6102bc611835565b6040516001600160a01b0390911681526020016101e9565b6101dc6102e2366004614405565b6118b2565b61027f6102f5366004614405565b611c6e565b6101dc610308366004614405565b611f66565b6102bc61031b366004614501565b6122b5565b6102a76123af565b6102a76125df565b61024b612859565b6102a76128d0565b61024b61034e366004614405565b612b5d565b6102a7612bc1565b6000546102bc906001600160a01b031681565b6102a7612dda565b61027f610384366004614405565b612ff3565b6001546102bc906001600160a01b031681565b6101dc6103aa366004614405565b6132e5565b61027f6103bd366004614405565b613574565b6102a76103d0366004614405565b6138eb565b6101dc6103e3366004614405565b613f99565b606060006103f583611437565b9050806001036105d8576000836001600160a01b03166361bc221a6040518163ffffffff1660e01b8152600401602060405180830381865afa15801561043f573d6000803e3d6000fd5b505050506040513d601f19601f8201168201806040525081019061046391906145c5565b90506000816001600160401b0381111561047f5761047f6145de565b6040519080825280602002602001820160405280156104b857816020015b6104a56143c6565b81526020019060019003908161049d5790505b50905060005b828110156105cf5760006104d382600161460a565b9050868383815181106104e8576104e861461d565b6020026020010151600001906001600160a01b031690816001600160a01b0316815250508083838151811061051f5761051f61461d565b602090810291909101810151015260405163c87b56dd60e01b8152600481018290526001600160a01b0388169063c87b56dd90602401600060405180830381865afa158015610572573d6000803e3d6000fd5b505050506040513d6000823e601f3d908101601f1916820160405261059a91908101906146ce565b8383815181106105ac576105ac61461d565b6020026020010151604001819052505080806105c790614702565b9150506104be565b50949350505050565b806002036107b0576000836001600160a01b03166361bc221a6040518163ffffffff1660e01b8152600401602060405180830381865afa158015610620573d6000803e3d6000fd5b505050506040513d601f19601f8201168201806040525081019061064491906145c5565b90506000816001600160401b03811115610660576106606145de565b60405190808252806020026020018201604052801561069957816020015b6106866143c6565b81526020019060019003908161067e5790505b50905060005b828110156105cf5760006106b482600161460a565b9050868383815181106106c9576106c961461d565b6020026020010151600001906001600160a01b031690816001600160a01b031681525050808383815181106107005761070061461d565b60209081029190910181015101526040516303a24d0760e21b8152600481018290526001600160a01b03881690630e89341c90602401600060405180830381865afa158015610753573d6000803e3d6000fd5b505050506040513d6000823e601f3d908101601f1916820160405261077b91908101906146ce565b83838151811061078d5761078d61461d565b6020026020010151604001819052505080806107a890614702565b91505061069f565b60408051600080825260208201909252906107e1565b6107ce6143c6565b8152602001906001900390816107c65790505b509392505050565b60405163c87b56dd60e01b8152600481018290526060906001600160a01b0384169063c87b56dd90602401600060405180830381865afa92505050801561085257506040513d6000823e601f3d908101601f1916820160405261084f91908101906146ce565b60015b610913576040516303a24d0760e21b8152600481018390526001600160a01b03841690630e89341c90602401600060405180830381865afa9250505080156108bc57506040513d6000823e601f3d908101601f191682016040526108b991908101906146ce565b60015b610913576108fe6040518060400160405280601a81526020017f696e76616c69642061646472657373206f7220746f6b656e49640000000000008152506142e8565b50604080516020810190915260008152610916565b90505b92915050565b6060600061092983613574565b9050600081516001600160401b03811115610946576109466145de565b60405190808252806020026020018201604052801561097f57816020015b61096c6143c6565b8152602001906001900390816109645790505b50905060005b82518110156107e1576000610998611835565b6001600160a01b031663c1e630318584815181106109b8576109b861461d565b60200260200101516040518263ffffffff1660e01b81526004016109de91815260200190565b602060405180830381865afa1580156109fb573d6000803e3d6000fd5b505050506040513d601f19601f82011682018060405250810190610a1f919061471b565b9050600080826001600160a01b031663eecbc309878681518110610a4557610a4561461d565b60200260200101516040518263ffffffff1660e01b8152600401610a6b91815260200190565b6040805180830381865afa158015610a87573d6000803e3d6000fd5b505050506040513d601f19601f82011682018060405250810190610aab9190614738565b60405163c87b56dd60e01b81526004810182905291935091506001600160a01b0383169063c87b56dd90602401600060405180830381865afa925050508015610b1657506040513d6000823e601f3d908101601f19168201604052610b1391908101906146ce565b60015b610c44576040516303a24d0760e21b8152600481018290526001600160a01b03831690630e89341c90602401600060405180830381865afa925050508015610b8057506040513d6000823e601f3d908101601f19168201604052610b7d91908101906146ce565b60015b610bc257610bbd604051806040016040528060188152602001771d5b995e1c1958dd195908195c9c9bdc881bd8d8dd5c995960421b8152506142e8565b610cc2565b82868681518110610bd557610bd561461d565b6020026020010151600001906001600160a01b031690816001600160a01b03168152505081868681518110610c0c57610c0c61461d565b6020026020010151602001818152505080868681518110610c2f57610c2f61461d565b60200260200101516040018190525050610cc2565b82868681518110610c5757610c5761461d565b6020026020010151600001906001600160a01b031690816001600160a01b03168152505081868681518110610c8e57610c8e61461d565b6020026020010151602001818152505080868681518110610cb157610cb161461d565b602002602001015160400181905250505b5050508080610cd090614702565b915050610985565b60606000610ce583612ff3565b9050600081516001600160401b03811115610d0257610d026145de565b604051908082528060200260200182016040528015610d3b57816020015b610d286143c6565b815260200190600190039081610d205790505b50905060005b82518110156107e1576000610d54611835565b6001600160a01b031663c1e63031858481518110610d7457610d7461461d565b60200260200101516040518263ffffffff1660e01b8152600401610d9a91815260200190565b602060405180830381865afa158015610db7573d6000803e3d6000fd5b505050506040513d601f19601f82011682018060405250810190610ddb919061471b565b9050600080826001600160a01b031663eecbc309878681518110610e0157610e0161461d565b60200260200101516040518263ffffffff1660e01b8152600401610e2791815260200190565b6040805180830381865afa158015610e43573d6000803e3d6000fd5b505050506040513d601f19601f82011682018060405250810190610e679190614738565b9150915081858581518110610e7e57610e7e61461d565b6020026020010151600001906001600160a01b031690816001600160a01b03168152505080858581518110610eb557610eb561461d565b602090810291909101810151015260405163c87b56dd60e01b8152600481018290526001600160a01b0383169063c87b56dd90602401600060405180830381865afa158015610f08573d6000803e3d6000fd5b505050506040513d6000823e601f3d908101601f19168201604052610f3091908101906146ce565b858581518110610f4257610f4261461d565b6020026020010151604001819052505050508080610f5f90614702565b915050610d41565b604051635fb8bcd560e01b8152600481018290526000906001600160a01b03841690635fb8bcd590602401600060405180830381865afa925050508015610fd057506040513d6000823e601f3d908101601f19168201604052610fcd9190810190614766565b60015b61108457604051635fb8bcd560e01b8152600481018390526001600160a01b03841690635fb8bcd590602401600060405180830381865afa92505050801561103a57506040513d6000823e601f3d908101601f191682016040526110379190810190614766565b60015b6110845761107c6040518060400160405280601a81526020017f696e76616c69642061646472657373206f7220746f6b656e49640000000000008152506142e8565b506000610916565b829350505050610916565b6001546000906001600160a01b03908116908316036110b057506001919050565b816001600160a01b0316637e8d065c6040518163ffffffff1660e01b8152600401600060405180830381865afa92505050801561110f57506040513d6000823e601f3d908101601f1916820160405261110c91908101906148e9565b60015b6111c257816001600160a01b03166380ebb8c66040518163ffffffff1660e01b8152600401600060405180830381865afa92505050801561117257506040513d6000823e601f3d908101601f1916820160405261116f91908101906148e9565b60015b6111b8576111b06040518060400160405280601981526020017834b73b30b634b21030b2323932b9b9903bb0b99033b4bb32b760391b8152506142e8565b506000919050565b5060029392505050565b5060019392505050565b606060006111d8611835565b6001600160a01b031663478f7a396040518163ffffffff1660e01b8152600401600060405180830381865afa158015611215573d6000803e3d6000fd5b505050506040513d6000823e601f3d908101601f1916820160405261123d9190810190614960565b9050600081516001600160401b0381111561125a5761125a6145de565b604051908082528060200260200182016040528015611283578160200160208202803683370190505b5090506000805b835181101561139157856001600160a01b03166112a5611835565b6001600160a01b031663c6fd95ae8684815181106112c5576112c561461d565b60200260200101516040518263ffffffff1660e01b81526004016112eb91815260200190565b602060405180830381865afa158015611308573d6000803e3d6000fd5b505050506040513d601f19601f8201168201806040525081019061132c919061471b565b6001600160a01b03160361137f5783818151811061134c5761134c61461d565b60200260200101518383815181106113665761136661461d565b60209081029190910101528161137b81614702565b9250505b8061138981614702565b91505061128a565b6000826001600160401b038111156113ab576113ab6145de565b6040519080825280602002602001820160405280156113d4578160200160208202803683370190505b509050600091505b8282101561142d578382815181106113f6576113f661461d565b60200260200101518183815181106114105761141061461d565b60209081029190910101528161142581614702565b9250506113dc565b9695505050505050565b60405163c87b56dd60e01b8152600160048201526000906001600160a01b0383169063c87b56dd90602401600060405180830381865afa9250505080156114a057506040513d6000823e601f3d908101601f1916820160405261149d91908101906146ce565b60015b611551576040516303a24d0760e21b8152600160048201526001600160a01b03831690630e89341c90602401600060405180830381865afa92505050801561150a57506040513d6000823e601f3d908101601f1916820160405261150791908101906146ce565b60015b611548576111b06040518060400160405280601981526020017834b73b30b634b21030b2323932b9b9903bb0b99033b4bb32b760391b8152506142e8565b50600292915050565b50600192915050565b60606000611566611835565b6001600160a01b031663478f7a396040518163ffffffff1660e01b8152600401600060405180830381865afa1580156115a3573d6000803e3d6000fd5b505050506040513d6000823e601f3d908101601f191682016040526115cb9190810190614960565b9050600081516001600160401b038111156115e8576115e86145de565b604051908082528060200260200182016040528015611611578160200160208202803683370190505b5090506000805b835182101561173e57600061162b611835565b6001600160a01b031663c1e6303186858151811061164b5761164b61461d565b60200260200101516040518263ffffffff1660e01b815260040161167191815260200190565b602060405180830381865afa15801561168e573d6000803e3d6000fd5b505050506040513d601f19601f820116820180604052508101906116b2919061471b565b905060006116bf8261108f565b90508060011480156116d857506116d6858361432e565b155b1561172957826116e781614702565b9350829050856116f8600186614994565b815181106117085761170861461d565b60200260200101906001600160a01b031690816001600160a01b0316815250505b5050818061173690614702565b925050611618565b600061174b82600161460a565b6001600160401b03811115611762576117626145de565b60405190808252806020026020018201604052801561178b578160200160208202803683370190505b509050600092505b818310156117f1578383815181106117ad576117ad61461d565b60200260200101518184815181106117c7576117c761461d565b6001600160a01b0390921660209283029190910190910152826117e981614702565b935050611793565b60015481516001600160a01b03909116908290849081106118145761181461461d565b6001600160a01b039092166020928302919091019091015295945050505050565b60008060009054906101000a90046001600160a01b03166001600160a01b031663357113466040518163ffffffff1660e01b8152600401602060405180830381865afa158015611889573d6000803e3d6000fd5b505050506040513d601f19601f820116820180604052508101906118ad919061471b565b905090565b606060006118bf836111cc565b9050600081516001600160401b038111156118dc576118dc6145de565b60405190808252806020026020018201604052801561191557816020015b6119026143c6565b8152602001906001900390816118fa5790505b50905060005b82518110156107e157600061192e611835565b6001600160a01b031663c1e6303185848151811061194e5761194e61461d565b60200260200101516040518263ffffffff1660e01b815260040161197491815260200190565b602060405180830381865afa158015611991573d6000803e3d6000fd5b505050506040513d601f19601f820116820180604052508101906119b5919061471b565b9050600080826001600160a01b031663eecbc3098786815181106119db576119db61461d565b60200260200101516040518263ffffffff1660e01b8152600401611a0191815260200190565b6040805180830381865afa158015611a1d573d6000803e3d6000fd5b505050506040513d601f19601f82011682018060405250810190611a419190614738565b60405163c87b56dd60e01b81526004810182905291935091506001600160a01b0383169063c87b56dd90602401600060405180830381865afa925050508015611aac57506040513d6000823e601f3d908101601f19168201604052611aa991908101906146ce565b60015b611bda576040516303a24d0760e21b8152600481018290526001600160a01b03831690630e89341c90602401600060405180830381865afa925050508015611b1657506040513d6000823e601f3d908101601f19168201604052611b1391908101906146ce565b60015b611b5857611b53604051806040016040528060188152602001771d5b995e1c1958dd195908195c9c9bdc881bd8d8dd5c995960421b8152506142e8565b611c58565b82868681518110611b6b57611b6b61461d565b6020026020010151600001906001600160a01b031690816001600160a01b03168152505081868681518110611ba257611ba261461d565b6020026020010151602001818152505080868681518110611bc557611bc561461d565b60200260200101516040018190525050611c58565b82868681518110611bed57611bed61461d565b6020026020010151600001906001600160a01b031690816001600160a01b03168152505081868681518110611c2457611c2461461d565b6020026020010151602001818152505080868681518110611c4757611c4761461d565b602002602001015160400181905250505b5050508080611c6690614702565b91505061191b565b60606000611c7a611835565b90506000816001600160a01b031663478f7a396040518163ffffffff1660e01b8152600401600060405180830381865afa158015611cbc573d6000803e3d6000fd5b505050506040513d6000823e601f3d908101601f19168201604052611ce49190810190614960565b9050600081516001600160401b03811115611d0157611d016145de565b604051908082528060200260200182016040528015611d2a578160200160208202803683370190505b5090506000805b8351811015611ebf576000856001600160a01b031663c1e63031868481518110611d5d57611d5d61461d565b60200260200101516040518263ffffffff1660e01b8152600401611d8391815260200190565b602060405180830381865afa158015611da0573d6000803e3d6000fd5b505050506040513d601f19601f82011682018060405250810190611dc4919061471b565b9050806001600160a01b031663bc29f42a89878581518110611de857611de861461d565b60200260200101516040518363ffffffff1660e01b8152600401611e219291906001600160a01b03929092168252602082015260400190565b602060405180830381865afa158015611e3e573d6000803e3d6000fd5b505050506040513d601f19601f82011682018060405250810190611e6291906149a7565b15611eac57848281518110611e7957611e7961461d565b6020026020010151848481518110611e9357611e9361461d565b602090810291909101015282611ea881614702565b9350505b5080611eb781614702565b915050611d31565b6000826001600160401b03811115611ed957611ed96145de565b604051908082528060200260200182016040528015611f02578160200160208202803683370190505b509050600091505b82821015611f5b57838281518110611f2457611f2461461d565b6020026020010151818381518110611f3e57611f3e61461d565b602090810291909101015281611f5381614702565b925050611f0a565b979650505050505050565b60606000611f73836111cc565b9050600081516001600160401b03811115611f9057611f906145de565b604051908082528060200260200182016040528015611fc957816020015b611fb66143c6565b815260200190600190039081611fae5790505b5090506000805b8351811015612208576000611fe3611835565b6001600160a01b031663c1e630318684815181106120035761200361461d565b60200260200101516040518263ffffffff1660e01b815260040161202991815260200190565b602060405180830381865afa158015612046573d6000803e3d6000fd5b505050506040513d601f19601f8201168201806040525081019061206a919061471b565b9050600080826001600160a01b031663eecbc3098886815181106120905761209061461d565b60200260200101516040518263ffffffff1660e01b81526004016120b691815260200190565b6040805180830381865afa1580156120d2573d6000803e3d6000fd5b505050506040513d601f19601f820116820180604052508101906120f69190614738565b60405163c87b56dd60e01b81526004810182905291935091506001600160a01b0383169063c87b56dd90602401600060405180830381865afa92505050801561216157506040513d6000823e601f3d908101601f1916820160405261215e91908101906146ce565b60015b156121f257828787815181106121795761217961461d565b6020026020010151600001906001600160a01b031690816001600160a01b031681525050818787815181106121b0576121b061461d565b60200260200101516020018181525050808787815181106121d3576121d361461d565b60200260200101516040018190525085806121ed90614702565b965050505b505050808061220090614702565b915050611fd0565b6000826001600160401b03811115612222576122226145de565b60405190808252806020026020018201604052801561225b57816020015b6122486143c6565b8152602001906001900390816122405790505b509050600091505b8282101561142d5783828151811061227d5761227d61461d565b60200260200101518183815181106122975761229761461d565b602002602001018190525081806122ad90614702565b925050612263565b6000806122c28484610f67565b905060006122ce611835565b6001600160a01b031663c1e63031836040518263ffffffff1660e01b81526004016122fb91815260200190565b602060405180830381865afa158015612318573d6000803e3d6000fd5b505050506040513d601f19601f8201168201806040525081019061233c919061471b565b604051626a1f6360e11b8152600481018490529091506001600160a01b0382169062d43ec690602401602060405180830381865afa158015612382573d6000803e3d6000fd5b505050506040513d601f19601f820116820180604052508101906123a6919061471b565b95945050505050565b606060006123bb6125df565b905060006123c7611835565b6001600160a01b031663478f7a396040518163ffffffff1660e01b8152600401600060405180830381865afa158015612404573d6000803e3d6000fd5b505050506040513d6000823e601f3d908101601f1916820160405261242c9190810190614960565b9050600081516001600160401b03811115612449576124496145de565b604051908082528060200260200182016040528015612472578160200160208202803683370190505b5090506000805b845181101561252d5760006124a68683815181106124995761249961461d565b60200260200101516138eb565b905060005b8151811015612518578181815181106124c6576124c661461d565b60200260200101518585815181106124e0576124e061461d565b6001600160a01b03909216602092830291909101909101528361250281614702565b945050808061251090614702565b9150506124ab565b5050808061252590614702565b915050612479565b506000816001600160401b03811115612548576125486145de565b604051908082528060200260200182016040528015612571578160200160208202803683370190505b50905060005b828110156125d5578381815181106125915761259161461d565b60200260200101518282815181106125ab576125ab61461d565b6001600160a01b0390921660209283029190910190910152806125cd81614702565b915050612577565b5095945050505050565b606060006125eb611835565b6001600160a01b031663478f7a396040518163ffffffff1660e01b8152600401600060405180830381865afa158015612628573d6000803e3d6000fd5b505050506040513d6000823e601f3d908101601f191682016040526126509190810190614960565b9050600081516001600160401b0381111561266d5761266d6145de565b604051908082528060200260200182016040528015612696578160200160208202803683370190505b5090506000805b83518210156127a65760006126b0611835565b6001600160a01b031663c1e630318685815181106126d0576126d061461d565b60200260200101516040518263ffffffff1660e01b81526004016126f691815260200190565b602060405180830381865afa158015612713573d6000803e3d6000fd5b505050506040513d601f19601f82011682018060405250810190612737919061471b565b9050612743848261432e565b612793578161275181614702565b925081905084612762600185614994565b815181106127725761277261461d565b60200260200101906001600160a01b031690816001600160a01b0316815250505b508161279e81614702565b92505061269d565b60006127b382600161460a565b6001600160401b038111156127ca576127ca6145de565b6040519080825280602002602001820160405280156127f3578160200160208202803683370190505b509050600092505b818310156117f1578383815181106128155761281561461d565b602002602001015181848151811061282f5761282f61461d565b6001600160a01b03909216602092830291909101909101528261285181614702565b9350506127fb565b600080612864611835565b6001600160a01b031663478f7a396040518163ffffffff1660e01b8152600401600060405180830381865afa1580156128a1573d6000803e3d6000fd5b505050506040513d6000823e601f3d908101601f191682016040526128c99190810190614960565b5192915050565b606060006128dc611835565b6001600160a01b031663478f7a396040518163ffffffff1660e01b8152600401600060405180830381865afa158015612919573d6000803e3d6000fd5b505050506040513d6000823e601f3d908101601f191682016040526129419190810190614960565b9050600081516001600160401b0381111561295e5761295e6145de565b604051908082528060200260200182016040528015612987578160200160208202803683370190505b5090506000805b8351821015612ab45760006129a1611835565b6001600160a01b031663c1e630318685815181106129c1576129c161461d565b60200260200101516040518263ffffffff1660e01b81526004016129e791815260200190565b602060405180830381865afa158015612a04573d6000803e3d6000fd5b505050506040513d601f19601f82011682018060405250810190612a28919061471b565b90506000612a358261108f565b9050806002148015612a4e5750612a4c858361432e565b155b15612a9f5782612a5d81614702565b935082905085612a6e600186614994565b81518110612a7e57612a7e61461d565b60200260200101906001600160a01b031690816001600160a01b0316815250505b50508180612aac90614702565b92505061298e565b6000816001600160401b03811115612ace57612ace6145de565b604051908082528060200260200182016040528015612af7578160200160208202803683370190505b509050600092505b818310156123a657838381518110612b1957612b1961461d565b6020026020010151818481518110612b3357612b3361461d565b6001600160a01b039092166020928302919091019091015282612b5581614702565b935050612aff565b6000816001600160a01b03166361bc221a6040518163ffffffff1660e01b8152600401602060405180830381865afa158015612b9d573d6000803e3d6000fd5b505050506040513d601f19601f8201168201806040525081019061091691906145c5565b60606000612bcd6128d0565b90506000612bd9611835565b6001600160a01b031663478f7a396040518163ffffffff1660e01b8152600401600060405180830381865afa158015612c16573d6000803e3d6000fd5b505050506040513d6000823e601f3d908101601f19168201604052612c3e9190810190614960565b9050600081516001600160401b03811115612c5b57612c5b6145de565b604051908082528060200260200182016040528015612c84578160200160208202803683370190505b5090506000805b8451811015612d32576000612cab8683815181106124995761249961461d565b905060005b8151811015612d1d57818181518110612ccb57612ccb61461d565b6020026020010151858581518110612ce557612ce561461d565b6001600160a01b039092166020928302919091019091015283612d0781614702565b9450508080612d1590614702565b915050612cb0565b50508080612d2a90614702565b915050612c8b565b506000816001600160401b03811115612d4d57612d4d6145de565b604051908082528060200260200182016040528015612d76578160200160208202803683370190505b50905060005b828110156125d557838181518110612d9657612d9661461d565b6020026020010151828281518110612db057612db061461d565b6001600160a01b039092166020928302919091019091015280612dd281614702565b915050612d7c565b60606000612de661155a565b90506000612df2611835565b6001600160a01b031663478f7a396040518163ffffffff1660e01b8152600401600060405180830381865afa158015612e2f573d6000803e3d6000fd5b505050506040513d6000823e601f3d908101601f19168201604052612e579190810190614960565b9050600081516001600160401b03811115612e7457612e746145de565b604051908082528060200260200182016040528015612e9d578160200160208202803683370190505b5090506000805b8451811015612f4b576000612ec48683815181106124995761249961461d565b905060005b8151811015612f3657818181518110612ee457612ee461461d565b6020026020010151858581518110612efe57612efe61461d565b6001600160a01b039092166020928302919091019091015283612f2081614702565b9450508080612f2e90614702565b915050612ec9565b50508080612f4390614702565b915050612ea4565b506000816001600160401b03811115612f6657612f666145de565b604051908082528060200260200182016040528015612f8f578160200160208202803683370190505b50905060005b828110156125d557838181518110612faf57612faf61461d565b6020026020010151828281518110612fc957612fc961461d565b6001600160a01b039092166020928302919091019091015280612feb81614702565b915050612f95565b60606000612fff611835565b90506000816001600160a01b031663478f7a396040518163ffffffff1660e01b8152600401600060405180830381865afa158015613041573d6000803e3d6000fd5b505050506040513d6000823e601f3d908101601f191682016040526130699190810190614960565b9050600081516001600160401b03811115613086576130866145de565b6040519080825280602002602001820160405280156130af578160200160208202803683370190505b5090506000805b8351811015613249576000856001600160a01b031663c1e630318684815181106130e2576130e261461d565b60200260200101516040518263ffffffff1660e01b815260040161310891815260200190565b602060405180830381865afa158015613125573d6000803e3d6000fd5b505050506040513d601f19601f82011682018060405250810190613149919061471b565b90506000816001600160a01b031662d43ec687858151811061316d5761316d61461d565b60200260200101516040518263ffffffff1660e01b815260040161319391815260200190565b602060405180830381865afa1580156131b0573d6000803e3d6000fd5b505050506040513d601f19601f820116820180604052508101906131d4919061471b565b9050886001600160a01b0316816001600160a01b031603613234578583815181106132015761320161461d565b602002602001015185858151811061321b5761321b61461d565b60209081029190910101528361323081614702565b9450505b5050808061324190614702565b9150506130b6565b6000826001600160401b03811115613263576132636145de565b60405190808252806020026020018201604052801561328c578160200160208202803683370190505b509050600091505b82821015611f5b578382815181106132ae576132ae61461d565b60200260200101518183815181106132c8576132c861461d565b6020908102919091010152816132dd81614702565b925050613294565b606060006132f283611c6e565b9050600081516001600160401b0381111561330f5761330f6145de565b60405190808252806020026020018201604052801561334857816020015b6133356143c6565b81526020019060019003908161332d5790505b50905060005b82518110156107e1576000613361611835565b6001600160a01b031663c1e630318584815181106133815761338161461d565b60200260200101516040518263ffffffff1660e01b81526004016133a791815260200190565b602060405180830381865afa1580156133c4573d6000803e3d6000fd5b505050506040513d601f19601f820116820180604052508101906133e8919061471b565b9050600080826001600160a01b031663eecbc30987868151811061340e5761340e61461d565b60200260200101516040518263ffffffff1660e01b815260040161343491815260200190565b6040805180830381865afa158015613450573d6000803e3d6000fd5b505050506040513d601f19601f820116820180604052508101906134749190614738565b915091508185858151811061348b5761348b61461d565b6020026020010151600001906001600160a01b031690816001600160a01b031681525050808585815181106134c2576134c261461d565b60209081029190910181015101526040516303a24d0760e21b8152600481018290526001600160a01b03831690630e89341c90602401600060405180830381865afa158015613515573d6000803e3d6000fd5b505050506040513d6000823e601f3d908101601f1916820160405261353d91908101906146ce565b85858151811061354f5761354f61461d565b602002602001015160400181905250505050808061356c90614702565b91505061334e565b60606000613580611835565b6001600160a01b031663478f7a396040518163ffffffff1660e01b8152600401600060405180830381865afa1580156135bd573d6000803e3d6000fd5b505050506040513d6000823e601f3d908101601f191682016040526135e59190810190614960565b9050600081516001600160401b03811115613602576136026145de565b60405190808252806020026020018201604052801561362b578160200160208202803683370190505b5090506000805b835182101561384f57600084838151811061364f5761364f61461d565b602002602001015190506000613663611835565b6001600160a01b031663c1e63031836040518263ffffffff1660e01b815260040161369091815260200190565b602060405180830381865afa1580156136ad573d6000803e3d6000fd5b505050506040513d601f19601f820116820180604052508101906136d1919061471b565b604051626a1f6360e11b8152600481018490529091506000906001600160a01b0383169062d43ec690602401602060405180830381865afa15801561371a573d6000803e3d6000fd5b505050506040513d601f19601f8201168201806040525081019061373e919061471b565b9050886001600160a01b0316816001600160a01b031603613785578286858151811061376c5761376c61461d565b60209081029190910101528361378181614702565b9450505b6001600160a01b0381161580156138085750604051635e14fa1560e11b81526001600160a01b038a811660048301526024820185905283169063bc29f42a90604401602060405180830381865afa1580156137e4573d6000803e3d6000fd5b505050506040513d601f19601f8201168201806040525081019061380891906149a7565b1561383957828685815181106138205761382061461d565b60209081029190910101528361383581614702565b9450505b505050818061384790614702565b925050613632565b6000816001600160401b03811115613869576138696145de565b604051908082528060200260200182016040528015613892578160200160208202803683370190505b509050600092505b8183101561142d578383815181106138b4576138b461461d565b60200260200101518184815181106138ce576138ce61461d565b6020908102919091010152826138e381614702565b93505061389a565b60015460609060009081906001600160a01b0390811690851603613b58576000613913611835565b6001600160a01b031663478f7a396040518163ffffffff1660e01b8152600401600060405180830381865afa158015613950573d6000803e3d6000fd5b505050506040513d6000823e601f3d908101601f191682016040526139789190810190614960565b9050600081516001600160401b03811115613995576139956145de565b6040519080825280602002602001820160405280156139be578160200160208202803683370190505b509050600092505b8151831015613aaf57856001600160a01b031663eecbc3098385815181106139f0576139f061461d565b60200260200101516040518263ffffffff1660e01b8152600401613a1691815260200190565b6040805180830381865afa925050508015613a4e575060408051601f3d908101601f19168201909252613a4b91810190614738565b60015b15613a9d57613a5d838361432e565b613a9a5781838781518110613a7457613a7461461d565b6001600160a01b039092166020928302919091019091015285613a9681614702565b9650505b50505b82613aa781614702565b9350506139c6565b6000846001600160401b03811115613ac957613ac96145de565b604051908082528060200260200182016040528015613af2578160200160208202803683370190505b509050600093505b8484101561142d57818481518110613b1457613b1461461d565b6020026020010151818581518110613b2e57613b2e61461d565b6001600160a01b039092166020928302919091019091015283613b5081614702565b945050613afa565b836001600160a01b0316637e8d065c6040518163ffffffff1660e01b8152600401600060405180830381865afa925050508015613bb757506040513d6000823e601f3d908101601f19168201604052613bb491908101906148e9565b60015b613e1957836001600160a01b03166380ebb8c66040518163ffffffff1660e01b8152600401600060405180830381865afa925050508015613c1a57506040513d6000823e601f3d908101601f19168201604052613c1791908101906148e9565b60015b613c8857613c3f6040518060600160405280602781526020016149ca602791396142e8565b816001600160401b03811115613c5757613c576145de565b6040519080825280602002602001820160405280156105cf5781602001602082028036833701905050949350505050565b600081516001600160401b03811115613ca357613ca36145de565b604051908082528060200260200182016040528015613ccc578160200160208202803683370190505b509050600093505b8151841015613d7057613d0481838681518110613cf357613cf361461d565b60200260200101516000015161432e565b613d5e57818481518110613d1a57613d1a61461d565b602002602001015160000151818681518110613d3857613d3861461d565b6001600160a01b039092166020928302919091019091015284613d5a81614702565b9550505b83613d6881614702565b945050613cd4565b6000856001600160401b03811115613d8a57613d8a6145de565b604051908082528060200260200182016040528015613db3578160200160208202803683370190505b509050600094505b85851015611f5b57818581518110613dd557613dd561461d565b6020026020010151818681518110613def57613def61461d565b6001600160a01b039092166020928302919091019091015284613e1181614702565b955050613dbb565b600081516001600160401b03811115613e3457613e346145de565b604051908082528060200260200182016040528015613e5d578160200160208202803683370190505b509050600093505b8151841015613ef057613e8481838681518110613cf357613cf361461d565b613ede57818481518110613e9a57613e9a61461d565b602002602001015160000151818681518110613eb857613eb861461d565b6001600160a01b039092166020928302919091019091015284613eda81614702565b9550505b83613ee881614702565b945050613e65565b6000856001600160401b03811115613f0a57613f0a6145de565b604051908082528060200260200182016040528015613f33578160200160208202803683370190505b509050600094505b85851015611f5b57818581518110613f5557613f5561461d565b6020026020010151818681518110613f6f57613f6f61461d565b6001600160a01b039092166020928302919091019091015284613f9181614702565b955050613f3b565b60606000613fa6836111cc565b9050600081516001600160401b03811115613fc357613fc36145de565b604051908082528060200260200182016040528015613ffc57816020015b613fe96143c6565b815260200190600190039081613fe15790505b5090506000805b835181101561423b576000614016611835565b6001600160a01b031663c1e630318684815181106140365761403661461d565b60200260200101516040518263ffffffff1660e01b815260040161405c91815260200190565b602060405180830381865afa158015614079573d6000803e3d6000fd5b505050506040513d601f19601f8201168201806040525081019061409d919061471b565b9050600080826001600160a01b031663eecbc3098886815181106140c3576140c361461d565b60200260200101516040518263ffffffff1660e01b81526004016140e991815260200190565b6040805180830381865afa158015614105573d6000803e3d6000fd5b505050506040513d601f19601f820116820180604052508101906141299190614738565b6040516303a24d0760e21b81526004810182905291935091506001600160a01b03831690630e89341c90602401600060405180830381865afa92505050801561419457506040513d6000823e601f3d908101601f1916820160405261419191908101906146ce565b60015b1561422557828787815181106141ac576141ac61461d565b6020026020010151600001906001600160a01b031690816001600160a01b031681525050818787815181106141e3576141e361461d565b60200260200101516020018181525050808787815181106142065761420661461d565b602002602001015160400181905250858061422090614702565b965050505b505050808061423390614702565b915050614003565b6000826001600160401b03811115614255576142556145de565b60405190808252806020026020018201604052801561428e57816020015b61427b6143c6565b8152602001906001900390816142735790505b509050600091505b8282101561142d578382815181106142b0576142b061461d565b60200260200101518183815181106142ca576142ca61461d565b602002602001018190525081806142e090614702565b925050614296565b61432b816040516024016142fc919061452d565b60408051601f198184030181529190526020810180516001600160e01b031663104c13eb60e21b1790526143a5565b50565b6000825160000361434157506000610916565b60005b835181101561439b57826001600160a01b03168482815181106143695761436961461d565b60200260200101516001600160a01b031603614389576001915050610916565b8061439381614702565b915050614344565b5060009392505050565b80516a636f6e736f6c652e6c6f67602083016000808483855afa5050505050565b604051806060016040528060006001600160a01b0316815260200160008152602001606081525090565b6001600160a01b038116811461432b57600080fd5b60006020828403121561441757600080fd5b8135614422816143f0565b9392505050565b60005b8381101561444457818101518382015260200161442c565b50506000910152565b60008151808452614465816020860160208601614429565b601f01601f19169290920160200192915050565b60006020808301818452808551808352604092508286019150828160051b87010184880160005b838110156144f357888303603f19018552815180516001600160a01b03168452878101518885015286015160608785018190526144df8186018361444d565b9689019694505050908601906001016144a0565b509098975050505050505050565b6000806040838503121561451457600080fd5b823561451f816143f0565b946020939093013593505050565b602081526000614422602083018461444d565b6020808252825182820181905260009190848201906040850190845b818110156145785783518352928401929184019160010161455c565b50909695505050505050565b6020808252825182820181905260009190848201906040850190845b818110156145785783516001600160a01b0316835292840192918401916001016145a0565b6000602082840312156145d757600080fd5b5051919050565b634e487b7160e01b600052604160045260246000fd5b634e487b7160e01b600052601160045260246000fd5b80820180821115610916576109166145f4565b634e487b7160e01b600052603260045260246000fd5b604051601f8201601f191681016001600160401b038111828210171561465b5761465b6145de565b604052919050565b600082601f83011261467457600080fd5b81516001600160401b0381111561468d5761468d6145de565b6146a0601f8201601f1916602001614633565b8181528460208386010111156146b557600080fd5b6146c6826020830160208701614429565b949350505050565b6000602082840312156146e057600080fd5b81516001600160401b038111156146f657600080fd5b6146c684828501614663565b600060018201614714576147146145f4565b5060010190565b60006020828403121561472d57600080fd5b8151614422816143f0565b6000806040838503121561474b57600080fd5b8251614756816143f0565b6020939093015192949293505050565b60008060006060848603121561477b57600080fd5b83519250602084015161478d816143f0565b60408501519092506001600160401b038111156147a957600080fd5b6147b586828701614663565b9150509250925092565b60006001600160401b038211156147d8576147d86145de565b5060051b60200190565b600082601f8301126147f357600080fd5b81516020614808614803836147bf565b614633565b82815260059290921b8401810191818101908684111561482757600080fd5b8286015b84811015614842578051835291830191830161482b565b509695505050505050565b600061485b614803846147bf565b8381529050602080820190600685901b84018681111561487a57600080fd5b845b818110156148de57604080828a0312156148965760008081fd5b80518181018181106001600160401b03821117156148b6576148b66145de565b9091528151906148c5826143f0565b908152818401518482015284529282019260400161487c565b505050509392505050565b600080604083850312156148fc57600080fd5b82516001600160401b038082111561491357600080fd5b61491f868387016147e2565b9350602085015191508082111561493557600080fd5b508301601f8101851361494757600080fd5b6149568582516020840161484d565b9150509250929050565b60006020828403121561497257600080fd5b81516001600160401b0381111561498857600080fd5b6146c6848285016147e2565b81810381811115610916576109166145f4565b6000602082840312156149b957600080fd5b8151801515811461442257600080fdfe7468652061646472657373206973206e6f74206e66742f6572633131353520636865636b65722ea26469706673582212204443f7408cb157669670548c9827e13a01dd3627ae037c786b7fdee431c2be6864736f6c63430008110033",
  "linkReferences": {},
  "deployedLinkReferences": {}
}