{
  "_format": "hh-sol-artifact-1",
  "contractName": "VWBLERC1155",
  "sourceName": "contracts/VWBL/access-condition/ERC1155/VWBLERC1155.sol",
  "abi": [
    {
      "inputs": [
        {
          "internalType": "string",
          "name": "_baseURI",
          "type": "string"
        },
        {
          "internalType": "address",
          "name": "_gatewayProxy",
          "type": "address"
        },
        {
          "internalType": "address",
          "name": "_accessCheckerContract",
          "type": "address"
        }
      ],
      "stateMutability": "nonpayable",
      "type": "constructor"
    },
    {
      "anonymous": false,
      "inputs": [
        {
          "indexed": true,
          "internalType": "address",
          "name": "account",
          "type": "address"
        },
        {
          "indexed": true,
          "internalType": "address",
          "name": "operator",
          "type": "address"
        },
        {
          "indexed": false,
          "internalType": "bool",
          "name": "approved",
          "type": "bool"
        }
      ],
      "name": "ApprovalForAll",
      "type": "event"
    },
    {
      "anonymous": false,
      "inputs": [
        {
          "indexed": true,
          "internalType": "address",
          "name": "previousOwner",
          "type": "address"
        },
        {
          "indexed": true,
          "internalType": "address",
          "name": "newOwner",
          "type": "address"
        }
      ],
      "name": "OwnershipTransferred",
      "type": "event"
    },
    {
      "anonymous": false,
      "inputs": [
        {
          "indexed": true,
          "internalType": "address",
          "name": "operator",
          "type": "address"
        },
        {
          "indexed": true,
          "internalType": "address",
          "name": "from",
          "type": "address"
        },
        {
          "indexed": true,
          "internalType": "address",
          "name": "to",
          "type": "address"
        },
        {
          "indexed": false,
          "internalType": "uint256[]",
          "name": "ids",
          "type": "uint256[]"
        },
        {
          "indexed": false,
          "internalType": "uint256[]",
          "name": "values",
          "type": "uint256[]"
        }
      ],
      "name": "TransferBatch",
      "type": "event"
    },
    {
      "anonymous": false,
      "inputs": [
        {
          "indexed": true,
          "internalType": "address",
          "name": "operator",
          "type": "address"
        },
        {
          "indexed": true,
          "internalType": "address",
          "name": "from",
          "type": "address"
        },
        {
          "indexed": true,
          "internalType": "address",
          "name": "to",
          "type": "address"
        },
        {
          "indexed": false,
          "internalType": "uint256",
          "name": "id",
          "type": "uint256"
        },
        {
          "indexed": false,
          "internalType": "uint256",
          "name": "value",
          "type": "uint256"
        }
      ],
      "name": "TransferSingle",
      "type": "event"
    },
    {
      "anonymous": false,
      "inputs": [
        {
          "indexed": false,
          "internalType": "string",
          "name": "value",
          "type": "string"
        },
        {
          "indexed": true,
          "internalType": "uint256",
          "name": "id",
          "type": "uint256"
        }
      ],
      "name": "URI",
      "type": "event"
    },
    {
      "anonymous": false,
      "inputs": [
        {
          "indexed": false,
          "internalType": "address",
          "name": "oldAccessCheckerContract",
          "type": "address"
        },
        {
          "indexed": false,
          "internalType": "address",
          "name": "newAccessCheckerContract",
          "type": "address"
        }
      ],
      "name": "accessCheckerContractChanged",
      "type": "event"
    },
    {
      "inputs": [],
      "name": "INVERSE_BASIS_POINT",
      "outputs": [
        {
          "internalType": "uint256",
          "name": "",
          "type": "uint256"
        }
      ],
      "stateMutability": "view",
      "type": "function"
    },
    {
      "inputs": [
        {
          "internalType": "uint256",
          "name": "",
          "type": "uint256"
        }
      ],
      "name": "_tokenIdToTokenBalance",
      "outputs": [
        {
          "internalType": "uint256",
          "name": "",
          "type": "uint256"
        }
      ],
      "stateMutability": "view",
      "type": "function"
    },
    {
      "inputs": [],
      "name": "accessCheckerContract",
      "outputs": [
        {
          "internalType": "address",
          "name": "",
          "type": "address"
        }
      ],
      "stateMutability": "view",
      "type": "function"
    },
    {
      "inputs": [
        {
          "internalType": "address",
          "name": "account",
          "type": "address"
        },
        {
          "internalType": "uint256",
          "name": "id",
          "type": "uint256"
        }
      ],
      "name": "balanceOf",
      "outputs": [
        {
          "internalType": "uint256",
          "name": "",
          "type": "uint256"
        }
      ],
      "stateMutability": "view",
      "type": "function"
    },
    {
      "inputs": [
        {
          "internalType": "address[]",
          "name": "accounts",
          "type": "address[]"
        },
        {
          "internalType": "uint256[]",
          "name": "ids",
          "type": "uint256[]"
        }
      ],
      "name": "balanceOfBatch",
      "outputs": [
        {
          "internalType": "uint256[]",
          "name": "",
          "type": "uint256[]"
        }
      ],
      "stateMutability": "view",
      "type": "function"
    },
    {
      "inputs": [
        {
          "internalType": "address",
          "name": "account",
          "type": "address"
        },
        {
          "internalType": "uint256",
          "name": "id",
          "type": "uint256"
        },
        {
          "internalType": "uint256",
          "name": "value",
          "type": "uint256"
        }
      ],
      "name": "burn",
      "outputs": [],
      "stateMutability": "nonpayable",
      "type": "function"
    },
    {
      "inputs": [
        {
          "internalType": "address",
          "name": "account",
          "type": "address"
        },
        {
          "internalType": "uint256[]",
          "name": "ids",
          "type": "uint256[]"
        },
        {
          "internalType": "uint256[]",
          "name": "values",
          "type": "uint256[]"
        }
      ],
      "name": "burnBatch",
      "outputs": [],
      "stateMutability": "nonpayable",
      "type": "function"
    },
    {
      "inputs": [],
      "name": "counter",
      "outputs": [
        {
          "internalType": "uint256",
          "name": "",
          "type": "uint256"
        }
      ],
      "stateMutability": "view",
      "type": "function"
    },
    {
      "inputs": [],
      "name": "gatewayProxy",
      "outputs": [
        {
          "internalType": "address",
          "name": "",
          "type": "address"
        }
      ],
      "stateMutability": "view",
      "type": "function"
    },
    {
      "inputs": [],
      "name": "getFee",
      "outputs": [
        {
          "internalType": "uint256",
          "name": "",
          "type": "uint256"
        }
      ],
      "stateMutability": "view",
      "type": "function"
    },
    {
      "inputs": [],
      "name": "getGatewayAddress",
      "outputs": [
        {
          "internalType": "address",
          "name": "",
          "type": "address"
        }
      ],
      "stateMutability": "view",
      "type": "function"
    },
    {
      "inputs": [
        {
          "internalType": "uint256",
          "name": "tokenId",
          "type": "uint256"
        }
      ],
      "name": "getMinter",
      "outputs": [
        {
          "internalType": "address",
          "name": "",
          "type": "address"
        }
      ],
      "stateMutability": "view",
      "type": "function"
    },
    {
      "inputs": [
        {
          "internalType": "address",
          "name": "minter",
          "type": "address"
        }
      ],
      "name": "getTokenByMinter",
      "outputs": [
        {
          "components": [
            {
              "internalType": "address",
              "name": "minterAddress",
              "type": "address"
            },
            {
              "internalType": "bytes32",
              "name": "documentId",
              "type": "bytes32"
            },
            {
              "internalType": "string",
              "name": "getKeyURl",
              "type": "string"
            }
          ],
          "internalType": "struct VWBLERC1155.TokenInfo[]",
          "name": "",
          "type": "tuple[]"
        }
      ],
      "stateMutability": "view",
      "type": "function"
    },
    {
      "inputs": [
        {
          "internalType": "address",
          "name": "account",
          "type": "address"
        },
        {
          "internalType": "address",
          "name": "operator",
          "type": "address"
        }
      ],
      "name": "isApprovedForAll",
      "outputs": [
        {
          "internalType": "bool",
          "name": "",
          "type": "bool"
        }
      ],
      "stateMutability": "view",
      "type": "function"
    },
    {
      "inputs": [
        {
          "internalType": "string",
          "name": "_getKeyURl",
          "type": "string"
        },
        {
          "internalType": "uint256",
          "name": "_amount",
          "type": "uint256"
        },
        {
          "internalType": "uint256",
          "name": "_royaltiesPercentage",
          "type": "uint256"
        },
        {
          "internalType": "bytes32",
          "name": "_documentId",
          "type": "bytes32"
        }
      ],
      "name": "mint",
      "outputs": [
        {
          "internalType": "uint256",
          "name": "",
          "type": "uint256"
        }
      ],
      "stateMutability": "payable",
      "type": "function"
    },
    {
      "inputs": [
        {
          "internalType": "string",
          "name": "_getKeyURl",
          "type": "string"
        },
        {
          "internalType": "uint256[]",
          "name": "_amounts",
          "type": "uint256[]"
        },
        {
          "internalType": "uint256[]",
          "name": "_royaltiesPercentages",
          "type": "uint256[]"
        },
        {
          "internalType": "bytes32[]",
          "name": "_documentIds",
          "type": "bytes32[]"
        }
      ],
      "name": "mintBatch",
      "outputs": [
        {
          "internalType": "uint256[]",
          "name": "",
          "type": "uint256[]"
        }
      ],
      "stateMutability": "payable",
      "type": "function"
    },
    {
      "inputs": [],
      "name": "owner",
      "outputs": [
        {
          "internalType": "address",
          "name": "",
          "type": "address"
        }
      ],
      "stateMutability": "view",
      "type": "function"
    },
    {
      "inputs": [],
      "name": "renounceOwnership",
      "outputs": [],
      "stateMutability": "nonpayable",
      "type": "function"
    },
    {
      "inputs": [
        {
          "internalType": "uint256",
          "name": "_tokenId",
          "type": "uint256"
        },
        {
          "internalType": "uint256",
          "name": "_salePrice",
          "type": "uint256"
        }
      ],
      "name": "royaltyInfo",
      "outputs": [
        {
          "internalType": "address",
          "name": "receiver",
          "type": "address"
        },
        {
          "internalType": "uint256",
          "name": "royaltyAmount",
          "type": "uint256"
        }
      ],
      "stateMutability": "view",
      "type": "function"
    },
    {
      "inputs": [
        {
          "internalType": "address",
          "name": "from",
          "type": "address"
        },
        {
          "internalType": "address",
          "name": "to",
          "type": "address"
        },
        {
          "internalType": "uint256[]",
          "name": "ids",
          "type": "uint256[]"
        },
        {
          "internalType": "uint256[]",
          "name": "amounts",
          "type": "uint256[]"
        },
        {
          "internalType": "bytes",
          "name": "data",
          "type": "bytes"
        }
      ],
      "name": "safeBatchTransferAndPayFee",
      "outputs": [],
      "stateMutability": "payable",
      "type": "function"
    },
    {
      "inputs": [
        {
          "internalType": "address",
          "name": "from",
          "type": "address"
        },
        {
          "internalType": "address",
          "name": "to",
          "type": "address"
        },
        {
          "internalType": "uint256[]",
          "name": "ids",
          "type": "uint256[]"
        },
        {
          "internalType": "uint256[]",
          "name": "amounts",
          "type": "uint256[]"
        },
        {
          "internalType": "bytes",
          "name": "data",
          "type": "bytes"
        }
      ],
      "name": "safeBatchTransferFrom",
      "outputs": [],
      "stateMutability": "nonpayable",
      "type": "function"
    },
    {
      "inputs": [
        {
          "internalType": "address",
          "name": "from",
          "type": "address"
        },
        {
          "internalType": "address",
          "name": "to",
          "type": "address"
        },
        {
          "internalType": "uint256",
          "name": "id",
          "type": "uint256"
        },
        {
          "internalType": "uint256",
          "name": "amount",
          "type": "uint256"
        },
        {
          "internalType": "bytes",
          "name": "data",
          "type": "bytes"
        }
      ],
      "name": "safeTransferAndPayFee",
      "outputs": [],
      "stateMutability": "payable",
      "type": "function"
    },
    {
      "inputs": [
        {
          "internalType": "address",
          "name": "from",
          "type": "address"
        },
        {
          "internalType": "address",
          "name": "to",
          "type": "address"
        },
        {
          "internalType": "uint256",
          "name": "id",
          "type": "uint256"
        },
        {
          "internalType": "uint256",
          "name": "amount",
          "type": "uint256"
        },
        {
          "internalType": "bytes",
          "name": "data",
          "type": "bytes"
        }
      ],
      "name": "safeTransferFrom",
      "outputs": [],
      "stateMutability": "nonpayable",
      "type": "function"
    },
    {
      "inputs": [
        {
          "internalType": "address",
          "name": "newAccessCheckerContract",
          "type": "address"
        }
      ],
      "name": "setAccessCheckerContract",
      "outputs": [],
      "stateMutability": "nonpayable",
      "type": "function"
    },
    {
      "inputs": [
        {
          "internalType": "address",
          "name": "operator",
          "type": "address"
        },
        {
          "internalType": "bool",
          "name": "approved",
          "type": "bool"
        }
      ],
      "name": "setApprovalForAll",
      "outputs": [],
      "stateMutability": "nonpayable",
      "type": "function"
    },
    {
      "inputs": [
        {
          "internalType": "string",
          "name": "_baseURI",
          "type": "string"
        }
      ],
      "name": "setBaseURI",
      "outputs": [],
      "stateMutability": "nonpayable",
      "type": "function"
    },
    {
      "inputs": [
        {
          "internalType": "bytes4",
          "name": "interfaceId",
          "type": "bytes4"
        }
      ],
      "name": "supportsInterface",
      "outputs": [
        {
          "internalType": "bool",
          "name": "",
          "type": "bool"
        }
      ],
      "stateMutability": "view",
      "type": "function"
    },
    {
      "inputs": [
        {
          "internalType": "uint256",
          "name": "index",
          "type": "uint256"
        }
      ],
      "name": "tokenByIndex",
      "outputs": [
        {
          "internalType": "uint256",
          "name": "",
          "type": "uint256"
        }
      ],
      "stateMutability": "view",
      "type": "function"
    },
    {
      "inputs": [
        {
          "internalType": "address",
          "name": "owner",
          "type": "address"
        }
      ],
      "name": "tokenCountOfOwner",
      "outputs": [
        {
          "internalType": "uint256",
          "name": "",
          "type": "uint256"
        }
      ],
      "stateMutability": "view",
      "type": "function"
    },
    {
      "inputs": [
        {
          "internalType": "uint256",
          "name": "",
          "type": "uint256"
        }
      ],
      "name": "tokenIdToRoyaltyInfo",
      "outputs": [
        {
          "internalType": "address",
          "name": "recipient",
          "type": "address"
        },
        {
          "internalType": "uint256",
          "name": "royaltiesPercentage",
          "type": "uint256"
        }
      ],
      "stateMutability": "view",
      "type": "function"
    },
    {
      "inputs": [
        {
          "internalType": "uint256",
          "name": "",
          "type": "uint256"
        }
      ],
      "name": "tokenIdToTokenInfo",
      "outputs": [
        {
          "internalType": "address",
          "name": "minterAddress",
          "type": "address"
        },
        {
          "internalType": "bytes32",
          "name": "documentId",
          "type": "bytes32"
        },
        {
          "internalType": "string",
          "name": "getKeyURl",
          "type": "string"
        }
      ],
      "stateMutability": "view",
      "type": "function"
    },
    {
      "inputs": [
        {
          "internalType": "address",
          "name": "owner",
          "type": "address"
        },
        {
          "internalType": "uint256",
          "name": "index",
          "type": "uint256"
        }
      ],
      "name": "tokenOfOwnerByIndex",
      "outputs": [
        {
          "internalType": "uint256",
          "name": "",
          "type": "uint256"
        }
      ],
      "stateMutability": "view",
      "type": "function"
    },
    {
      "inputs": [],
      "name": "totalSupply",
      "outputs": [
        {
          "internalType": "uint256",
          "name": "",
          "type": "uint256"
        }
      ],
      "stateMutability": "view",
      "type": "function"
    },
    {
      "inputs": [
        {
          "internalType": "address",
          "name": "newOwner",
          "type": "address"
        }
      ],
      "name": "transferOwnership",
      "outputs": [],
      "stateMutability": "nonpayable",
      "type": "function"
    },
    {
      "inputs": [
        {
          "internalType": "uint256",
          "name": "",
          "type": "uint256"
        }
      ],
      "name": "uri",
      "outputs": [
        {
          "internalType": "string",
          "name": "",
          "type": "string"
        }
      ],
      "stateMutability": "view",
      "type": "function"
    }
  ],
  "bytecode": "0x60806040526000600c553480156200001657600080fd5b506040516200698c3803806200698c83398181016040528101906200003c9190620003d3565b826200005d62000051620000fa60201b60201c565b6200010260201b60201c565b6200006e81620001c660201b60201c565b5081600a60006101000a81548173ffffffffffffffffffffffffffffffffffffffff021916908373ffffffffffffffffffffffffffffffffffffffff16021790555080600b60006101000a81548173ffffffffffffffffffffffffffffffffffffffff021916908373ffffffffffffffffffffffffffffffffffffffff16021790555050505062000780565b600033905090565b60008060009054906101000a900473ffffffffffffffffffffffffffffffffffffffff169050816000806101000a81548173ffffffffffffffffffffffffffffffffffffffff021916908373ffffffffffffffffffffffffffffffffffffffff1602179055508173ffffffffffffffffffffffffffffffffffffffff168173ffffffffffffffffffffffffffffffffffffffff167f8be0079c531659141344cd1fd0a4f28419497f9722a3daafe3b4186f6b6457e060405160405180910390a35050565b8060049081620001d7919062000699565b5050565b6000604051905090565b600080fd5b600080fd5b600080fd5b600080fd5b6000601f19601f8301169050919050565b7f4e487b7100000000000000000000000000000000000000000000000000000000600052604160045260246000fd5b6200024482620001f9565b810181811067ffffffffffffffff821117156200026657620002656200020a565b5b80604052505050565b60006200027b620001db565b905062000289828262000239565b919050565b600067ffffffffffffffff821115620002ac57620002ab6200020a565b5b620002b782620001f9565b9050602081019050919050565b60005b83811015620002e4578082015181840152602081019050620002c7565b60008484015250505050565b60006200030762000301846200028e565b6200026f565b905082815260208101848484011115620003265762000325620001f4565b5b62000333848285620002c4565b509392505050565b600082601f830112620003535762000352620001ef565b5b815162000365848260208601620002f0565b91505092915050565b600073ffffffffffffffffffffffffffffffffffffffff82169050919050565b60006200039b826200036e565b9050919050565b620003ad816200038e565b8114620003b957600080fd5b50565b600081519050620003cd81620003a2565b92915050565b600080600060608486031215620003ef57620003ee620001e5565b5b600084015167ffffffffffffffff81111562000410576200040f620001ea565b5b6200041e868287016200033b565b93505060206200043186828701620003bc565b92505060406200044486828701620003bc565b9150509250925092565b600081519050919050565b7f4e487b7100000000000000000000000000000000000000000000000000000000600052602260045260246000fd5b60006002820490506001821680620004a157607f821691505b602082108103620004b757620004b662000459565b5b50919050565b60008190508160005260206000209050919050565b60006020601f8301049050919050565b600082821b905092915050565b600060088302620005217fffffffffffffffffffffffffffffffffffffffffffffffffffffffffffffffff82620004e2565b6200052d8683620004e2565b95508019841693508086168417925050509392505050565b6000819050919050565b6000819050919050565b60006200057a620005746200056e8462000545565b6200054f565b62000545565b9050919050565b6000819050919050565b620005968362000559565b620005ae620005a58262000581565b848454620004ef565b825550505050565b600090565b620005c5620005b6565b620005d28184846200058b565b505050565b5b81811015620005fa57620005ee600082620005bb565b600181019050620005d8565b5050565b601f82111562000649576200061381620004bd565b6200061e84620004d2565b810160208510156200062e578190505b620006466200063d85620004d2565b830182620005d7565b50505b505050565b600082821c905092915050565b60006200066e600019846008026200064e565b1980831691505092915050565b60006200068983836200065b565b9150826002028217905092915050565b620006a4826200044e565b67ffffffffffffffff811115620006c057620006bf6200020a565b5b620006cc825462000488565b620006d9828285620005fe565b600060209050601f831160018114620007115760008415620006fc578287015190505b6200070885826200067b565b86555062000778565b601f1984166200072186620004bd565b60005b828110156200074b5784890151825560018201915060208501945060208101905062000724565b868310156200076b578489015162000767601f8916826200065b565b8355505b6001600288020188555050505b505050505050565b6161fc80620007906000396000f3fe6080604052600436106102035760003560e01c806365b8fe2e11610118578063b41bde13116100a0578063e597e9981161006f578063e597e998146107c9578063e985e9c5146107f9578063f242432a14610836578063f2fde38b1461085f578063f5298aca1461088857610203565b8063b41bde131461070b578063cae6047f14610736578063ce5af33614610761578063ced72f871461079e57610203565b8063715018a6116100e7578063715018a6146106385780638840fc9d1461064f5780638da5cb5b1461068c57806393fab57b146106b7578063a22cb465146106e257610203565b806365b8fe2e1461058657806368e586e8146105b65780636ab29c08146105f35780636b20c4541461060f57610203565b80632f745c591161019b57806355f804b31161016a57806355f804b31461049a5780635b7121f8146104c35780635c330f83146105005780635fb8bcd51461051c57806361bc221a1461055b57610203565b80632f745c59146103b857806335711346146103f55780634e1273f4146104205780634f6ccce71461045d57610203565b806319daf1bf116101d757806319daf1bf146102ea5780632812a3d2146103285780632a55205a146103515780632eb2c2d61461038f57610203565b8062fdd58e1461020857806301ffc9a7146102455780630e89341c1461028257806318160ddd146102bf575b600080fd5b34801561021457600080fd5b5061022f600480360381019061022a9190613f60565b6108b1565b60405161023c9190613faf565b60405180910390f35b34801561025157600080fd5b5061026c60048036038101906102679190614022565b61097a565b604051610279919061406a565b60405180910390f35b34801561028e57600080fd5b506102a960048036038101906102a49190614085565b6109f4565b6040516102b69190614142565b60405180910390f35b3480156102cb57600080fd5b506102d4610a88565b6040516102e19190613faf565b60405180910390f35b3480156102f657600080fd5b50610311600480360381019061030c9190614085565b610a95565b60405161031f929190614173565b60405180910390f35b34801561033457600080fd5b5061034f600480360381019061034a919061419c565b610ad9565b005b34801561035d57600080fd5b50610378600480360381019061037391906141c9565b610c54565b604051610386929190614173565b60405180910390f35b34801561039b57600080fd5b506103b660048036038101906103b19190614406565b610d0d565b005b3480156103c457600080fd5b506103df60048036038101906103da9190613f60565b610dae565b6040516103ec9190613faf565b60405180910390f35b34801561040157600080fd5b5061040a610e53565b60405161041791906144d5565b60405180910390f35b34801561042c57600080fd5b50610447600480360381019061044291906145b3565b610eeb565b60405161045491906146e9565b60405180910390f35b34801561046957600080fd5b50610484600480360381019061047f9190614085565b611004565b6040516104919190613faf565b60405180910390f35b3480156104a657600080fd5b506104c160048036038101906104bc91906147ac565b611075565b005b3480156104cf57600080fd5b506104ea60048036038101906104e59190614085565b6110fd565b6040516104f791906144d5565b60405180910390f35b61051a60048036038101906105159190614406565b61113d565b005b34801561052857600080fd5b50610543600480360381019061053e9190614085565b61123f565b6040516105529392919061480e565b60405180910390f35b34801561056757600080fd5b50610570611311565b60405161057d9190613faf565b60405180910390f35b6105a0600480360381019061059b9190614878565b611317565b6040516105ad9190613faf565b60405180910390f35b3480156105c257600080fd5b506105dd60048036038101906105d8919061419c565b611493565b6040516105ea9190613faf565b60405180910390f35b61060d600480360381019061060891906148fb565b61154a565b005b34801561061b57600080fd5b5061063660048036038101906106319190614992565b6115e9565b005b34801561064457600080fd5b5061064d611686565b005b34801561065b57600080fd5b5061067660048036038101906106719190614085565b61170e565b6040516106839190613faf565b60405180910390f35b34801561069857600080fd5b506106a1611726565b6040516106ae91906144d5565b60405180910390f35b3480156106c357600080fd5b506106cc61174f565b6040516106d991906144d5565b60405180910390f35b3480156106ee57600080fd5b5061070960048036038101906107049190614a49565b611775565b005b34801561071757600080fd5b5061072061178b565b60405161072d91906144d5565b60405180910390f35b34801561074257600080fd5b5061074b6117b1565b6040516107589190613faf565b60405180910390f35b34801561076d57600080fd5b506107886004803603810190610783919061419c565b6117b7565b6040516107959190614c03565b60405180910390f35b3480156107aa57600080fd5b506107b36119e6565b6040516107c09190613faf565b60405180910390f35b6107e360048036038101906107de9190614ce8565b611a63565b6040516107f091906146e9565b60405180910390f35b34801561080557600080fd5b50610820600480360381019061081b9190614dbf565b611def565b60405161082d919061406a565b60405180910390f35b34801561084257600080fd5b5061085d600480360381019061085891906148fb565b611e83565b005b34801561086b57600080fd5b506108866004803603810190610881919061419c565b611f24565b005b34801561089457600080fd5b506108af60048036038101906108aa9190614dff565b61201b565b005b60008073ffffffffffffffffffffffffffffffffffffffff168373ffffffffffffffffffffffffffffffffffffffff1603610921576040517f08c379a000000000000000000000000000000000000000000000000000000000815260040161091890614ec4565b60405180910390fd5b6001600083815260200190815260200160002060008473ffffffffffffffffffffffffffffffffffffffff1673ffffffffffffffffffffffffffffffffffffffff16815260200190815260200160002054905092915050565b60007f2a55205a000000000000000000000000000000000000000000000000000000007bffffffffffffffffffffffffffffffffffffffffffffffffffffffff1916827bffffffffffffffffffffffffffffffffffffffffffffffffffffffff191614806109ed57506109ec826120b8565b5b9050919050565b606060048054610a0390614f13565b80601f0160208091040260200160405190810160405280929190818152602001828054610a2f90614f13565b8015610a7c5780601f10610a5157610100808354040283529160200191610a7c565b820191906000526020600020905b815481529060010190602001808311610a5f57829003601f168201915b50505050509050919050565b6000600880549050905090565b600e6020528060005260406000206000915090508060000160009054906101000a900473ffffffffffffffffffffffffffffffffffffffff16908060010154905082565b610ae161219a565b73ffffffffffffffffffffffffffffffffffffffff16610aff611726565b73ffffffffffffffffffffffffffffffffffffffff1614610b55576040517f08c379a0000000000000000000000000000000000000000000000000000000008152600401610b4c90614f90565b60405180910390fd5b600b60009054906101000a900473ffffffffffffffffffffffffffffffffffffffff1673ffffffffffffffffffffffffffffffffffffffff168173ffffffffffffffffffffffffffffffffffffffff1603610baf57600080fd5b6000600b60009054906101000a900473ffffffffffffffffffffffffffffffffffffffff16905081600b60006101000a81548173ffffffffffffffffffffffffffffffffffffffff021916908373ffffffffffffffffffffffffffffffffffffffff1602179055507f9aaef5934caac7bf8ee7de13d1a1e98122180cb78e64abeae728ad559df64a668183604051610c48929190614fb0565b60405180910390a15050565b6000806000600e60008681526020019081526020016000206040518060400160405290816000820160009054906101000a900473ffffffffffffffffffffffffffffffffffffffff1673ffffffffffffffffffffffffffffffffffffffff1673ffffffffffffffffffffffffffffffffffffffff16815260200160018201548152505090506000612710826020015186610cee9190615008565b610cf89190615079565b90508160000151819350935050509250929050565b610d1561219a565b73ffffffffffffffffffffffffffffffffffffffff168573ffffffffffffffffffffffffffffffffffffffff161480610d5b5750610d5a85610d5561219a565b611def565b5b610d9a576040517f08c379a0000000000000000000000000000000000000000000000000000000008152600401610d919061511c565b60405180910390fd5b610da785858585856121a2565b5050505050565b6000610db983611493565b8210610dfa576040517f08c379a0000000000000000000000000000000000000000000000000000000008152600401610df1906151ae565b60405180910390fd5b600660008473ffffffffffffffffffffffffffffffffffffffff1673ffffffffffffffffffffffffffffffffffffffff168152602001908152602001600020600083815260200190815260200160002054905092915050565b6000600a60009054906101000a900473ffffffffffffffffffffffffffffffffffffffff1673ffffffffffffffffffffffffffffffffffffffff1663357113466040518163ffffffff1660e01b8152600401602060405180830381865afa158015610ec2573d6000803e3d6000fd5b505050506040513d601f19601f82011682018060405250810190610ee691906151e3565b905090565b60608151835114610f31576040517f08c379a0000000000000000000000000000000000000000000000000000000008152600401610f2890615282565b60405180910390fd5b6000835167ffffffffffffffff811115610f4e57610f4d61420e565b5b604051908082528060200260200182016040528015610f7c5781602001602082028036833780820191505090505b50905060005b8451811015610ff957610fc9858281518110610fa157610fa06152a2565b5b6020026020010151858381518110610fbc57610fbb6152a2565b5b60200260200101516108b1565b828281518110610fdc57610fdb6152a2565b5b60200260200101818152505080610ff2906152d1565b9050610f82565b508091505092915050565b600061100e610a88565b821061104f576040517f08c379a00000000000000000000000000000000000000000000000000000000081526004016110469061538b565b60405180910390fd5b60088281548110611063576110626152a2565b5b90600052602060002001549050919050565b61107d61219a565b73ffffffffffffffffffffffffffffffffffffffff1661109b611726565b73ffffffffffffffffffffffffffffffffffffffff16146110f1576040517f08c379a00000000000000000000000000000000000000000000000000000000081526004016110e890614f90565b60405180910390fd5b6110fa816124c6565b50565b6000600d600083815260200190815260200160002060000160009054906101000a900473ffffffffffffffffffffffffffffffffffffffff169050919050565b61114a8585858585610d0d565b6000806111618551346124d990919063ffffffff16565b9150915060005b85518163ffffffff1610156112355761117f610e53565b73ffffffffffffffffffffffffffffffffffffffff1663febaa13483600d60008a8663ffffffff16815181106111b8576111b76152a2565b5b60200260200101518152602001908152602001600020600101548a6040518463ffffffff1660e01b81526004016111f09291906153ab565b6000604051808303818588803b15801561120957600080fd5b505af115801561121d573d6000803e3d6000fd5b5050505050808061122d906153e4565b915050611168565b5050505050505050565b600d6020528060005260406000206000915090508060000160009054906101000a900473ffffffffffffffffffffffffffffffffffffffff169080600101549080600201805461128e90614f13565b80601f01602080910402602001604051908101604052809291908181526020018280546112ba90614f13565b80156113075780601f106112dc57610100808354040283529160200191611307565b820191906000526020600020905b8154815290600101906020018083116112ea57829003601f168201915b5050505050905083565b600c5481565b600080600c60008154611329906152d1565b919050819055905033600d600083815260200190815260200160002060000160006101000a81548173ffffffffffffffffffffffffffffffffffffffff021916908373ffffffffffffffffffffffffffffffffffffffff16021790555082600d60008381526020019081526020016000206001018190555085600d600083815260200190815260200160002060020190816113c491906155bc565b506113e03382876040518060200160405280600081525061250f565b60008411156113f5576113f48133866126d8565b5b600b60009054906101000a900473ffffffffffffffffffffffffffffffffffffffff1673ffffffffffffffffffffffffffffffffffffffff16637b987bea348530856040518563ffffffff1660e01b81526004016114559392919061568e565b6000604051808303818588803b15801561146e57600080fd5b505af1158015611482573d6000803e3d6000fd5b505050505080915050949350505050565b60008073ffffffffffffffffffffffffffffffffffffffff168273ffffffffffffffffffffffffffffffffffffffff1603611503576040517f08c379a00000000000000000000000000000000000000000000000000000000081526004016114fa90614ec4565b60405180910390fd5b600560008373ffffffffffffffffffffffffffffffffffffffff1673ffffffffffffffffffffffffffffffffffffffff168152602001908152602001600020549050919050565b6115578585858585611e83565b61155f610e53565b73ffffffffffffffffffffffffffffffffffffffff1663febaa13434600d600087815260200190815260200160002060010154876040518463ffffffff1660e01b81526004016115b09291906153ab565b6000604051808303818588803b1580156115c957600080fd5b505af11580156115dd573d6000803e3d6000fd5b50505050505050505050565b6115f161219a565b73ffffffffffffffffffffffffffffffffffffffff168373ffffffffffffffffffffffffffffffffffffffff16148061163757506116368361163161219a565b611def565b5b611676576040517f08c379a000000000000000000000000000000000000000000000000000000000815260040161166d90615737565b60405180910390fd5b611681838383612741565b505050565b61168e61219a565b73ffffffffffffffffffffffffffffffffffffffff166116ac611726565b73ffffffffffffffffffffffffffffffffffffffff1614611702576040517f08c379a00000000000000000000000000000000000000000000000000000000081526004016116f990614f90565b60405180910390fd5b61170c6000612a3b565b565b60026020528060005260406000206000915090505481565b60008060009054906101000a900473ffffffffffffffffffffffffffffffffffffffff16905090565b600b60009054906101000a900473ffffffffffffffffffffffffffffffffffffffff1681565b61178761178061219a565b8383612aff565b5050565b600a60009054906101000a900473ffffffffffffffffffffffffffffffffffffffff1681565b61271081565b6060600080600c5467ffffffffffffffff8111156117d8576117d761420e565b5b60405190808252806020026020018201604052801561181157816020015b6117fe613e7e565b8152602001906001900390816117f65790505b5090506000600190505b600c5481116119db578473ffffffffffffffffffffffffffffffffffffffff16600d600083815260200190815260200160002060000160009054906101000a900473ffffffffffffffffffffffffffffffffffffffff1673ffffffffffffffffffffffffffffffffffffffff16036119c857600d60008281526020019081526020016000206040518060600160405290816000820160009054906101000a900473ffffffffffffffffffffffffffffffffffffffff1673ffffffffffffffffffffffffffffffffffffffff1673ffffffffffffffffffffffffffffffffffffffff1681526020016001820154815260200160028201805461191b90614f13565b80601f016020809104026020016040519081016040528092919081815260200182805461194790614f13565b80156119945780601f1061196957610100808354040283529160200191611994565b820191906000526020600020905b81548152906001019060200180831161197757829003601f168201915b5050505050815250508284806119a9906152d1565b9550815181106119bc576119bb6152a2565b5b60200260200101819052505b80806119d3906152d1565b91505061181b565b508092505050919050565b60006119f0610e53565b73ffffffffffffffffffffffffffffffffffffffff1663428c090b6040518163ffffffff1660e01b8152600401602060405180830381865afa158015611a3a573d6000803e3d6000fd5b505050506040513d601f19601f82011682018060405250810190611a5e919061576c565b905090565b606082518451148015611a77575081518351145b611ab6576040517f08c379a0000000000000000000000000000000000000000000000000000000008152600401611aad906157e5565b60405180910390fd5b6000845167ffffffffffffffff811115611ad357611ad261420e565b5b604051908082528060200260200182016040528015611b015781602001602082028036833780820191505090505b50905060005b85518163ffffffff161015611c72576000600c60008154611b27906152d1565b919050819055905080838363ffffffff1681518110611b4957611b486152a2565b5b60200260200101818152505033600d600083815260200190815260200160002060000160006101000a81548173ffffffffffffffffffffffffffffffffffffffff021916908373ffffffffffffffffffffffffffffffffffffffff160217905550848263ffffffff1681518110611bc357611bc26152a2565b5b6020026020010151600d60008381526020019081526020016000206001018190555087600d60008381526020019081526020016000206002019081611c0891906155bc565b506000868363ffffffff1681518110611c2457611c236152a2565b5b60200260200101511115611c5e57611c5d8133888563ffffffff1681518110611c5057611c4f6152a2565b5b60200260200101516126d8565b5b508080611c6a906153e4565b915050611b07565b50611c8e33828760405180602001604052806000815250612c6b565b600080611ca58751346124d990919063ffffffff16565b9150915081611ce9576040517f08c379a0000000000000000000000000000000000000000000000000000000008152600401611ce090615851565b60405180910390fd5b60005b87518163ffffffff161015611de057600b60009054906101000a900473ffffffffffffffffffffffffffffffffffffffff1673ffffffffffffffffffffffffffffffffffffffff16637b987bea83888463ffffffff1681518110611d5357611d526152a2565b5b602002602001015130888663ffffffff1681518110611d7557611d746152a2565b5b60200260200101516040518563ffffffff1660e01b8152600401611d9b9392919061568e565b6000604051808303818588803b158015611db457600080fd5b505af1158015611dc8573d6000803e3d6000fd5b50505050508080611dd8906153e4565b915050611cec565b50829350505050949350505050565b6000600360008473ffffffffffffffffffffffffffffffffffffffff1673ffffffffffffffffffffffffffffffffffffffff16815260200190815260200160002060008373ffffffffffffffffffffffffffffffffffffffff1673ffffffffffffffffffffffffffffffffffffffff16815260200190815260200160002060009054906101000a900460ff16905092915050565b611e8b61219a565b73ffffffffffffffffffffffffffffffffffffffff168573ffffffffffffffffffffffffffffffffffffffff161480611ed15750611ed085611ecb61219a565b611def565b5b611f10576040517f08c379a0000000000000000000000000000000000000000000000000000000008152600401611f07906158e3565b60405180910390fd5b611f1d8585858585612ed0565b5050505050565b611f2c61219a565b73ffffffffffffffffffffffffffffffffffffffff16611f4a611726565b73ffffffffffffffffffffffffffffffffffffffff1614611fa0576040517f08c379a0000000000000000000000000000000000000000000000000000000008152600401611f9790614f90565b60405180910390fd5b600073ffffffffffffffffffffffffffffffffffffffff168173ffffffffffffffffffffffffffffffffffffffff160361200f576040517f08c379a000000000000000000000000000000000000000000000000000000000815260040161200690615975565b60405180910390fd5b61201881612a3b565b50565b61202361219a565b73ffffffffffffffffffffffffffffffffffffffff168373ffffffffffffffffffffffffffffffffffffffff16148061206957506120688361206361219a565b611def565b5b6120a8576040517f08c379a000000000000000000000000000000000000000000000000000000000815260040161209f90615737565b60405180910390fd5b6120b383838361316e565b505050565b60007fd9b67a26000000000000000000000000000000000000000000000000000000007bffffffffffffffffffffffffffffffffffffffffffffffffffffffff1916827bffffffffffffffffffffffffffffffffffffffffffffffffffffffff1916148061218357507f0e89341c000000000000000000000000000000000000000000000000000000007bffffffffffffffffffffffffffffffffffffffffffffffffffffffff1916827bffffffffffffffffffffffffffffffffffffffffffffffffffffffff1916145b806121935750612192826133e0565b5b9050919050565b600033905090565b81518351146121e6576040517f08c379a00000000000000000000000000000000000000000000000000000000081526004016121dd90615a07565b60405180910390fd5b600073ffffffffffffffffffffffffffffffffffffffff168473ffffffffffffffffffffffffffffffffffffffff1603612255576040517f08c379a000000000000000000000000000000000000000000000000000000000815260040161224c90615a99565b60405180910390fd5b600061225f61219a565b905061226f81878787878761344a565b60005b84518110156124235760008582815181106122905761228f6152a2565b5b6020026020010151905060008583815181106122af576122ae6152a2565b5b6020026020010151905060006001600084815260200190815260200160002060008b73ffffffffffffffffffffffffffffffffffffffff1673ffffffffffffffffffffffffffffffffffffffff16815260200190815260200160002054905081811015612351576040517f08c379a000000000000000000000000000000000000000000000000000000000815260040161234890615b2b565b60405180910390fd5b8181036001600085815260200190815260200160002060008c73ffffffffffffffffffffffffffffffffffffffff1673ffffffffffffffffffffffffffffffffffffffff16815260200190815260200160002081905550816001600085815260200190815260200160002060008b73ffffffffffffffffffffffffffffffffffffffff1673ffffffffffffffffffffffffffffffffffffffff16815260200190815260200160002060008282546124089190615b4b565b925050819055505050508061241c906152d1565b9050612272565b508473ffffffffffffffffffffffffffffffffffffffff168673ffffffffffffffffffffffffffffffffffffffff168273ffffffffffffffffffffffffffffffffffffffff167f4a39dc06d4c0dbc64b70af90fd698a233a518aa5d07e595d983b8c0526c8f7fb878760405161249a929190615b7f565b60405180910390a46124b0818787878787613460565b6124be818787878787613468565b505050505050565b80600490816124d591906155bc565b5050565b600080600083036124f05760008091509150612508565b60018385816125025761250161504a565b5b04915091505b9250929050565b600073ffffffffffffffffffffffffffffffffffffffff168473ffffffffffffffffffffffffffffffffffffffff160361257e576040517f08c379a000000000000000000000000000000000000000000000000000000000815260040161257590615c28565b60405180910390fd5b600061258861219a565b905060006125958561363f565b905060006125a28561363f565b90506125b38360008985858961344a565b846001600088815260200190815260200160002060008973ffffffffffffffffffffffffffffffffffffffff1673ffffffffffffffffffffffffffffffffffffffff16815260200190815260200160002060008282546126139190615b4b565b925050819055508673ffffffffffffffffffffffffffffffffffffffff16600073ffffffffffffffffffffffffffffffffffffffff168473ffffffffffffffffffffffffffffffffffffffff167fc3d58168c5ae7397731d063d5bbf3d657854427343f4c083240f7aacaa2d0f628989604051612691929190615c48565b60405180910390a48460026000888152602001908152602001600020819055506126c083600089858589613460565b6126cf836000898989896136b9565b50505050505050565b6000600e60008581526020019081526020016000209050828160000160006101000a81548173ffffffffffffffffffffffffffffffffffffffff021916908373ffffffffffffffffffffffffffffffffffffffff16021790555081816001018190555050505050565b600073ffffffffffffffffffffffffffffffffffffffff168373ffffffffffffffffffffffffffffffffffffffff16036127b0576040517f08c379a00000000000000000000000000000000000000000000000000000000081526004016127a790615ce3565b60405180910390fd5b80518251146127f4576040517f08c379a00000000000000000000000000000000000000000000000000000000081526004016127eb90615a07565b60405180910390fd5b60006127fe61219a565b905061281e8185600086866040518060200160405280600081525061344a565b60005b835181101561299757600084828151811061283f5761283e6152a2565b5b60200260200101519050600084838151811061285e5761285d6152a2565b5b6020026020010151905060006001600084815260200190815260200160002060008973ffffffffffffffffffffffffffffffffffffffff1673ffffffffffffffffffffffffffffffffffffffff16815260200190815260200160002054905081811015612900576040517f08c379a00000000000000000000000000000000000000000000000000000000081526004016128f790615d75565b60405180910390fd5b8181036001600085815260200190815260200160002060008a73ffffffffffffffffffffffffffffffffffffffff1673ffffffffffffffffffffffffffffffffffffffff168152602001908152602001600020819055508160026000858152602001908152602001600020600082825461297a9190615d95565b92505081905550505050808061298f906152d1565b915050612821565b50600073ffffffffffffffffffffffffffffffffffffffff168473ffffffffffffffffffffffffffffffffffffffff168273ffffffffffffffffffffffffffffffffffffffff167f4a39dc06d4c0dbc64b70af90fd698a233a518aa5d07e595d983b8c0526c8f7fb8686604051612a0f929190615b7f565b60405180910390a4612a3581856000868660405180602001604052806000815250613460565b50505050565b60008060009054906101000a900473ffffffffffffffffffffffffffffffffffffffff169050816000806101000a81548173ffffffffffffffffffffffffffffffffffffffff021916908373ffffffffffffffffffffffffffffffffffffffff1602179055508173ffffffffffffffffffffffffffffffffffffffff168173ffffffffffffffffffffffffffffffffffffffff167f8be0079c531659141344cd1fd0a4f28419497f9722a3daafe3b4186f6b6457e060405160405180910390a35050565b8173ffffffffffffffffffffffffffffffffffffffff168373ffffffffffffffffffffffffffffffffffffffff1603612b6d576040517f08c379a0000000000000000000000000000000000000000000000000000000008152600401612b6490615e3b565b60405180910390fd5b80600360008573ffffffffffffffffffffffffffffffffffffffff1673ffffffffffffffffffffffffffffffffffffffff16815260200190815260200160002060008473ffffffffffffffffffffffffffffffffffffffff1673ffffffffffffffffffffffffffffffffffffffff16815260200190815260200160002060006101000a81548160ff0219169083151502179055508173ffffffffffffffffffffffffffffffffffffffff168373ffffffffffffffffffffffffffffffffffffffff167f17307eab39ab6107e8899845ad3d59bd9653f200f220920489ca2b5937696c3183604051612c5e919061406a565b60405180910390a3505050565b600073ffffffffffffffffffffffffffffffffffffffff168473ffffffffffffffffffffffffffffffffffffffff1603612cda576040517f08c379a0000000000000000000000000000000000000000000000000000000008152600401612cd190615c28565b60405180910390fd5b8151835114612d1e576040517f08c379a0000000000000000000000000000000000000000000000000000000008152600401612d1590615a07565b60405180910390fd5b6000612d2861219a565b9050612d398160008787878761344a565b60005b8451811015612e2b576000858281518110612d5a57612d596152a2565b5b60200260200101519050848281518110612d7757612d766152a2565b5b60200260200101516001600083815260200190815260200160002060008973ffffffffffffffffffffffffffffffffffffffff1673ffffffffffffffffffffffffffffffffffffffff1681526020019081526020016000206000828254612dde9190615b4b565b92505081905550848281518110612df857612df76152a2565b5b60200260200101516002600083815260200190815260200160002081905550508080612e23906152d1565b915050612d3c565b508473ffffffffffffffffffffffffffffffffffffffff16600073ffffffffffffffffffffffffffffffffffffffff168273ffffffffffffffffffffffffffffffffffffffff167f4a39dc06d4c0dbc64b70af90fd698a233a518aa5d07e595d983b8c0526c8f7fb8787604051612ea3929190615b7f565b60405180910390a4612eba81600087878787613460565b612ec981600087878787613468565b5050505050565b600073ffffffffffffffffffffffffffffffffffffffff168473ffffffffffffffffffffffffffffffffffffffff1603612f3f576040517f08c379a0000000000000000000000000000000000000000000000000000000008152600401612f3690615a99565b60405180910390fd5b6000612f4961219a565b90506000612f568561363f565b90506000612f638561363f565b9050612f7383898985858961344a565b60006001600088815260200190815260200160002060008a73ffffffffffffffffffffffffffffffffffffffff1673ffffffffffffffffffffffffffffffffffffffff1681526020019081526020016000205490508581101561300b576040517f08c379a000000000000000000000000000000000000000000000000000000000815260040161300290615b2b565b60405180910390fd5b8581036001600089815260200190815260200160002060008b73ffffffffffffffffffffffffffffffffffffffff1673ffffffffffffffffffffffffffffffffffffffff16815260200190815260200160002081905550856001600089815260200190815260200160002060008a73ffffffffffffffffffffffffffffffffffffffff1673ffffffffffffffffffffffffffffffffffffffff16815260200190815260200160002060008282546130c29190615b4b565b925050819055508773ffffffffffffffffffffffffffffffffffffffff168973ffffffffffffffffffffffffffffffffffffffff168573ffffffffffffffffffffffffffffffffffffffff167fc3d58168c5ae7397731d063d5bbf3d657854427343f4c083240f7aacaa2d0f628a8a60405161313f929190615c48565b60405180910390a4613155848a8a86868a613460565b613163848a8a8a8a8a6136b9565b505050505050505050565b600073ffffffffffffffffffffffffffffffffffffffff168373ffffffffffffffffffffffffffffffffffffffff16036131dd576040517f08c379a00000000000000000000000000000000000000000000000000000000081526004016131d490615ce3565b60405180910390fd5b60006131e761219a565b905060006131f48461363f565b905060006132018461363f565b90506132218387600085856040518060200160405280600081525061344a565b60006001600087815260200190815260200160002060008873ffffffffffffffffffffffffffffffffffffffff1673ffffffffffffffffffffffffffffffffffffffff168152602001908152602001600020549050848110156132b9576040517f08c379a00000000000000000000000000000000000000000000000000000000081526004016132b090615d75565b60405180910390fd5b8481036001600088815260200190815260200160002060008973ffffffffffffffffffffffffffffffffffffffff1673ffffffffffffffffffffffffffffffffffffffff16815260200190815260200160002081905550846002600088815260200190815260200160002060008282546133339190615d95565b92505081905550600073ffffffffffffffffffffffffffffffffffffffff168773ffffffffffffffffffffffffffffffffffffffff168573ffffffffffffffffffffffffffffffffffffffff167fc3d58168c5ae7397731d063d5bbf3d657854427343f4c083240f7aacaa2d0f6289896040516133b1929190615c48565b60405180910390a46133d784886000868660405180602001604052806000815250613460565b50505050505050565b60007f01ffc9a7000000000000000000000000000000000000000000000000000000007bffffffffffffffffffffffffffffffffffffffffffffffffffffffff1916827bffffffffffffffffffffffffffffffffffffffffffffffffffffffff1916149050919050565b613458868686868686613890565b505050505050565b505050505050565b6134878473ffffffffffffffffffffffffffffffffffffffff16613b4d565b15613637578373ffffffffffffffffffffffffffffffffffffffff1663bc197c8187878686866040518663ffffffff1660e01b81526004016134cd959493929190615eb0565b6020604051808303816000875af192505050801561350957506040513d601f19601f820116820180604052508101906135069190615f2d565b60015b6135ae57613515615f67565b806308c379a0036135715750613529615f89565b806135345750613573565b806040517f08c379a00000000000000000000000000000000000000000000000000000000081526004016135689190614142565b60405180910390fd5b505b6040517f08c379a00000000000000000000000000000000000000000000000000000000081526004016135a59061608b565b60405180910390fd5b63bc197c8160e01b7bffffffffffffffffffffffffffffffffffffffffffffffffffffffff1916817bffffffffffffffffffffffffffffffffffffffffffffffffffffffff191614613635576040517f08c379a000000000000000000000000000000000000000000000000000000000815260040161362c9061611d565b60405180910390fd5b505b505050505050565b60606000600167ffffffffffffffff81111561365e5761365d61420e565b5b60405190808252806020026020018201604052801561368c5781602001602082028036833780820191505090505b50905082816000815181106136a4576136a36152a2565b5b60200260200101818152505080915050919050565b6136d88473ffffffffffffffffffffffffffffffffffffffff16613b4d565b15613888578373ffffffffffffffffffffffffffffffffffffffff1663f23a6e6187878686866040518663ffffffff1660e01b815260040161371e95949392919061613d565b6020604051808303816000875af192505050801561375a57506040513d601f19601f820116820180604052508101906137579190615f2d565b60015b6137ff57613766615f67565b806308c379a0036137c2575061377a615f89565b8061378557506137c4565b806040517f08c379a00000000000000000000000000000000000000000000000000000000081526004016137b99190614142565b60405180910390fd5b505b6040517f08c379a00000000000000000000000000000000000000000000000000000000081526004016137f69061608b565b60405180910390fd5b63f23a6e6160e01b7bffffffffffffffffffffffffffffffffffffffffffffffffffffffff1916817bffffffffffffffffffffffffffffffffffffffffffffffffffffffff191614613886576040517f08c379a000000000000000000000000000000000000000000000000000000000815260040161387d9061611d565b60405180910390fd5b505b505050505050565b61389e868686868686613b70565b60005b83518163ffffffff161015613b44576000848263ffffffff16815181106138cb576138ca6152a2565b5b602002602001015190506000848363ffffffff16815181106138f0576138ef6152a2565b5b60200260200101519050600073ffffffffffffffffffffffffffffffffffffffff168873ffffffffffffffffffffffffffffffffffffffff160361393c5761393782613b78565b6139e8565b8673ffffffffffffffffffffffffffffffffffffffff168873ffffffffffffffffffffffffffffffffffffffff161415801561398057508061397e89846108b1565b145b156139e75761398f8883613bc1565b6001600560008a73ffffffffffffffffffffffffffffffffffffffff1673ffffffffffffffffffffffffffffffffffffffff16815260200190815260200160002060008282546139df9190615d95565b925050819055505b5b8773ffffffffffffffffffffffffffffffffffffffff168773ffffffffffffffffffffffffffffffffffffffff1614158015613a515750600073ffffffffffffffffffffffffffffffffffffffff168773ffffffffffffffffffffffffffffffffffffffff1614155b8015613a6657506000613a6488846108b1565b145b15613ad157613a758783613d2e565b6001600560008973ffffffffffffffffffffffffffffffffffffffff1673ffffffffffffffffffffffffffffffffffffffff1681526020019081526020016000206000828254613ac59190615b4b565b92505081905550613b2f565b600073ffffffffffffffffffffffffffffffffffffffff168773ffffffffffffffffffffffffffffffffffffffff16148015613b1f5750806002600084815260200190815260200160002054145b15613b2e57613b2d82613dad565b5b5b50508080613b3c906153e4565b9150506138a1565b50505050505050565b6000808273ffffffffffffffffffffffffffffffffffffffff163b119050919050565b505050505050565b6008805490506009600083815260200190815260200160002081905550600881908060018154018082558091505060019003906000526020600020016000909190919091505550565b60006001613bce84611493565b613bd89190615d95565b9050600060076000848152602001908152602001600020549050818114613cbd576000600660008673ffffffffffffffffffffffffffffffffffffffff1673ffffffffffffffffffffffffffffffffffffffff168152602001908152602001600020600084815260200190815260200160002054905080600660008773ffffffffffffffffffffffffffffffffffffffff1673ffffffffffffffffffffffffffffffffffffffff168152602001908152602001600020600084815260200190815260200160002081905550816007600083815260200190815260200160002081905550505b6007600084815260200190815260200160002060009055600660008573ffffffffffffffffffffffffffffffffffffffff1673ffffffffffffffffffffffffffffffffffffffff16815260200190815260200160002060008381526020019081526020016000206000905550505050565b6000613d3983611493565b905081600660008573ffffffffffffffffffffffffffffffffffffffff1673ffffffffffffffffffffffffffffffffffffffff168152602001908152602001600020600083815260200190815260200160002081905550806007600084815260200190815260200160002081905550505050565b60006001600880549050613dc19190615d95565b9050600060096000848152602001908152602001600020549050600060088381548110613df157613df06152a2565b5b906000526020600020015490508060088381548110613e1357613e126152a2565b5b906000526020600020018190555081600960008381526020019081526020016000208190555060096000858152602001908152602001600020600090556008805480613e6257613e61616197565b5b6001900381819060005260206000200160009055905550505050565b6040518060600160405280600073ffffffffffffffffffffffffffffffffffffffff16815260200160008019168152602001606081525090565b6000604051905090565b600080fd5b600080fd5b600073ffffffffffffffffffffffffffffffffffffffff82169050919050565b6000613ef782613ecc565b9050919050565b613f0781613eec565b8114613f1257600080fd5b50565b600081359050613f2481613efe565b92915050565b6000819050919050565b613f3d81613f2a565b8114613f4857600080fd5b50565b600081359050613f5a81613f34565b92915050565b60008060408385031215613f7757613f76613ec2565b5b6000613f8585828601613f15565b9250506020613f9685828601613f4b565b9150509250929050565b613fa981613f2a565b82525050565b6000602082019050613fc46000830184613fa0565b92915050565b60007fffffffff0000000000000000000000000000000000000000000000000000000082169050919050565b613fff81613fca565b811461400a57600080fd5b50565b60008135905061401c81613ff6565b92915050565b60006020828403121561403857614037613ec2565b5b60006140468482850161400d565b91505092915050565b60008115159050919050565b6140648161404f565b82525050565b600060208201905061407f600083018461405b565b92915050565b60006020828403121561409b5761409a613ec2565b5b60006140a984828501613f4b565b91505092915050565b600081519050919050565b600082825260208201905092915050565b60005b838110156140ec5780820151818401526020810190506140d1565b60008484015250505050565b6000601f19601f8301169050919050565b6000614114826140b2565b61411e81856140bd565b935061412e8185602086016140ce565b614137816140f8565b840191505092915050565b6000602082019050818103600083015261415c8184614109565b905092915050565b61416d81613eec565b82525050565b60006040820190506141886000830185614164565b6141956020830184613fa0565b9392505050565b6000602082840312156141b2576141b1613ec2565b5b60006141c084828501613f15565b91505092915050565b600080604083850312156141e0576141df613ec2565b5b60006141ee85828601613f4b565b92505060206141ff85828601613f4b565b9150509250929050565b600080fd5b7f4e487b7100000000000000000000000000000000000000000000000000000000600052604160045260246000fd5b614246826140f8565b810181811067ffffffffffffffff821117156142655761426461420e565b5b80604052505050565b6000614278613eb8565b9050614284828261423d565b919050565b600067ffffffffffffffff8211156142a4576142a361420e565b5b602082029050602081019050919050565b600080fd5b60006142cd6142c884614289565b61426e565b905080838252602082019050602084028301858111156142f0576142ef6142b5565b5b835b8181101561431957806143058882613f4b565b8452602084019350506020810190506142f2565b5050509392505050565b600082601f83011261433857614337614209565b5b81356143488482602086016142ba565b91505092915050565b600080fd5b600067ffffffffffffffff8211156143715761437061420e565b5b61437a826140f8565b9050602081019050919050565b82818337600083830152505050565b60006143a96143a484614356565b61426e565b9050828152602081018484840111156143c5576143c4614351565b5b6143d0848285614387565b509392505050565b600082601f8301126143ed576143ec614209565b5b81356143fd848260208601614396565b91505092915050565b600080600080600060a0868803121561442257614421613ec2565b5b600061443088828901613f15565b955050602061444188828901613f15565b945050604086013567ffffffffffffffff81111561446257614461613ec7565b5b61446e88828901614323565b935050606086013567ffffffffffffffff81111561448f5761448e613ec7565b5b61449b88828901614323565b925050608086013567ffffffffffffffff8111156144bc576144bb613ec7565b5b6144c8888289016143d8565b9150509295509295909350565b60006020820190506144ea6000830184614164565b92915050565b600067ffffffffffffffff82111561450b5761450a61420e565b5b602082029050602081019050919050565b600061452f61452a846144f0565b61426e565b90508083825260208201905060208402830185811115614552576145516142b5565b5b835b8181101561457b57806145678882613f15565b845260208401935050602081019050614554565b5050509392505050565b600082601f83011261459a57614599614209565b5b81356145aa84826020860161451c565b91505092915050565b600080604083850312156145ca576145c9613ec2565b5b600083013567ffffffffffffffff8111156145e8576145e7613ec7565b5b6145f485828601614585565b925050602083013567ffffffffffffffff81111561461557614614613ec7565b5b61462185828601614323565b9150509250929050565b600081519050919050565b600082825260208201905092915050565b6000819050602082019050919050565b61466081613f2a565b82525050565b60006146728383614657565b60208301905092915050565b6000602082019050919050565b60006146968261462b565b6146a08185614636565b93506146ab83614647565b8060005b838110156146dc5781516146c38882614666565b97506146ce8361467e565b9250506001810190506146af565b5085935050505092915050565b60006020820190508181036000830152614703818461468b565b905092915050565b600067ffffffffffffffff8211156147265761472561420e565b5b61472f826140f8565b9050602081019050919050565b600061474f61474a8461470b565b61426e565b90508281526020810184848401111561476b5761476a614351565b5b614776848285614387565b509392505050565b600082601f83011261479357614792614209565b5b81356147a384826020860161473c565b91505092915050565b6000602082840312156147c2576147c1613ec2565b5b600082013567ffffffffffffffff8111156147e0576147df613ec7565b5b6147ec8482850161477e565b91505092915050565b6000819050919050565b614808816147f5565b82525050565b60006060820190506148236000830186614164565b61483060208301856147ff565b81810360408301526148428184614109565b9050949350505050565b614855816147f5565b811461486057600080fd5b50565b6000813590506148728161484c565b92915050565b6000806000806080858703121561489257614891613ec2565b5b600085013567ffffffffffffffff8111156148b0576148af613ec7565b5b6148bc8782880161477e565b94505060206148cd87828801613f4b565b93505060406148de87828801613f4b565b92505060606148ef87828801614863565b91505092959194509250565b600080600080600060a0868803121561491757614916613ec2565b5b600061492588828901613f15565b955050602061493688828901613f15565b945050604061494788828901613f4b565b935050606061495888828901613f4b565b925050608086013567ffffffffffffffff81111561497957614978613ec7565b5b614985888289016143d8565b9150509295509295909350565b6000806000606084860312156149ab576149aa613ec2565b5b60006149b986828701613f15565b935050602084013567ffffffffffffffff8111156149da576149d9613ec7565b5b6149e686828701614323565b925050604084013567ffffffffffffffff811115614a0757614a06613ec7565b5b614a1386828701614323565b9150509250925092565b614a268161404f565b8114614a3157600080fd5b50565b600081359050614a4381614a1d565b92915050565b60008060408385031215614a6057614a5f613ec2565b5b6000614a6e85828601613f15565b9250506020614a7f85828601614a34565b9150509250929050565b600081519050919050565b600082825260208201905092915050565b6000819050602082019050919050565b614abe81613eec565b82525050565b614acd816147f5565b82525050565b600082825260208201905092915050565b6000614aef826140b2565b614af98185614ad3565b9350614b098185602086016140ce565b614b12816140f8565b840191505092915050565b6000606083016000830151614b356000860182614ab5565b506020830151614b486020860182614ac4565b5060408301518482036040860152614b608282614ae4565b9150508091505092915050565b6000614b798383614b1d565b905092915050565b6000602082019050919050565b6000614b9982614a89565b614ba38185614a94565b935083602082028501614bb585614aa5565b8060005b85811015614bf15784840389528151614bd28582614b6d565b9450614bdd83614b81565b925060208a01995050600181019050614bb9565b50829750879550505050505092915050565b60006020820190508181036000830152614c1d8184614b8e565b905092915050565b600067ffffffffffffffff821115614c4057614c3f61420e565b5b602082029050602081019050919050565b6000614c64614c5f84614c25565b61426e565b90508083825260208201905060208402830185811115614c8757614c866142b5565b5b835b81811015614cb05780614c9c8882614863565b845260208401935050602081019050614c89565b5050509392505050565b600082601f830112614ccf57614cce614209565b5b8135614cdf848260208601614c51565b91505092915050565b60008060008060808587031215614d0257614d01613ec2565b5b600085013567ffffffffffffffff811115614d2057614d1f613ec7565b5b614d2c8782880161477e565b945050602085013567ffffffffffffffff811115614d4d57614d4c613ec7565b5b614d5987828801614323565b935050604085013567ffffffffffffffff811115614d7a57614d79613ec7565b5b614d8687828801614323565b925050606085013567ffffffffffffffff811115614da757614da6613ec7565b5b614db387828801614cba565b91505092959194509250565b60008060408385031215614dd657614dd5613ec2565b5b6000614de485828601613f15565b9250506020614df585828601613f15565b9150509250929050565b600080600060608486031215614e1857614e17613ec2565b5b6000614e2686828701613f15565b9350506020614e3786828701613f4b565b9250506040614e4886828701613f4b565b9150509250925092565b7f455243313135353a2062616c616e636520717565727920666f7220746865207a60008201527f65726f2061646472657373000000000000000000000000000000000000000000602082015250565b6000614eae602b836140bd565b9150614eb982614e52565b604082019050919050565b60006020820190508181036000830152614edd81614ea1565b9050919050565b7f4e487b7100000000000000000000000000000000000000000000000000000000600052602260045260246000fd5b60006002820490506001821680614f2b57607f821691505b602082108103614f3e57614f3d614ee4565b5b50919050565b7f4f776e61626c653a2063616c6c6572206973206e6f7420746865206f776e6572600082015250565b6000614f7a6020836140bd565b9150614f8582614f44565b602082019050919050565b60006020820190508181036000830152614fa981614f6d565b9050919050565b6000604082019050614fc56000830185614164565b614fd26020830184614164565b9392505050565b7f4e487b7100000000000000000000000000000000000000000000000000000000600052601160045260246000fd5b600061501382613f2a565b915061501e83613f2a565b925082820261502c81613f2a565b9150828204841483151761504357615042614fd9565b5b5092915050565b7f4e487b7100000000000000000000000000000000000000000000000000000000600052601260045260246000fd5b600061508482613f2a565b915061508f83613f2a565b92508261509f5761509e61504a565b5b828204905092915050565b7f455243313135353a207472616e736665722063616c6c6572206973206e6f742060008201527f6f776e6572206e6f7220617070726f7665640000000000000000000000000000602082015250565b60006151066032836140bd565b9150615111826150aa565b604082019050919050565b60006020820190508181036000830152615135816150f9565b9050919050565b7f45524331313535456e756d657261626c653a206f776e657220696e646578206f60008201527f7574206f6620626f756e64730000000000000000000000000000000000000000602082015250565b6000615198602c836140bd565b91506151a38261513c565b604082019050919050565b600060208201905081810360008301526151c78161518b565b9050919050565b6000815190506151dd81613efe565b92915050565b6000602082840312156151f9576151f8613ec2565b5b6000615207848285016151ce565b91505092915050565b7f455243313135353a206163636f756e747320616e6420696473206c656e67746860008201527f206d69736d617463680000000000000000000000000000000000000000000000602082015250565b600061526c6029836140bd565b915061527782615210565b604082019050919050565b6000602082019050818103600083015261529b8161525f565b9050919050565b7f4e487b7100000000000000000000000000000000000000000000000000000000600052603260045260246000fd5b60006152dc82613f2a565b91507fffffffffffffffffffffffffffffffffffffffffffffffffffffffffffffffff820361530e5761530d614fd9565b5b600182019050919050565b7f45524331313535456e756d657261626c653a20676c6f62616c20696e6465782060008201527f6f7574206f6620626f756e647300000000000000000000000000000000000000602082015250565b6000615375602d836140bd565b915061538082615319565b604082019050919050565b600060208201905081810360008301526153a481615368565b9050919050565b60006040820190506153c060008301856147ff565b6153cd6020830184614164565b9392505050565b600063ffffffff82169050919050565b60006153ef826153d4565b915063ffffffff820361540557615404614fd9565b5b600182019050919050565b60008190508160005260206000209050919050565b60006020601f8301049050919050565b600082821b905092915050565b6000600883026154727fffffffffffffffffffffffffffffffffffffffffffffffffffffffffffffffff82615435565b61547c8683615435565b95508019841693508086168417925050509392505050565b6000819050919050565b60006154b96154b46154af84613f2a565b615494565b613f2a565b9050919050565b6000819050919050565b6154d38361549e565b6154e76154df826154c0565b848454615442565b825550505050565b600090565b6154fc6154ef565b6155078184846154ca565b505050565b5b8181101561552b576155206000826154f4565b60018101905061550d565b5050565b601f8211156155705761554181615410565b61554a84615425565b81016020851015615559578190505b61556d61556585615425565b83018261550c565b50505b505050565b600082821c905092915050565b600061559360001984600802615575565b1980831691505092915050565b60006155ac8383615582565b9150826002028217905092915050565b6155c5826140b2565b67ffffffffffffffff8111156155de576155dd61420e565b5b6155e88254614f13565b6155f382828561552f565b600060209050601f8311600181146156265760008415615614578287015190505b61561e85826155a0565b865550615686565b601f19841661563486615410565b60005b8281101561565c57848901518255600182019150602085019450602081019050615637565b868310156156795784890151615675601f891682615582565b8355505b6001600288020188555050505b505050505050565b60006060820190506156a360008301866147ff565b6156b06020830185614164565b6156bd6040830184613fa0565b949350505050565b7f455243313135353a2063616c6c6572206973206e6f7420746f6b656e206f776e60008201527f6572206f7220617070726f766564000000000000000000000000000000000000602082015250565b6000615721602e836140bd565b915061572c826156c5565b604082019050919050565b6000602082019050818103600083015261575081615714565b9050919050565b60008151905061576681613f34565b92915050565b60006020828403121561578257615781613ec2565b5b600061579084828501615757565b91505092915050565b7f496e76616c6964206172726179206c656e677468000000000000000000000000600082015250565b60006157cf6014836140bd565b91506157da82615799565b602082019050919050565b600060208201905081810360008301526157fe816157c2565b9050919050565b7f43616c63756c6174696f6e206572726f72206f66206469760000000000000000600082015250565b600061583b6018836140bd565b915061584682615805565b602082019050919050565b6000602082019050818103600083015261586a8161582e565b9050919050565b7f455243313135353a2063616c6c6572206973206e6f74206f776e6572206e6f7260008201527f20617070726f7665640000000000000000000000000000000000000000000000602082015250565b60006158cd6029836140bd565b91506158d882615871565b604082019050919050565b600060208201905081810360008301526158fc816158c0565b9050919050565b7f4f776e61626c653a206e6577206f776e657220697320746865207a65726f206160008201527f6464726573730000000000000000000000000000000000000000000000000000602082015250565b600061595f6026836140bd565b915061596a82615903565b604082019050919050565b6000602082019050818103600083015261598e81615952565b9050919050565b7f455243313135353a2069647320616e6420616d6f756e7473206c656e6774682060008201527f6d69736d61746368000000000000000000000000000000000000000000000000602082015250565b60006159f16028836140bd565b91506159fc82615995565b604082019050919050565b60006020820190508181036000830152615a20816159e4565b9050919050565b7f455243313135353a207472616e7366657220746f20746865207a65726f20616460008201527f6472657373000000000000000000000000000000000000000000000000000000602082015250565b6000615a836025836140bd565b9150615a8e82615a27565b604082019050919050565b60006020820190508181036000830152615ab281615a76565b9050919050565b7f455243313135353a20696e73756666696369656e742062616c616e636520666f60008201527f72207472616e7366657200000000000000000000000000000000000000000000602082015250565b6000615b15602a836140bd565b9150615b2082615ab9565b604082019050919050565b60006020820190508181036000830152615b4481615b08565b9050919050565b6000615b5682613f2a565b9150615b6183613f2a565b9250828201905080821115615b7957615b78614fd9565b5b92915050565b60006040820190508181036000830152615b99818561468b565b90508181036020830152615bad818461468b565b90509392505050565b7f455243313135353a206d696e7420746f20746865207a65726f2061646472657360008201527f7300000000000000000000000000000000000000000000000000000000000000602082015250565b6000615c126021836140bd565b9150615c1d82615bb6565b604082019050919050565b60006020820190508181036000830152615c4181615c05565b9050919050565b6000604082019050615c5d6000830185613fa0565b615c6a6020830184613fa0565b9392505050565b7f455243313135353a206275726e2066726f6d20746865207a65726f206164647260008201527f6573730000000000000000000000000000000000000000000000000000000000602082015250565b6000615ccd6023836140bd565b9150615cd882615c71565b604082019050919050565b60006020820190508181036000830152615cfc81615cc0565b9050919050565b7f455243313135353a206275726e20616d6f756e7420657863656564732062616c60008201527f616e636500000000000000000000000000000000000000000000000000000000602082015250565b6000615d5f6024836140bd565b9150615d6a82615d03565b604082019050919050565b60006020820190508181036000830152615d8e81615d52565b9050919050565b6000615da082613f2a565b9150615dab83613f2a565b9250828203905081811115615dc357615dc2614fd9565b5b92915050565b7f455243313135353a2073657474696e6720617070726f76616c2073746174757360008201527f20666f722073656c660000000000000000000000000000000000000000000000602082015250565b6000615e256029836140bd565b9150615e3082615dc9565b604082019050919050565b60006020820190508181036000830152615e5481615e18565b9050919050565b600081519050919050565b600082825260208201905092915050565b6000615e8282615e5b565b615e8c8185615e66565b9350615e9c8185602086016140ce565b615ea5816140f8565b840191505092915050565b600060a082019050615ec56000830188614164565b615ed26020830187614164565b8181036040830152615ee4818661468b565b90508181036060830152615ef8818561468b565b90508181036080830152615f0c8184615e77565b90509695505050505050565b600081519050615f2781613ff6565b92915050565b600060208284031215615f4357615f42613ec2565b5b6000615f5184828501615f18565b91505092915050565b60008160e01c9050919050565b600060033d1115615f865760046000803e615f83600051615f5a565b90505b90565b600060443d1061601657615f9b613eb8565b60043d036004823e80513d602482011167ffffffffffffffff82111715615fc3575050616016565b808201805167ffffffffffffffff811115615fe15750505050616016565b80602083010160043d038501811115615ffe575050505050616016565b61600d8260200185018661423d565b82955050505050505b90565b7f455243313135353a207472616e7366657220746f206e6f6e204552433131353560008201527f526563656976657220696d706c656d656e746572000000000000000000000000602082015250565b60006160756034836140bd565b915061608082616019565b604082019050919050565b600060208201905081810360008301526160a481616068565b9050919050565b7f455243313135353a204552433131353552656365697665722072656a6563746560008201527f6420746f6b656e73000000000000000000000000000000000000000000000000602082015250565b60006161076028836140bd565b9150616112826160ab565b604082019050919050565b60006020820190508181036000830152616136816160fa565b9050919050565b600060a0820190506161526000830188614164565b61615f6020830187614164565b61616c6040830186613fa0565b6161796060830185613fa0565b818103608083015261618b8184615e77565b90509695505050505050565b7f4e487b7100000000000000000000000000000000000000000000000000000000600052603160045260246000fdfea26469706673582212209d3090ef9c0e312f1ee43feafd9fcddec1a30041c94cf811a598395419c2b3df64736f6c63430008110033",
  "linkReferences": {},
  "deployedLinkReferences": {}
}